:100000004DC3000091C300008FC300008DC30000EA
:100010008BC3000089C300000EC400003FC4000071
:1000200070C40000A1C400007FC300007DC30000B5
:100030007BC3000079C30000A6C50000DCC500003A
:1000400012C6000048C600007EC60000B4C600000C
:10005000EAC6000020C7000056C700008CC7000099
:1000600063C3000061C300005FC300005DC3000004
:100070005BC3000059C3000057C3000055C3000014
:1000800053C3000051C300004FC300004DC3000024
:100090004BC3000049C3000047C3000045C3000034
:1000A00043C3000041C300003FC300003DC3000044
:1000B0003BC3000039C3000037C300000C94230A7F
:1000C0000C945B0A0C94930A0C94CB0A0C94030BCB
:1000D0000C943B0B29C3000027C3000025C300007C
:1000E00023C3000021C300001FC300001DC3000084
:1000F0001BC3000019C3000017C3000015C3000094
:1001000013C3000011C300000FC300000DC30000A3
:100110000BC3000009C3000007C3000005C30000B3
:1001200003C3000001C30000FFC20000FDC20000C5
:10013000FBC2000058C700008EC70000C4C7000003
:10014000FAC700000C94D3080C940B090C944309D3
:100150000C947B090C94B3090C94EB09E5C20000E4
:10016000E3C20000E1C20000DFC20000DDC2000007
:10017000DBC20000D9C20000D7C20000D5C2000017
:10018000D3C20000D1C20000CFC20000CDC2000027
:10019000CBC20000C9C20000C7C20000C5C2000037
:1001A000C3C20000C1C20000BFC20000BDC2000047
:1001B000BBC20000B9C20000B7C20000B5C2000057
:1001C000B3C20000B1C20000AFC20000ADC2000067
:1001D000ABC20000A9C20000A7C20000A5C2000077
:1001E000A3C20000A1C200009FC200009DC2000087
:1001F0009BC200000C94AA1997C200005C132B1339
:10020000BE122B13BE121913FA12BE12F112D4121F
:10021000572B662B882B992B1E2BBE2BC92BD82B2B
:10022000F12B082C1F2C2C2B422BBF377837BF37D4
:1002300078373B374F366C36C636A83FAD3FB23FB6
:10024000B73FBC3F773F863FC43F863F863F863FF0
:10025000903F07634236B79BD8A71A39685618AE45
:10026000BAAB558C1D3CB7CC5763BD6DEDFD753EEB
:10027000F6177231BF000000803F05A84CCDB2D404
:100280004EB93836A9020C50B9918688083CA6AA06
:10029000AA2ABE000000803F08000000BE92244948
:1002A000123EABAAAA2ABECDCCCC4C3E00000080A8
:1002B000BEABAAAAAA3E00000000BF000000803F1B
:1002C0000000000000084178D3BB4387D1133D19DB
:1002D0000E3CC3BD4282AD2B3E68EC8276BED98F08
:1002E000E1A93E4C80EFFFBE01C4FF7F3F0000004C
:1002F00000000101020202020303040505060708CB
:100300000A0B0D0F1215181C21262C333C46515E8A
:100310006E7F0101010101010101010101020202DF
:1003200002020202020202020202020303030303A8
:100330000303030404040404040405050505050679
:1003400006060606070707080808080909090A0A31
:100350000B0B0B0C0C0D0D0E0E0F101011111213B8
:1003600014141516171819191A1C1D1E1F202123E5
:10037000242527282A2B2D2F31333537393B3D4073
:100380004245474A4D5053565A5D6164686C7175D9
:100390007A7F000000FF0000FF1500FF2200FF2E03
:1003A00000FF3B00FF4400FF5000FF5D00FF6A00BC
:1003B000FF7700FF7F00FF8C00FF9900FFA500FF83
:1003C000B200FFBF00FFC700FFD400FFE100FFEE57
:1003D00000FFFA00FAFF00EDFF00E1FF00D4FF008C
:1003E000C7FF00BFFF00B2FF00A5FF0099FF008C10
:1003F000FF007FFF0077FF006AFF005DFF0050FFF6
:100400000043FF003BFF002EFF0021FF0015FF000F
:1004100008FF0000FF0000FF0C00FF1900FF26008E
:10042000FF3300FF3F00FF4800FF5400FF6100FF63
:100430006E00FF7B00FF8300FF9000FF9D00FFAA7E
:1004400000FFB600FFBF00FFCB00FFD800FFE500B4
:10045000FFF200FFFF00F6FF00E9FF00DCFF00D025
:10046000FF00C3FF00BBFF00AEFF00A1FF0094FF31
:100470000087FF007FFF0072FF0066FF0059FF004A
:100480004CFF003FFF0037FF002AFF001DFF001058
:10049000FF0004FF0400FF1000FF1D00FF2A00FF03
:1004A0003700FF3F00FF4C00FF5900FF6600FF725E
:1004B00000FF7F00FF8700FF9400FFA100FFAE0058
:1004C000FFBA00FFC300FFD000FFDD00FFE900FF1F
:1004D000F600FFFF00FFFF00F2FF00E5FF00D8FF7E
:1004E00000CCFF00BFFF00B6FF00A9FF009DFF008A
:1004F00090FF0083FF007BFF006EFF0061FF00554F
:10050000FF0048FF003FFF0032FF0026FF0019E117
:10051000F0F00000000000000000000000000000FB
:1005200000007F0000007F0000007F0000007F00CF
:100530000000000000007F000000000000007F00BD
:10054000000000000000000000000055007F0000D7
:100550007F007F00005500006400006E00007F00F7
:1005600000001455007F00007F0000007F00002382
:100570005555557F7F0000006E7F640000000055D8
:10058000555555146E007F0A6414002D7F006E2DA2
:100590004B237F007F007F006E7F007F007F7F0006
:1005A0007F007F007F7F7F007F7F7F007F7F7F7F57
:1005B0007F7F557F647F557F557F557F557F6E7F49
:1005C000647F1203360036003600360036003600EF
:1005D0003600410000002A034D00690064006900F4
:1005E0002000460069006700680074006500720022
:1005F00020005400770069007300740065007200E9
:1006000000001C0344004A00200054006500630001
:100610006800200054006F006F006C007300000041
:10062000040309040902650002010080F0090400C6
:100630000000010100000924010001090001010975
:10064000040100020103000007240100014100062B
:10065000240201010006240202020009240301030E
:10066000010201000924030204010101000905013E
:100670000240000000000525010101090582024039
:100680000000000005250101031201100100000017
:1006900040802507000100010200010011241FBE57
:1006A000CFEFCDBFDFE3DEBF00E00CBF18BE19BE49
:1006B0001ABE1BBE8091780083FF1CC08091AD38AC
:1006C0009091AE38A091AF38B091B0388A3C9C4A36
:1006D000A244BC4D79F41092AD381092AE3810920D
:1006E000AF381092B03881E08CBFE0910020F091DB
:1006F0000120199510E2A0E0B0E2E8EAF2EA00E099
:100700000BBF02C007900D92AA36B107D9F71BBEE6
:1007100028E3AAE6B0E201C01D92AD3AB207E1F7C4
:100720000E944F4C0C9452516BCC2FB7F894FC01A3
:10073000E059FF4F60958081682360832FBF089543
:100740001BBEFC0128ED24BF60830895CF93DF9387
:10075000482F50E0FA017196E295F295F07FFE275E
:10076000E07FFE279091040160910301DA01149665
:1007700021E030E0E901082E01C0CC0F0A94EAF72D
:100780000A2E01C0220F0A94EAF72C2B622370E094
:10079000EB010A2E02C0D595C7950A94E2F7C0FF77
:1007A00012C084E090E0218120632183440F551F13
:1007B000FA01E558F44D0190F081E02D309771F089
:1007C000DF91CF911994082E02C0759567950A9410
:1007D000E2F760FF06C083E090E0E5CFDF91CF91C4
:1007E0000895292330E0B90102C075956795AA954F
:1007F000E2F760FF03C082E090E0D5CFB90102C00C
:10080000759567958A95E2F7CB0181709927CBCFD3
:1008100061E080E090E089DF9FB7F894E5E7FBE2D4
:1008200081818F5F81839FBFE0E0F1E080E480837E
:1008300080E8808308951F920F920FB60F921124C3
:1008400008B60F9218BE09B60F9219BE0BB60F92DA
:100850001BBE2F933F934F935F936F937F938F9321
:100860009F93AF93BF93EF93FF9380E06FDFFF9170
:10087000EF91BF91AF919F918F917F916F915F9118
:100880004F913F912F910F900BBE0F9009BE0F908B
:1008900008BE0F900FBE0F901F9018951F920F92D9
:1008A0000FB60F92112408B60F9218BE09B60F9218
:1008B00019BE0BB60F921BBE2F933F934F935F93BE
:1008C0006F937F938F939F93AF93BF93EF93FF9318
:1008D00081E03CDFFF91EF91BF91AF919F918F91AC
:1008E0007F916F915F914F913F912F910F900BBE30
:1008F0000F9009BE0F9008BE0F900FBE0F901F9073
:1009000018951F920F920FB60F92112408B60F92EE
:1009100018BE09B60F9219BE0BB60F921BBE2F93CD
:100920003F934F935F936F937F938F939F93AF9377
:10093000BF93EF93FF9382E009DFFF91EF91BF91A7
:10094000AF919F918F917F916F915F914F913F9167
:100950002F910F900BBE0F9009BE0F9008BE0F9005
:100960000FBE0F901F9018951F920F920FB60F9207
:10097000112408B60F9218BE09B60F9219BE0BB615
:100980000F921BBE2F933F934F935F936F937F9371
:100990008F939F93AF93BF93EF93FF9383E0D6DE44
:1009A000FF91EF91BF91AF919F918F917F916F9147
:1009B0005F914F913F912F910F900BBE0F9009BE09
:1009C0000F9008BE0F900FBE0F901F901895DB017F
:1009D000E82FF0E07196E295F295F07FFE27E07F38
:1009E000FE279FB7F89419968C91199784871A96C9
:1009F0008C911A978587168617968C911797808702
:100A000018968C9118978187128612968C9112975E
:100A1000828313968C911397838314962D913C9126
:100A200015972483358316968C9116978683119695
:100A30008C91119781838C918F7780839FBF0895CC
:100A400086E38093CA0161E08BEC91E079CEFC01F2
:100A50009091CF0197FDFCCF8091CC01886080936D
:100A6000CC01F05F80819091CC01977F9093CC0175
:100A700008959C01FB019091CF0197FDFCCF9091CF
:100A8000CC0198609093CC01B901705FCF010E94B6
:100A900032518091CC01877F8093CC0108950F93D0
:100AA0001F93CF93DF93EC01062F1091CA01809121
:100AB000CF0187FDFCCF8091CF0181FD2AC08091BD
:100AC000CF0187FDFCCF8091CF0187FDFCCF8091C6
:100AD000CC0188608093CC01FE01FF27F05F00838A
:100AE0008091CC01877F8093CC011092C201D0937A
:100AF000C101C093C00185E38093CA0161E08BEC22
:100B000091E01EDE1093CA01DF91CF911F910F91EA
:100B1000089596DFD4CF2091CF0127FDFCCFDC01D3
:100B2000E0E0F0E19D918091CF0187FDFCCF8091C5
:100B3000CC0188608093CC0191938091CC01877F18
:100B40008093CC01E03280E1F80761F70895CF93FC
:100B50009091CF0197FDFCCF20E2829FC00111242C
:100B60001092C2019093C1018093C001C091CA014B
:100B700085E38093CA0161E08BEC91E0E1DDC093F5
:100B8000CA01CF9108951F920F920FB60F921124B0
:100B900008B60F9218BE09B60F9219BE0BB60F9287
:100BA0001BBE2F933F934F935F936F937F938F93CE
:100BB0009F93AF93BF93EF93FF93E0919C20F091AD
:100BC0009D20309709F01995FF91EF91BF91AF915A
:100BD0009F918F917F916F915F914F913F912F9155
:100BE0000F900BBE0F9009BE0F9008BE0F900FBE66
:100BF0000F901F9018951F920F920FB60F9211240D
:100C000008B60F9218BE09B60F9219BE0BB60F9216
:100C10001BBE2F933F934F935F936F937F938F935D
:100C20009F93AF93BF93EF93FF93E0919A20F0913E
:100C30009B20309709F01995FF91EF91BF91AF91EB
:100C40009F918F917F916F915F914F913F912F91E4
:100C50000F900BBE0F9009BE0F9008BE0F900FBEF5
:100C60000F901F9018951F920F920FB60F9211249C
:100C700008B60F9218BE09B60F9219BE0BB60F92A6
:100C80001BBE2F933F934F935F936F937F938F93ED
:100C90009F93AF93BF93EF93FF93E0919820F091D0
:100CA0009920309709F01995FF91EF91BF91AF917D
:100CB0009F918F917F916F915F914F913F912F9174
:100CC0000F900BBE0F9009BE0F9008BE0F900FBE85
:100CD0000F901F9018951F920F920FB60F9211242C
:100CE00008B60F9218BE09B60F9219BE0BB60F9236
:100CF0001BBE2F933F934F935F936F937F938F937D
:100D00009F93AF93BF93EF93FF93E0919620F09161
:100D10009720309709F01995FF91EF91BF91AF910E
:100D20009F918F917F916F915F914F913F912F9103
:100D30000F900BBE0F9009BE0F9008BE0F900FBE14
:100D40000F901F9018951F920F920FB60F921124BB
:100D500008B60F9218BE09B60F9219BE0BB60F92C5
:100D60001BBE2F933F934F935F936F937F938F930C
:100D70009F93AF93BF93EF93FF93E0919420F091F3
:100D80009520309709F01995FF91EF91BF91AF91A0
:100D90009F918F917F916F915F914F913F912F9193
:100DA0000F900BBE0F9009BE0F9008BE0F900FBEA4
:100DB0000F901F9018951F920F920FB60F9211244B
:100DC00008B60F9218BE09B60F9219BE0BB60F9255
:100DD0001BBE2F933F934F935F936F937F938F939C
:100DE0009F93AF93BF93EF93FF93E0919220F09185
:100DF0009320309709F01995FF91EF91BF91AF9132
:100E00009F918F917F916F915F914F913F912F9122
:100E10000F900BBE0F9009BE0F9008BE0F900FBE33
:100E20000F901F9018951F920F920FB60F921124DA
:100E300008B60F9218BE09B60F9219BE0BB60F92E4
:100E40001BBE2F933F934F935F936F937F938F932B
:100E50009F93AF93BF93EF93FF93E0919020F09116
:100E60009120309709F01995FF91EF91BF91AF91C3
:100E70009F918F917F916F915F914F913F912F91B2
:100E80000F900BBE0F9009BE0F9008BE0F900FBEC3
:100E90000F901F9018951F920F920FB60F9211246A
:100EA00008B60F9218BE09B60F9219BE0BB60F9274
:100EB0001BBE2F933F934F935F936F937F938F93BB
:100EC0009F93AF93BF93EF93FF93E0918E20F091A8
:100ED0008F20309709F01995FF91EF91BF91AF9155
:100EE0009F918F917F916F915F914F913F912F9142
:100EF0000F900BBE0F9009BE0F9008BE0F900FBE53
:100F00000F901F9018951F920F920FB60F921124F9
:100F100008B60F9218BE09B60F9219BE0BB60F9203
:100F20001BBE2F933F934F935F936F937F938F934A
:100F30009F93AF93BF93EF93FF93E0918C20F09139
:100F40008D20309709F01995FF91EF91BF91AF91E6
:100F50009F918F917F916F915F914F913F912F91D1
:100F60000F900BBE0F9009BE0F9008BE0F900FBEE2
:100F70000F901F9018951F920F920FB60F92112489
:100F800008B60F9218BE09B60F9219BE0BB60F9293
:100F90001BBE2F933F934F935F936F937F938F93DA
:100FA0009F93AF93BF93EF93FF93E0918A20F091CB
:100FB0008B20309709F01995FF91EF91BF91AF9178
:100FC0009F918F917F916F915F914F913F912F9161
:100FD0000F900BBE0F9009BE0F9008BE0F900FBE72
:100FE0000F901F9018951F920F920FB60F92112419
:100FF00008B60F9218BE09B60F9219BE0BB60F9223
:101000001BBE2F933F934F935F936F937F938F9369
:101010009F93AF93BF93EF93FF93E0918820F0915C
:101020008920309709F01995FF91EF91BF91AF9109
:101030009F918F917F916F915F914F913F912F91F0
:101040000F900BBE0F9009BE0F9008BE0F900FBE01
:101050000F901F9018951F920F920FB60F921124A8
:1010600008B60F9218BE09B60F9219BE0BB60F92B2
:101070001BBE2F933F934F935F936F937F938F93F9
:101080009F93AF93BF93EF93FF93E0918620F091EE
:101090008720309709F01995FF91EF91BF91AF919B
:1010A0009F918F917F916F915F914F913F912F9180
:1010B0000F900BBE0F9009BE0F9008BE0F900FBE91
:1010C0000F901F9018951F920F920FB60F92112438
:1010D00008B60F9218BE09B60F9219BE0BB60F9242
:1010E0001BBE2F933F934F935F936F937F938F9389
:1010F0009F93AF93BF93EF93FF93E0918420F09180
:101100008520309709F01995FF91EF91BF91AF912C
:101110009F918F917F916F915F914F913F912F910F
:101120000F900BBE0F9009BE0F9008BE0F900FBE20
:101130000F901F9018951F920F920FB60F921124C7
:1011400008B60F9218BE09B60F9219BE0BB60F92D1
:101150001BBE2F933F934F935F936F937F938F9318
:101160009F93AF93BF93EF93FF93E0918220F09111
:101170008320309709F01995FF91EF91BF91AF91BE
:101180009F918F917F916F915F914F913F912F919F
:101190000F900BBE0F9009BE0F9008BE0F900FBEB0
:1011A0000F901F9018951F920F920FB60F92112457
:1011B00008B60F9218BE09B60F9219BE0BB60F9261
:1011C0001BBE2F933F934F935F936F937F938F93A8
:1011D0009F93AF93BF93EF93FF93E0918020F091A3
:1011E0008120309709F01995FF91EF91BF91AF9150
:1011F0009F918F917F916F915F914F913F912F912F
:101200000F900BBE0F9009BE0F9008BE0F900FBE3F
:101210000F901F9018951F920F920FB60F921124E6
:1012200008B60F9218BE09B60F9219BE0BB60F92F0
:101230001BBE2F933F934F935F936F937F938F9337
:101240009F93AF93BF93EF93FF93E0917E20F09134
:101250007F20309709F01995FF91EF91BF91AF91E1
:101260009F918F917F916F915F914F913F912F91BE
:101270000F900BBE0F9009BE0F9008BE0F900FBECF
:101280000F901F9018951F920F920FB60F92112476
:1012900008B60F9218BE09B60F9219BE0BB60F9280
:1012A0001BBE2F933F934F935F936F937F938F93C7
:1012B0009F93AF93BF93EF93FF93E0917C20F091C6
:1012C0007D20309709F01995FF91EF91BF91AF9173
:1012D0009F918F917F916F915F914F913F912F914E
:1012E0000F900BBE0F9009BE0F9008BE0F900FBE5F
:1012F0000F901F9018951F920F920FB60F92112406
:1013000008B60F9218BE09B60F9219BE0BB60F920F
:101310001BBE2F933F934F935F936F937F938F9356
:101320009F93AF93BF93EF93FF93E0917A20F09157
:101330007B20309709F01995FF91EF91BF91AF9104
:101340009F918F917F916F915F914F913F912F91DD
:101350000F900BBE0F9009BE0F9008BE0F900FBEEE
:101360000F901F9018951F920F920FB60F92112495
:1013700008B60F9218BE09B60F9219BE0BB60F929F
:101380001BBE2F933F934F935F936F937F938F93E6
:101390009F93AF93BF93EF93FF93E0917820F091E9
:1013A0007920309709F01995FF91EF91BF91AF9196
:1013B0009F918F917F916F915F914F913F912F916D
:1013C0000F900BBE0F9009BE0F9008BE0F900FBE7E
:1013D0000F901F9018951F920F920FB60F92112425
:1013E00008B60F9218BE09B60F9219BE0BB60F922F
:1013F0001BBE2F933F934F935F936F937F938F9376
:101400009F93AF93BF93EF93FF93E0917620F0917A
:101410007720309709F01995FF91EF91BF91AF9127
:101420009F918F917F916F915F914F913F912F91FC
:101430000F900BBE0F9009BE0F9008BE0F900FBE0D
:101440000F901F9018951F920F920FB60F921124B4
:1014500008B60F9218BE09B60F9219BE0BB60F92BE
:101460001BBE2F933F934F935F936F937F938F9305
:101470009F93AF93BF93EF93FF93E0917420F0910C
:101480007520309709F01995FF91EF91BF91AF91B9
:101490009F918F917F916F915F914F913F912F918C
:1014A0000F900BBE0F9009BE0F9008BE0F900FBE9D
:1014B0000F901F9018951F920F920FB60F92112444
:1014C00008B60F9218BE09B60F9219BE0BB60F924E
:1014D0001BBE2F933F934F935F936F937F938F9395
:1014E0009F93AF93BF93EF93FF93E0917220F0919E
:1014F0007320309709F01995FF91EF91BF91AF914B
:101500009F918F917F916F915F914F913F912F911B
:101510000F900BBE0F9009BE0F9008BE0F900FBE2C
:101520000F901F9018951F920F920FB60F921124D3
:1015300008B60F9218BE09B60F9219BE0BB60F92DD
:101540001BBE2F933F934F935F936F937F938F9324
:101550009F93AF93BF93EF93FF93E0917020F0912F
:101560007120309709F01995FF91EF91BF91AF91DC
:101570009F918F917F916F915F914F913F912F91AB
:101580000F900BBE0F9009BE0F9008BE0F900FBEBC
:101590000F901F9018951F920F920FB60F92112463
:1015A00008B60F9218BE09B60F9219BE0BB60F926D
:1015B0001BBE2F933F934F935F936F937F938F93B4
:1015C0009F93AF93BF93EF93FF93E0916E20F091C1
:1015D0006F20309709F01995FF91EF91BF91AF916E
:1015E0009F918F917F916F915F914F913F912F913B
:1015F0000F900BBE0F9009BE0F9008BE0F900FBE4C
:101600000F901F9018951F920F920FB60F921124F2
:1016100008B60F9218BE09B60F9219BE0BB60F92FC
:101620001BBE2F933F934F935F936F937F938F9343
:101630009F93AF93BF93EF93FF93E0916C20F09152
:101640006D20309709F01995FF91EF91BF91AF91FF
:101650009F918F917F916F915F914F913F912F91CA
:101660000F900BBE0F9009BE0F9008BE0F900FBEDB
:101670000F901F9018951F920F920FB60F92112482
:1016800008B60F9218BE09B60F9219BE0BB60F928C
:101690001BBE2F933F934F935F936F937F938F93D3
:1016A0009F93AF93BF93EF93FF93E0916A20F091E4
:1016B0006B20309709F01995FF91EF91BF91AF9191
:1016C0009F918F917F916F915F914F913F912F915A
:1016D0000F900BBE0F9009BE0F9008BE0F900FBE6B
:1016E0000F901F901895CF93CFB7F894811528E0ED
:1016F000920729F1803428E0920761F1811529E0F1
:10170000920751F1803429E0920789F181159A40BE
:1017100019F0CFBFCF91089561E085E090E005D842
:1017200064E085E090E001D89FB7F8948091762B33
:101730008F5F8093762B9FBFCFBFCF91089561E0DD
:1017400083E090E00E94950364E083E090E00E94D3
:101750009503EACF62E0F4CF61E084E090E00E947C
:10176000950364E084E090E00E949503DDCF62E0A1
:10177000F4CF811528E09207D1F0803428E0920759
:10178000D9F0811529E09207E1F0803429E0920731
:1017900049F081159A4009F0089560937020709384
:1017A0007120089560937820709379200895609354
:1017B000982070939920089560938C2070938D20C9
:1017C000089560938420709385200895811528E002
:1017D0009207D1F0803428E09207D9F0811529E0F2
:1017E0009207E1F0803429E0920749F081159A4090
:1017F00009F0089560936E2070936F2008956093B0
:1018000076207093772008956093962070939720A8
:10181000089560938A2070938B20089560938220AE
:101820007093832008950F931F93CF93DF9300D07D
:10183000CDB7DEB78A839B838B01009709F4B4C0D0
:10184000803C910509F451C12A813B812115344026
:1018500009F451C1EA81FB81E038F14009F451C13A
:101860008A819B818115914009F451C12A813B8174
:101870002038334009F451C1EA81FB81E115F2407F
:1018800009F457C18A819B818032934009F457C182
:101890002A813B812115384009F457C1EA81FB8137
:1018A000E115F94009F457C18A819B8181159A405D
:1018B00009F457C12A813B812034384009F457C1CB
:1018C000EA81FB81E034F94009F457C18A819B81A8
:1018D0008039984009F4FDC02A813B812039394084
:1018E00009F4FDC0EA81FB81E039FA4009F44BC1FB
:1018F0008A819B81803C984009F44BC12A813B81BD
:10190000203C394009F44BC1EA81FB81E03AF840C0
:1019100009F44BC12A813B81203A394009F453C173
:10192000EA81FB81E03AFA4009F453C18A819B8144
:10193000803B984009F453C12A813B81203B3940C8
:1019400009F45DC1EA81FB81E038F44041F18A810C
:101950009B81803A944009F4E6C0EA81FB8184814E
:101960008F7E8483FB01948192502A813B81203AAF
:10197000384009F0A5C080914E0684FD98C0E1E191
:10198000E983E0E4F6E02981277081E001C0880F57
:101990002A95EAF781839230F8F490E41EC060E45F
:1019A00083E090E00E949503EA81FB8184818F7E31
:1019B0008483F80194819250EA81FB81E03AF940F6
:1019C00009F057C080916E0684FF74C080E2E0E6A3
:1019D000F6E08183923008F390E08093B000908B22
:1019E0008583EA81FB818581806C8583F801848110
:1019F0008D7FEA81FB81813009F452C085818D7F22
:101A00008583F8018581EA81FB81882309F444C03C
:101A1000858184608583F80180819181A281B38171
:101A20008115F4E29F07F4EFAF07B105E8F59C01DB
:101A3000AD01220F331F441F551F60E078E488EE8C
:101A400091E00E94E45021503109832F8F70EA8188
:101A5000FB8187832683848188608483848180617D
:101A600084832396CDBFDEBFDF91CF911F910F916D
:101A70000895EA81FB81E03B29E0F20709F4A6CF53
:101A8000E03AFA4009F07DCF80918E0684FF14C0C1
:101A900080E2E0E8F6E09DCF85818B7F8583BBCF38
:101AA000858182608583ADCF20E080E0D0CFF5E1F5
:101AB000F98367CF82E08BCF82E0E0E8F6E089CF60
:101AC0002A813B81203B384009F076CF85E189832C
:101AD00058CF64E083E090E00E94950365CF64E016
:101AE00084E090E00E9495035FCF60E180E090E0A9
:101AF0000E94950359CF64E080E090E00E94950336
:101B000053CF62E080E090E00E9495034DCF61E00A
:101B100080E090E00E94950347CF61E081E090E093
:101B20000E94950341CF60E485E090E00E94950318
:101B30003BCF62E081E090E00E94950335CF64E006
:101B400082E090E00E9495032FCF61E083E090E077
:101B50000E94950329CF61E084E090E00E94950304
:101B600023CF61E085E090E00E9495031DCF62E005
:101B700083E090E00E94950317CF62E084E090E05C
:101B80000E94950311CF64E085E090E00E949503E8
:101B90000BCF68E083E090E00E94950305CF68E0FA
:101BA00084E090E00E949503FFCE60E183E090E046
:101BB0000E9495038091A4088F7E8093A408F80169
:101BC00094819250D8CE60E184E090E00E94950329
:101BD000EBCE60E185E090E00E949503E5CE60E207
:101BE00083E090E00E9495038091B4088F7E8093FB
:101BF000B408F80194819250F5E1F983C2CE60E215
:101C000084E090E00E949503CFCE90918000880FF1
:101C1000880F682F6C7392709160692B80E890E058
:101C20000E94A0038091820080FDFCCF0895609106
:101C300080006C7F616080E890E00C94A00360916C
:101C400080006C73636080E890E00E94A003809144
:101C5000820080FDFCCF089563E080E890E00E9460
:101C6000A0038091820080FDFCCF6BE281E890E0D0
:101C70000E94A0038091820080FDFCCFA895FFCF39
:101C80006F927F928F929F92AF92BF92CF92DF928C
:101C9000EF92FF920F931F93CF93DF93CDB7DEB7F1
:101CA000C055D109CDBFDEBF833008F462C0FB014F
:101CB0009081B180911170C0863008F45AC0BB2069
:101CC00009F457C09281992309F453C0248130E06C
:101CD00090E00497281739070CF04BC06B2D70E08B
:101CE000615071098B011595079515950795159507
:101CF0000795159507956F707727CE0101967C01A2
:101D00008FE0D7011D928A95E9F7D701AE01405FB8
:101D10005F4F80E88D934A175B07E1F76901B1E0F7
:101D2000CB1AD1081C141D04ECF4359640E020E0D9
:101D300030E02E0F3F1FD9019C919A509F3060F4E4
:101D40009701290F311DC90121E0240FDF01A20FE6
:101D5000B11D2C91DC012C934E5F242F30E02C150B
:101D60003D053CF3A701802F0E9473320E94314150
:101D7000A895C05BDF4FCDBFDEBFDF91CF911F9134
:101D80000F91FF90EF90DF90CF90BF90AF909F901A
:101D90008F907F906F900895913059F78B2D90E040
:101DA0000197BC016F70707877FDE2C097FDDEC0CF
:101DB000959587959595879595958795959587950B
:101DC000AE014E5B5F4F0E94132D8AE08CA32396D9
:101DD0008FAD23978DA38BE08EA324968FAD249790
:101DE0008FA38CE088A725968FAD259789A78DE0D6
:101DF0008AA726968FAD26978F5F8BA78EE08CA73C
:101E000027968FAD27978DA78FE08EA71FA680E11D
:101E100088AB29968FAD29978F5F89AB81E18AAB1B
:101E20002A968FAD2A978BAB82E18CAB2B968FAD28
:101E30002B978DAB83E18EAB2C968FAD2C978FAB10
:101E400084E188AF2D968FAD2D9789AF85E18AAF5C
:101E50002E968FAD2E978BAF86E18CAF2F968FADE0
:101E60002F978DAF87E18EAF60968FAD60978FAF64
:101E700088E121968FAF219761968FAD6197229669
:101E80008FAF22978FEF8B0D803408F06BC032E05C
:101E9000A32E4EE1C42E10E0DD24D3949E012F5FCB
:101EA0003F4F790180EF682E7724739499E7892E4C
:101EB00024E0922E07EF8C2D38E13C1508F488E1E0
:101EC00098EEC90E69821A827B828C829D821E8264
:101ED000BF82D886A9868A870B870C870D870E87D5
:101EE0000F87088B098B0A8B0B8B0C8B0D8B0E8B42
:101EF0000F8B088F098F0A8F0B8F0C8F0D8F0E8F12
:101F00000F8F08A309A30AA30BA3682F70E0675FD4
:101F10007F4F69307105B9F0412F9AE02AE030E037
:101F20001F5FD701A20FB31FE4E2F0E0EC0FFD1F2B
:101F3000E40FF11D40814C939F5F292F30E0412F2A
:101F4000621773076CF7B701855F0E94F33E8091BB
:101F50005E3890915F3878D2A895D394AD1408F08C
:101F6000AACF07CFAA24A394C12C95CF0F9620CF38
:101F700061507109606F7F6F6F5F7F4F17CFCF9395
:101F8000DF93CDB7DEB76F97CDBFDEBFF8940E9469
:101F9000FF2AFC01789480EF89831A8281E08B8389
:101FA00099E79C8322E02D838E831F8290915A2F84
:101FB0009F5F9887898784858A872B8780818C8714
:101FC00083E08D8782818E8784E08F878481888BF0
:101FD00085E0898B86818A8B86E08B8B80858C8BD4
:101FE00087E08D8B82858E8B88E08F8B8091592F37
:101FF000888F89E0898F8091522F8A8F8FE18B8F14
:102000008091832B8C8F80E28D8F8091582F8E8FC3
:1020100087EF8F8FBE016F5F7F4F8FE10E94F33E8E
:102020006F96CDBFDEBFDF91CF910895882319F061
:10203000FB01808181110895A2CFCF93DF93CDB7AB
:10204000DEB72D97CDBFDEBFF89481E090E00E940F
:10205000270580935A2F83E090E00E94270591E0A6
:10206000811101C090E09D8784E090E00E942705E7
:1020700090E089839A8385E090E00E94270590E0B4
:102080008B839C8386E090E00E94270590E08D83FF
:102090009E8387E090E00E94270590E08F839887D9
:1020A00088E090E00E94270590E089879A8789E080
:1020B00090E00E94270590E08B879C878AE090E063
:1020C0000E9427058093592F8BE090E00E942705FE
:1020D0008093522F8CE090E00E9427058093832B01
:1020E0008DE090E00E9427058093582FCE01019645
:1020F0000E94D42A78942D96CDBFDEBFDF91CF9178
:1021000008957F928F929F92AF92BF92CF92DF926B
:10211000EF92FF920F931F93CF93DF93CDB7DEB76C
:102120002C97CDBFDEBFD82E8B0181DDCE0101966D
:102130007C018CE0F70111928A95E9F76D2D70E032
:1021400061507109161617060CF085C090E020E06A
:1021500030E00EC0F701E20FF11DD801A40FB11D50
:102160008C9180839E5F292F30E0261737077CF4FF
:1021700041E0490FF801E20FF31F20812A3050F3AC
:102180002F3180F3ECEEFFEFEC0FFD1FE4CF698100
:1021900061507A808B809C80AD80BE80CF80D88457
:1021A000E984FA840B851C8581E090E00E944F054C
:1021B000672D83E090E00E944F05682D84E090E059
:1021C0000E944F05692D85E090E00E944F056A2D21
:1021D00086E090E00E944F056B2D87E090E00E9422
:1021E0004F056C2D88E090E00E944F056D2D89E031
:1021F00090E00E944F056E2D8AE090E00E944F050E
:102200006F2D8BE090E00E944F05602F8CE090E0F6
:102210000E944F05612F8DE090E00E944F0560E025
:102220007FEF80E090E00E942E4607DF0E946C2D39
:10223000A6DE2C96CDBFDEBFDF91CF911F910F910F
:10224000FF90EF90DF90CF90BF90AF909F908F90D6
:102250007F900C942E3610E000E0F12CE12CD12C74
:10226000C12CB12CA12C912C812C712C6FEF9CCF07
:10227000F89467E080E090E00E944F0563E081E021
:1022800090E00E944F0561E083E090E00E944F05DE
:1022900060E084E090E00E944F0567E085E090E018
:1022A0000E944F0560E086E090E00E944F0560E0EC
:1022B00087E090E00E944F0566E088E090E00E9491
:1022C0004F0560E089E090E00E944F056FE38AE0EF
:1022D00090E00E944F056FE78BE090E00E944F0571
:1022E0006FE78CE090E00E944F056FE78DE090E093
:1022F0000E944F0578940C94FA2D882301F1FB017C
:1023000080818130F1F08230D9F491DCB1DF87E057
:102310008093A2006FEF7FEF80E090E00E942E4656
:10232000A8D72FEF8FE493EC215080409040E1F745
:1023300000C0000081E090E068DC81DCFFCF089500
:10234000089575DC96D72FEF8FE493EC21508040F1
:102350009040E1F700C000001CC061E870E181E03E
:102360000E94372966E170E182E00E9437296DE71B
:1023700071E183E00E94372960E47EE084E00E94FE
:10238000372980E090E00E942705873009F070CF60
:1023900008956FD7F89480E02FEF3FE891E0215047
:1023A00030409040E1F700C000008F5F8038A1F717
:1023B0008AEC9CEAA2E4BCED8093AD389093AE38F1
:1023C000A093AF38B093B03847CCCF93DF93EC01F4
:1023D0001B8682E08C83898761E0CE010196D7D588
:1023E000811104C080E0DF91CF91089561E0CE01BA
:1023F0000696DF91CF91CBC5CF93DF939C0190914F
:102400008B2F943021F082E0DF91CF910895EB0182
:10241000F901818105D540E050E064E070E0CE0133
:10242000C4D18111F1CF8091942F9091952FFC010F
:10243000EF5BFF4F208131978081281710F480E0F7
:10244000E3CF51D480E0E0CF9C0190918B2F94306A
:1024500011F082E00895F9018181E2D48091982FF2
:1024600087FD13C02091942F3091952FF901E05CE6
:10247000FF4F80813196208190E0821B9109892B4A
:1024800011F480E008952FD477C6E091942FF09155
:10249000952FEF5BFF4F808190E0F1CFCF93DF93DB
:1024A0009C0190918B2F943019F0DF91CF9108957A
:1024B000E9018981B5D42FD38823B9F3CE01DF9107
:1024C000CF91C2CF0F931F93CF939C0190918B2FED
:1024D000943031F0C0E08C2FCF911F910F9108956F
:1024E0008B01F90186819CD440D3C82F882391F3B6
:1024F0008091942F9091952FFC01EF5BFF4F2081ED
:1025000031978081281730F740E050E064E070E0B8
:10251000C80199D18091942F9091952FFC01EF5B88
:10252000FF4F2081319780812817A8F2F5D3D3CFB0
:10253000EF92FF920F931F93CF93DF93CDB7DEB748
:10254000EA97CDBFDEBF0CE81FE284E9E82E8FE2F8
:10255000F82E46D4F80181938F01EE16FF06C9F7D5
:102560000E94A64C2DD3882349F020918C2F3091C6
:102570008D2F832F90E08A30910578F021D3882326
:1025800011F049D3D8D3EA96CDBFDEBFDF91CF910A
:102590001F910F91FF90EF900895FC018827E25062
:1025A000FF4F8F4F0C9406512111E8CF80918E2F51
:1025B00090918F2F992702970CF72DD380918E2F12
:1025C0008093872F6ED58091872F8111D4C0809101
:1025D000C3048111D0C081E080938B2F0E948C4C6A
:1025E000CDCF203859F617D38091872F09D47BD3CC
:1025F00058D5C4CF2058223008F0C0CF80918E2FFC
:1026000090918F2F8C3DE3E09E0709F486C0AE01C8
:102610004F5F5F4F6091902F0E940A408C01892B81
:1026200009F4ACCFF8D2B80189819A81DBD174D397
:10263000A5CF2111A3CF10918E2F1F77ECD231D5CA
:102640006AD28823E9F31093C304111164C082E0B5
:1026500080938B2F93CF222309F449C0223009F0B5
:102660008DCF80918E2F811122C0E091902F1E2F4F
:102670001F7009F483CF812FD3D380918D2F8330A6
:1026800009F47BC0E091962FF091972F81818B7F89
:10269000818324E8129FF0011124E652F04D10824C
:1026A000E091962FF091972F80818E7F808380E03C
:1026B000B7D3B1D2F6D462CF203829F1223809F04D
:1026C0005DCF8091902F8F70ABD3E091962FF091DA
:1026D000972F118112FB112710F980E0A1D39BD213
:1026E000812F8ED380E08CD3FED2DBD447CF809174
:1026F0008E2F813009F042CF81E0333009F080E045
:102700008093892FD4CF1091882F8091892F88238F
:1027100031F31260E4CF83E09BCF83E08A838AE3C6
:1027200089835FB7F894DE01139620E038E042E039
:1027300007C090E0C7968D939D932F5F2C3191F049
:102740004093CA01E32FF0E084911092CA0120FF68
:1027500003C082958F703F5F8F708A3050F790E092
:10276000C096E9CF5FBF57D26AE370E0CE01019611
:10277000B8D0D2D203CF84E02FCFDDD298CF089546
:10278000CF9380918B2F811102C0CF910895C0917A
:10279000982F80E045D314D2811103C08C2FCF91A4
:1027A0003FC3C6DE8C2FCF913BC3CF92DF92EF9217
:1027B000FF920F931F93CF93DF938C01EB016A017C
:1027C000DBD4811122C0C114D10439F0F60180811B
:1027D0009181C81BD90B080F191F209749F1E12CD3
:1027E000F12C2091942F3091952FF901EF5BFF4F41
:1027F000908131978081981788F075D2C1DFC1141C
:10280000D104C1F4B9D4882361F3DF91CF911F9132
:102810000F91FF90EF90DF90CF900895F801819194
:102820008F01EED22197FFEFEF1AFF0A2097C9F62A
:1028300080E0EBCFF60180819181E80EF91EE08205
:10284000F18285E0E2CFCF92DF92EF92FF920F9379
:102850001F93CF93DF938C01EB016A018DD481111B
:1028600022C0C114D10439F0F60180819181C81BC6
:10287000D90B080F191F209749F1E12CF12C209159
:10288000942F3091952FF901EF5BFF4F9081319795
:102890008081981788F040D273DFC114D104C1F44D
:1028A0006BD4882361F3DF91CF911F910F91FF903B
:1028B000EF90DF90CF90089593D2F80181938F012C
:1028C0002197FFEFEF1AFF0A2097C9F680E0EBCFC0
:1028D000F60180819181E80EF91EE082F18285E0A7
:1028E000E2CFCF92DF92EF92FF920F931F93CF939D
:1028F000DF936C018B018091982F806891D2C091F9
:10290000922FD091932FC017D10728F001151105F0
:1029100009F45BC0E8017601D12C0BC0853031F1A0
:102920004FD1811125C021D181111BC0F4D081115B
:1029300021C0209711F4DD20A1F080918B2F81110F
:10294000EDCF82E0DF91CF911F910F91FF90EF903B
:10295000DF90CF90089580918B2F882391F385305D
:1029600029F003D18823B9F380E0ECCF83E0EACFEC
:1029700081E0E8CF8091982F87FD2BC08091942F24
:102980009091952FFC01E05CFF4F00813196808192
:1029900010E0081B1109209781F00034110520F088
:1029A0000CC00034110549F0F70181917F0128D254
:1029B00021970F5F1F4F2097A1F7DD24D394003498
:1029C000110509F0D12C8FD1B4CF8DD1C0E0D0E06A
:1029D000A2CFE091942FF091952FEF5BFF4F0081F4
:1029E00010E0D9CFDF92EF92FF920F931F93CF9316
:1029F000DF937C018B018091982F806811D2C09168
:102A0000922FD091932FC017D10728F001151105EF
:102A100009F474C0E8018701D12C0BC0853061F145
:102A2000CFD0811132C0A1D081111AC074D08111D0
:102A300035C0209711F4DD2099F080918B2F811102
:102A4000EDCF82E0DF91CF911F910F91FF90EF903A
:102A5000DF90089580918B2F882399F3853061F062
:102A600084D08823B9F380E0DF91CF911F910F913B
:102A7000FF90EF90DF90089583E0DF91CF911F9159
:102A80000F91FF90EF90DF90089581E0DF91CF915B
:102A90001F910F91FF90EF90DF9008958091982FF4
:102AA00087FD30C08091942F9091952FFC01E05CC0
:102AB000FF4FE08031968081F12CE81AF1082097D1
:102AC000A1F080E4E816F10428F00FC080E4E816D5
:102AD000F10459F0F801849193D10F5F1F4F2197B2
:102AE000FFEFEF1AFF0A209789F7DD24D394E0E483
:102AF000EE16F10409F0D12CF6D09BCFF4D0C0E053
:102B0000D0E089CFE091942FF091952FEF5BFF4FAC
:102B1000E080F12CD4CF8091982F982F90689093DB
:102B2000982F982F9F704091C6045091C70484E855
:102B3000989F900111242552304D2093942F30936B
:102B4000952F20E1929FC00111249C01285F3F4FE7
:102B5000240F351F2093962F3093972FFA01E80FFB
:102B6000F91F80858695817008958091982F982F00
:102B70009F779093982F8F70E091C604F091C704CF
:102B800094E8899F900111242756304D2093942F6B
:102B90003093952F90E1899FE00DF11D1124E09372
:102BA000962FF093972F808185FF08C082819381B3
:102BB000F901E05CFF4F808381E0089580E0089593
:102BC0008091982F982F9F779093982F8F70E091F6
:102BD000C604F091C70494E8899F900111242756F8
:102BE000304D2093942F3093952F90E1899FE00DE5
:102BF000F11D1124E093962FF093972F808184FF8D
:102C000008C082819381F901E05CFF4F808381E0FD
:102C1000089580E008958091982F982F9F778F7066
:102C20009093982F90E0A0ECB4E01696ED91FC9173
:102C3000179764E8689F9001699F300D112427560B
:102C4000304D2093942F3093952F82959295907FBD
:102C50009827807F9827E80FF91FE093962FF0932D
:102C6000972F80818D788083E091962FF091972F18
:102C7000808181608083E091942FF091952FEF5BAC
:102C8000FF4F1082E091982F8E2F80688093982FAD
:102C9000EF70F0E016964D915C9117976E9FC00112
:102CA0006F9F900D11249C012552304D2093942F3D
:102CB0003093952FE295F295F07FFE27E07FFE2777
:102CC0009F01285F3F4F240F351F2093962F30938D
:102CD000972FE40FF51F208521602087FC01E45E1B
:102CE000FF4C10820895E091962FF091972FA091BC
:102CF000942FB091952FAF5BBF4F8C9190E0828362
:102D0000938380818D798083E091942FF091952F2A
:102D1000EF5BFF4F10820895E091962FF091972F6F
:102D200080818D798083E091942FF091952FEF5BD6
:102D3000FF4F10820895E091962FF091972F818197
:102D400084608183E091962FF091972F8181807C20
:102D5000803409F008952091982F20582093982FBF
:102D6000822F8F7090E0E091C604F091C70444E890
:102D700027FD1BC0489F9001499F300D1124275605
:102D8000304D2093942F3093952F82959295907F7C
:102D90009827807F9827E80FF91FE093962FF093EC
:102DA000972F8181846081830895489F9001499F76
:102DB000300D11242552304D2093942F3093952FB0
:102DC0009C0122953295307F3227207F3227285F61
:102DD0003F4FE20FF31FE093962FF093972FE1CF31
:102DE0008091942F9091952FFC01EF5BFF4F2081F4
:102DF00031E0320F3083FC01E20FF11D8081089534
:102E00002091942F3091952FF901EF5BFF4F908126
:102E100041E0490F4083F901E90FF11D80830895D6
:102E20008093982F282F2F7030E04091C604509146
:102E3000C70464E887FD18C0629FC001639F900DBE
:102E400011248756904D8093942F9093952F22951F
:102E50003295307F3227207F3227240F351F209371
:102E6000962F3093972F0895629FC001639F900D16
:102E700011248552904D8093942F9093952FC901E2
:102E800082959295907F9827807F982708969A013F
:102E9000280F391F2093962F3093972F08958093F2
:102EA000982F282F2F7030E0E091C604F091C704CE
:102EB00087FD38C044E8429FC001439F900D112414
:102EC0008756904D8093942F9093952F229532950D
:102ED000307F3227207F3227E20FF31FE093962FB7
:102EE000F093972F1182E091962FF091972F1082F7
:102EF000E091962FF091972F6183E091962FF091BA
:102F0000972F128213828091942F9091952F848312
:102F1000958340E0FC01E05CFF4F408331961082D6
:102F200081E0089554E8529FC001539F900D1124F1
:102F30008552904D8093942F9093952F22953295A2
:102F4000307F3227207F3227D9011896AE0FBF1F5E
:102F5000A093962FB093972FE20FF31F118682E074
:102F6000808711966C93E091962FF091972F1282A3
:102F700013828091942F9091952F84839583FC01E7
:102F8000E05CFF4F40833196108281E00895DF922C
:102F9000EF92FF920F931F93CF93DF936623C1F1BC
:102FA000E62E8C01F12CF801D081DD2361F1F801CE
:102FB0004181528133818481823008F440C068E1CC
:102FC0004930510508F440C088E090E020E02F5FD0
:102FD000880F991F84179507D0F3262B8D2F8F709C
:102FE0008330C0F52F7E41345105A0F53323F9F02D
:102FF0003130B9F4C22FC06CD42E4D2D6C2F8D2FD3
:103000004EDF882339F1F3940B5F1F4FEF10CBCFC6
:1030100081E0DF91CF911F910F91FF90EF90DF90B2
:103020000895C22FC068332321F0D42EE6CFC22FDB
:10303000C064D42E6C2F80E88D0F31DFDECF68E0C6
:103040004930510508F0C0CF20E0262B8D2F8F701E
:10305000833040F280E0DF91CF911F910F91FF907C
:10306000EF90DF90089520E030E0E091C604F09109
:10307000C704C90182959295907F9827807F9827F1
:10308000E80FF91F11864091C6045091C704FA0158
:10309000E80FF91F11822F5F3F4F2330310529F7C9
:1030A0000895CF93DF9380918C2F87FD46C0A4E8CD
:1030B00005C020918B2F222309F453C0E091982F53
:1030C0008E2F80688093982FEF70F0E02091C604D7
:1030D0003091C704AE9FA001AF9F500D1124BA01DB
:1030E0006552704DE295F295F07FFE27E07FFE2756
:1030F000CF010896820F931FE20FF31FEF0128966E
:10310000208521FFD6CF6093942F7093952F8093C5
:10311000962F9093972FDA01A45EBF4C8C9190E08C
:103120008287938788818D7988831C92DF91CF91E4
:10313000089580918B2F8823C9F317DD8823C9F365
:10314000E091962FF091972F80818D798083E09187
:10315000942FF091952FEF5BFF4F1082DF91CF916D
:1031600008956093942F7093952F8093962F90934A
:10317000972FDF91CF9108950F931F93CF93DF93F4
:10318000E091C604F091C704C0A9D1A914E604E8EF
:103190008091982F87FF4CC08091982F982F90682E
:1031A0009093982F8F7090E04091C6045091C7047F
:1031B000089F9001099F300D11242552304D209316
:1031C000942F3093952F82959295907F9827807FAA
:1031D00098279C01285F3F4F240F351F2093962F7F
:1031E0003093972FFA01E80FF91F808581FD23C0E6
:1031F00080918B2F882329F1853049F1E091962F1A
:10320000F091972F818182FD28C0E091C604F09152
:10321000C70480A991A9C817D90729F02FEF210F5A
:10322000112309F1122FEC018091982F87FDB4CF63
:103230009CDC8823E9F280E0DF91CF911F910F9110
:10324000089582E0DF91CF911F910F91089583E05F
:10325000DF91CF911F910F91089581E0DF91CF9180
:103260001F910F91089584E0DF91CF911F910F91ED
:10327000089563D069D0E0ECF4E081818E7F818392
:1032800080818F77808310928A2F0895CF93DF9368
:10329000E0E4F0E014828481836084834ED054D0D3
:1032A000C0ECD4E088818F778883888180688883A8
:1032B00010928B2F1092872F1092892F1092882FA7
:1032C00088818064888340E46BE480E8E8DD40E442
:1032D0006BE480E0E4DD8885806488878981816093
:1032E0008983DF91CF910895CF93DF932FB7F8941F
:1032F000C0ECD1E082E08A87EAE1F0E0E491A0EC62
:10330000B4E0DA96EC93DA97EBE1F0E0E491DB9647
:10331000EC93DB971A8686E291E38E7F16968D9367
:103320009C93179782E18C9381E018968C932FBF22
:1033300080938A2FDF91CF91A9CFE0ECF4E08085D4
:103340008370808711860895E0ECF4E08FEF828728
:10335000848708951F920F920FB60F92112408B61A
:103360000F9218BE09B60F9219BE0BB60F921BBE74
:103370002F933F934F935F936F937F938F939F937D
:10338000AF93BF93EF93FF938091CA0486FD46C02D
:103390008091CA0485FF0BC080E28093CA048091AB
:1033A000872F882399F184E080938B2FE8D980912F
:1033B000CA0484FF14C080E18093CA0482E0809331
:1033C0008B2F1092872F1092C3044DDE40E46BE4E4
:1033D00080E865DD40E46BE480E061DDD0D9FF91F9
:1033E000EF91BF91AF919F918F917F916F915F917D
:1033F0004F913F912F910F900BBE0F9009BE0F90F0
:1034000008BE0F900FBE0F901F9018958091C304B7
:1034100081110CC081E080938B2FC8CF80E4809312
:10342000CA0485E080938B2FAAD9B2CF83E0F3CF73
:10343000CF93DF93CDB7DEB72C97CDBFDEBF182F6C
:103440000E943541103138F520E040E050E06FEF48
:1034500070E0812F0E944B4300E021E030E041E02A
:103460006FE3812F0E943F439FEF23ED80E3915054
:1034700020408040E1F700C000000E9431419FEFF2
:1034800023ED80E3915020408040E1F700C0000030
:103490000E942D41E9CF8CE0E0E2F0E2DE011196DE
:1034A00001900D928A95E1F7E12FF0E07097EE0F11
:1034B000FF1F81E090E08C0F9D1FE80FF91FF08047
:1034C000118120E040E050E06FEF70E08F2D0E940E
:1034D0004B4300E021E030E041E06FE38F2D0E949C
:1034E0003F4320E040E050E06FEF70E0812F0E940A
:1034F0004B43B3CF1F93CF93DF93CDB7DEB72C975A
:10350000CDBFDEBF182F0E9435411031E8F08CE0AE
:10351000E0E2F0E2DE01119601900D928A95E1F76A
:10352000E12FF0E07097EE0FFF1F81E090E08C0F2D
:103530009D1FE80FF91F118120E040E05FEF60E080
:1035400070E080810E944B4320E040E05FEF60E04C
:1035500070E0812F0E944B439FEF29E688E1915054
:1035600020408040E1F700C000002C96CDBFDEBFB8
:10357000DF91CF911F910C943541FF920F931F93D0
:10358000CF93DF93F82E8FE001E010E08F1578F1F4
:103590000F2C02C0000F111F0A94E2F7C9E8D3E113
:1035A00009C08FE39FE10197F1F700C00000219768
:1035B00009F44CC00E94D84A80239123892B89F3B7
:1035C000C9EED3E008C08FE39FE10197F1F700C097
:1035D00000002197D9F10E94D84A80239123892B9A
:1035E00091F7DF91CF911F910F91FF90089580EF98
:1035F0008F0D02C0000F111F8A95E2F7C9E8D3E1D1
:1036000008C08FE39FE10197F1F700C00000219708
:10361000E9F00E94124B80239123892B91F3C9EE8C
:10362000D3E008C08FE39FE10197F1F700C00000ED
:10363000219761F00E94124B80239123892B91F7EF
:10364000DF91CF911F910F91FF9008958F2DF0DEA4
:10365000CF92DF92EF92FF920F931F93CF93DF935E
:10366000CDB7DEB72C97CDBFDEBF0E942D4110E055
:103670000E94354120E040EA5FEF6FEC70E0812F5F
:103680000E944B43812F79DF1F5F103189F78CE057
:10369000E0E2F0E2DE01119601900D928A95E1F7E9
:1036A000CE0101967C01F701C080D1800E94354196
:1036B00000E021E030E040E06FE78C2D0E943F43C6
:1036C00021E030E040E06FE78D2D0E943F43812FE5
:1036D00054DF812F0FDFF2E0EF0EF11C1F5F163178
:1036E00011F70E94354110E020E040E05FEF60E01C
:1036F00070E0812F0E944B431F5F1031A9F713E048
:103700002FEF83ED90E3215080409040E1F700C01F
:1037100000000E943141EFEFF3ED20E3E150F04073
:103720002040E1F700C000000E942D41115041F7F8
:103730000E9435410E94314181E02C96CDBFDEBF11
:10374000DF91CF911F910F91FF90EF90DF90CF907D
:10375000089582E090E00E9442518A3551F078DF6E
:10376000811109C081E090E00E94050E0E941F0EA9
:10377000FFCF81E008956AE582E090E00E944F0566
:10378000F1CF80915A31811110C00E946F3EBC016F
:10379000660F771F860F971FBC0176956795769504
:1037A000679581E09DE10C94974A0E946F3EBC01B1
:1037B0007695679581E09DE10C94974A2F923F9210
:1037C0004F925F926F927F928F929F92AF92BF9231
:1037D000CF92DF92EF92FF920F931F93CF93DF93DD
:1037E00020909F208FEF820D8F3F09F406C1882E15
:1037F000912C43E5A42E4FE2B42E5DE5652E51E3F6
:10380000752E60E2C62E6FE2D62E74E8E72E7BE2BC
:10381000F72EE4E24E2EC0E0D0E0312CF5015190BD
:103820005F01550C550C540CF30181913F0199E057
:10383000980F933108F462C018160CF05FC0F7E6D9
:103840008F02E12D1124E595E59587FDE395E430A0
:103850000CF0AFC00E2E000CFF0BEE5BFF4D809105
:103860009F2060810E94C550992309F4A2C0F701EE
:10387000808190E0FE01EE0FFF1FEC0FFD1FEE0FA9
:10388000FF1FEE0FFF1FE80FF91FE295F295F07F83
:10389000FE27E07FFE27E05FF34DE80DF91D8081F4
:1038A00081117AC021964394F8E0CF0ED11C8FEF9E
:1038B000E81AF80A98E24912B1CF80915E389091E7
:1038C0005F380E94241280919F208F5F803109F41D
:1038D0008EC080939F20DF91CF911F910F91FF9019
:1038E000EF90DF90CF90BF90AF909F908F907F90A0
:1038F0006F905F904F903F902F900895F7018081D7
:1039000090E0FE01EE0FFF1F9F012C0F3D1F220FC5
:10391000331F220F331F280F391F22953295307F16
:103920003227207F3227205F334DD901A20DB31DEE
:103930000C91002309F4A1CF10E0F901E80DF91D65
:10394000808181112BC0F6018681809FA001819F1B
:10395000500D11249A01A5E0B2E00E940F51481BBE
:10396000590B569547958C01040F151F0024000F25
:10397000111F001C000F111F001C012F102D202FE4
:1039800041E0652D87E00E94A53E402F66EE640D64
:1039900087E00E94CF3E86CF00E010E02FE740E0B6
:1039A000652D87E00E94A53E0115110509F47ACF27
:1039B000CACFF7018081FE01EE0FFF1FEC0FFD1F44
:1039C000EE0FFF1FEE0FFF1FE80FF11DE295F295BE
:1039D000F07FFE27E07FFE27E05FF34DE80DF91D45
:1039E00080810FE710E0882309F4ADCFD7CF109284
:1039F0009F2081E080939E206ECFFFE08F2E912C40
:103A0000F8CE8091583190915931029709F008957C
:103A1000D5CEBF92CF92DF92EF92FF920F931F937A
:103A2000CF93DF9393E5E92E9FE2F92E24E8C22E8F
:103A30002BE2D22EC0E2DFE200E11CE262ED75E093
:103A40003FE3B32E9FE7D7011D927D01E2E1F5E050
:103A5000A8019F01205F3F4FDA0184918D93319639
:103A6000E217F307D1F7405F5F4F6E177F0789F7C3
:103A7000F60111926F011D82BF821C829E83198202
:103A8000289600541F4FF7E5EF16FFE2FF06D9F620
:103A90001092662F80E2E0EEFBE2DF011D928A9534
:103AA000E9F780E1E2E4FFE2DF011D928A95E9F7A0
:103AB00084E0E0E0FCE2DF011D928A95E9F742D55F
:103AC00020EE3BE2E2E4FFE2C8EFDBE280EFE82E2B
:103AD0008BE2F82E84E00CE918E15FE36CE971E316
:103AE0004FE7D9011D921D929D01108209931993F0
:103AF0005487D7016D937D937D019FE74087815067
:103B000031968111EECF90935B311092A620909365
:103B1000A72010925C311092402F1092412F8AE51D
:103B20008093572F10925A31109258311092593178
:103B3000DF91CF911F910F91FF90EF90DF90CF9089
:103B4000BF9008958091583190915931892B59F047
:103B5000109258311092593110929F2040E06EE03F
:103B600087E00C94CF3E81E090E0809358319093B1
:103B700059314FE76EE087E00C94CF3E10929F20C2
:103B80000895CF932091583130915931213031052A
:103B900029F02230310561F0CF9108958111FCCFD9
:103BA00082E090E08093583190935931CF9106CEC6
:103BB000C82F0E94783E882389F08C2FCC0F990B58
:103BC000029666E070E00E94D150892B29F761E0EF
:103BD00070E081EC9BE1CF910C94974A8BE2C80294
:103BE000812D1124C7FD8395982F990F890F880F78
:103BF000C813D2CF8091583190915931029761F614
:103C0000CF91DCCD90E0FC01EC57F44D2081FC011C
:103C1000EE0FFF1FE80FF91FEE0FFF1FEE0FFF1F44
:103C2000E20FF11DE295F295F07FFE27E07FFE277F
:103C3000E05FF34DE60FF11D8081089590E0FC01F7
:103C4000EC57F44D2081FC01EE0FFF1FE80FF91F28
:103C5000EE0FFF1FEE0FFF1FE20FF11DE295F29531
:103C6000F07FFE27E07FFE27E05FF34DE60FF11DBA
:103C700040830895E82FF0E0ED5AF04D60830895F9
:103C8000E82FF0E0ED5AF04D808108954FE76FE0A6
:103C900087E00E94CF3E40E06FE087E00C94CF3E8B
:103CA0009CEE980F9430A8F4E82FF0E0EE0FFF1F81
:103CB000EE0FFF1FEE0FFF1FE058F14D81E0611185
:103CC0004EC084838091402F9091412F0197D1F075
:103CD000089598EE980F9430D0F4E82FF0E0EE0FAE
:103CE000FF1FEE0FFF1FEE0FFF1FE05AF14D81E0A7
:103CF000662309F43EC085838091402F9091412F27
:103D0000019731F70E94CA2A049711F7A6C09AE9D1
:103D1000980F9031C0F5E82FF0E0E656F109CF0199
:103D200083709927F595E795F595E795880F991F85
:103D3000880F991F880F991FE230F10509F459C0C7
:103D4000E330F10509F45EC0319799F1FC01E05EC2
:103D5000F04D21E0611101C020E02083089580E052
:103D600084838091402F9091412F019709F0B0CF2B
:103D7000C9CF80E085838091402F9091412F01979A
:103D800009F0A6CFBFCF8F3021F18E3009F0A0CF40
:103D9000662309F440C08091583190915931892BA4
:103DA00009F096CF81E090E080935831909359319B
:103DB0000895FC01E05EF04D81E0611101C080E0FA
:103DC00081838091402F9091412F019709F49ACFE0
:103DD000089580910220882309F47ACF81E08093AE
:103DE0005A3184E090E00E94CF2AABD11092022099
:103DF0004DCFFC01E05EF04D81E0611101C080E03B
:103E000082830895FC01E05EF04D81E0611101C004
:103E100080E08383089510925831109259311092A6
:103E20009F2010929E200895843070F09CEF980F90
:103E3000943038F098EF980F943048F482E090E096
:103E4000089581E090E0089580E090E008958C501E
:103E50008430D0F783E090E008952F923F924F9204
:103E60005F926F927F928F929F92AF92BF92CF920A
:103E7000DF92EF92FF920F931F93CF93DF9300D0C7
:103E8000CDB7DEB7E091832BF0E0EE5EFC4FE4911E
:103E9000E091582FF0E0EE5EFC4FE49180E29FE26B
:103EA0008A839B8390EEC92E9BE2D92E24E8622E52
:103EB0002BE2722E430138E0232E4CE0342E10E02A
:103EC000A12C50E8B52E66EF462E64E0562EEA810E
:103ED000FB8184818111B9C0E091832BF0E0EE5E1B
:103EE000FC4F24912983E091582FF0E0EE5EFC4FC7
:103EF000F490EA81FB818181882309F4A1C0498182
:103F000068E7812F0E941744812FBADEB50102C0F5
:103F1000769567958A95E2F74F2D812F0E94DD43B4
:103F2000812FAEDEF82FF49DC001F59D900D112478
:103F3000F60180839183F301B501019002C076956B
:103F400067950A94E2F73F014F2D84E0810F0E94AC
:103F5000DD43F40121914F01249DC001259D900D69
:103F60001124F60180879187EA81FB818481811188
:103F700062C0498161E0822D0E941744EF2C00E06D
:103F800021E030E040E0EA81FB816681822D0E94E1
:103F9000B842EA81FB818681F4E68F9FC00111243B
:103FA000F601808B918BEA81FB8185818823F1F179
:103FB00049816FE0832D0E941744EF2C0EE721E02A
:103FC00030E041E0EA81FB816781832D0E94B842A5
:103FD000EA81FB818781F4E68F9FC0011124F601FD
:103FE000808F918F1F5F8A819B8108968A839B8334
:103FF000339492E0C90ED11C2394143009F067CF9A
:104000002396CDBFDEBFDF91CF911F910F91FF901F
:10401000EF90DF90CF90BF90AF909F908F907F9068
:104020006F905F904F903F902F90089560E0832DA8
:104030000E94FF43C2CF60E0822D0E94FF439ECFCB
:1040400060E0812F0E94FF435FCF8AE089838AE08E
:10405000F82E4FCF8F929F92AF92BF92CF92DF9266
:10406000EF92FF920F93CF939ED24C0190EEC92E08
:104070009BE2D92EC0E0EE24E394F12C3CE9A32E80
:1040800031E3B32E15C06EE38C2F0E94FF4300E096
:1040900021E030E040E060E08C2F0E943F43F601D9
:1040A000A192B1926F01EE0CFF1CCF5FC03151F0B5
:1040B000C4018E219F21892B31F760E08C2F0E9453
:1040C000FF43E5CFCF910F91FF90EF90DF90CF901E
:1040D000BF90AF909F908F900895EF92FF920F93B3
:1040E000CF93DF9380EEE82E8BE2F82EC0E017C06E
:1040F0006AE08C2F0E94FF4300E021E030E040E0C6
:104100006D2F8C2F0E943F4324E6D29FC0011124C3
:10411000F701819391937F01CF5FC03161F06C2FE4
:104120008091662F6FDDD82F8111E2CF60E08C2F58
:104130000E94FF43E1CFDF91CF910F91FF90EF906D
:1041400008958091402F9091412F8230910541F048
:104150008330910521F0019709F008957ECEBDCFFF
:1041600079CFDF92EF92FF920F931F93CF93DF935C
:10417000F82E082F10E0F801EE5BF04DD080E091B2
:10418000832BF0E0EE5EFC4FD491E091582FF0E0ED
:10419000EE5EFC4FC49148DE8130910509F465C0A4
:1041A00008F443C08230910509F10397B9F4000F78
:1041B000111F000F111F000F111FF801E054F14DE6
:1041C0008481882309F49AC09AE0E92E0EE722E060
:1041D00030E041E06D2D8F2D0E94B842DF91CF91EC
:1041E0001F910F91FF90EF90DF900895000F111F26
:1041F000000F111F000F111FF801E052F14D8481D3
:10420000882309F4A2C04AE0E42E00E022E030E076
:1042100040E06D2D8F2D0E94B842DF91CF911F910C
:104220000F91FF90EF90DF900895000F111F000F86
:10423000111F000F111FF801E05EF04D8481811104
:1042400082C08F2D1DDD60E070E802C07695679515
:104250008A95E2F74C2F8F2DDF91CF911F910F910F
:10426000FF90EF90DF900C94DD43C80104978C0120
:10427000000F111F000F111F000F111FF801E05E4A
:10428000F04D2481211156C0FC01E35AFE4C2081DF
:10429000211137C0FC01EC57F44D60E070E800805C
:1042A00002C0769567950A94E2F74C2F8F2D0E94F5
:1042B000DD43C0919F20CC23D9F1C1506C2F8CEFEE
:1042C0008F0DA0DC882309F446C0F801E05EF04DB4
:1042D00084818111DAE00E94783E4D2F882309F411
:1042E00045C0C11135C06DE38F2DDF91CF911F9176
:1042F0000F91FF90EF90DF900C9417448FE7E82E1A
:1043000065CFE7E62E02E12D1124E595E59527FD21
:10431000E395F0E0EE0FFF1FEA5BFF4D60817181D6
:104320004C2F8F2D0E94DD43C0919F20C111C5CF1E
:10433000CFE0C4CFCAE0FC01E35AFE4C2081222327
:1043400009F4A8CFDECFCAE07CCF3FE7E32E5DCFF4
:104350006091572FC9CF60E08F2DDF91CF911F91D2
:104360000F91FF90EF90DF900C94FF4360E5BCCF7E
:10437000CF93DF93D82F80919F208823B1F0CFEF88
:10438000C80F80915831909159310297A9F0DD23DF
:1043900079F16D2F8091662F35DC811123C060E0AB
:1043A0008D2FDF91CF910C94FF43CFE08091583156
:1043B00090915931029759F7CD13EBCF6091572F58
:1043C0008C2F0E94FF43CC2329F1C1506C2F809188
:1043D000662F18DC811118C060E08C2FDF91CF911F
:1043E0000C94FF436AE08D2FDF91CF910C94FF4333
:1043F0006091572F80E00E94FF43CFE06C2F8091A7
:10440000662F00DC882341F36AE08C2FDF91CF9187
:104410000C94FF43CFE0DACFEF92FF920F931F93FC
:1044200020919F209091A020291731F030910320F6
:10443000303110F4381729F01F910F91FF90EF9051
:10444000089580915B319FE4899F812D1124869589
:1044500086958695E4E0F0E0E81BF109E35CFF4D0A
:104460004081822F642F0E94C5509C3038F02093E9
:10447000A0201F910F91FF90EF9008954150E0E030
:10448000F0E802C0F695E7954A95E2F740E050E87B
:104490006FEF7FEF7A018B0104C016950795F794B3
:1044A000E7949A95D2F7BF016E297F29832F0E9446
:1044B000F84320919F20DBCF0F938091402F909164
:1044C000412F2091A22030E02817390729F039DE4A
:1044D0008091402F9091412F8093A22081309105AF
:1044E00069F1E8F08230910571F0039719F4809139
:1044F000A1203EDF8091A1208F5F803160F010927B
:10450000A1200F9108958091A12086DF8091A120A4
:104510008F5F8031A0F78093A1200F91089500E074
:1045200020E030E040E060E08091A1200E943F4325
:1045300060E58091A1200E94FF43DCCF8091A12003
:1045400010DED8CF0F931F93CF93DF931092A42048
:104550001092A52001E010E0CDE0D4E008C0000FEB
:10456000111FC05CDF4FCD3088E0D807B9F0CE0115
:104570000E942705853A99F78091A4209091A52063
:10458000802B912B8093A4209093A520000F111FC6
:10459000C05CDF4FCD3088E0D80749F7DF91CF917D
:1045A0001F910F9108958091A4209091A5200895C6
:1045B000F89421E030E0082E02C0220F331F0A9445
:1045C000E2F7209530954091A4205091A520242316
:1045D00035232093A4203093A52020E4829FC0019E
:1045E00011246FEF835F9B4F0E944F0578940895CD
:1045F0006F927F928F929F92AF92BF92CF92DF92F3
:10460000EF92FF920F931F93CF93DF93CDB7DEB757
:10461000A097CDBFDEBF782E0E94170ECE01019667
:104620006C0180E2D6011D928A95E9F7872C880CEF
:104630002FE1622E680C912C76018701A12C6A2D46
:10464000892DE0DAB82E61E06A0D892DDBDAB694A7
:10465000B694B694B29490EFB922869586958695D5
:104660008F708B29F80181938F01A394A394F0E1BB
:10467000AF12E5CF88E0E80EF11C939494E0991214
:10468000DCCFC6010E948B05862D0E94A7058601FE
:104690005601F12C8F2DF4DAD5018D935D01F39441
:1046A000B4E0FB12F7CF60E27FE29E01275F3F4F4D
:1046B000FB0185818795882787959781892BD8016C
:1046C00014968C9314978481879588278795968173
:1046D000892B15968C9338960E5F1F4F0217130780
:1046E00041F740E45FE291E080E0FB012181222379
:1046F000C1F1292F822B990F685F7F4F461757070B
:10470000A1F78F708D8785EA8E8781E090E002C0E7
:10471000880F991F7A94E2F72091A4203091A52068
:10472000822B932B8093A4209093A520C6010E94F6
:104730008B0580E2880D0E94A7050E941F0EA0969F
:10474000CDBFDEBFDF91CF911F910F91FF90EF9012
:10475000DF90CF90BF90AF909F908F907F906F90A1
:10476000089520E0C7CF9F92AF92BF92CF92DF9281
:10477000EF92FF920F931F93CF93DF9320E4829FDA
:10478000C0011124FC01E052FC4F5F0194E8C92EE6
:104790009BE2D92E7F01912CF60111926F01C70186
:1047A000D1E08C010F5F1F4F0E942705C82F482FB3
:1047B00042954F70440F440F440F6FEF6D0F892DDA
:1047C0003DDA4C2F4F70440F440F440F6D2F892D4D
:1047D00035DADE5FC801D13121F7F8E0EF0EF11CC8
:1047E000939424E09212D8CFC5018096C0E08C014A
:1047F0000F5F1F4F0E942705682F8C2F3BDACF5F7A
:10480000C801C430A1F785010C5D1F4FC0E2DFE293
:1048100084E1F82EC8010E9427058F778F836801F5
:104820003FEFC31AD30AC8010E942705881F8827B3
:10483000881F9D81891731F04FE764E06F0D87E095
:104840000E94CF3EC6010E9427058F778E830E5FA0
:104850001F4FC6010E942705881F8827881F9C813B
:10486000891729F04FE76F2D87E00E94CF3E2896E9
:10487000F39488E1F812CECFC5018C960E942705EB
:10488000182FCAE6D1E091E0812F8D2309F490E042
:10489000492F479544274795491B6C2F87E00E9475
:1048A000CF3EDD0FCF5FCE3671F7DF91CF911F91F5
:1048B0000F91FF90EF90DF90CF90BF90AF909F90BF
:1048C00008950F931F93CF93DF93C82FD62F809116
:1048D000402F9091412F8230910509F44EC08330D2
:1048E000910549F1019729F0DF91CF911F910F9127
:1048F00008958C2F99DA8130910509F4A5C008F448
:1049000072C08230910509F4B1C0039769F7DD23C5
:1049100059F3EC2FF0E0EE0FFF1FEE0FFF1FEE0F2D
:10492000FF1FE054F14D8581882309F4B0C06CE08D
:104930006C0F4FE3AFC06623B9F26C2F8091662FE6
:1049400061D900E021E030E040E0882309F4B3C001
:1049500060E08C2F0E943F43EC2FF0E0EE0FFF1F32
:10496000E052F44D1082118240E06C2F8091662F4E
:10497000DF91CF911F910F9161C9662309F4B4CFE4
:104980008091A82081118DC00C2F10E081E090E073
:104990000C2E02C0880F991F0A94E2F72091A420E0
:1049A0003091A52082239323892B09F43CC08C2FBE
:1049B000DADEC0930320000F111FF801E052F44D1E
:1049C000208131813695279536952795ABE7B4E15F
:1049D0000E940F519695879580935B31DF91CF911F
:1049E0001F910F9137CBDD2309F47ECFEC2FF0E040
:1049F000EE0FFF1FEE0FFF1FEE0FFF1FE05EF04DEB
:104A0000918181E089278183482F479544274795E5
:104A1000481B6AE66C0F87E00E94CF3EDF91CF9182
:104A20001F910F911ACA8C2FE3DDC0930320000F52
:104A3000111FF801E052F44D8CE991E380839183DA
:104A40008FE780935B31CACFD1114ECFEC2FF0E0CE
:104A5000EE0FFF1FE75AFE4C80819181803D974009
:104A6000D0F1FBD98FE780935B313ECFDD2309F492
:104A70003BCFEC2FF0E0EE0FFF1FEE0FFF1FEE0F0E
:104A8000FF1FE052F14D8481882309F450CF6CE080
:104A90006C0F4FE787E0DF91CF911F910F910C943E
:104AA000CF3E8C2F85DD80910320C81397CF81E105
:104AB0008093032093CF6FE78C2F0E943F43EC2F0E
:104AC000F0E0EE0FFF1FE052F44D8CE991E380839C
:104AD00091834FE74ACFC450C093662F83E090E0A4
:104AE0008093402F9093412FFFCE2F923F924F9271
:104AF0005F926F927F928F929F92AF92BF92CF926E
:104B0000DF92EF92FF920F931F93CF93DF93CDB776
:104B1000DEB72C97CDBFDEBF0E94D84A49E5642E90
:104B200041E3742E59E5452E51E3552E67ECA62E30
:104B30006EE2B62E70E8C72E7BE2D72EE0EE8E2E08
:104B4000EBE29E2E24EF3BE22B833C83E12CF12C05
:104B5000312C81E090E089839A83909150209F834B
:104B6000E0915120E887F0914E20F98720914F2065
:104B70002A8781E090E08B879C87132D2AC061E013
:104B8000812F9FDE8CEF810F843008F4D8C12B85F4
:104B90003C85220F331F2B873C871F5F3FEFE31AB3
:104BA000F30A42E0640E711C8FEF481A580A98E02D
:104BB000A90EB11CEFEFCE1ADE0AF2E08F0E911CA7
:104BC0002B813C812F5F3F4F2B833C83103109F4B5
:104BD000F8C0812F0E94C64A082F282E880F33085C
:104BE0002114310409F448C084EF810F843008F4A3
:104BF00089C1C701880F991F89839A838052944D78
:104C00008D839E83FC01808191810E9429328823BB
:104C100009F448C0ED81FE8180819181843691053F
:104C200008F05FC0121413040CF0F0C0F701E0505C
:104C3000F44D2081200F208324300CF45FC0A98123
:104C4000BA81A052B44D24E630E02D933C931082FB
:104C500084E690E00E940C3289838091402F9091ED
:104C6000412F8130910509F47AC08330910509F410
:104C7000BEC0029709F456C00E94084BEB85FC8524
:104C80008E239F23892B09F07ACF0E940D4B2B8511
:104C90003C8582239323892B09F474CF60E0812F14
:104CA00010DE70CF143008F477C0183008F442C01A
:104CB000F2EBF29DC001F39D900D1124E981FA8180
:104CC000E052F44D20813181820F931F80839183C4
:104CD0000E941332E981FA81E052F44D808391837E
:104CE000B9CF8933F1E39F0710F037FC9FC0F7017C
:104CF000E050F44D208124300CF0ACCF2D3F0CF06F
:104D0000A9CF893331E3930708F4A4CFA981BA81ED
:104D1000A052B44D88E391E38D939C93108288E375
:104D200091E398CF809103208113A6CF39813093EE
:104D30005B31A2CF8091402F9091412F019709F0D4
:104D4000B7CFED81FE8180819181F4E60F02800D65
:104D5000911D1124ED81FE8180839183B9CF812F34
:104D600063D88130910509F483C008F469C08230AA
:104D7000910509F453C0039709F07ECF2981F5010D
:104D80002083F701EE5BF04D2083422F60E1610F3D
:104D900087E00E94CF3E70CF8091402F9091412FAD
:104DA000019709F085CFED81FE8180819181F0E549
:104DB0000F02800D911D1124ED81FE81808391836E
:104DC00087CF2C96CDBFDEBFDF91CF911F910F9182
:104DD000FF90EF90DF90CF90BF90AF909F908F901B
:104DE0007F906F905F904F903F902F9008954981F2
:104DF000612F8091662F0E941E1E00E021E030E0AE
:104E000040E06981812F0E943F4336CFF701E05097
:104E1000F44D208124300CF012CF70CF2981F501A0
:104E2000278FF701EE5BF04D208326CFF701E0508E
:104E3000F44D2081200F208324300CF00BCF5ECF67
:104E40002981622F70E080E090E00E94AB4D2DEC54
:104E50003CEC48E351E40E94104D0E947D4D812FAF
:104E60000E943A1EF701EE5BF04D3981308304CF8A
:104E7000F30180819181009731F1F701EE0FFF1F5F
:104E8000E052F44D4EE4429D9001439D300D3219A5
:104E9000112440815181240F351F2083318337FC39
:104EA0002DC0E4E6E29D9001E39D300D1124820FB8
:104EB000931FF30180839183F2018081800F8832F8
:104EC000CCF48083D9CE3981632F70E080E090E00C
:104ED0000E94AB4D2DEC3CEC48E351E40E94104D98
:104EE0000E947D4DF6016083F701EE5BF04D298154
:104EF0002083C2CE27E2F2012083BECE31942194DA
:104F00003108CFCF8091402F9091412F019709F028
:104F100070CEF401808191810E942032882309F4AF
:104F200068CEEB81FC818081800F80838B30B4F070
:104F30002985F40120833A853183C9018BCE0E94F3
:104F4000034BEB85FC858E239F23F301892B61F0B6
:104F50008081918101968083918319CE863F4CF0A8
:104F6000F4018081918176CE10821182F20110824B
:104F70000ECE2F81F401208338853183C9016ACE9A
:104F8000CF92DF92EF92FF920F931F93CF93DF9315
:104F90008823B9F18091A820811166C081E08093B7
:104FA000A82028E8E22E2BE2F22E34E8C32E3BE2C2
:104FB000D32ED0E08D2F0E94401EF7018083F60192
:104FC00081916F01F701818387010E5F1F4FC0E060
:104FD0006C2F8D2F0E94021EF80181938F01CF5FED
:104FE000C031B1F7DF5FF2E1EF0EF11CD43011F701
:104FF000DF91CF911F910F91FF90EF90DF90CF90B5
:1050000008951092A82088E8E82E8BE2F82E94E804
:10501000C92E9BE2D92ED0E0F70160818D2F0E942E
:105020003A1EF7018181F60181936F0187010E5FBE
:105030001F4FC0E0F80141918F016C2F8D2F0E940E
:105040001E1ECF5FC031B1F7DF5FF2E1EF0EF11C42
:10505000D43011F7DF91CF911F910F91FF90EF9016
:10506000DF90CF900C942D1F81E090E098D2DF91DB
:10507000CF911F910F91FF90EF90DF90CF900C9404
:105080002E36DF92EF92FF920F931F93CF93DF9311
:1050900080915A31882331F08091402F9091412F97
:1050A000892B81F10E94124BD82EC1E0D1E001E0A2
:1050B00010E082E0E82EF12C2FEF2C0F9091A3202E
:1050C0008D2D89278D23B9F09D2321F5223009F4F8
:1050D00051C080F1243091F108F453C0253059F4C7
:1050E0008091402F9091412F029709F456C0E09291
:1050F000402FF092412FDD0FC63011F0CF5FDCCF93
:10510000D092A320DF91CF911F910F91FF90EF904C
:10511000DF900895223071F1E8F02430E9F0253075
:1051200051F78091402F9091412F029701F71092F3
:10513000A820E1CF222361F12130E9F68091402FB0
:105140009091412F0197B9F681E01ADFDD0FC6304B
:10515000A9F6D6CF213079F68091402F9091412F3A
:105160000197F9F00093402F1093412FDD0FC630C7
:1051700029F6C6CF0E94461EDD0FC63009F0BECF0D
:10518000BFCF8091A8208111B6CF0E94A21DB3CFBE
:105190000E94BE1DDD0FCF5F8FCF81E08093A820DE
:1051A000AACF80E0D2CFCF93DF93CDB7DEB763979E
:1051B000CDBFDEBF8B8B8091A9209091AA20049750
:1051C00069F58B89882351F18091693189838981BF
:1051D000882309F444C08981893008F040C089815E
:1051E000882F90E00197880F991F85559F4DFC01EE
:1051F00080819181892B99F18981882F90E0019795
:10520000880F991F85559F4DFC01208131818B8925
:1052100081506AE671E3F901199521C08091A920B6
:105220009091AA200397E1F48B898230C8F0809195
:1052300069318630A9F480916A31813089F481E145
:10524000ECE2F0E2DE01129601900D928A95E1F710
:10525000CE010296BC0181E10E94F33E01C0000034
:1052600000006396CDBFDEBFDF91CF9108959FEF21
:10527000980F983040F4E82FF0E0EE0FFF1FE7554D
:10528000FF4D6083718308952091BB20211117C0C9
:1052900021E02093BB2029E631E32093BC2030930A
:1052A000BD20DC0111962C911197203F09F465C0B7
:1052B00082E090E08093A9209093AA200895209105
:1052C000A9203091AA2021303105D1F122303105B9
:1052D000B1F1E091BC20F091BD209F012D5F3F4FC7
:1052E00040910420509105202417350708F72250DB
:1052F00031092093BC203093BD20DC0111962C9104
:1053000011972083E091BC20F091BD209F012F5F79
:105310003F4F2093BC203093BD2012962C911297C2
:105320002083E091BC20F091BD209F012F5F3F4F73
:105330002093BC203093BD2013968C9180830895D8
:10534000DC0111962C911197293709F0B1CFE0912A
:10535000BC20F091BD209F012E5F3F4F4091042063
:10536000509105202417350708F0A2CF24E030E043
:105370002093A9203093AA20C9CF12962C9112977E
:105380002E3771F0211194CFFC018381813009F017
:105390008FCF81E090E08093A9209093AA20089578
:1053A00013968C9190911220891719F08F3709F07C
:1053B0007FCF83E090E08093A9209093AA20089566
:1053C0001092BB202091A9203091AA2021303105D4
:1053D00009F44AC02230310571F0E091BC20F0910F
:1053E000BD209F012D5F3F4F40910420509105202B
:1053F0002417350728F01092A9201092AA200895AA
:10540000225031092093BC203093BD20DC0111963D
:105410002C9111972083E091BC20F091BD209F0139
:105420002F5F3F4F2093BC203093BD2012962C91CC
:1054300012972083E091BC20F091BD209F012F5F47
:105440003F4F2093BC203093BD2013968C918083D6
:105450008091BC209091BD2089569143A4DE10928A
:10546000A9201092AA200895DC0111962C91119781
:10547000293709F0C0CFE091BC20F091BD209F01F9
:105480002E5F3F4F4091042050910520241735078F
:1054900008F0B1CF24E030E02093A9203093AA2077
:1054A000BECF9C019091BB209923C9F01092BB20E4
:1054B0008091A9209091AA20029769F0A091BC2028
:1054C000B091BD20CD01029640910420509105205D
:1054D0008417950728F01092A9201092AA20089509
:1054E000F90101978093BC209093BD2081818C931A
:1054F000A091BC20B091BD20CD0101968093BC202D
:105500009093BD2082818C938091BC209091BD208E
:105510008956914348DE1092A9201092AA20DFCF2D
:105520009C019091BB209923C9F01092BB208091DF
:10553000A9209091AA20029769F0E091BC20F091F7
:10554000BD20CF0101964091042050910520841781
:10555000950728F01092A9201092AA200895D90149
:105560008093BC209093BD2011968C918083809174
:10557000BC209091BD208956914315DE1092A92040
:105580001092AA20EBCFE1ECF0E21082118212829D
:10559000138208958091BF209091C0200895809338
:1055A000BF209093C0200895DC011C968C911C971D
:1055B000E5ECF0E284878D919C9111978083918333
:1055C00012968D919C9113978283938314968D915B
:1055D0009C9115978483958316968D919C9117972E
:1055E0008683978318968D919C91199780879187D0
:1055F0001A968D919C911B9782879387089585ECCD
:1056000090E208950F931F93CF93C82F8B01809141
:10561000D12081111EC090E0EC2FF0E0EE0FFF1FB3
:10562000EB53FF4D0190F081E02DED30F10568F472
:105630008827E85FFE4F8F4F0C940651013011050B
:1056400009F41DC1012B09F411C1CF911F910F91D4
:105650000895DFD6982FE0CF01301105B1F7D9D6E4
:1056600040E0682F80915A2F0E94CF3E4FE763E0C1
:1056700080915A2F0E94CF3E83E0CF911F910F91CE
:105680000C9466340130110501F7C3D640E0682F51
:1056900080915A2F0E94CF3EBCD6833008F4FAC0C6
:1056A00080E00E946634B5D64FE7682F2AC00130EB
:1056B000110509F4FCC0012B41F6692F660F960F06
:1056C000990F68E06C0F690F40E01BC001301105B5
:1056D00009F0BBCF0C2E01C0000F0A94EAF7E92FA6
:1056E000F0E0EF53FF4D808180278083082309F08D
:1056F000CFC040E0692F660F960F990F68E06C0FDE
:10570000690F80915A2FCF911F910F910C94CF3E2A
:105710000130110509F4C1C0012B09F096CF692FA2
:10572000660F960F990F68E06C0F690F20E040E05C
:105730001EC00130110509F088CF0C2E01C0000FEA
:105740000A94EAF7E92FF0E0EF53FF4D80818027BC
:105750008083082309F09AC020E041E0011101C0D4
:1057600040E0692F660F690F660FC85F6C0F80916C
:105770005A2FCF911F910F910C94A53E0130110526
:1057800009F060CF83E090E08093BF209093C02029
:105790005CCF0130110509F058CF3BD6833008F0BB
:1057A00054CF37D690E003970CF48EC0C3E00EC000
:1057B0000130110509F049CF2CD6882309F445CFD3
:1057C00028D690E005970CF47BC0C0E022D640E0DC
:1057D000682F80915A2F0E94CF3E8C2F0E946634F2
:1057E00062CF0130110509F030CF13D640E0682FA9
:1057F00080915A2F0E94CF3E4FE760E080915A2F50
:105800000E94CF3E80E0CF911F910F910C9466349F
:105810000130110509F019CFFCD540E0682F8091C7
:105820005A2F0E94CF3E4FE761E080915A2F0E948D
:10583000CF3E81E0CF911F910F910C9466340130DF
:10584000110509F002CFE5D540E0682F80915A2F6D
:105850000E94CF3E4FE762E080915A2F0E94CF3ED8
:1058600082E0CF911F910F910C9466340E942E36E6
:1058700081E090E08093BF209093C020E6CE82E04C
:1058800090E08093BF209093C020DFCE2FE765CFBC
:105890004FE730CFBED58F5FA1CF68E06C0F892F67
:1058A000880F980F990F690F2FE741E060CF68E0EC
:1058B0006C0F892F880F980F990F690F4FE721CF31
:1058C000A8D5CFEFC80F82CFA4D5C1E0C80F7ECF37
:1058D0000F931F93CF93DF930E94124B0E94564B5E
:1058E000827199274297A9F1C0E0D1E008C061E038
:1058F00070E08C2F87DEDD0FCF5FC630B1F00E94E5
:105900005A4B0D2F10E080239123892B81F70E94A1
:105910005E4B80239123892B89F060E070E08C2F0F
:1059200071DEDD0FCF5FC63051F70E94564B80937A
:10593000BE20DF91CF911F910F9108950E94564B89
:1059400080239123892BB9F262E070E08C2F5ADE1C
:10595000D2CF8091BE208271823011F0803149F720
:1059600084E090E08093BF209093C0200E94A1200B
:105970001092BE20DECF282F30E09FE0899FF001FB
:105980001124E855FC4C8085833061F4220F331FCD
:10599000F901E859FD4C80819181C29664E670E07E
:1059A0000E94D150862F0895E62FF0E0EE0FFF1FE2
:1059B000E859FD4C2081318121563841213D310586
:1059C00010F080E00895282F30E0D901A455B84C9C
:1059D0009C91490F4C93809135218417C4F0042E7B
:1059E000000C550B992781950CF490954817590791
:1059F000A4F08091362190E1899F200D311D112462
:105A0000F901E85DFD4C8FE3808381E0089582E336
:105A100099E18083918381E0089580E698E1808315
:105A2000918381E008950F931F93CF93DF93CDB7B8
:105A3000DEB72897CDBFDEBF262F8A01F89430E865
:105A4000839FC0011124809648E050E0BE016F5F43
:105A50007F4FE8E02E9F800D911D11240E94390593
:105A600078948981982F9F70F8019283158282958E
:105A70008F7083838A818F7784838B8181878C81E8
:105A800082878D81982F9F779387881F8827881F0B
:105A900080838E81982F93709487982F96959695F2
:105AA0009370918382958F7086878F81982F9770DE
:105AB000908782958F7086838885982F9F779783AC
:105AC000881F8827881F85872896CDBFDEBFDF9176
:105AD000CF911F910F910895AF92BF92CF92DF9215
