:1000000043C3000087C3000085C3000083C3000012
:1000100081C300007FC300002BC400005CC400004B
:100020008DC40000BEC4000075C3000073C300008F
:1000300071C300006FC30000F4C500002AC60000B1
:1000400060C6000096C60000CCC6000002C70000D3
:1000500038C700006EC70000A4C70000DAC7000060
:1000600059C3000057C3000055C3000053C300002C
:1000700051C300004FC300004DC300004BC300003C
:1000800049C3000047C3000045C3000043C300004C
:1000900041C300003FC300003DC300003BC300005C
:1000A00039C3000037C3000035C3000033C300006C
:1000B00031C300002FC300002DC300000C94710A4F
:1000C0000C94A90A0C94E10A0C94190B0C94510B92
:1000D0000C94890B1FC300001DC300001BC300004C
:1000E00019C3000017C300000C94533813C3000059
:1000F00011C300000FC300000DC300000BC30000BC
:1001000009C3000007C3000005C3000003C30000CB
:1001100001C30000FFC20000FDC20000FBC20000DE
:10012000F9C20000F7C20000F5C20000F3C20000EF
:10013000F1C20000A6C70000DCC700000C94B108A3
:100140000C94E9080C9421090C9459090C94910918
:100150000C94C9090C94010A0C94390ADBC2000002
:10016000D9C20000D7C20000D5C20000D3C200002F
:10017000D1C20000CFC20000CDC20000CBC200003F
:10018000C9C20000C7C20000C5C20000C3C200004F
:10019000C1C20000BFC20000BDC20000BBC200005F
:1001A000B9C20000B7C20000B5C20000B3C200006F
:1001B000B1C20000AFC20000ADC20000ABC200007F
:1001C000A9C20000A7C20000A5C20000A3C200008F
:1001D000A1C200009FC200009DC200009BC200009F
:1001E00099C2000097C2000095C2000093C20000AF
:1001F00091C200000C943F188DC200002C134B13C9
:100200000B144B130B148A139E130B14E713F013E8
:10021000A026B826D526F52616272C2736274527CB
:1002200056276C2782279827AD270D32BA310D3219
:10023000BA318C320E34D4326633DE37E337E837E6
:10024000ED37B937A237F137C137F137F137F13729
:10025000823707634236B79BD8A71A39685618AE5B
:10026000BAAB558C1D3CB7CC5763BD6DEDFD753EEB
:10027000F6177231BF000000803F05A84CCDB2D404
:100280004EB93836A9020C50B9918688083CA6AA06
:10029000AA2ABE000000803F08000000BE92244948
:1002A000123EABAAAA2ABECDCCCC4C3E00000080A8
:1002B000BEABAAAAAA3E00000000BF000000803F1B
:1002C0000000000000084178D3BB4387D1133D19DB
:1002D0000E3CC3BD4282AD2B3E68EC8276BED98F08
:1002E000E1A93E4C80EFFFBE01C4FF7F3F0000004C
:1002F00000000101020202020303040505060708CB
:100300000A0B0D0F1215181C21262C333C46515E8A
:100310006E7F0101010101010101010101020202DF
:1003200002020202020202020202020303030303A8
:100330000303030404040404040405050505050679
:1003400006060606070707080808080909090A0A31
:100350000B0B0B0C0C0D0D0E0E0F101011111213B8
:1003600014141516171819191A1C1D1E1F202123E5
:10037000242527282A2B2D2F31333537393B3D4073
:100380004245474A4D5053565A5D6164686C7175D9
:100390007A7F000000FF0000FF1500FF2200FF2E03
:1003A00000FF3B00FF4400FF5000FF5D00FF6A00BC
:1003B000FF7700FF7F00FF8C00FF9900FFA500FF83
:1003C000B200FFBF00FFC700FFD400FFE100FFEE57
:1003D00000FFFA00FAFF00EDFF00E1FF00D4FF008C
:1003E000C7FF00BFFF00B2FF00A5FF0099FF008C10
:1003F000FF007FFF0077FF006AFF005DFF0050FFF6
:100400000043FF003BFF002EFF0021FF0015FF000F
:1004100008FF0000FF0000FF0C00FF1900FF26008E
:10042000FF3300FF3F00FF4800FF5400FF6100FF63
:100430006E00FF7B00FF8300FF9000FF9D00FFAA7E
:1004400000FFB600FFBF00FFCB00FFD800FFE500B4
:10045000FFF200FFFF00F6FF00E9FF00DCFF00D025
:10046000FF00C3FF00BBFF00AEFF00A1FF0094FF31
:100470000087FF007FFF0072FF0066FF0059FF004A
:100480004CFF003FFF0037FF002AFF001DFF001058
:10049000FF0004FF0400FF1000FF1D00FF2A00FF03
:1004A0003700FF3F00FF4C00FF5900FF6600FF725E
:1004B00000FF7F00FF8700FF9400FFA100FFAE0058
:1004C000FFBA00FFC300FFD000FFDD00FFE900FF1F
:1004D000F600FFFF00FFFF00F2FF00E5FF00D8FF7E
:1004E00000CCFF00BFFF00B6FF00A9FF009DFF008A
:1004F00090FF0083FF007BFF006EFF0061FF00554F
:10050000FF0048FF003FFF0032FF0026FF0019E117
:10051000F0F00000000000000000000000000000FB
:1005200000007F0000007F0000007F0000007F00CF
:100530000000000000007F000000000000007F00BD
:10054000000000000000000000000055007F0000D7
:100550007F007F00005500006400006E00007F00F7
:1005600000001455007F00007F0000007F00002382
:100570005555557F7F0000006E7F640000000055D8
:10058000555555146E007F0A6414002D7F006E2DA2
:100590004B237F007F007F006E7F007F007F7F0006
:1005A0007F007F007F7F7F007F7F7F007F7F7F7F57
:1005B0007F7F557F647F557F557F557F557F6E7F49
:1005C000647F2A034D006900640069002000460032
:1005D0006900670068007400650072002000540024
:1005E00057004900530054004500520000001C030E
:1005F00044004A00200054006500630068002000A9
:1006000054006F006F006C007300000004030904C5
:1006100009026500020100C0320904000000010166
:100620000000092401000109000101090401000280
:10063000010300000724010001410006240201011A
:100640000006240202020009240301030102010042
:10065000092403020401010100090501024000050B
:100660000000052501010109058202400005000086
:100670000525010103120110010000000880250773
:10068000100100010200010011241FBECFEFCDBFF9
:10069000DFE3DEBF00E00CBF18BE19BE1ABE1BBEF2
:1006A0008091780083FF1CC08091883A9091893AAC
:1006B000A0918A3AB0918B3A8A3C9C4AA244BC4DA4
:1006C00079F41092883A1092893A10928A3A1092EC
:1006D0008B3A81E08CBFE0910020F09101201995C8
:1006E00010E2A0E0B0E2EAECF1E900E00BBF02C0EA
:1006F00007900D92AC34B107D9F71BBE2AE3ACE4E6
:10070000B0E201C01D92A838B207E1F70E946F4322
:100710000C94E34875CC2FB7F894FC01E059FF4FD7
:1007200060958081682360832FBF0895FC01128249
:1007300013824483440F415045836083718380E07A
:1007400090E00895EF92FF920F931F93CF93DF9362
:100750007C01EB018B01040F151FC017D10729F095
:100760006991C7010E94F90CF8CF80E090E0DF9119
:10077000CF911F910F91FF90EF9008951BBEFC0148
:1007800028ED24BF60830895CF93DF93682F70E036
:10079000FB01719634E0EE0FFF1F3A95E1F790915F
:1007A000040140910301EB012496A1E0B0E09D011A
:1007B0000C2E01C0220F0A94EAF7082E01C0AA0FDE
:1007C0000A94EAF72A2B422350E0DA010C2E02C0E9
:1007D000B595A7950A94E2F7A0FD1CC0082E02C0AB
:1007E000559547950A94E2F740FD17C0292330E05C
:1007F000A90102C055954795CA95E2F740FD10C082
:10080000A90102C0559547958A95E2F7CA01817002
:10081000992708C084E090E005C083E090E002C022
:1008200082E090E0218120632183660F771FFB0126
:10083000EA57F24D0190F081E02D309719F0DF91E9
:10084000CF911994DF91CF91089561E080E090E01D
:1008500062DF9FB7F894E0E8FDE281818F5F8183DA
:100860009FBFE0E0F1E080E4808380E8808308952A
:100870001F920F920FB60F92112408B60F9218BE56
:1008800009B60F9219BE0BB60F921BBE2F933F9362
:100890004F935F936F937F938F939F93AF93BF9388
:1008A000EF93FF9380E070DFFF91EF91BF91AF91E5
:1008B0009F918F917F916F915F914F913F912F9178
:1008C0000F900BBE0F9009BE0F9008BE0F900FBE89
:1008D0000F901F9018951F920F920FB60F92112430
:1008E00008B60F9218BE09B60F9219BE0BB60F923A
:1008F0001BBE2F933F934F935F936F937F938F9381
:100900009F93AF93BF93EF93FF9381E03DDFFF9100
:10091000EF91BF91AF919F918F917F916F915F9177
:100920004F913F912F910F900BBE0F9009BE0F90EA
:1009300008BE0F900FBE0F901F9018951F920F9238
:100940000FB60F92112408B60F9218BE09B60F9277
:1009500019BE0BB60F921BBE2F933F934F935F931D
:100960006F937F938F939F93AF93BF93EF93FF9377
:1009700082E00ADFFF91EF91BF91AF919F918F913C
:100980007F916F915F914F913F912F910F900BBE8F
:100990000F9009BE0F9008BE0F900FBE0F901F90D2
:1009A00018951F920F920FB60F92112408B60F924E
:1009B00018BE09B60F9219BE0BB60F921BBE2F932D
:1009C0003F934F935F936F937F938F939F93AF93D7
:1009D000BF93EF93FF9383E0D7DEFF91EF91BF9139
:1009E000AF919F918F917F916F915F914F913F91C7
:1009F0002F910F900BBE0F9009BE0F9008BE0F9065
:100A00000FBE0F901F901895DB01E82FF0E0719654
:100A100084E0EE0FFF1F8A95E1F79FB7F8941996CF
:100A20008C91199784871A968C911A9785871686C8
:100A300017968C911797808718968C9118978187B5
:100A4000128612968C911297828313968C9113972B
:100A5000838314962D913C911597248335831696A4
:100A60008C911697868311968C91119781838C9126
:100A70008F7780839FBF08958091CF0187FDFCCF42
:100A800008951F93CF93DF93C0ECD1E01A858A8736
:100A900061E08BEC91E072DE1A87DF91CF911F91BC
:100AA0000895CF93DF93EC01E7DFECECF1E0808178
:100AB00088608083D05F88819081977F9083DF9169
:100AC000CF910895CF92DF92EF92FF920F931F93F1
:100AD000CF93DF931F921F92CDB7DEB78C017B01BE
:100AE00049835A83C9DF8CECC82EDD24D394F601E8
:100AF000908198609083B801705F49815A81C701E5
:100B00000E94D348F6018081877F80830F900F90E9
:100B1000DF91CF911F910F91FF90EF90DF90CF90D9
:100B20000895AADF8091CF0181FF07C086E38093FB
:100B3000CA0161E08BEC91E021CE0895CF93DF9361
:100B40001F921F92CDB7DEB76A83898395DFACEC25
:100B5000B1E09C9198609C938981E82FF0E0F05F70
:100B60006A8160838C91877F8C930F900F90DF91C7
:100B7000CF910895EF92FF920F931F93CF93DF933E
:100B80001F921F92CDB7DEB7182F80ECE82EFF24FE
:100B9000F394F701028569839A83C3DF6DDF69816E
:100BA000812FCCDFF70112829A819183108385E334
:100BB000828761E08BEC91E0E1DDF70102870F9025
:100BC0000F90DF91CF911F910F91FF90EF900895BB
:100BD0000F931F93CF938C014FDFC0E0F801619119
:100BE0008F018C2FABDFCF5FC032C1F7CF911F9148
:100BF0000F910895CF93DF931F92CDB7DEB789830E
:100C00003BDF898120E2829FC0011124E0ECF1E00A
:100C100012829183808385E390E00F90DF91CF91E2
:100C200030CF1F920F920FB60F92112408B60F9279
:100C300018BE09B60F9219BE0BB60F921BBE2F93AA
:100C40003F934F935F936F937F938F939F93AF9354
:100C5000BF93EF93FF93E0917E20F0917F20309738
:100C600009F01995FF91EF91BF91AF919F918F91ED
:100C70007F916F915F914F913F912F910F900BBE9C
:100C80000F9009BE0F9008BE0F900FBE0F901F90DF
:100C900018951F920F920FB60F92112408B60F925B
:100CA00018BE09B60F9219BE0BB60F921BBE2F933A
:100CB0003F934F935F936F937F938F939F93AF93E4
:100CC000BF93EF93FF93E0917C20F0917D203097CC
:100CD00009F01995FF91EF91BF91AF919F918F917D
:100CE0007F916F915F914F913F912F910F900BBE2C
:100CF0000F9009BE0F9008BE0F900FBE0F901F906F
:100D000018951F920F920FB60F92112408B60F92EA
:100D100018BE09B60F9219BE0BB60F921BBE2F93C9
:100D20003F934F935F936F937F938F939F93AF9373
:100D3000BF93EF93FF93E0917A20F0917B2030975F
:100D400009F01995FF91EF91BF91AF919F918F910C
:100D50007F916F915F914F913F912F910F900BBEBB
:100D60000F9009BE0F9008BE0F900FBE0F901F90FE
:100D700018951F920F920FB60F92112408B60F927A
:100D800018BE09B60F9219BE0BB60F921BBE2F9359
:100D90003F934F935F936F937F938F939F93AF9303
:100DA000BF93EF93FF93E0917820F09179203097F3
:100DB00009F01995FF91EF91BF91AF919F918F919C
:100DC0007F916F915F914F913F912F910F900BBE4B
:100DD0000F9009BE0F9008BE0F900FBE0F901F908E
:100DE00018951F920F920FB60F92112408B60F920A
:100DF00018BE09B60F9219BE0BB60F921BBE2F93E9
:100E00003F934F935F936F937F938F939F93AF9392
:100E1000BF93EF93FF93E0917620F0917720309786
:100E200009F01995FF91EF91BF91AF919F918F912B
:100E30007F916F915F914F913F912F910F900BBEDA
:100E40000F9009BE0F9008BE0F900FBE0F901F901D
:100E500018951F920F920FB60F92112408B60F9299
:100E600018BE09B60F9219BE0BB60F921BBE2F9378
:100E70003F934F935F936F937F938F939F93AF9322
:100E8000BF93EF93FF93E0917420F091752030971A
:100E900009F01995FF91EF91BF91AF919F918F91BB
:100EA0007F916F915F914F913F912F910F900BBE6A
:100EB0000F9009BE0F9008BE0F900FBE0F901F90AD
:100EC00018951F920F920FB60F92112408B60F9229
:100ED00018BE09B60F9219BE0BB60F921BBE2F9308
:100EE0003F934F935F936F937F938F939F93AF93B2
:100EF000BF93EF93FF93E0917220F09173203097AE
:100F000009F01995FF91EF91BF91AF919F918F914A
:100F10007F916F915F914F913F912F910F900BBEF9
:100F20000F9009BE0F9008BE0F900FBE0F901F903C
:100F300018951F920F920FB60F92112408B60F92B8
:100F400018BE09B60F9219BE0BB60F921BBE2F9397
:100F50003F934F935F936F937F938F939F93AF9341
:100F6000BF93EF93FF93E0917020F0917120309741
:100F700009F01995FF91EF91BF91AF919F918F91DA
:100F80007F916F915F914F913F912F910F900BBE89
:100F90000F9009BE0F9008BE0F900FBE0F901F90CC
:100FA00018951F920F920FB60F92112408B60F9248
:100FB00018BE09B60F9219BE0BB60F921BBE2F9327
:100FC0003F934F935F936F937F938F939F93AF93D1
:100FD000BF93EF93FF93E0916E20F0916F203097D5
:100FE00009F01995FF91EF91BF91AF919F918F916A
:100FF0007F916F915F914F913F912F910F900BBE19
:101000000F9009BE0F9008BE0F900FBE0F901F905B
:1010100018951F920F920FB60F92112408B60F92D7
:1010200018BE09B60F9219BE0BB60F921BBE2F93B6
:101030003F934F935F936F937F938F939F93AF9360
:10104000BF93EF93FF93E0916C20F0916D20309768
:1010500009F01995FF91EF91BF91AF919F918F91F9
:101060007F916F915F914F913F912F910F900BBEA8
:101070000F9009BE0F9008BE0F900FBE0F901F90EB
:1010800018951F920F920FB60F92112408B60F9267
:1010900018BE09B60F9219BE0BB60F921BBE2F9346
:1010A0003F934F935F936F937F938F939F93AF93F0
:1010B000BF93EF93FF93E0916A20F0916B203097FC
:1010C00009F01995FF91EF91BF91AF919F918F9189
:1010D0007F916F915F914F913F912F910F900BBE38
:1010E0000F9009BE0F9008BE0F900FBE0F901F907B
:1010F00018951F920F920FB60F92112408B60F92F7
:1011000018BE09B60F9219BE0BB60F921BBE2F93D5
:101110003F934F935F936F937F938F939F93AF937F
:10112000BF93EF93FF93E0916820F091692030978F
:1011300009F01995FF91EF91BF91AF919F918F9118
:101140007F916F915F914F913F912F910F900BBEC7
:101150000F9009BE0F9008BE0F900FBE0F901F900A
:1011600018951F920F920FB60F92112408B60F9286
:1011700018BE09B60F9219BE0BB60F921BBE2F9365
:101180003F934F935F936F937F938F939F93AF930F
:10119000BF93EF93FF93E0916620F0916720309723
:1011A00009F01995FF91EF91BF91AF919F918F91A8
:1011B0007F916F915F914F913F912F910F900BBE57
:1011C0000F9009BE0F9008BE0F900FBE0F901F909A
:1011D00018951F920F920FB60F92112408B60F9216
:1011E00018BE09B60F9219BE0BB60F921BBE2F93F5
:1011F0003F934F935F936F937F938F939F93AF939F
:10120000BF93EF93FF93E0916420F09165203097B6
:1012100009F01995FF91EF91BF91AF919F918F9137
:101220007F916F915F914F913F912F910F900BBEE6
:101230000F9009BE0F9008BE0F900FBE0F901F9029
:1012400018951F920F920FB60F92112408B60F92A5
:1012500018BE09B60F9219BE0BB60F921BBE2F9384
:101260003F934F935F936F937F938F939F93AF932E
:10127000BF93EF93FF93E0916220F091632030974A
:1012800009F01995FF91EF91BF91AF919F918F91C7
:101290007F916F915F914F913F912F910F900BBE76
:1012A0000F9009BE0F9008BE0F900FBE0F901F90B9
:1012B00018951F920F920FB60F92112408B60F9235
:1012C00018BE09B60F9219BE0BB60F921BBE2F9314
:1012D0003F934F935F936F937F938F939F93AF93BE
:1012E000BF93EF93FF93E0916020F09161203097DE
:1012F00009F01995FF91EF91BF91AF919F918F9157
:101300007F916F915F914F913F912F910F900BBE05
:101310000F9009BE0F9008BE0F900FBE0F901F9048
:1013200018951F920F920FB60F92112408B60F92C4
:1013300018BE09B60F9219BE0BB60F921BBE2F93A3
:101340003F934F935F936F937F938F939F93AF934D
:10135000BF93EF93FF93E0915E20F0915F20309771
:1013600009F01995FF91EF91BF91AF919F918F91E6
:101370007F916F915F914F913F912F910F900BBE95
:101380000F9009BE0F9008BE0F900FBE0F901F90D8
:1013900018951F920F920FB60F92112408B60F9254
:1013A00018BE09B60F9219BE0BB60F921BBE2F9333
:1013B0003F934F935F936F937F938F939F93AF93DD
:1013C000BF93EF93FF93E0915C20F0915D20309705
:1013D00009F01995FF91EF91BF91AF919F918F9176
:1013E0007F916F915F914F913F912F910F900BBE25
:1013F0000F9009BE0F9008BE0F900FBE0F901F9068
:1014000018951F920F920FB60F92112408B60F92E3
:1014100018BE09B60F9219BE0BB60F921BBE2F93C2
:101420003F934F935F936F937F938F939F93AF936C
:10143000BF93EF93FF93E0915A20F0915B20309798
:1014400009F01995FF91EF91BF91AF919F918F9105
:101450007F916F915F914F913F912F910F900BBEB4
:101460000F9009BE0F9008BE0F900FBE0F901F90F7
:1014700018951F920F920FB60F92112408B60F9273
:1014800018BE09B60F9219BE0BB60F921BBE2F9352
:101490003F934F935F936F937F938F939F93AF93FC
:1014A000BF93EF93FF93E0915820F091592030972C
:1014B00009F01995FF91EF91BF91AF919F918F9195
:1014C0007F916F915F914F913F912F910F900BBE44
:1014D0000F9009BE0F9008BE0F900FBE0F901F9087
:1014E00018951F920F920FB60F92112408B60F9203
:1014F00018BE09B60F9219BE0BB60F921BBE2F93E2
:101500003F934F935F936F937F938F939F93AF938B
:10151000BF93EF93FF93E0915620F09157203097BF
:1015200009F01995FF91EF91BF91AF919F918F9124
:101530007F916F915F914F913F912F910F900BBED3
:101540000F9009BE0F9008BE0F900FBE0F901F9016
:1015500018951F920F920FB60F92112408B60F9292
:1015600018BE09B60F9219BE0BB60F921BBE2F9371
:101570003F934F935F936F937F938F939F93AF931B
:10158000BF93EF93FF93E0915420F0915520309753
:1015900009F01995FF91EF91BF91AF919F918F91B4
:1015A0007F916F915F914F913F912F910F900BBE63
:1015B0000F9009BE0F9008BE0F900FBE0F901F90A6
:1015C00018951F920F920FB60F92112408B60F9222
:1015D00018BE09B60F9219BE0BB60F921BBE2F9301
:1015E0003F934F935F936F937F938F939F93AF93AB
:1015F000BF93EF93FF93E0915220F09153203097E7
:1016000009F01995FF91EF91BF91AF919F918F9143
:101610007F916F915F914F913F912F910F900BBEF2
:101620000F9009BE0F9008BE0F900FBE0F901F9035
:1016300018951F920F920FB60F92112408B60F92B1
:1016400018BE09B60F9219BE0BB60F921BBE2F9390
:101650003F934F935F936F937F938F939F93AF933A
:10166000BF93EF93FF93E0915020F091512030977A
:1016700009F01995FF91EF91BF91AF919F918F91D3
:101680007F916F915F914F913F912F910F900BBE82
:101690000F9009BE0F9008BE0F900FBE0F901F90C5
:1016A00018951F920F920FB60F92112408B60F9241
:1016B00018BE09B60F9219BE0BB60F921BBE2F9320
:1016C0003F934F935F936F937F938F939F93AF93CA
:1016D000BF93EF93FF93E0914E20F0914F2030970E
:1016E00009F01995FF91EF91BF91AF919F918F9163
:1016F0007F916F915F914F913F912F910F900BBE12
:101700000F9009BE0F9008BE0F900FBE0F901F9054
:1017100018951F920F920FB60F92112408B60F92D0
:1017200018BE09B60F9219BE0BB60F921BBE2F93AF
:101730003F934F935F936F937F938F939F93AF9359
:10174000BF93EF93FF93E0914C20F0914D203097A1
:1017500009F01995FF91EF91BF91AF919F918F91F2
:101760007F916F915F914F913F912F910F900BBEA1
:101770000F9009BE0F9008BE0F900FBE0F901F90E4
:101780001895CF93CFB7F894811528E0920711F4FC
:1017900061E005C0803428E0920749F462E083E00C
:1017A00090E00E948B0364E083E090E01EC081150E
:1017B00029E0920711F461E005C0803429E0920726
:1017C00049F462E084E090E00E948B0364E084E0EE
:1017D00090E00BC081159A4091F461E085E090E0C3
:1017E0000E948B0364E085E090E00E948B039FB72A
:1017F000F8948091812D8F5F8093812D9FBFCFBF03
:10180000CF910895811528E0920729F460937A20FA
:1018100070937B200895803428E0920729F4609328
:101820006E2070936F200895811529E0920729F4A6
:1018300060936620709367200895803429E09207B2
:1018400029F460935A2070935B20089581159A4083
:1018500021F460935220709353200895811528E05D
:10186000920729F46093782070937920089580344A
:1018700028E0920729F460936C2070936D200895FE
:10188000811529E0920729F4609364207093652004
:101890000895803429E0920729F4609358207093CA
:1018A0005920089581159A4021F460935020709337
:1018B00051200895009709F49BC0803C910511F4D4
:1018C00060E105C0811524E0920721F464E080E026
:1018D00090E08CC0803821E0920711F462E0F7CFED
:1018E000811521E0920711F461E0F1CF803823E007
:1018F000920711F461E005C0811522E0920721F4FE
:1019000062E081E090E072C0803223E0920721F42F
:1019100064E082E090E06AC0811528E0920711F44B
:1019200061E05BC0811529E0920711F461E04DC0D0
:1019300081152AE0920711F461E056C0803428E056
:10194000920711F462E049C0803429E0920711F453
:1019500062E03BC0803928E0920711F464E03DC0AA
:10196000803929E0920711F464E02FC080392AE021
:10197000920711F464E038C0803C28E0920711F42B
:1019800068E02BC0803C29E0920711F468E01DC09C
:10199000803A28E0920711F460E11FC0803A29E004
:1019A000920711F460E111C0803A2AE0920711F425
:1019B00060E11AC0803B28E0920711F460E20DC09C
:1019C000803B29E0920721F460E284E090E00EC0C1
:1019D000803824E0920721F460E483E090E006C0C0
:1019E000803A944029F460E485E090E00C948B0305
:1019F0000895FC01218125FFFCCF608380E090E009
:101A00000895FC01218127FFFCCF808108958F92EA
:101A10009F92AF92BF92CF92DF92EF92FF920F937D
:101A20001F93CF93DF93EC016A017B0148015901B9
:101A3000B901A801E3E07695679557954795EA9532
:101A4000D1F7D901C801F6E1B695A7959795879585
:101A5000FA95D1F72C8122FD08C0769567955795A8
:101A60004795B695A795979587954C155D056E0595
:101A70007F0508F498C0C816D906EA06FB0608F4E4
:101A800092C08C8182FD04C0CC0CDD1CEE1CFF1CBE
:101A9000C501B401A70196010E948C4819EF8FEF90
:101AA00090E0A0E0B0E0281739074A075B0758F03C
:101AB000880F991FAA1FBB1F1D3F0CF481601F5F79
:101AC000173089F749C017FF47C0D701C601F3E0B7
:101AD000880F991FAA1FBB1FFA95D1F7881A990A78
:101AE000AA0ABB0A812F012E000C990B1E3FDCF4C1
:101AF0002DEF3FEFA901481B590B04C0880C991C1E
:101B0000AA1CBB1C4A95D2F7D701C601B695A7956A
:101B100097958795BC01CD01680D791D8A1D9B1D88
:101B2000A701960116C00396A701960104C0220FD3
:101B3000331F441F551F8A95D2F7DA01C901B695A4
:101B4000A79597958795BC01CD01680D791D8A1DD4
:101B50009B1D0E948C481DC083E0810FA701960148
:101B600004C0220F331F441F551F8A95D2F7DA0194
:101B7000C901B695A79597958795BC01CD01680DCC
:101B8000791D8A1D9B1D0E948C48215031094109F5
:101B90005109932F9F70812F8295807F892B8F838E
:101BA0002E8381E001C080E0DF91CF911F910F91E2
:101BB000FF90EF90DF90CF90BF90AF909F908F906D
:101BC00008950F931F93CF93DF93EC018B0172DE87
:101BD0008D818F738D83F80196818481982B808508
:101BE000811188E0892B8D83F801408151816281C8
:101BF000738100E018E428EE31E0CE0108DF9C811B
:101C000098609C839C8190619C83DF91CF911F9110
:101C10000F9108950F931F93CF93DF93EC01D90198
:101C2000C801369527951795079540175107620704
:101C3000730768F49A01AB01220F331F441F551F2D
:101C4000BC01CD010E948C482150310902C020E026
:101C500030E0832F8F708F832E83DF91CF911F9180
:101C60000F910895EF92FF920F931F93CF93DF93FD
:101C7000EC017B011FDE8C818F7E8C83F701248138
:101C80002250C03AF8E0DF0731F480914E0684FD1F
:101C90006BC011E11FC0C03B88E0D80709F464C0E5
:101CA000C03AE9E0DE0731F480916E0684FD5EC043
:101CB00019E110C0C03BF9E0DF0709F457C0C03A92
:101CC0008AE0D80739F480918E0684FD02C011E2C3
:101CD00001C015E2E12FE695E695E69580E2E89FE2
:101CE000F0011124FA5F177081E090E001C0880FC5
:101CF0001A95EAF78183223010F020E001C020E439
:101D00008093B000208B85838D81806C8D83F7015B
:101D100084818D7F813019F48D81826002C08D8134
:101D20008D7F8D83F7018581882319F08D818460F3
:101D300002C08D818B7F8D83F7014081518162814B
:101D4000738100E018E428EE31E0CE0163DF8C817E
:101D500088608C838C8180618C83DF91CF911F910F
:101D60000F91FF90EF90089515E1B4CF1DE1B2CF30
:101D70008091820080FDFCCF0895609180006270A8
:101D80006160880F880F8C73682B80E890E00E9458
:101D9000BE03EECF609180006C7F616080E890E0D0
:101DA0000C94BE03609180006C73636080E890E0E7
:101DB0000E94BE03DDCF63E080E890E00E94BE0396
:101DC000D7DF6BE281E890E00E94BE03D1DFA895E7
:101DD000FFCF9F92AF92BF92CF92DF92EF92FF928E
:101DE0000F931F93CF93DF93CDB7DEB7C155D109C2
:101DF000CDBFDEBF833008F449C1FB019081E18093
:101E0000911156C0863008F441C1EE2009F43EC15C
:101E10009281992309F43AC1248130E090E004973B
:101E2000281739070CF032C16E2D70E0615071092E
:101E30006B0154E0D594C7945A95E1F76F707727FA
:101E4000AE014F5F5F4F8FE0DA011D928A95E9F78F
:101E5000CA0100E81FE0140FDC010D93CD011A1335
:101E6000FBCF359690E0890101501109292F30E010
:101E700020173107B4F42E0F3F1FD9012C912A509F
:101E80002F3068F4DA01A20FB11D9D0181E0890FA6
:101E90007F01E80EF11CD7018C91D9018C939E5FD4
:101EA000E5CF8C2D0E94252E0E941E3AA895EEC0EB
:101EB000913009F0EBC0EE2DF0E09F012150310987
:101EC000C90160E170E00E94794837FF02C0215FDC
:101ED0003F4F44E0359527954A95E1F7AE014E5BBB
:101EE0005F4F682F822F0E94D0288AE08CA3239610
:101EF0008FAD23978DA38BE08EA324968FAD24976F
:101F00008FA38CE088A725968FAD259789A78DE0B4
:101F10008AA726968FAD26978F5F8BA78EE08CA71A
:101F200027968FAD27978DA78FE08EA71FA680E1FC
:101F300088AB29968FAD29978F5F89AB81E18AABFA
:101F40002A968FAD2A978BAB82E18CAB2B968FAD07
:101F50002B978DAB83E18EAB2C968FAD2C978FABEF
:101F600084E188AF2D968FAD2D9789AF85E18AAF3B
:101F70002E968FAD2E978BAF86E18CAF2F968FADBF
:101F80002F978DAF87E18EAF60968FAD60978FAF43
:101F900088E121968FAF219761968FAD6197229648
:101FA0008FAF22978FEF8E0D803410F000E001C0CC
:101FB0000EE1802F68E10E944C48FF24F394F80E54
:101FC000D12C21E080EFC82EBB24B39499E7A92E31
:101FD00034E0932E17EF802F093108F088E1085183
:101FE000C9821A82BB82AC829D821E82EF822887C0
:101FF000F9868A871B871C871D871E871F87188B7A
:10200000198B1A8B1B8B1C8B1D8B1E8B1F8B188F98
:10201000198F1A8F1B8F1C8F1D8F1E8F1F8F18A358
:1020200019A31AA31BA39AE0682F70E0675F7F4F84
:10203000492F50E0641775078CF0A1E0B0E0AC0FB9
:10204000BD1FA40FB51FE4E2F0E0EC0FFD1FED0D86
:10205000F11D30813C939F5FD394EACFBE016F5F47
:102060007F4F855F62962FAF62970E940D378091F8
:10207000393A90913A3A57D2A89562962FAD629725
:1020800081E0820F22E0F81608F0A5CFCF5ADF4F8B
:10209000CDBFDEBFDF91CF911F910F91FF90EF90E9
:1020A000DF90CF90BF90AF909F900895DC0190E0BB
:1020B00050E041505109292F30E024173507F4F43E
:1020C00081E0890FFB01E20FF31F20812A3048F4E1
:1020D000FB01E80FF11D8081FD01E20FF11D8083FE
:1020E0000BC02F3148F0FB01E80FF11D8081FD018D
:1020F000E20FF11D759780839E5FDDCF0895CF932A
:10210000DF93CDB7DEB76F97CDBFDEBFF8940E94E7
:102110007D26FC01789480EF89831A8281E08B838D
:1021200099E79C8322E02D838E831F829091553105
:102130009F5F9887898784858A872B8780818C8792
:1021400083E08D8782818E8784E08F878481888B6E
:1021500085E0898B86818A8B86E08B8B80858C8B52
:1021600087E08D8B82858E8B88E08F8B80915431B8
:10217000888F89E0898F80914D318A8F8FE18B8F95
:1021800080918E2D8C8F80E28D8F809153318E8F38
:1021900087EF8F8FBE016F5F7F4F8FE10E940D37FA
:1021A0006F96CDBFDEBFDF91CF910895882329F0D0
:1021B000FB018081811101C0A2CF0895CF93DF93ED
:1021C000CDB7DEB72D97CDBFDEBFF89481E090E0AC
:1021D0000E9451058093553183E090E00E945105A3
:1021E00091E0811101C090E09D8784E090E00E9421
:1021F000510590E089839A8385E090E00E94510523
:1022000090E08B839C8386E090E00E94510590E0F3
:102210008D839E8387E090E00E94510590E08F833C
:10222000988788E090E00E94510590E089879A871E
:1022300089E090E00E94510590E08B879C878AE0BE
:1022400090E00E945105809354318BE090E00E9411
:10225000510580934D318CE090E00E9451058093B0
:102260008E2D8DE090E00E94510580935331CE0178
:1022700001960E94522678942D96CDBFDEBFDF9145
:10228000CF910895CF93DF93CDB7DEB72F97CDBF12
:10229000DEBF6E877F878D877DDDFE0131969CE0F6
:1022A000DF011D929A95E9F78D85482F6E857F8510
:1022B000CF01FCDE6981615081E090E00E94BA05A7
:1022C0006A8183E090E00E94BA056B8184E090E02F
:1022D0000E94BA056C8185E090E00E94BA056D818C
:1022E00086E090E00E94BA056E8187E090E00E944F
:1022F000BA056F8188E090E00E94BA05688589E0A0
:1023000090E00E94BA0569858AE090E00E94BA05D3
:102310006A858BE090E00E94BA056B858CE090E0C6
:102320000E94BA056C858DE090E00E94BA0560E0DD
:102330007FEF80E090E00E94F83E40DF0E94292974
:10234000DEDE0E946D302F96CDBFDEBFDF91CF91D4
:102350000895F89467E080E090E00E94BA0563E099
:1023600081E090E00E94BA0561E083E090E00E9485
:10237000BA0560E084E090E00E94BA0567E085E07D
:1023800090E00E94BA0560E086E090E00E94BA0505
:1023900060E087E090E00E94BA0566E088E090E0A7
:1023A0000E94BA0560E089E090E00E94BA056FE300
:1023B0008AE090E00E94BA056FE78BE090E00E940F
:1023C000BA056FE78CE090E00E94BA056FE78DE0F8
:1023D00090E00E94BA0578940C94B529882369F19D
:1023E000FB018081813019F0823069F00895D2DCE0
:1023F000D4D52FEF8FE493EC215080409040E1F74B
:1024000000C0000037C0C6DCA4DF87E08093A200D4
:102410006FEF7FEF80E090E00E94F83EBED52FEF97
:102420008FE493EC215080409040E1F700C0000021
:1024300081E090E0A2DCB6DCFFCF089562E471E1B8
:1024400081E00E94EC2466ED70E182E00E94EC24C1
:102450006EEE71E183E00E94EC2469EE7EE084E0A0
:102460000E94EC2480E090E00E945105873009F042
:1024700070CF089592D5F89480E02FEF3FE891E077
:10248000215030409040E1F700C000008F5F80385D
:10249000A1F78AEC9CEAA2E4BCED8093883A909381
:1024A000893AA0938A3AB0938B3A85CCCF93DF9345
:1024B000EC011B8682E08C83898761E0CE01019666
:1024C00099D4882331F061E0CE010696DF91CF9157
:1024D00091C480E0DF91CF910895CF93DF93209155
:1024E00066312430D1F4EB01FC0181818AD340E0D4
:1024F00050E064E070E0CE01AED1811111C0809156
:102500006F3190917031FC01EF5BFF4F208131976B
:102510008081281720F02DD302C082E001C080E026
:10252000DF91CF910895209166312430E9F4FC01C8
:10253000818167D38091733120916F3130917031F7
:10254000F90187FF05C0EF5BFF4F808190E008C075
:10255000E05CFF4F80813196208190E0821B9109E1
:10256000892B21F006D3DBC482E0089580E0089532
:10257000CF93DF9320916631243051F4EC018981AF
:1025800040D374D3882321F0CE01DF91CF91CBCFFC
:10259000DF91CF9108950F931F93CF9320916631D0
:1025A000243011F0C0E027C08B01FC01868129D3C3
:1025B00069D3C82F8823B1F320916F3130917031E6
:1025C000F901EF5BFF4F908131978081981750F7A9
:1025D00040E050E064E070E0C8018AD120916F31A2
:1025E00030917031F901EF5BFF4F9081319780811D
:1025F000981708F0D7D28C2FCF911F910F91089583
:10260000FF920F931F93CF93DF93CDB7DEB7EA9777
:10261000CDBFDEBF07E611E388E0F82EF00ED1D281
:10262000F80181938F01FE12FACF0E942D4444D30A
:10263000882309F4F0C09091673120916831422FCE
:1026400050E04A30510508F0E6C0FA018827E25010
:10265000FF4F8F4F0C94CA48903891F0923809F090
:10266000DAC080916B318F70CCD2E0917131F091F2
:102670007231118112FB112710F980E0C2D206C01D
:102680001091633180916431811112602FD3812FB9
:10269000A8D280E0A1C0892F8D7F09F0BCC099230A
:1026A00019F0923061F0B7C080916931813009F042
:1026B000B2C0233009F080E08093643127C080915C
:1026C0006931811123C0E0916B311E2F1F7009F415
:1026D000A2C0812F96D280916831833011F432D319
:1026E00015C0E0917131F091723181818B7F8183CE
:1026F00024E8129FF0011124EB54FE4C1082E0916B
:102700007131F091723180818E7F808380E079D247
:10271000EDD264C091117FC0109169311F77E6D26C
:10272000E8D3A4D28823E9F31093C304111102C0A3
:1027300082E001C083E0809366316DC09058923092
:1027400008F069C08091693190916A318C3DE3E075
:102750009E0761F583E08A838AE389834FB7F89403
:10276000DE01139620E038E052E05093CA01E32FD7
:10277000F0E0E4911092CA0120FF03C0E295EF70EF
:102780003F5FEF708E2F90E0EA3010F0C79601C0E7
:10279000C0968D939D932F5F2C3139F74FBFA6D2F2
:1027A0006AE370E0CE010196F0D00FC0AE014F5F3A
:1027B0005F4F60916B310E940B398C01892B59F16D
:1027C00095D2B80189819A8159D1ECD124C0903831
:1027D00011F58CD28091623104D2CBD18AD31BC047
:1027E000911119C0809169318230A8F47FD2809113
:1027F0006931809362317DD380916231811106C04D
:102800008091C304811102C081E001C084E0809303
:1028100066310E94134450D2882311F067D292D2BD
:10282000EA96CDBFDEBFDF91CF911F910F91FF9050
:1028300008950895CF9380916631882351F0C09117
:10284000733180E0DED138D28111DADE8C2FCF9166
:10285000D8C1CF910895CF92DF92EF92FF920F935C
:102860001F93CF93DF93EC018B017A0158D3811131
:1028700036C0E114F10439F0F70180819181081B21
:10288000190BC80FD91FC12CD12C0115110531F11D
:1028900080916F3190917031FC01EF5BFF4F20818F
:1028A00031978081281790F064D1C4DFE114F104DE
:1028B00049F0F70180819181C80ED91EC082D18272
:1028C00085E00DC02CD3882301F309C0899189D1FB
:1028D00001501109FFEFCF1ADF0AD7CF80E0DF9157
:1028E000CF911F910F91FF90EF90DF90CF900895BF
:1028F000CF92DF92EF92FF920F931F93CF93DF93CC
:10290000EC018B017A010BD3811136C0E114F10483
:1029100039F0F70180819181081B190BC80FD91F6D
:10292000C12CD12C0115110531F180916F3190919D
:102930007031FC01EF5BFF4F2081319780812817B8
:1029400090F030D177DFE114F10449F0F701808194
:102950009181C80ED91EC082D18285E00DC0DFD220
:10296000882301F309C02DD1899301501109FFEF8C
:10297000CF1ADF0AD7CF80E0DF91CF911F910F915F
:10298000FF90EF90DF90CF900895DF92EF92FF924B
:102990000F931F93CF93DF93D82FC92F8B01809173
:1029A000733180682ED120916D3130916E312017B6
:1029B000310728F00115110519F4DBD001C0890198
:1029C000ED2EFC2ED12C0115110509F43EC080918D
:1029D0006631811102C082E049C0853011F483E084
:1029E00045C06AD1811141C04DD1811139C03ED15C
:1029F000882349F32091733180916F319091703128
:102A0000FC0127FF05C0EF5BFF4FC081D0E013C082
:102A1000E05CFF4FC08131968081D0E0C81BD109B6
:102A20000AC0C830D10550F4F70181917F01D9D097
:102A30000150110921960115110599F7DD24D39450
:102A4000289709F0D12C95D0BECFD110C0CF08C0A7
:102A500080916631882309F4BECF853009F4BFCF59
:102A600011D18823A9F380E001C081E0DF91CF91EB
:102A70001F910F91FF90EF90DF900895DF92EF92FA
:102A8000FF920F931F93CF93DF93D82FC92F8B0102
:102A9000809173318068B5D020916D3130916E3165
:102AA0002017310728F00115110519F462D001C073
:102AB0008901ED2EFC2ED12C0115110509F440C021
:102AC00080916631811102C082E04BC0853011F4E3
:102AD00083E047C0F1D0811143C0D4D081113BC005
:102AE000C5D0882349F32091733180916F31909143
:102AF0007031FC0127FF05C0EF5BFF4FC081D0E0C4
:102B000015C0E05CFF4FC08131968081D0E0C81BCA
:102B1000D1090CC0C830D10560F4F701849161D0AF
:102B2000FFEFEF1AFF0A0150110921960115110557
:102B300089F7DD24D394289709F0D12C1AD0BCCF83
:102B4000D110BECF08C080916631882309F4BCCF74
:102B5000853009F4BDCF96D08823A9F380E001C069
:102B600081E0DF91CF911F910F91FF90EF90DF9067
:102B70000895E0917131F0917231A0916F31B0916F
:102B80007031AF5BBF4F8C9190E0828393838081E3
:102B90008D798083E0916F31F0917031EF5BFF4F61
:102BA00010820895E0917131F091723180818D79B8
:102BB0008083E0916F31F0917031EF5BFF4F1082B5
:102BC000089580916F3190917031FC01EF5BFF4F60
:102BD000208131E0320F3083FC01E20FF11D808152
:102BE000089520916F3130917031F901EF5BFF4F03
:102BF000908141E0490F4083F901E90FF11D808385
:102C0000089580937331482F4F7050E06091C6044F
:102C10007091C7049A0194E0220F331F9A95E1F74F
:102C2000E4E887FF11C0E49FC001E59F900D1124E7
:102C30008A549E4C80936F3190937031C9010896ED
:102C40009B01280F391F0DC0E49FC001E59F900D27
:102C500011248C589E4C80936F3190937031260FC5
:102C6000371F209371313093723108958091733101
:102C70008068C7DFE0917131F09172318081869573
:102C800081700895809173318F77BBDFA09171318E
:102C9000B09172318C9185FF0DC0E0916F31F09150
:102CA000703112968D919C911397E05CFF4F808359
:102CB00081E0089580E00895809173318F77A1DFDE
:102CC000A0917131B09172318C9184FF0DC0E0916F
:102CD0006F31F091703112968D919C911397E05C59
:102CE000FF4F808381E0089580E0089580917331E3
:102CF0008F7787DFE0917131F091723180818D782B
:102D00008083E0917131F0917231808181608083A4
:102D1000E0916F31F0917031EF5BFF4F1082809145
:102D2000733180686EDFE0917131F0917231808192
:102D300081608083E0916F31F0917031EF5BFF4FE4
:102D400010820895E0917131F09172318181846037
:102D50008183E0917131F09172318181807C803486
:102D600059F48091733180584CDFE0917131F091CA
:102D7000723181818460818308951F93CF93DF93A3
:102D80001F921F92CDB7DEB7182F4A83698339DFB0
:102D9000E0917131F09172311182E0917131F091D5
:102DA0007231812F881F8827881F880F8083E091C8
:102DB0007131F091723169816183E0917131F091EB
:102DC00072311282138220916F31309170312483DD
:102DD0003583110F110B4A814123F901E05CFF4F4C
:102DE00040833196108281E00F900F90DF91CF9158
:102DF0001F910895AF92BF92CF92DF92EF92FF9210
:102E00000F931F93CF93DF93A62E8C017C0184E058
:102E1000E80EF11CB12CBA1409F443C0F801D081BA
:102E2000DD23C1F1C180D280F70131978081F701A4
:102E30009081923010F498E001C098E128E030E0F1
:102E4000C0E02C153D0520F4CF5F220F331FF9CFD2
:102E5000C92B9D2F9F70933010F080E023C0CF7E50
:102E6000F1E4CF16D104C8F7882321F0813021F492
:102E7000C06C0AC0C06403C0C068811105C04C2D7D
:102E80006C2F80E88D0F79DF4C2D6C2F8D2F75DF27
:102E9000882319F3B3940B5F1F4F85E0E80EF11CF4
:102EA000BACF81E0DF91CF911F910F91FF90EF900A
:102EB000DF90CF90BF90AF90089580E090E0E091D8
:102EC000C604F091C7049C0144E0220F331F4A95C9
:102ED000E1F7E20FF31F11864091C6045091C70439
:102EE000FA01E20FF31F118201968330910539F741
:102EF00008958091673187FF0DC0C4DE811105C040
:102F0000809166318111F9CF09C04CCE8091663134
:102F1000882321F0ABDE8823C9F32BCE08950F93CD
:102F20001F93CF93E091C604F091C70400A911A9A3
:102F3000C4E68091733187FF0AC098DE811105C015
:102F400080916631811105C01FC080E022C09ADEE9
:102F5000F5CF8530D9F0E0917131F09172318181F6
:102F600082FD16C0E091C604F091C70480A991A922
:102F700080179107F1F22FEF2C0FCC2319F08C0161
:102F8000C22FD7CF84E005C082E003C083E001C038
:102F900081E0CF911F910F91089564D06AD0E0EC49
:102FA000F4E081818E7F818380818F77808310928E
:102FB00065310895CF93DF93E0E4F0E014828481DB
:102FC000836084834FD055D0C0ECD4E088818F7764
:102FD000888388818068888310926631109262317C
:102FE000109264311092633188818064888348E054
:102FF00068E480E8C2DE48E068E480E0BEDE888500
:1030000080648887898181608983DF91CF91089569
:10301000CF93DF932FB7F894C0ECD1E082E08A879A
:10302000EAE1F0E0E491A0ECB4E0DA96EC93DA9710
:10303000EBE1F0E0E491DB96EC93DB971A8681E01C
:1030400093E38E7F16968D939C93179782E18C93D2
:1030500083E018968C932FBF81E080936531DF91D8
:10306000CF91A8CFE0ECF4E0808583708087118653
:103070000895E0ECF4E08FEF8287848708951F9233
:103080000F920FB60F92112408B60F9218BE09B610
:103090000F9219BE0BB60F921BBE2F933F934F9307
:1030A0005F936F937F938F939F93AF93BF93EF93B0
:1030B000FF938091CA0486FF07C080E48093CA040E
:1030C00085E080936631B5DB8091CA0485FF13C02B
:1030D00080E28093CA0480916231882311F084E0F9
:1030E00007C08091C304811102C081E001C083E068
:1030F000809366319EDB8091CA0484FF14C080E116
:103100008093CA0482E080936631109262311092FB
:10311000C304D3DE48E068E480E82FDE48E068E4DA
:1031200080E02BDE86DBFF91EF91BF91AF919F9105
:103130008F917F916F915F914F913F912F910F9060
:103140000BBE0F9009BE0F9008BE0F900FBE0F90E0
:103150001F90189581E0089580913533882349F0B8
:103160000E94C736BC017695679589EC98E10C946E
:103170005E420E94C736BC01660F771F860F971FFD
:10318000BC01769567957695679589EC98E10C94E6
:103190005E422F923F924F925F926F927F928F92F8
:1031A0009F92AF92BF92CF92DF92EF92FF920F93D6
:1031B0001F93CF93DF9300D01F92CDB7DEB78091DE
:1031C000333390913433029709F0BBC06090812073
:1031D0008FEF860D8F3F09F48FE0482E512C3EE48F
:1031E000A32E31E3B32E48E3C42E43E3D42E01E2F1
:1031F00011E35FE8E52E5DE2F52E1B821C82712C47
:103200006FE7862E912CF50131915F01FB81F983E7
:10321000330F330F8F2F8C5D380FF60181916F01C3
:1032200099E0980F9331B8F01816ACF46AE00E9458
:10323000584884300CF083E0E82FF0E0E15CFF4D6B
:103240008091812060810E944C4891111FC02FE71E
:10325000222E312C1DC0F70180819CE04B815C81C6
:10326000949FF001959FF00D1124E80FF11D94E05B
:10327000EE0FFF1F9A95E1F7E60DF71DE55FF14DA3
:103280008081882319F0282E312C02C0212C312C6A
:10329000F70181917F019CE04B815C81949FF0015B
:1032A000959FF00D1124E80FF11D84E0EE0FFF1F34
:1032B0008A95E1F7E40DF51DE55FF14D80818823E6
:1032C00041F02FE740E0632F87E03A830E94023805
:1032D0003A8121143104B9F0F8012081229DC00106
:1032E000239D900D1124B4010E946548362E262F8F
:1032F00041E0632F87E00E9402386981665F432DB9
:1033000087E00E942E384B815C814F5F5F4F4B837B
:103310005C83085F1F4F4430510509F074CF8091E2
:10332000393A90913A3AFFD8809181208F5F80316D
:1033300019F08093812005C01092812081E0809354
:1033400080202496CDBFDEBFDF91CF911F910F91DA
:10335000FF90EF90DF90CF90BF90AF909F908F90B5
:103360007F906F905F904F903F902F900895BF9205
:10337000CF92DF92EF92FF920F931F93CF93DF9341
:103380006EE471E3CFE8DDE2A2E2B1E340E050E0B9
:103390008FE3C82E9FE7D92EFB011192BF0180E079
:1033A00090E020E030E08C01040F151FF901E80FD8
:1033B000F91FEE5EFA4FB4907901E00EF11EF701AD
:1033C000E55FF14DB0822F5F3F4F2031310571F73E
:1033D0004096803C910529F71992FD0132971082A1
:1033E000CC92319710823296D082359710821896FF
:1033F00040545F4F4115F3E05F0771F61092613161
:1034000080E2EBEDFDE2DF011D928A95E9F780E1B4
:10341000EDE3F1E3DF011D928A95E9F71092FB2DB0
:103420001092FC2D1092FD2D1092FE2DB3D4EBEDD9
:10343000FDE2CDE3D1E380E090E00CE918E16FE339
:103440004CE951E33FE7108211821992008F118FEE
:10345000DC01A35CBE4C1C966C931C97408B518B7B
:103460002FE718963C93019632968430910559F7D0
:10347000209336331092892020938A20109237337C
:1034800010923B3110923C318AE580935231109278
:1034900035331092333310923433DF91CF911F9133
:1034A0000F91FF90EF90DF90CF90BF9008958091A3
:1034B000333390913433892B59F481E090E0809339
:1034C0003333909334334FE76EE087E00C942E381B
:1034D00010923333109234331092812040E06EE02A
:1034E00087E00C942E38109281200895CF9320917C
:1034F0003333309134332130310551F4811129C0F7
:1035000082E090E08093333390933433CF9141CE77
:1035100022303105F1F4C82F0E94D036882389F07B
:103520008C2FCC0F990B029666E070E00E947948D0
:10353000892B79F461E070E08CEA98E1CF910C94EA
:103540005E428C2F66E00E945848911102C0CF91D4
:1035500020CECF91089590E0FC01E157F24D2081FB
:103560003CE0389FF001399FF00D1124E20FF11D6E
:1035700084E0EE0FFF1F8A95E1F7E60FF11DE55F8E
:10358000F14D8081089590E0FC01E157F24D2081DA
:103590003CE0389FF001399FF00D1124E20FF11D3E
:1035A00084E0EE0FFF1F8A95E1F7E60FF11DE55F5E
:1035B000F14D40830895E82FF0E0E25BFE4C60831C
:1035C0000895E82FF0E0E25BFE4C808108954FE71C
:1035D0006FE087E00E942E3840E06FE087E00C94B7
:1035E0002E389CEE980F9430B8F498E0899FF00143
:1035F0001124E558FF4C81E0611180E084838091C3
:103600003B3190913C31019709F083C00E944826DC
:10361000049709F07EC097C098EE980F943098F404
:1036200098E0899FF0011124E55AFF4C81E0611177
:1036300001C080E0858380913B3190913C310197BE
:1036400009F067C0E3CF9AE9980F9031C0F590E098
:10365000865691099C0123703327959587959595FA
:10366000879553E0220F331F5A95E1F7F901E55E84
:10367000FE4C82309105B9F083309105D1F001976D
:1036800031F081E0611101C080E08083089581E024
:10369000611101C080E0818380913B3190913C3188
:1036A0000197B9F5B3CF81E0611101C080E0828359
:1036B000089581E0611101C080E0838308958F3017
:1036C00079F480910220882321F181E080933533C1
:1036D00084E090E00E944D26B0D11092022077CF76
:1036E0008E30B9F4662369F080913333909134338E
:1036F000892B79F481E090E08093333390933433D5
:103700000895109233331092343310928120109226
:1037100080200895843058F09CEF980F943050F03A
:1037200098EF980F943048F08C50843048F080E047
:1037300090E0089581E090E0089582E090E008959F
:1037400083E090E008952F923F924F925F926F92A4
:103750007F928F929F92AF92BF92CF92DF92EF9221
:10376000FF920F931F93CF93DF9300D0CDB7DEB7B7
:10377000E0918E2DF0E0EE5EFC4FE491E09153314C
:10378000F0E0EE5EFC4FE4918BEDC82E8DE2D82E7A
:103790009FE8A92E9DE2B92E28E0F22E3CE0232ED0
:1037A000812C912C312C612C40E8742E56EF452E43
:1037B00054E0552EC401855E9E4C8A839B83DC01B8
:1037C00014968C9181110EC0E0918E2DF0E0EE5E8A
:1037D000FC4F94919983E0915331F0E0EE5EFC4F01
:1037E000149103C09AE099831AE0AA81BB811196D3
:1037F0008C91882331F0498168E7832D0E94E53C54
:1038000004C060E0832D0E94F83C832DDADEB30112
:1038100002C0769567958A95E2F7412F832D0E9425
:10382000C03C832DCEDEB82FB49DC001B59D900D58
:103830001124F60180839183B301D5010C9002C05D
:10384000769567950A94E2F7412F84E0830D0E94F4
:10385000C03CF5012081249DC001259D900D1124BF
:10386000D60118968D939C931997EA81FB818481E8
:10387000811106C0498161E08F2D0E94E53C04C0A2
:1038800060E08F2D0E94F83CE12E00E021E030E066
:1038900040E0AA81BB8116966C918F2D0E949F3BC0
:1038A000EA81FB818681F4E68F9FC0011124D60155
:1038B00050968D939C935197EA81FB818581882353
:1038C00031F049816FE0822D0E94E53C04C060E048
:1038D000822D0E94F83CE12E0EE721E030E041E02D
:1038E000AA81BB8117966C91822D0E949F3BEA8131
:1038F000FB818781F4E68F9FC0011124D601589681
:103900008D939C9359973394B8E08B0E911C23941C
:10391000E2E0CE0ED11CF394FFEFAF1ABF0A24E011
:10392000321248CF2396CDBFDEBFDF91CF911F91DA
:103930000F91FF90EF90DF90CF90BF90AF909F904E
:103940008F907F906F905F904F903F902F90089551
:103950008F929F92AF92BF92CF92DF92EF92FF929F
:103960000F93CF933FD24C019BEDC92E9DE2D92EF0
:10397000C0E0EE24E394F12C3CE9A32E31E3B32E16
:10398000C70188219921892B29F06EE38C2F0E9491
:10399000F83C04C060E08C2F0E94F83C00E021E07D
:1039A00030E040E060E08C2F0E94253CF601A192BF
:1039B000B1926F01EE0CFF1CCF5FC03109F7CF91C0
:1039C0000F91FF90EF90DF90CF90BF90AF909F90BE
:1039D0008F900895EF92FF920F93CF93DF938BED2B
:1039E000E82E8DE2F82EC0E06C2F80916131B3DDBE
:1039F000D82F882329F06AE08C2F0E94F83C04C05D
:103A000060E08C2F0E94F83C00E021E030E040E0D4
:103A10006D2F8C2F0E94253C24E6D29FC0011124DB
:103A2000F701819391937F01CF5FC031E9F6DF9178
:103A3000CF910F91FF90EF90089580913B3190913D
:103A40003C318230910531F08330910521F00197AE
:103A500019F479CE7DCFBECF0895DF92EF92FF9219
:103A60000F931F93CF93DF931F921F92CDB7DEB7B3
:103A7000182FE82EF12CF701E35CFE4C6081E091F9
:103A80008E2DF0E0EE5EFC4F0491E0915331F0E0BA
:103A9000EE5EFC4F44914A8369833CDE4A81698132
:103AA0008130910521F140F08230910509F481C007
:103AB000039709F496C0ACC0C70173E0880F991F43
:103AC0007A95E1F7855E9E4CFC01848181114AE084
:103AD000812F4A8376DD60E070E802C076956795B5
:103AE0008A95E2F74A81812F0E94C03C91C09701DC
:103AF00024503109790163E0EE0CFF1C6A95E1F76F
:103B0000F701E55EFE4C848181114AE0F901E85C31
:103B1000FC4C8081882379F06AE00E945848A82FE5
:103B2000B0E0AA0FBB1FAD5BBF4D6D917C91812FA3
:103B30000E94C03C0EC02157324D60E070E8F90190
:103B4000008002C0769567950A94E2F7812F0E9463
:103B5000C03CD0908120DD2011F0DA9402C04FE00B
:103B6000D42E6D2D8CEF810FF6DC8823E9F0F70160
:103B7000E55EFE4C848181110AE00E94D036402F20
:103B8000882369F0D11005C06DE3812F0E94E53CC8
:103B90003FC060915231812F0E94E53C39C060E501
:103BA000812F0E94E53C34C060E0812F0E94F83CE8
:103BB0002FC0C70133E0880F991F3A95E1F785526E
:103BC0009F4CFC018481882311F08AE001C08FE7BB
:103BD000E82E00E022E030E040E0812F0E949F3B91
:103BE00017C0C70123E0880F991F2A95E1F7855474
:103BF0009F4CFC018481882311F08AE001C08FE78B
:103C0000E82E0EE722E030E041E0812F0E949F3B4A
:103C100080918120809383200F900F90DF91CF912E
:103C20001F910F91FF90EF90DF900895CF93C82FD1
:103C300080918120882311F0815001C08FE0209174
:103C40003333309134332230310509F080E0C8132A
:103C500012C0609152318C2F0E94F83CCC2311F09D
:103C6000C15001C0CFE06C2F8091613174DC88239A
:103C700069F06AE00CC06C2F809161316CDC8823A4
:103C800029F06AE08C2FCF910C94F83C60E08C2FE7
:103C9000CF910C94F83C409181209091822049175B
:103CA000B9F130910320303198F5381331C080914B
:103CB00036336AE10E944C48E4E0F0E0E81BF10989
:103CC000E65CFF4D2081842F622F0E944C48E92F33
:103CD0009C30D0F4215040E050E8CA0102C09695D3
:103CE00087952A95E2F740E050E86FEF7FEF04C038
:103CF0007695679557954795EA95D2F7BC01642B61
:103D0000752B832F0E94DE3C80918120809382203E
:103D100008950F938091852090E020913B31309160
:103D20003C312817390709F088DE80913B319091AA
:103D30003C318093852081309105C9F048F0823074
:103D40009105C9F00397D1F4809184206FDF16C0EC
:103D500000E020E030E040E060E0809184200E94BC
:103D6000253C60E5809184200E94F83C07C080914A
:103D7000842073DE03C0809184208DDF80918420B5
:103D80008F5F803118F48093842002C010928420C9
:103D90000F9108950F931F93CF93DF931092872075
:103DA0001092882001E010E0CDE0D4E0CE010E9426
:103DB0005105853A51F48091872090918820802B7D
:103DC000912B8093872090938820000F111FC05C57
:103DD000DF4FCD3088E0D80749F7DF91CF911F91B1
:103DE0000F91089580918720909188200895F894EC
:103DF00021E030E0082E02C0220F331F0A94E2F7C0
:103E00002095309540918720509188202423352398
:103E1000209387203093882020E4829FC0011124C2
:103E20006FEF835F9B4F0E94BA05789408956F925D
:103E30007F928F929F92AF92BF92CF92DF92EF923A
:103E4000FF920F931F93CF93DF93CDB7DEB7A09769
:103E5000CDBFDEBFC82E0E94CA0ECE0101967C01E6
:103E600080E2F70111928A95E9F7DC2CDD0C8FE1F5
:103E7000682E6D0C712C4701540100E0602F872DD6
:103E80006ADB182F61E0600F872D65DB86958695CC
:103E90008695982F9F701695169516951295107FFA
:103EA000192BF50111935F010E5F003139F7F8E02E
:103EB0008F0E911C739484E07812DECFC7010E94AC
:103EC000E805862D0E94FA05570110E0812F79DB65
:103ED000F50181935F011F5F1430C1F780E090E02E
:103EE000DE011596FC01E55EFE4C25812795222713
:103EF00027953781232B2C931296AD014150510900
:103F000024812795222727953681232BFA012083A8
:103F100008968032910531F720E030E081E090E0B2
:103F2000F901E55EFE4C4181442311F0482F01C0A8
:103F300040E0942B880F285F3F4F2032310581F7F6
:103F40009F709D8785EA8E8721E030E002C0220FB6
:103F5000331FCA94E2F78091872090918820282B04
:103F6000392B2093872030938820C7010E94E805D1
:103F700080E28D0D0E94FA050E94D20EA096CDBF60
:103F8000DEBFDF91CF911F910F91FF90EF90DF90F7
:103F9000CF90BF90AF909F908F907F906F9008953B
:103FA0008F929F92AF92BF92CF92DF92FF920F9328
:103FB0001F93CF93DF9320E4829FC0011124EC0173
:103FC000C052DC4F9FE8892E9DE2992E6E0100E0E1
:103FD000F40111924F01C601F12C5C01FFEFAF1A01
:103FE000BF0A0E945105182F482F42954F70440F69
:103FF000440F440F6F2D802FC6DA412F4F70440FAE
:10400000440F440F61E06F0D802FBDDAF394F394F9
:10401000C50120E1F212E1CF88E0C80ED11C0F5F8C
:104020000430B1F6CE01809610E06C01EFEFCE1AAD
:10403000DE0A0E945105682F812FBDDA1F5FC6017D
:10404000143099F76E01F4E2CF0ED11C02E211E3B5
:1040500084E1F82EC6010E9451058F77F801808314
:104060005601FFEFAF1ABF0AC6010E945105881F13
:104070008827881FF80132979081981731F04FE711
:1040800064E06F0D87E00E942E38C5010E94510543
:10409000F80131978F77808322E0C20ED11CC501D1
:1040A0000E945105881F8827881FF8013397908147
:1040B000981729F04FE76F2D87E00E942E38085F90
:1040C0001F4FF39488E1F812C5CFCE018C960E9461
:1040D0005105082FCAE6D1E01FE741E09D2F90234C
:1040E00009F440E0419F402D11246C2F87E00E948D
:1040F0002E38DD0FCF5FCE3681F7DF91CF911F9144
:104100000F91FF90DF90CF90BF90AF909F908F90D6
:104110000895DF92EF92FF920F931F93CF93DF9357
:104120001F92CDB7DEB7D82E80913B3190913C31B4
:104130008230910509F47DC08330910509F4C5C032
:10414000019709F0F7C08D2D6983E4DA6981813028
:10415000910541F140F08230910509F440C0039788
:1041600009F44DC0E7C0662309F4E4C028E0D29EFC
:10417000F0011124E55EFE4C418181E04827418336
:104180008FE7489F402D11246AE66D0D87E00E945D
:104190002E380F90DF91CF911F910F91FF90EF90EC
:1041A000DF90D1CA6111C6C0ED2DF0E0EE0FFF1F08
:1041B000EC5CFC4C80819181803D974058F48CEF01
:1041C0008D0D8093613183E090E080933B3190933B
:1041D0003C31B0C0B8DA8FE780933633ABC066238A
:1041E00009F4A8C088E0D89EF0011124E552FF4CE4
:1041F0008481882381F06CE06D0D4FE70FC066234A
:1042000009F498C028E0D29EF0011124E554FF4C37
:104210008581882381F36CE06D0D4FE387E00F907B
:10422000DF91CF911F910F91FF90EF90DF900C9451
:104230002E38662309F47EC080918B20882351F0AC
:104240008D2DD5DD809103208D1136C081E18093C5
:10425000032032C00D2D10E081E090E00D2C02C053
:10426000880F991F0A94E2F72091872030918820C7
:1042700082239323000F111F892B81F08D2D90DE57
:10428000D0920320F801E552F24D8081918164E6DD
:1042900070E00E946548609336330EC08D2DC7DDF7
:1042A000D0920320F801E552F24D8CE991E380832E
:1042B00091838FE7809336330F90DF91CF911F91D9
:1042C0000F91FF90EF90DF9043CB662399F16D2D16
:1042D0008091613140D9ED2CF12C00E021E030E0FB
:1042E00040E081110FC06FE78D2D0E94253CF70142
:1042F000EE0FFF1FE552F24D8CE991E3808391832D
:104300004FE70CC060E08D2D0E94253CF701EE0FB9
:10431000FF1FE552F24D1082118240E06D2D809119
:1043200061310F90DF91CF911F910F91FF90EF902E
:10433000DF9029C90F90DF91CF911F910F91FF90CE
:10434000EF90DF9008952F923F924F925F926F927D
:104350007F928F929F92AF92BF92CF92DF92EF9215
:10436000FF920F931F93CF93DF93CDB7DEB72597BF
:10437000CDBFDEBF0E94924294E3A92E93E3B92EF3
:1043800024E3822E23E3922E3DE3232E31E3332ECA
:1043900081EE90E38A839B83ABEDBDE2AC83BD836A
:1043A0004BEFC42E4DE2D42EE12CF12C4424439447
:1043B000512C7E2C8E2D0E948B428983082F880FD2
:1043C000110B0115110509F44AC184EF8E0D8430DB
:1043D00038F580913B3190913C31019709F5EC81A2
:1043E000FD81808191810E94C22D8823C9F0F60150
:1043F0003C9780814981840F80838B303CF0E4E6D8
:10440000F9E1AC81BD81ED93FC9387C0863F0CF050
:1044100084C0E8E3F8E1AC81BD81ED93FC937DC0FD
:10442000AC81BD818D919C910E94CB2DEC81FD8151
:1044300020813181882391F12436310520F4101632
:1044400011063CF00BC02933F1E33F0738F017FFAA
:1044500005C0D6018C914981840F8C93D6018C9133
:10446000843064F02436310508F057C084E690E0CB
:10447000EC81FD81808391831C924FC08D3F0CF0B5
:104480004CC02933314308F448C0E8E3F1E3AC8180
:10449000BD81ED93FC93D6011C923FC0B4E0EB16B6
:1044A000F10488F480913B3190913C31019771F493
:1044B000498180E54802200D311D1124AC81BD8168
:1044C0002D933C9320C0B7E0B71588F080913B3125
:1044D00090913C31019759F4498184E64802200DBE
:1044E000311D1124AC81BD812D933C930CC0B2EBE6
:1044F000B09FC001B19F900D1124280F391FEC818E
:10450000FD8120833183AC81BD818D919C910E947E
:10451000B52DEC81FD8180839183AC81BD818D912E
:104520009C910E94AE2D682E80913B3190913C3140
:104530008130910509F079C0872DECD88130910543
:1045400041F1A0F08230910509F469C0039709F0A8
:1045500086C0EA81FB817F976082D1016C92462DF3
:1045600060E1670D87E00E942E3879C0662D70E00B
:1045700080E090E00E94CD442DEC3CEC48E351E417
:104580000E9432440E949F44872D15D8F101608219
:1045900066C0D5018D919C91009759F1BEE4B09F02
:1045A0009001B19F300D301B1124EC81FD814081C1
:1045B0005181240F351F2083318317FF03C01195CC
:1045C00001951109F4E6F09F9001F19F300D11243F
:1045D000820F931FD5018D939C93F40180814981B3
:1045E000840F883214F480833AC0E7E2D401EC935C
:1045F00036C087010557124D662D70E080E090E0CF
:104600000E94CD442DEC3CEC48E351E40E9432443E
:104610000E949F44D8016C93F101608220C0AA815E
:10462000BB816C92F10160821AC08330910579F4EC
:10463000462D672D809161310E94C31A00E021E070
:1046400030E040E0662D872D0E94253C08C002978F
:1046500031F480910320781202C0609236330E94B8
:10466000C14284219521892B21F061E0872D51DD04
:1046700009C00E94C64284219521892B19F060E06F
:10468000872D47DD8CEF870D843090F40E94BC426B
:1046900084219521892B39F0F50180819181019642
:1046A0008083918305C0D5011D921C92F401108274
:1046B000440C551CFFEFEF1AFF0A42E0A40EB11C98
:1046C0008FEF881A980A9FEF291A390AAA81BB81AD
:1046D0001896AA83BB83EC81FD813296EC83FD831F
:1046E000FFEFCF1ADF0A40E1E416F10409F061CED2
:1046F0002596CDBFDEBFDF91CF911F910F91FF9027
:10470000EF90DF90CF90BF90AF909F908F907F9071
:104710006F905F904F903F902F900895CF92DF92CF
:10472000EF92FF920F931F93CF93882309F442C017
:1047300080918B20882361F081E090E0AED2CF9110
:104740001F910F91FF90EF90DF90CF900C946D3000
:1047500081E080938B2003E91DE29FE8C92E9DE252
:10476000D92EC0E08C2F0E94E11AF8018083F60157
:1047700081916F01F8018183E12CF12C6E2D8C2F3A
:104780000E94AB1AF801EE0DFF1D8283FFEFEF1AB6
:10479000FF0A80E1E816F10489F7CF5F0E5E1F4F34
:1047A000C43001F7CF911F910F91FF90EF90DF90F0
:1047B000CF90089510928B2003E91DE28FE8C82E58
:1047C0008DE2D82EC0E0F80160818C2F0E94DB1AA8
:1047D000F8018181F60181936F01E12CF12CF80140
:1047E000EE0DFF1D42816E2D8C2F0E94C31AFFEF2C
:1047F000EF1AFF0A80E1E816F10489F7CF5F0E5E39
:104800001F4FC43001F7CF911F910F91FF90EF9090
:10481000DF90CF900C94A31BDF92EF92FF920F9347
:104820001F93CF93DF9380913533882339F08091A4
:104830003B3190913C31892B09F466C00E94CB42F8
:10484000D82EC0E0D1E002E010E0EE24E394F12C99
:10485000909186202D2D29272D2361F09D2389F409
:10486000C33009F44AC0C0F4C130C1F0C23059F0BD
:104870000E94731ADD0FCF5FC63051F7D0928620A9
:1048800043C0C23019F40E94E71AF4CFC330B8F421
:10489000C13081F780E003C0C430B9F481E02091D9
:1048A0003B3130913C312130310539F08111E2CF7B
:1048B000E0923B31F0923C31DDCF30DFDBCFC430D2
:1048C00049F3C530B9F680E003C0C53089F681E010
:1048D00020913B3130913C312230310549F488231D
:1048E00021F081E080938B20C5CF10928B20C2CF26
:1048F00000933B3110933C31BDCF80918B208111CF
:10490000B9CF0E94571AB6CFDF91CF911F910F9167
:10491000FF90EF90DF900895CF93DF93CDB7DEB790
:104920006397CDBFDEBF8B8B80919F209091A0209D
:10493000049761F58B89882349F1809144338983F9
:104940008981882311F189818930F8F48981882F40
:1049500090E00197880F991F81579F4DFC0180813E
:104960009181892B91F08981882F90E00197880FA0
:10497000991F81579F4DFC01208131818B89815086
:1049800065E473E3F901199521C020C080919F204F
:104990009091A0200397D1F48B898230B8F0809158
:1049A0004433863099F480914533813079F481E144
:1049B000E9E2F0E2DE01129601900D928A95E1F7AC
:1049C000CE010296BC0181E10E940D376396CDBFF6
:1049D000DEBFDF91CF9108959FEF980F983040F49C
:1049E000E82FF0E0EE0FFF1FE357FF4D6083718368
:1049F0000895FC0180918E20811129C081E080936F
:104A00008E2084E493E380938C2090938D20818189
:104A1000803F39F582818E3771F4838190911B201C
:104A2000891711F08F37E9F483E090E080939F209D
:104A30009093A0200895811114C08381813089F45E
:104A400081E090E080939F209093A0200895809132
:104A50009F209091A02081309105F1F481818937C8
:104A600039F082E090E080939F209093A0200895F9
:104A7000A0918C20B0918D20CD0102962091042030
:104A8000309105208217930760F784E090E08093CF
:104A90009F209093A0201AC0029761F1A0918C20D2
:104AA000B0918D20CD0103962091042030910520F6
:104AB00082179307B0F6029780938C2090938D20F5
:104AC00081818C93A0918C20B0918D20CD01019695
:104AD00080938C2090938D2082818C93A0918C2048
:104AE000B0918D20CD01019680938C2090938D20E4
:104AF00083818C930895FC0110928E2080919F20D9
:104B00009091A02081309105C1F48181893709F00D
:104B100049C0A0918C20B0918D20CD0102962091AA
:104B200004203091052082179307E0F584E090E09F
:104B300080939F209093A0201AC0029799F1A09192
:104B40008C20B0918D20CD010396209104203091CE
:104B500005208217930730F5029780938C2090935D
:104B60008D2081818C93A0918C20B0918D20CD01DE
:104B7000019680938C2090938D2082818C93A091BC
:104B80008C20B0918D20CD01019680938C20909344
:104B90008D2083818C9380918C2090918D208454E2
:104BA0009343BADE10929F201092A0200895209186
:104BB0008E202223B9F110928E2020919F203091D7
:104BC000A0202230310551F1A0918C20B0918D2090
:104BD0009D012E5F3F4F40910420509105202417E6
:104BE0003507E0F4FC01CD01019680938C20909371
:104BF0008D2081818C93A0918C20B0918D20CD014E
:104C0000019680938C2090938D2082818C9380914B
:104C10008C2090918D20845493437EDE10929F20AF
:104C20001092A020089520918E20222349F1109205
:104C30008E2020919F203091A02022303105E1F07C
:104C4000A0918C20B0918D209D012F5F3F4F40910E
:104C50000420509105202417350770F4FC0120939F
:104C60008C2030938D2081818C9380918C20909129
:104C70008D208454934350DE10929F201092A020E8
:104C80000895E4EAF0E210821182128213820895FC
:104C90008091A2209091A32008958093A2209093C8
:104CA000A3200895DC011C968C911C97E8EAF0E2A1
:104CB00084878D919C9111978083918312968D9119
:104CC0009C9113978283938314968D919C91159751
:104CD0008483958316968D919C91179786839783ED
:104CE00018968D919C911997808791871A968D912E
:104CF0009C911B9782879387089588EA90E2089594
:104D00001F93CF93DF93182FEB018091B42088235A
:104D100019F021D7982F01C090E0E12FF0E0EE0FBD
:104D2000FF1FE855FF4D0190F081E02DED30F105BA
:104D300008F031C18827E85FFE4F8F4F0C94CA48B6
:104D4000C130D10549F468E0610F892F880F980FB1
:104D5000990F690F4FE718C1CD2B09F01CC168E00E
:104D6000610F892F880F980F990F690F40E00CC1D0
:104D7000C130D10509F00FC1012E01C0CC0F0A943A
:104D8000EAF7E92FF0E0EC55FF4D60816C27608376
:104D9000C62311F440E001C04FE768E0610F892F9E
:104DA000880F980F990F690FEFC0C130D10551F4EA
:104DB00068E0610F892F880F980F990F690F2FE70F
:104DC00041E00CC0CD2B09F0E6C068E0610F892FEF
:104DD000880F980F990F690F20E040E080915531BE
:104DE000DF91CF911F910C940238C130D10509F0A9
:104DF000D2C0012E01C0CC0F0A94EAF7E92FF0E0EF
:104E0000EC55FF4D60816C276083C62311F420E0D0
:104E100001C02FE741E0C11101C040E068E0610F2F
:104E2000892F880F980F990F690FD8CFC130D105FE
:104E300039F482E090E08093A2209093A320ABC04D
:104E4000CD2B09F0A8C00E946D3081E090E08093E6
:104E5000A2209093A3209FC0C130D10589F783E0A1
:104E600090E08093A2209093A32095C0219709F011
:104E700092C071D6833008F08EC06DD640E0682FA6
:104E8000809155310E942E3878C0219709F083C057
:104E900062D6882309F47FC05ED640E0682F8091F7
:104EA00055310E942E3857D6815069C0219709F09C
:104EB00072C051D640E0682F809155310E942E3843
:104EC0004FE760E0809155310E942E3880E0DF91FD
:104ED000CF911F910C940030219709F05CC03BD614
:104EE00040E0682F809155310E942E384FE761E0F5
:104EF000809155310E942E3881E0DF91CF911F9132
:104F00000C940030219709F046C025D640E0682F68
:104F1000809155310E942E384FE762E080915531E3
:104F20000E942E3882E0DF91CF911F910C940030C7
:104F3000219789F510D640E0682F809155310E9465
:104F40002E384FE763E0809155310E942E3883E080
:104F5000DF91CF911F910C9400302197E1F4FBD5A4
:104F600040E0682F809155310E942E38F4D583306F
:104F700021F480E00E94003004C0EDD58F5F0E94D4
:104F80000030E9D54FE7682F80915531DF91CF91FF
:104F90001F910C942E38DF91CF911F9108950F939C
:104FA0001F93CF93DF930E94CB42D5D50E940E432F
:104FB00082719927429791F48091A1208271823069
:104FC00011F08031B9F584E090E08093A2209093B5
:104FD000A3200E941D1D1092A1202CC0C0E0D1E092
:104FE0000E9412430D2F10E080239123892B29F07A
:104FF00061E070E08C2F84DE15C00E941643802390
:105000009123892B29F060E070E08C2F79DE0AC0B3
:105010000E940E4380239123892B21F062E070E0EF
:105020008C2F6EDEDD0FCF5FC630D1F60E940E43AF
:105030008093A120DF91CF911F910F9108958F92BE
:105040009F92AF92BF92FF920F931F93CF93DF93E4
:10505000462F082F10E09FE0899FE0011124CD57D3
:10506000DA4C8885813009F056C0F62E6F818E812A
:105070000E942E388D85882309F46DC0C09154316B
:10508000FC1608F468C0D0E060914D3170E06C1BF4
:105090007D0B072E000C880B990B0E94CD4420E05D
:1050A00030E04EEF52E40E9432449B01AC0160E0DC
:1050B00070E080E89FE30E9432444B015C014F2D79
:1050C00050E04C1B5D0BBA01550F880B990B0E94E9
:1050D000CD449B01AC01C501B4010E94DD450E9495
:1050E0009F444B015C018091393A90913A3A0E9479
:1050F0009312A4014038510510F04FE750E08FE0C3
:10510000809FF001819FF00D1124ED57FA4C6781CB
:10511000605C868115C081110FC0262F41E06F8130
:105120008E81DF91CF911F910F91FF90BF90AF9033
:105130009F908F900C940238823069F46F818E8139
:10514000DF91CF911F910F91FF90BF90AF909F90F3
:105150008F900C942E38DF91CF911F910F91FF907B
:10516000BF90AF909F908F9008959FE0989FD0013F
:105170001124AD57BA4C969FF0011124ED57FA4C0B
:1051800017969C9117978781981308C018969C9141
:105190008085981303C081E0923009F480E008957F
:1051A0000F931F93CF93DF93CDB7DEB72897CDBF73
:1051B000DEBF262F8A01F89430E8839FC0011124B6
:1051C000809648E050E0BE016F5F7F4FE8E02E9F81
:1051D000800D911D11240E94620578948981982F79
:1051E0009F70F8019283158282958F7083838A81E4
:1051F0008F7784838B8181878C8182878D81982FA3
:105200009F779387881F8827881F80838E81982F98
:1052100093709487982F9695969593709183829525
:105220008F7086878F81982F9370908782958F706B
:1052300086838885982F9F779783881F8827881F64
:1052400085872896CDBFDEBFDF91CF911F910F914B
:105250000895AF92BF92CF92DF92EF92FF920F9399
:105260001F93CF93DF9303E815E37801C0E06C2F21
:105270006F70A7018C2F82958F7092DFCF5F2FE028
:10528000E20EF11CC03499F797E4A92E99E3B92EE8
:1052900023E2E22EF12C6701C0E0D0E0C6010E94BB
:1052A0005105F501EC0FFD1F808388E0C80ED11C6D
:1052B0002196C031D10591F7A0E8EA0EF11CB0E1CA
:1052C000AB0EB11C23E2E21622E0F20621F71092A7
:1052D000233A1092243A1092253A1092263A1092CC
:1052E000273A1092283A1092293A10922A3AE091DD
:1052F000FB200E2E000CFF0BA7E8B9E380E18A0F1C
:105300001D928A13FDCFEE0FFF1FED5DF54C10824D
:105310001182E3E4F4E38CE998E1D8012C91DF01F8
:10532000A058BF4F222329F0808391838D939C93B3
:1053300004C0108211821D921C92015F1F4F329691
:10534000B4E3E33CFB0749F788E08093FA2082E06E
:105350008093F920DF91CF911F910F91FF90EF90F3
:10536000DF90CF90BF90AF900895DF92EF92FF92C1
:105370000F931F93CF93DF93CDB7DEB7A897CDBF21
:10538000DEBF89E18DA391E59EA38FA388A781E766
:1053900089A38FE38AA384E68BA31CA28E010F5FEF
:1053A0001F4F80E2F80111928A95E9F7FE013896C5
:1053B00080E050E19FE74FE332E421E0DF011797FF
:1053C0005C9311968C9311969C9311969C931196D5
:1053D0004C9311963C9311962C9380838F5F389653
:1053E000843061F720E07E01F8E2EF0EF11CDD244D
:1053F000D394D20E2695269530E0E5E2F0E0EC0F4E
:10540000FD1FE20FF31F4081E1E2F0E0EC0FFD1F12
:10541000E20FF31F90814B839C834B879C874B8BC0
:105420009C8B4B8F9C8FF894C8010E94E8058D2DB2
:105430000E94FA057894FE013896DF0116978C9148
:105440008C5F8C9390819C5F90833896EE15FF055E
:10545000A1F72D2D203159F6A896CDBFDEBFDF91E3
:10546000CF911F910F91FF90EF90DF900895AF9231
:10547000BF92CF92DF92FF920F931F93CF93DF9350
:10548000C82F0E9492428C2F8295807FDCE2D80F39
:105490003CE3F32EF80ECC24C394D12C0C2F10E057
:1054A000000F111FC8018D5B964C5C01095E154C05
:1054B0000E94C1428C219D21892BB1F02FE741E050
:1054C0006D2F809155310E940238F50180819181C4
:1054D0008C219D21892B31F5F801808191818C29C6
:1054E0009D29808391831EC00E94C6428C219D21EC
:1054F000892BC1F020E040E06D2F809155310E9452
:105500000238F501808191818C219D21892B51F4F4
:10551000F801808191819601209530958223932313
:1055200080839183CC0CDD1CDF5FDF11C1CF8091C4
:10553000B620EC2FF0E0EE0FFF1FE95EF54C21E006
:1055400030E0082E02C0220F331F0A94E2F7408198
:1055500051812423352360E0232B61F00E94F83C25
:1055600000E021E030E040E06FE78091B6200E944B
:10557000253C0BC00E94F83C00E021E030E040E018
:1055800060E08091B6200E94253C8091B6208F5F1C
:10559000803118F48093B62002C01092B620DF91BB
:1055A000CF911F910F91FF90DF90CF90BF90AF9060
:1055B0000895AF92BF92CF92DF92EF92FF920F9336
:1055C0001F93CF93DF93C82FD0E08FE08C9FF00123
:1055D0008D9FF00D1124ED57FA4C222311F0068512
:1055E00001C006812FE02C9FC0012D9F900D11243A
:1055F0009C012D573A4C7901F9018085813009F0E1
:1056000063C0162F462F6781802F0E942E38F70126
:105610008585882309F46BC0A09054311A1508F4CD
:1056200066C0B12C60914D3170E06A197B09072E7C
:10563000000C880B990B0E94CD4420E030E04EEF27
:1056400052E40E9432449B01AC0160E070E080E8CB
:105650009FE30E9432446B017C01412F50E04A19C4
:105660005B09BA01550F880B990B0E94CD449B0131
:10567000AC01C701B6010E94DD450E949F446B0149
:105680007C018091393A90913A3A0E949312A60196
:105690004038510510F04FE750E08FE08C9FF0014B
:1056A0008D9FF00D1124ED57FA4C6781605C802FBF
:1056B000DF91CF911F910F91FF90EF90DF90CF90EE
:1056C000BF90AF900C942E38811111C0262F41E06D
:1056D000F7016781802FDF91CF911F910F91FF908C
:1056E000EF90DF90CF90BF90AF900C940238DF9195
:1056F000CF911F910F91FF90EF90DF90CF90BF90CF
:10570000AF900895E62F322F603468F5009719F0B6
:10571000019721F00895642F8E2F91CC70E08FE0D7
:10572000E89FF0011124ED57FA4C8281823030F06D
:105730009AEF980F923010F0843061F48FE0869FDA
:10574000F001879FF00D1124ED57FA4C648183819D
:105750000C942E388250823030F4242F432F6481F1
:1057600083810C9402380895CF93DF93282F2295DC
:105770002F70482F4F7030E0E42FF0E061112BC004
:10578000D901AA0FBB1FA55DB54C81E090E002C016
:10579000880F991F4A95E2F7809590954D915C91FD
:1057A0001197842395238D939C93D90174E0AA0FBC
:1057B000BB1F7A95E1F7AE0FBF1FA95BB64C2FE078
:1057C0002E9FC0012F9F900D1124FC01ED57FA4C24
:1057D00082858C9344C09FEF960FD901AA0FBB1FFF
:1057E000A55DB54C9D37C8F481E090E002C0880FFC
:1057F000991F4A95E2F74D915C911197842B952B57
:105800008D939C9344E0220F331F4A95E1F7E20FFA
:10581000F31FE95BF64C608322C061E070E0EB01AE
:1058200002C0CC0FDD1F4A95E2F7AE016D917C916D
:105830001197462B572B4D935C9394E0220F331F07
:105840009A95E1F7E20FF31FE95BF64CDFE08D9FDD
:10585000D0011124AD57BA4C19968C918083DF91F9
:10586000CF910895E82FE295EF70F0E08F7090E00F
:10587000611103C020E030E002C02FE730E044E0D7
:10588000EE0FFF1F4A95E1F7E80FF91FEE0FFF1F1C
:10589000E956F64C208331830895982F882329F008
:1058A00081E0913320F09F3711F080E00895089552
:1058B000982F813328F081E0913620F09F3711F046
:1058C00080E00895089520E1829FC0011124860F91
:1058D000911DFC01ED53FC4C2081FC01ED5BFA4C69
:1058E00090811216A4F4191694F4213310F02F3776
:1058F00031F481E0913350F09F3749F409C02136EB
:1059000030F4915381E0903318F001C0089580E0A5
:105910000895AF92BF92CF92DF92EF92FF920F93D2
:105920001F93CF93DF939091FB208091B520282F78
:1059300030E0F90140E19402E00DF11D1124ED5F2A
:10594000FB4CD081C82F40E1949FC00D1124F90178
:10595000E751FF4D9081D917B9F09FE0C99FF00141
:105960001124ED57FA4C248530E041E090819111EB
:1059700001C040E003856D2F0E94253CE091B520D9
:10598000F0E0E751FF4DD0838091B520282F30E023
:105990009091FB20F90140E19402E00DF11D1124EA
:1059A000E95BF64CD081F901E752FF4D9081D917A0
:1059B00049F06D2F0E94F83CE091B520F0E0E752ED
:1059C000FF4DD0836091FB20D091B5200D2F10E0CA
:1059D00080E16802600111247601E00EF11EF701FA
:1059E000ED5BFA4CB080BB2079F0F701E95BF64C37
:1059F00020814B2D8D2F0E94433DE091B520F0E09A
:105A0000E753FF4DB08236C0F801E753FF4DB08039
:105A1000BB2081F18B2D41DF882341F0F701E95B49
:105A2000F64C60818D2F0E94F83C1EC08B2D40DF0C
:105A30008823D1F09FE0C99FD0011124AD57BA4C03
:105A40001C962C911C9730E041E08C91811101C093
:105A500040E00C0D1D1DF801ED5FFB4C1B960C91F9
:105A600060818D2F0E94253CE091B520F0E0E75346
:105A7000FF4D1082D091B520A090FB206D2F8A2D74
:105A800022DF811153C00D2F10E04A2D80E1480222
:105A9000600111247601E00EF11EF701ED53FC4C7C
:105AA000B080BB2081F0F701E95BF64C20814B2DE3
:105AB0006A2D8D2F0E94433DE091B520F0E0E75420
:105AC000FF4DB08233C0F801E754FF4DB080BB20DA
:105AD00069F18B2DE2DE882341F0F701E95BF64C9A
