:1000000018C300005CC300005AC3000058C30000BE
:1000100056C3000054C3000008C4000039C40000E7
:100020006AC400009BC400004AC3000048C300002B
:1000300046C3000044C30000D2C5000008C600004B
:100040003EC6000074C60000AAC60000E0C600005C
:1000500016C700004CC7000082C70000B8C70000E8
:100060002EC300002CC300002AC3000028C30000D8
:1000700026C3000024C3000022C3000020C30000E8
:100080001EC300001CC300001AC3000018C30000F8
:1000900016C3000014C3000012C3000010C3000008
:1000A0000EC300000CC300000AC3000008C3000018
:1000B00006C3000004C3000002C300000C944F0AF2
:1000C0000C94870A0C94BF0A0C94F70A0C942F0B1B
:1000D0000C94670BF4C20000F2C20000F0C20000F2
:1000E000EEC20000ECC200000C94C334E8C2000071
:1000F000E6C20000E4C20000E2C20000E0C200006C
:10010000DEC20000DCC20000DAC20000D8C200007B
:10011000D6C20000D4C20000D2C20000D0C200008B
:10012000CEC20000CCC20000CAC20000C8C200009B
:10013000C6C2000084C70000BAC70000F0C70000B4
:100140000C94C7080C94FF080C9437090C946F09A1
:100150000C94A7090C94DF090C94170AB0C2000094
:10016000AEC20000ACC20000AAC20000A8C20000DB
:10017000A6C20000A4C20000A2C20000A0C20000EB
:100180009EC200009CC200009AC2000098C20000FB
:1001900096C2000094C2000092C2000090C200000B
:1001A0008EC200008CC200008AC2000088C200001B
:1001B00086C2000084C2000082C2000080C200002B
:1001C0007EC200007CC200007AC2000078C200003B
:1001D00076C2000074C2000072C2000070C200004B
:1001E0006EC200006CC200006AC2000068C200005B
:1001F00066C200000C945D1862C2000007634236BC
:10020000B79BD8A71A39685618AEBAAB558C1D3CA7
:10021000B7CC5763BD6DEDFD753EF6177231BF006B
:100220000000803F05A84CCDB2D44EB93836A902A3
:100230000C50B9918688083CA6AAAA2ABE000000E4
:10024000803F08000000BE922449123EABAAAA2AB1
:10025000BECDCCCC4C3E00000080BEABAAAAAA3ECC
:1002600000000000BF000000803F00000000000808
:100270004178D3BB4387D1133D190E3CC3BD4282A5
:10028000AD2B3E68EC8276BED98FE1A93E4C80EF63
:10029000FFBE01C4FF7F3F00000000000101020219
:1002A000020203030405050607080A0B0D0F1215C9
:1002B000181C21262C333C46515E6E7F0101010142
:1002C0000101010101010102020202020202020215
:1002D00002020202020303030303030303040404F0
:1002E00004040404050505050506060606060707B9
:1002F00007080808080909090A0A0B0B0B0C0C0D62
:100300000D0E0E0F101011111213141415161718CC
:1003100019191A1C1D1E1F202123242527282A2BCA
:100320002D2F31333537393B3D404245474A4D50FB
:1003300053565A5D6164686C71757A7F000000FFE6
:100340000000FF1500FF2200FF2E00FF3B00FF44CE
:1003500000FF5000FF5D00FF6A00FF7700FF7F0095
:10036000FF8C00FF9900FFA500FFB200FFBF00FF58
:10037000C700FFD400FFE100FFEE00FFFA00FAFF24
:1003800000EDFF00E1FF00D4FF00C7FF00BFFF004A
:10039000B2FF00A5FF0099FF008CFF007FFF0077F0
:1003A000FF006AFF005DFF0050FF0043FF003BFFBE
:1003B000002EFF0021FF0015FF0008FF0000FF00D6
:1003C00000FF0C00FF1900FF2600FF3300FF3F0075
:1003D000FF4800FF5400FF6100FF6E00FF7B00FF3D
:1003E0008300FF9000FF9D00FFAA00FFB600FFBF43
:1003F00000FFCB00FFD800FFE500FFF200FFFF0089
:10040000F6FF00E9FF00DCFF00D0FF00C3FF00BBE8
:10041000FF00AEFF00A1FF0094FF0087FF007FFFF9
:100420000072FF0066FF0059FF004CFF003FFF0015
:1004300037FF002AFF001DFF0010FF0004FF04002B
:10044000FF1000FF1D00FF2A00FF3700FF3F00FFE5
:100450004C00FF5900FF6600FF7200FF7F00FF871E
:1004600000FF9400FFA100FFAE00FFBA00FFC30031
:10047000FFD000FFDD00FFE900FFF600FFFF00FFF7
:10048000FF00F2FF00E5FF00D8FF00CCFF00BFFF38
:1004900000B6FF00A9FF009DFF0090FF0083FF0052
:1004A0007BFF006EFF0061FF0055FF0048FF003F2B
:1004B000FF0032FF0026FF0019E1F0F0000000000D
:1004C0000000000000000000000000007F000000AD
:1004D0007F0000007F0000007F000000000000009F
:1004E0007F000000000000007F000000000000000E
:1004F000000000000055007F00007F007F000055D5
:1005000000006400006E00007F0000001455007FB2
:1005100000007F0000007F0000235555557F7F00BD
:1005200000006E7F640000000055555555146E00A4
:100530007F0A6414002D7F006E2D4B237F007F0007
:100540007F006E7F007F007F7F007F007F007F7FC6
:100550007F007F7F7F007F7F7F7F7F7F557F647FEE
:10056000557F557F557F557F6E7F647F2A034D00F1
:1005700069006400690020004600690067006800A7
:100580007400650072002000540077006900730059
:1005900074006500720000001C0344004A00200043
:1005A0005400650063006800200054006F006F0075
:1005B0006C007300000004030904090265000201D5
:1005C00000C03209040000000101000009240100FC
:1005D00001090001010904010002010300000724D0
:1005E000010001410006240201010006240202026A
:1005F000000924030103010201000924030204018C
:100600000101000905010240000500000525010166
:1006100001090582024000050000052501010312C1
:100620000110010000000880250700010001020000
:10063000010011241FBECFEFDFE3DEBFCDBF00E01E
:100640000CBF18BE19BE1ABE1BBE8091780083FF76
:100650001CC08091953790919637A0919737B091B3
:1006600098378A3C9C4AA244BC4D79F41092953745
:1006700010929637109297371092983781E08CBF7E
:10068000E0910020F0910120199510E2A0E0B0E285
:10069000E0E0FAE800E00BBF02C007900D92AC3436
:1006A000B107D9F71BBE27E3ACE4B0E201C01D924D
:1006B000A539B207E1F70E949B3F0C94FE44A0CC01
:1006C0002FB7F894FC01E059FF4F60958081862395
:1006D00080832FBF0895FC01128213824483440F4C
:1006E000415045836083718380E090E00895EF92EC
:1006F000FF920F931F93CF93DF937C01EB018A014D
:10070000060F171F04C06991C7010E94D70CC017BC
:10071000D107C9F780E090E0DF91CF911F910F9151
:10072000FF90EF9008951BBEFC0128ED24BF60836D
:1007300008950F931F93CF93DF93282F30E0F90193
:10074000719644E0EE0FFF1F4A95E1F760910401B6
:10075000A0910301A9014C5F5F4FC1E0D0E08E0181
:10076000042E01C0000F0A94EAF7082E01C0CC0F36
:100770000A94EAF7C02BAC23B0E08D01042E02C02E
:10078000159507950A94E2F700FD1DC0082E02C0DA
:10079000B595A7950A94E2F7A0FD18C0C6236C2F63
:1007A00070E0DB0102C0B595A7954A95E2F7A0FD80
:1007B00010C0AB0102C0559547958A95E2F7CA0172
:1007C0008170992708C084E090E005C083E090E044
:1007D00002C082E090E0418140634183F901EE0F65
:1007E000FF1FED5AF14D0190F081E02D309729F077
:1007F000DF91CF911F910F911994DF91CF911F91AC
:100800000F91089561E080E090E05ADF9FB7F8947F
:10081000EEE4FEE280818F5F80839FBFE0E0F1E045
:1008200080E4808380E8808308951F920F920FB642
:100830000F92112408B60F9218BE09B60F9219BE76
:100840000BB60F921BBE2F933F934F935F936F9303
:100850007F938F939F93AF93BF93EF93FF9380E02A
:1008600068DFFF91EF91BF91AF919F918F917F9141
:100870006F915F914F913F912F910F900BBE0F9011
:1008800009BE0F9008BE0F900FBE0F901F901895D5
:100890001F920F920FB60F92112408B60F9218BE36
:1008A00009B60F9219BE0BB60F921BBE2F933F9342
:1008B0004F935F936F937F938F939F93AF93BF9368
:1008C000EF93FF9381E035DFFF91EF91BF91AF91FF
:1008D0009F918F917F916F915F914F913F912F9158
:1008E0000F900BBE0F9009BE0F9008BE0F900FBE69
:1008F0000F901F9018951F920F920FB60F92112410
:1009000008B60F9218BE09B60F9219BE0BB60F9219
:100910001BBE2F933F934F935F936F937F938F9360
:100920009F93AF93BF93EF93FF9382E002DFFF911A
:10093000EF91BF91AF919F918F917F916F915F9157
:100940004F913F912F910F900BBE0F9009BE0F90CA
:1009500008BE0F900FBE0F901F9018951F920F9218
:100960000FB60F92112408B60F9218BE09B60F9257
:1009700019BE0BB60F921BBE2F933F934F935F93FD
:100980006F937F938F939F93AF93BF93EF93FF9357
:1009900083E0CFDEFF91EF91BF91AF919F918F9157
:1009A0007F916F915F914F913F912F910F900BBE6F
:1009B0000F9009BE0F9008BE0F900FBE0F901F90B2
:1009C0001895DB01E82FF0E0719664E0EE0FFF1F51
:1009D0006A95E1F72FB7F89419968C911997848747
:1009E0001A968C911A978587168617968C91179769
:1009F000808718968C9118978187128612968C9111
:100A00001297828313968C911397838314968D91FA
:100A10009C9115978483958316968C91169786835F
:100A200011968C91119781838C918F7780832FBF42
:100A300008958091CF0187FDFCCF08951F93CF9338
:100A4000DF93C0ECD1E01A858A8761E08BEC91E0FE
:100A50006ADE1A87DF91CF911F910895CF93DF93BC
:100A6000EC01E7DFECECF1E0808188608083D05F0F
:100A700088819081977F9083DF91CF910895EF9245
:100A8000FF920F931F93CF93DF9300D01F92CDB7A8
:100A9000DEB78C01CB014B835C8369839A83C9DF0A
:100AA0008CECE82EFF24F394F7012081286020834A
:100AB0009801305F4B815C81B90189819A810E94E4
:100AC000EE44F7018081877F80832496CDBFDEBF0F
:100AD000DF91CF911F910F91FF90EF900895A9DFC3
:100AE0008091CF0181FF07C086E38093CA0161E056
:100AF0008BEC91E018CE0895CF93DF931F921F9255
:100B0000CDB7DEB76A83898394DF2CEC31E0D9015D
:100B10009C9198609C938981A82FB0E0B05F6A8116
:100B20006C93F9018081877F80830F900F90DF9114
:100B3000CF910895EF92FF920F931F93CF93DF937E
:100B40001F921F92CDB7DEB7182F20ECE22EFF24A4
:100B5000F394F701028569839A83C1DF6ADF6981B3
:100B6000812FCADFF70112829A819183108385E376
:100B7000828761E08BEC91E0D6DDF70102870F9070
:100B80000F90DF91CF911F910F91FF90EF900895FB
:100B90001F93CF93DF93EC014CDF10E06991812F1D
:100BA000ABDF1F5F1032D1F7DF91CF911F91089516
:100BB000CF93DF931F92CDB7DEB789833ADF898168
:100BC00020E2829FC0011124E0ECF1E012829183C7
:100BD000808385E390E00F90DF91CF912FCF1F921C
:100BE0000F920FB60F92112408B60F9218BE09B6D5
:100BF0000F9219BE0BB60F921BBE2F933F934F93CC
:100C00005F936F937F938F939F93AF93BF93EF9374
:100C1000FF93E0914C20F0914D20309709F0199509
:100C2000FF91EF91BF91AF919F918F917F916F91C4
:100C30005F914F913F912F910F900BBE0F9009BE86
:100C40000F9008BE0F900FBE0F901F9018951F9227
:100C50000F920FB60F92112408B60F9218BE09B664
:100C60000F9219BE0BB60F921BBE2F933F934F935B
:100C70005F936F937F938F939F93AF93BF93EF9304
:100C8000FF93E0914E20F0914F20309709F0199595
:100C9000FF91EF91BF91AF919F918F917F916F9154
:100CA0005F914F913F912F910F900BBE0F9009BE16
:100CB0000F9008BE0F900FBE0F901F9018951F92B7
:100CC0000F920FB60F92112408B60F9218BE09B6F4
:100CD0000F9219BE0BB60F921BBE2F933F934F93EB
:100CE0005F936F937F938F939F93AF93BF93EF9394
:100CF000FF93E0915020F0915120309709F0199521
:100D0000FF91EF91BF91AF919F918F917F916F91E3
:100D10005F914F913F912F910F900BBE0F9009BEA5
:100D20000F9008BE0F900FBE0F901F9018951F9246
:100D30000F920FB60F92112408B60F9218BE09B683
:100D40000F9219BE0BB60F921BBE2F933F934F937A
:100D50005F936F937F938F939F93AF93BF93EF9323
:100D6000FF93E0915220F0915320309709F01995AC
:100D7000FF91EF91BF91AF919F918F917F916F9173
:100D80005F914F913F912F910F900BBE0F9009BE35
:100D90000F9008BE0F900FBE0F901F9018951F92D6
:100DA0000F920FB60F92112408B60F9218BE09B613
:100DB0000F9219BE0BB60F921BBE2F933F934F930A
:100DC0005F936F937F938F939F93AF93BF93EF93B3
:100DD000FF93E0915420F0915520309709F0199538
:100DE000FF91EF91BF91AF919F918F917F916F9103
:100DF0005F914F913F912F910F900BBE0F9009BEC5
:100E00000F9008BE0F900FBE0F901F9018951F9265
:100E10000F920FB60F92112408B60F9218BE09B6A2
:100E20000F9219BE0BB60F921BBE2F933F934F9399
:100E30005F936F937F938F939F93AF93BF93EF9342
:100E4000FF93E0915620F0915720309709F01995C3
:100E5000FF91EF91BF91AF919F918F917F916F9192
:100E60005F914F913F912F910F900BBE0F9009BE54
:100E70000F9008BE0F900FBE0F901F9018951F92F5
:100E80000F920FB60F92112408B60F9218BE09B632
:100E90000F9219BE0BB60F921BBE2F933F934F9329
:100EA0005F936F937F938F939F93AF93BF93EF93D2
:100EB000FF93E0915820F0915920309709F019954F
:100EC000FF91EF91BF91AF919F918F917F916F9122
:100ED0005F914F913F912F910F900BBE0F9009BEE4
:100EE0000F9008BE0F900FBE0F901F9018951F9285
:100EF0000F920FB60F92112408B60F9218BE09B6C2
:100F00000F9219BE0BB60F921BBE2F933F934F93B8
:100F10005F936F937F938F939F93AF93BF93EF9361
:100F2000FF93E0915A20F0915B20309709F01995DA
:100F3000FF91EF91BF91AF919F918F917F916F91B1
:100F40005F914F913F912F910F900BBE0F9009BE73
:100F50000F9008BE0F900FBE0F901F9018951F9214
:100F60000F920FB60F92112408B60F9218BE09B651
:100F70000F9219BE0BB60F921BBE2F933F934F9348
:100F80005F936F937F938F939F93AF93BF93EF93F1
:100F9000FF93E0915C20F0915D20309709F0199566
:100FA000FF91EF91BF91AF919F918F917F916F9141
:100FB0005F914F913F912F910F900BBE0F9009BE03
:100FC0000F9008BE0F900FBE0F901F9018951F92A4
:100FD0000F920FB60F92112408B60F9218BE09B6E1
:100FE0000F9219BE0BB60F921BBE2F933F934F93D8
:100FF0005F936F937F938F939F93AF93BF93EF9381
:10100000FF93E0915E20F0915F20309709F01995F1
:10101000FF91EF91BF91AF919F918F917F916F91D0
:101020005F914F913F912F910F900BBE0F9009BE92
:101030000F9008BE0F900FBE0F901F9018951F9233
:101040000F920FB60F92112408B60F9218BE09B670
:101050000F9219BE0BB60F921BBE2F933F934F9367
:101060005F936F937F938F939F93AF93BF93EF9310
:10107000FF93E0916020F0916120309709F019957D
:10108000FF91EF91BF91AF919F918F917F916F9160
:101090005F914F913F912F910F900BBE0F9009BE22
:1010A0000F9008BE0F900FBE0F901F9018951F92C3
:1010B0000F920FB60F92112408B60F9218BE09B600
:1010C0000F9219BE0BB60F921BBE2F933F934F93F7
:1010D0005F936F937F938F939F93AF93BF93EF93A0
:1010E000FF93E0916220F0916320309709F0199509
:1010F000FF91EF91BF91AF919F918F917F916F91F0
:101100005F914F913F912F910F900BBE0F9009BEB1
:101110000F9008BE0F900FBE0F901F9018951F9252
:101120000F920FB60F92112408B60F9218BE09B68F
:101130000F9219BE0BB60F921BBE2F933F934F9386
:101140005F936F937F938F939F93AF93BF93EF932F
:10115000FF93E0916420F0916520309709F0199594
:10116000FF91EF91BF91AF919F918F917F916F917F
:101170005F914F913F912F910F900BBE0F9009BE41
:101180000F9008BE0F900FBE0F901F9018951F92E2
:101190000F920FB60F92112408B60F9218BE09B61F
:1011A0000F9219BE0BB60F921BBE2F933F934F9316
:1011B0005F936F937F938F939F93AF93BF93EF93BF
:1011C000FF93E0916620F0916720309709F0199520
:1011D000FF91EF91BF91AF919F918F917F916F910F
:1011E0005F914F913F912F910F900BBE0F9009BED1
:1011F0000F9008BE0F900FBE0F901F9018951F9272
:101200000F920FB60F92112408B60F9218BE09B6AE
:101210000F9219BE0BB60F921BBE2F933F934F93A5
:101220005F936F937F938F939F93AF93BF93EF934E
:10123000FF93E0916820F0916920309709F01995AB
:10124000FF91EF91BF91AF919F918F917F916F919E
:101250005F914F913F912F910F900BBE0F9009BE60
:101260000F9008BE0F900FBE0F901F9018951F9201
:101270000F920FB60F92112408B60F9218BE09B63E
:101280000F9219BE0BB60F921BBE2F933F934F9335
:101290005F936F937F938F939F93AF93BF93EF93DE
:1012A000FF93E0916A20F0916B20309709F0199537
:1012B000FF91EF91BF91AF919F918F917F916F912E
:1012C0005F914F913F912F910F900BBE0F9009BEF0
:1012D0000F9008BE0F900FBE0F901F9018951F9291
:1012E0000F920FB60F92112408B60F9218BE09B6CE
:1012F0000F9219BE0BB60F921BBE2F933F934F93C5
:101300005F936F937F938F939F93AF93BF93EF936D
:10131000FF93E0916C20F0916D20309709F01995C2
:10132000FF91EF91BF91AF919F918F917F916F91BD
:101330005F914F913F912F910F900BBE0F9009BE7F
:101340000F9008BE0F900FBE0F901F9018951F9220
:101350000F920FB60F92112408B60F9218BE09B65D
:101360000F9219BE0BB60F921BBE2F933F934F9354
:101370005F936F937F938F939F93AF93BF93EF93FD
:10138000FF93E0916E20F0916F20309709F019954E
:10139000FF91EF91BF91AF919F918F917F916F914D
:1013A0005F914F913F912F910F900BBE0F9009BE0F
:1013B0000F9008BE0F900FBE0F901F9018951F92B0
:1013C0000F920FB60F92112408B60F9218BE09B6ED
:1013D0000F9219BE0BB60F921BBE2F933F934F93E4
:1013E0005F936F937F938F939F93AF93BF93EF938D
:1013F000FF93E0917020F0917120309709F01995DA
:10140000FF91EF91BF91AF919F918F917F916F91DC
:101410005F914F913F912F910F900BBE0F9009BE9E
:101420000F9008BE0F900FBE0F901F9018951F923F
:101430000F920FB60F92112408B60F9218BE09B67C
:101440000F9219BE0BB60F921BBE2F933F934F9373
:101450005F936F937F938F939F93AF93BF93EF931C
:10146000FF93E0917220F0917320309709F0199565
:10147000FF91EF91BF91AF919F918F917F916F916C
:101480005F914F913F912F910F900BBE0F9009BE2E
:101490000F9008BE0F900FBE0F901F9018951F92CF
:1014A0000F920FB60F92112408B60F9218BE09B60C
:1014B0000F9219BE0BB60F921BBE2F933F934F9303
:1014C0005F936F937F938F939F93AF93BF93EF93AC
:1014D000FF93E0917420F0917520309709F01995F1
:1014E000FF91EF91BF91AF919F918F917F916F91FC
:1014F0005F914F913F912F910F900BBE0F9009BEBE
:101500000F9008BE0F900FBE0F901F9018951F925E
:101510000F920FB60F92112408B60F9218BE09B69B
:101520000F9219BE0BB60F921BBE2F933F934F9392
:101530005F936F937F938F939F93AF93BF93EF933B
:10154000FF93E0917620F0917720309709F019957C
:10155000FF91EF91BF91AF919F918F917F916F918B
:101560005F914F913F912F910F900BBE0F9009BE4D
:101570000F9008BE0F900FBE0F901F9018951F92EE
:101580000F920FB60F92112408B60F9218BE09B62B
:101590000F9219BE0BB60F921BBE2F933F934F9322
:1015A0005F936F937F938F939F93AF93BF93EF93CB
:1015B000FF93E0917820F0917920309709F0199508
:1015C000FF91EF91BF91AF919F918F917F916F911B
:1015D0005F914F913F912F910F900BBE0F9009BEDD
:1015E0000F9008BE0F900FBE0F901F9018951F927E
:1015F0000F920FB60F92112408B60F9218BE09B6BB
:101600000F9219BE0BB60F921BBE2F933F934F93B1
:101610005F936F937F938F939F93AF93BF93EF935A
:10162000FF93E0917A20F0917B20309709F0199593
:10163000FF91EF91BF91AF919F918F917F916F91AA
:101640005F914F913F912F910F900BBE0F9009BE6C
:101650000F9008BE0F900FBE0F901F9018951F920D
:101660000F920FB60F92112408B60F9218BE09B64A
:101670000F9219BE0BB60F921BBE2F933F934F9341
:101680005F936F937F938F939F93AF93BF93EF93EA
:10169000FF93E0917C20F0917D20309709F019951F
:1016A000FF91EF91BF91AF919F918F917F916F913A
:1016B0005F914F913F912F910F900BBE0F9009BEFC
:1016C0000F9008BE0F900FBE0F901F9018951F929D
:1016D0000F920FB60F92112408B60F9218BE09B6DA
:1016E0000F9219BE0BB60F921BBE2F933F934F93D1
:1016F0005F936F937F938F939F93AF93BF93EF937A
:10170000FF93E0917E20F0917F20309709F01995AA
:10171000FF91EF91BF91AF919F918F917F916F91C9
:101720005F914F913F912F910F900BBE0F9009BE8B
:101730000F9008BE0F900FBE0F901F901895CF937B
:10174000CFB7F894811528E0920711F461E005C045
:10175000803428E0920749F462E083E090E00E9440
:10176000600364E083E090E01EC0811529E09207E9
:1017700011F461E005C0803429E0920749F462E089
:1017800084E090E00E94600364E084E090E00BC09D
:1017900081159A4091F461E085E090E00E94600339
:1017A00064E085E090E00E9460039FB7F894809128
:1017B0004E2E8F5F80934E2E9FBFCFBFCF91089547
:1017C000811528E0920729F46093502070935120EE
:1017D0000895803428E0920729F460935C20709388
:1017E0005D200895811529E0920729F46093642013
:1017F000709365200895803429E0920729F460935E
:10180000702070937120089581159A4021F460939F
:101810007820709379200895811528E0920729F4A3
:1018200060935220709353200895803428E09207EB
:1018300029F460935E2070935F200895811529E05C
:10184000920729F46093662070936720089580348E
:1018500029E0920729F46093722070937320089511
:1018600081159A4021F460937A2070937B2008952B
:10187000009709F49BC0803C910511F460E105C01C
:10188000811524E0920721F464E080E090E08CC0B0
:10189000803821E0920711F462E0F7CF811521E052
:1018A000920711F461E0F1CF803823E0920711F440
:1018B00061E005C0811522E0920721F462E081E039
:1018C00090E072C0803223E0920721F464E082E06D
:1018D00090E06AC0811528E0920711F461E05BC0D6
:1018E000811529E0920711F461E04DC081152AE0CD
:1018F000920711F461E056C0803428E0920711F499
:1019000062E049C0803429E0920711F462E03BC0F4
:10191000803928E0920711F464E03DC0803929E065
:10192000920711F464E02FC080392AE0920711F485
:1019300064E038C0803C28E0920711F468E02BC0D6
:10194000803C29E0920711F468E01DC0803A28E04D
:10195000920711F460E11FC0803A29E0920711F468
:1019600060E111C0803A2AE0920711F460E11AC0E8
:10197000803B28E0920711F460E20DC0803B29E033
:10198000920721F460E284E090E00EC0803824E009
:10199000920721F460E483E090E006C0803A94402E
:1019A00029F460E485E090E00C9460030895FC0164
:1019B000218125FFFCCF608380E090E00895FC0149
:1019C000218127FFFCCF808108958F929F92AF9253
:1019D000BF92CF92DF92EF92FF920F931F93CF931C
:1019E000DF93EC016A017B0148015901B901A801AB
:1019F000A3E07695679557954795AA95D1F7D901B4
:101A0000C80116E1B695A795979587951A95D1F7D0
:101A10002C8122FD08C07695679557954795B69518
:101A2000A795979587954C155D056E057F0508F47C
:101A30009EC0C816D906EA06FB0608F498C08C8139
:101A400082FD04C0CC0CDD1CEE1CFF1CC501B401E2
:101A5000A70196010E94B1448FEF90E0A0E0B0E0B2
:101A600019EF281739074A075B0758F0880F991FA5
:101A7000AA1FBB1F1D3F0CF481601F5F173089F741
:101A80004CC017FF4AC0D701C60103E0880F991F59
:101A9000AA1FBB1F0A95D1F7881A990AAA0ABB0A7E
:101AA000812F992787FD90951E3FE4F46DEF7FEF1E
:101AB000681B790BA501940104C0220F331F441F3A
:101AC000551F6A95D2F7CA01B90146015701B6946C
:101AD000A79497948794680D791D8A1D9B1DA70173
:101AE000960118C09C012D5F3F4FD701C60104C06D
:101AF000880F991FAA1FBB1F2A95D2F79C01AD0121
:101B0000BC01CD019695879577956795680D791DF0
:101B10008A1D9B1D0E94B14421C0212F332727FD20
:101B200030952D5F3F4FD701C60104C0880F991F24
:101B3000AA1FBB1F2A95D2F79C01AD01BC01CD01A4
:101B40009695879577956795680D791D8A1D9B1DDC
:101B50000E94B1442150310941095109832F8F70EE
:101B60001295107F812B8F832E8381E001C080E04E
:101B7000DF91CF911F910F91FF90EF90DF90CF9069
:101B8000BF90AF909F908F9008950F931F93CF9326
:101B9000DF93EC018B016CDE8D818F738D83F801F7
:101BA00086819481892B9085992311F098E001C05A
:101BB00090E0892B8D83F80140815181628173818E
:101BC00000E018E428EE31E0CE01FFDE9C81986051
:101BD0009C839C8190619C83DF91CF911F910F9199
:101BE0000895CF92DF92EF92FF920F931F93CF93BE
:101BF000DF93EC01D901C801B695A7959795879514
:101C0000481759076A077B0778F46A017B01CC0CF7
:101C1000DD1CEE1CFF1CC901B801A70196010E9442
:101C2000B1442150310902C020E030E0832F9927D0
:101C30008F7099278F832E83DF91CF911F910F9102
:101C4000FF90EF90DF90CF900895EF92FF920F9367
:101C50001F93CF93DF931F92CDB7DEB77C018B012B
:101C6000298306DEF70184818F7E8483F801348125
:101C700032502981F0EAEF16F8E0FF0631F4809146
:101C80004E0684FD72C021E123C080EBE81688E097
:101C9000F80609F46AC0E0EAEE16E9E0FE0631F45F
:101CA00080916E0684FD5FC029E112C0F0EBEF1653
:101CB000F9E0FF0609F457C080EAE8168AE0F80662
:101CC00039F480918E0684FF02C025E201C021E232
:101CD000E22FE695E695E69580E2E89FF001112473
:101CE000FA5F277081E090E0022E01C0880F0A940D
:101CF000EAF7982F8183323010F480E401C080E04D
:101D00009093B000808B9583F7018581806C8583EB
:101D1000F8018481F701813011F0833019F4858155
:101D2000826002C085818D7F8583F8018581F701FE
:101D3000882319F08581846002C085818B7F85832B
:101D4000F801408151816281738100E018E428EE3E
:101D500031E0C70146DFF701848188608483848194
:101D60008061848304C02DE1B3CF25E1B1CF0F9012
:101D7000DF91CF911F910F91FF90EF900895809187
:101D8000820080FDFCCF08956091800062706160E8
:101D9000880F880F8C73682B80E890E00E94930373
:101DA000EECF609180006C7F616080E890E00C94E1
:101DB0009303609180006C73636080E890E00E9400
:101DC0009303DDCF63E080E890E00E949303D7DFC8
:101DD0006BE281E890E00E949303D1DFA895FFCFEA
:101DE0008F929F92AF92BF92CF92DF92EF92FF922B
:101DF0000F931F93CF93DF93CDB7DEB7CD54D109A7
:101E0000CDBFDEBFFB01833008F443C19081F18078
:101E1000911162C0863008F43CC1FF2009F439C139
:101E20009281992309F435C1048110E090E0049770
:101E3000081719070CF02DC14F2D50E09A012150C1
:101E40003109C90137FF02C0CA010E9654E09595C9
:101E500087955A95E1F7F82EC90160E170E00E947C
:101E60009E44682F9E012F5F3F4F8EE0D9011D9247
:101E70008A95E9F7D9019E01215F3F4F80E88D9354
:101E8000A217B307E1F7359690E00150110915C08C
:101E9000DF01A20FB31F2C912A502E3068F4892F36
:101EA0008F5FDF01A80FB11D8C91A1E0B0E0AC0FF6
:101EB000BD1FA20FB11D8C939E5F292F30E020170C
:101EC000310734F3AE014F5F5F4F8F2D0E94062A1A
:101ED0000E949B36A895DDC0913009F0DAC0EF2D45
:101EE000F0E09F0121503109C90160E170E00E94DA
:101EF0009E4437FF03C09F01225F3F4F44E035956A
:101F000027954A95E1F7AE01405C5F4F682F822F1D
:101F10000E940B298AE08CA321968FAD21978DA377
:101F20008BE08EA322968FAD22978FA38CE088A79B
:101F300023968FAD239789A78DE08AA724968FAD2E
:101F400024978F5F8BA78EE08CA725968FAD259762
:101F50008DA78FE08EA71FA680E188AB27968FAD57
:101F600027978F5F89AB81E18AAB28968FAD289741
:101F70008BAB82E18CAB29968FAD29978DAB83E13A
:101F80008EAB2A968FAD2A978FAB84E188AF2B96C4
:101F90008FAD2B9789AF85E18AAF2C968FAD2C97AB
:101FA0008BAF86E18CAF2D968FAD2D978DAF87E1EE
:101FB0008EAF2E968FAD2E978FAF8F2D81508034A0
:101FC00010F40CE101C000E0802F68E10E94714430
:101FD000E82EE394C12CDD24D39480EFB82EAA24FC
:101FE000A39499E7992E24E0822E17EF802F0931D0
:101FF00008F088E10851B9821A82AB829C828D82F6
:102000001E82FF82D886E9868A871B871C871D87E8
:102010001E871F87188B198B1A8B1B8B1C8B1D8B94
:102020001E8B1F8B188F198F1A8F1B8F1C8F1D8F64
:102030001E8F1F8F18A319A31AA31BA39AE0282F82
:1020400030E0275F3F4F10C0A1E0B0E0AC0FBD1FF4
:10205000A40FB51FE4E2F0E0EC0FFD1FEC0DF11D45
:1020600060816C93C3949F5F492F50E0241735071C
:102070005CF7BE016F5F7F4F855F0E94793380916F
:1020800046379091473756D2A895D394ED1408F06F
:10209000ADCFC35BDF4FCDBFDEBFDF91CF911F91CF
:1020A0000F91FF90EF90DF90CF90BF90AF909F90F7
:1020B0008F900895A0E050E0415051091DC0FB01F0
:1020C000E20FF31F20813A2F3F5F2A3048F4FB01D3
:1020D000E30FF11D3081FC01E20FF11D30830BC0D5
:1020E0002F3148F0FB01E30FF11D3081FC01E20FBD
:1020F000F11D75973083AE5F2A2F30E02417350726
:10210000F4F20895CF93DF93CDB7DEB76F97CDBFCD
:10211000DEBFF8940E94B426FC01789480EF898396
:102120001A8281E08B8399E79C8322E02D838E8342
:102130001F82909122329F5F9887898784858A8742
:102140002B8780818C8783E08D8782818E8784E0D6
:102150008F878481888B85E0898B86818A8B86E056
:102160008B8B80858C8B87E08D8B82858E8B88E036
:102170008F8B80912132888F89E0898F80911A32EC
:102180008A8F8FE18B8F80915B2E8C8F80E28D8F79
:10219000809120328E8F87EF8F8FBE016F5F7F4FD0
:1021A0008FE10E9479336F96CDBFDEBFDF91CF9173
:1021B0000895882329F0FB018081811101C0A2CFFD
:1021C0000895CF93DF93CDB7DEB72D97CDBFDEBF98
:1021D000F89481E090E00E942E058093223283E003
:1021E00090E00E942E0591E0811101C090E09D8752
:1021F00084E090E00E942E0589831A8285E090E0B9
:102200000E942E058B831C8286E090E00E942E05A2
:102210008D831E8287E090E00E942E058F831886B2
:1022200088E090E00E942E0589871A8689E090E078
:102230000E942E058B871C868AE090E00E942E0566
:10224000809321328BE090E00E942E0580931A3219
:102250008CE090E00E942E0580935B2E8DE090E054
:102260000E942E0580932032CE0101960E948B267B
:1022700078942D96CDBFDEBFDF91CF910895CF9397
:10228000DF93CDB7DEB72F97CDBFDEBF6E877F87D9
:102290008D8787DDFE0131969CE0DF011D929A95C6
:1022A000E9F78D85482F6E857F85CF0103DF698132
:1022B000615081E090E00E949A056A8183E090E09D
:1022C0000E949A056B8184E090E00E949A056C81DF
:1022D00085E090E00E949A056D8186E090E00E9482
:1022E0009A056E8187E090E00E949A056F8188E0F0
:1022F00090E00E949A05688589E090E00E949A0526
:1023000069858AE090E00E949A056A858BE090E0FA
:102310000E949A056B858CE090E00E949A056C857E
:102320008DE090E00E949A0560E07FEF80E090E011
:102330000E94313B46DF0E946029E4DE0E94FF2EAE
:102340002F96CDBFDEBFDF91CF910895F89467E05F
:1023500080E090E00E949A0563E081E090E00E94B6
:102360009A0561E083E090E00E949A0560E084E0D5
:1023700090E00E949A0567E085E090E00E949A054F
:1023800060E086E090E00E949A0560E087E090E0DF
:102390000E949A0566E088E090E00E949A0560E05D
:1023A00089E090E00E949A056FE38AE090E00E9445
:1023B0009A056FE78BE090E00E949A056FE78CE04A
:1023C00090E00E949A056FE78DE090E00E949A05E8
:1023D00078940C94CF2A6FE371E181E00E9441254B
:1023E00069ED70E182E00E94412567E072E183E0DF
:1023F0000E94412560EF7EE084E00E94412580E05C
:1024000090E00E942E05873009F0A0CF0895882320
:1024100069F1FB018081813019F0823039F50CC0FF
:10242000C0DCD9D5FFEF2FE483ECF1502040804091
:10243000E1F700C000001BC0B4DC88DF87E08093B8
:10244000A2006FEF7FEF80E090E00E94313BC3D5A8
:102450009FEFEFE4F3EC9150E040F040E1F700C073
:10246000000081E090E090DCA4DCFFCF0895B3D5BC
:10247000F89480E02FEF3FE891E021503040904009
:10248000E1F700C000008F5F8038A1F78AEC9CEA7A
:10249000A2E4BCED8093953790939637A09397373D
:1024A000B09398378FCCCF93DF93EC011B8682E0FB
:1024B0008C83898761E0CE010196B8D4882331F0FE
:1024C00061E0CE010696DF91CF91B0C480E0DF914C
:1024D000CF9108950F931F93CF93DF931F92CDB7A2
:1024E000DEB78B01209133322430E9F4FC01818185
:1024F000ABD340E050E064E070E0C801C5D1811189
:1025000013C020913C3230913D32F901EF5BFF4F17
:102510004081F901E05CFF4F9081491728F08983E1
:102520004DD3898101C082E00F90DF91CF911F913F
:102530000F910895209133322430F9F4FC01818108
:1025400083D38091403220913C3230913D32F90169
:1025500087FF05C0EF5BFF4F808190E00AC0E05C21
:10256000FF4F8081F901EF5BFF4F208190E0821BDC
:102570009109892B21F022D3EFC482E0089580E0F5
:102580000895CF93DF93EC0180913332843049F486
:1025900089815AD300D4882321F0CE01DF91CF91D5
:1025A000C9CFDF91CF910895CF93DF93EB012091B5
:1025B0003332243011F080E02AC0FC01868144D3FC
:1025C000D1D38823C1F320913C3230913D32F901BF
:1025D000EF5BFF4F9081F901E05CFF4F808198171E
:1025E00050F740E050E064E070E0CE01A0D180916F
:1025F0003C3290913D32FC01EF5BFF4F2081FC01AA
:10260000E05CFF4F8081281708F0F1D281E0DF9174
:10261000CF9108950F931F93CF93DF93CDB7DEB77C
:10262000EC97CDBFDEBF04E312E3F0D2F801819353
:102630008F01F2E30C331F07C1F70E94524079D398
:10264000882309F402C1809134329091353295305B
:1026500009F47BC038F4913081F170F0933009F0C7
:10266000F4C02BC0983009F4CDC0993009F4D2C021
:10267000963009F0EAC07DC0803821F0823809F038
:10268000E4C008C01091303280913132882381F04B
:1026900012600EC0809138328F70D6D2E0913E32F7
:1026A000F0913F32118112FB112710F980E0CCD25A
:1026B00014D3812FBAD280E0AAC0882319F08230C7
:1026C00009F0C3C08F7121F0823009F0BEC00BC089
:1026D00080913632813009F0B8C0933009F080E043
:1026E000809331322DC080913632811129C0009102
:1026F0003832109139320F7011270115110509F484
:10270000A4C0802FA1D280913532833011F4CAD277
:1027100017C0E0913E32F0913F3281818B7F8183FF
:1027200084E8809FF001819FF00D1124EE57FD4C4D
:102730001082E0913E32F0913F3280818E7F808323
:1027400080E082D2CAD2F1D380C081117EC01091C4
:1027500036321F77C2D2E9D31ED38823E9F3109310
:10276000C304112311F083E001C082E0809333326F
:102770006CC08058823008F068C0809136329091E9
:1027800037328C3D23E0920761F583E08A838AE348
:1027900089834FB7F894DE01139620E038E052E0C9
:1027A0005093CA01E32FF0E0E4911092CA0120FF98
:1027B00003C0E295EF703F5FEF708E2F90E0EA303C
:1027C00010F0C79601C0C0968D939D932F5F2C315A
:1027D00039F74FBF82D26AE370E0CE010196FAD09A
:1027E0000FC0AE01455C5F4F609138320E947E356C
:1027F0008C01009751F171D2B8018BAD9CAD63D1C2
:10280000F6D123C0803809F568D280912F320DD2DD
:10281000D5D199CF811119C0809136328230A8F478
:102820005CD28091363280932F327FD380912F32C9
:10283000811104C08091C304882311F084E001C099
:1028400081E0809333320E94384073D2882311F0A4
:1028500044D228D2EC96CDBFDEBFDF91CF911F913D
:102860000F9108950895CF9380913332882351F0CA
:10287000C091403280E0E8D15CD28111CBDE8C2F58
:10288000CF91E2C1CF910895BF92CF92DF92EF92A4
:10289000FF920F931F93CF93DF937C018B01EA018B
:1028A0005BD3B82E811138C0209731F0288139814F
:1028B000021B130BE20EF31EC12CD12C28C0209159
:1028C0003C3230913D32F901EF5BFF4F9081F901CD
:1028D000E05CFF4F8081981788F070D1C4DF2097AB
:1028E00049F0888199818C0D9D1D8883998325E00D
:1028F000B22E12C031D3882351F00DC0F70181915F
:102900007F0193D101501109FFEFCF1ADF0A0115A2
:102910001105A9F601C0B82E8B2DDF91CF911F9123
:102920000F91FF90EF90DF90CF90BF900895BF92EE
:10293000CF92DF92EF92FF920F931F93CF93DF938B
:102940007C018B01EA0108D3B82E811138C0209791
:1029500031F028813981021B130BE20EF31EC12CCA
:10296000D12C28C020913C3230913D32F901EF5BEF
:10297000FF4F9081F901E05CFF4F8081981788F04C
:1029800036D171DF209749F0888199818C0D9D1D8A
:102990008883998345E0B42E12C0DED2882351F09B
:1029A0000DC034D1F70181937F0101501109FFEF70
:1029B000CF1ADF0A01151105A9F601C0B82E8B2D1B
:1029C000DF91CF911F910F91FF90EF90DF90CF900B
:1029D000BF900895DF92EF92FF920F931F93CF93D2
:1029E000DF93182F092FEB018091403280682CD1A2
:1029F00020913A3230913B322C173D0720F020973E
:102A000019F4DCD001C0E901E12EF02ED12C3FC039
:102A100080913332811102C082E04DC0853011F4C3
:102A200083E049C086D1811145C09CD181113DC050
:102A3000B2D1882361F12091403280913C32909153
:102A40003D32FC0127FF05C0EF5BFF4F008110E026
:102A500012C0E05CFF4F0081FC01EF5BFF4F808103
:102A600010E0081B110907C0F70181917F01DDD03B
:102A700021970F5F1F4F209719F008301105A0F321
:102A8000DD24D3940830110509F0D12C97D020977C
:102A900009F0BECFD110BCCF08C08091333288235B
:102AA00009F4BACF853009F4BBCF5CD18823A9F3F0
:102AB00080E001C081E0DF91CF911F910F91FF90E5
:102AC000EF90DF900895DF92EF92FF920F931F93A4
:102AD000CF93DF93182F092FEB018091403280684C
:102AE000B3D020913A3230913B322C173D0720F081
:102AF000209719F463D001C0E901E12EF02ED12C0A
:102B000041C080913332811102C082E04FC08530D4
:102B100011F483E04BC00DD1811147C023D1811145
:102B20003FC039D1882371F12091403280913C32ED
:102B300090913D32FC0127FF05C0EF5BFF4F008104
:102B400010E014C0E05CFF4F0081FC01EF5BFF4F21
:102B5000808110E0081B110909C0F701849165D03C
:102B6000FFEFEF1AFF0A21970F5F1F4F209719F011
:102B70000830110590F3DD24D3940830110509F0D5
:102B8000D12C1CD0209709F0BCCFD110BACF08C0EF
:102B900080913332882309F4B8CF853009F4B9CF56
:102BA000E1D08823A9F380E001C081E0DF91CF91DB
:102BB0001F910F91FF90EF90DF900895E0913E32CA
:102BC000F0913F32A0913C32B0913D32AF5BBF4FAC
:102BD0008C9190E08283938380818D798083E091D2
:102BE0003C32F0913D32EF5BFF4F10820895E0914F
:102BF0003E32F0913F3280818D798083E0913C328A
:102C0000F0913D32EF5BFF4F1082089580913C328E
:102C100090913D32FC01EF5BFF4F2081DC01A20F60
:102C2000B11D8C912F5F2083089520913C3230910B
:102C30003D32F901EF5BFF4F9081D901A90FB11D22
:102C40008C939F5F9083089580934032482F4F70FC
:102C500094E8499F900111242F5B3D4C6091C6047C
:102C60007091C70490E1499FA001112487FF0FC014
:102C70002E5B3F4F20933C3230933D32CA01089681
:102C8000860F971F80933E3290933F320895209392
:102C90003C3230933D32460F571F40933E325093A3
:102CA0003F320895E0913E32F0913F32818184605D
:102CB0008183E0913E32F0913F328181807C80348B
:102CC00059F4809140328058BFDFE0913E32F0915C
:102CD0003F328181846081830895809140328F7773
:102CE000B3DFE0913E32F0913F3280818D78808376
:102CF000E0913E32F0913F32808181608083E091AB
:102D00003C32F0913D32EF5BFF4F108280914032B8
:102D100080689ADFE0913E32F0913F32808181609D
:102D20008083E0913C32F0913D32EF5BFF4F1082A7
:102D30000895809140328F7787DFE0913E32F091A5
:102D40003F32808184FF0CC020913C3230913D3273
:102D500082819381F901E05CFF4F808381E00895D7
:102D600080E00895809140328F776EDFE0913E32AF
:102D7000F0913F32808185FF0CC020913C32309130
:102D80003D3282819381F901E05CFF4F808381E0D5
:102D9000089580E0089580914032806855DFE09189
:102DA0003E32F0913F3280818695817008951F9365
:102DB000CF93DF931F921F92CDB7DEB7182F4A83B0
:102DC000698342DFE0913E32F0913F321182E0911F
:102DD0003E32F0913F32812F881F8827881F880F4D
:102DE0008083E0913E32F0913F3269816183E091CE
:102DF0003E32F0913F321282138220913C32309168
:102E00003D3224833583110F110B4A811423F901BC
:102E1000E05CFF4F1083F901EF5BFF4F108281E010
:102E20000F900F90DF91CF911F910895CF92DF9275
:102E3000EF92FF920F931F93CF93DF931F921F92F6
:102E4000CDB7DEB7E62E6C01F12C46C0F6015081FD
:102E5000511105C0F394F5E0CF0ED11C3DC0F60131
:102E60000181128183819481923010F048E101C088
:102E700048E028E030E090E003C09F5F220F331F5E
:102E800020173107D0F3252F2F7030E02330310584
:102E900014F080E024C001341105D8F7942B9F7EF4
:102EA000882319F0813029F402C0906405C0906C29
:102EB0000CC09068811109C0402F692F852F805860
:102EC00059839A8374DF9A815981402F692F852F06
:102ED0006EDF8111BFCFDDCFFE10B8CF81E00F9044
:102EE0000F90DF91CF911F910F91FF90EF90DF90A6
:102EF000CF900895E0ECF4E0A681B78119961C927A
:102F0000A681B78111961C92A681B78159961C9211
:102F1000A681B78151961C92A681B78199961C9281
:102F20000680F781E02D11A208958091343287FD4B
:102F300004C031DF882351F00EC014DF811105C0B9
:102F4000809133328111F9CF089551CE809133327F
:102F50008111EFCF089532CE1F93CF93DF93E0918D
:102F6000C604F091C704C0A9D1A914E602C0EC01BF
:102F7000122F809140328078803851F40CDF81111B
:102F800005C080913332811105C01CC080E01FC094
:102F9000E9DEF5CF8530C1F0E0913E32F0913F326D
:102FA000818182FD13C0E091C604F091C70480A91D
:102FB00091A98C179D07E9F2212F21501111D7CF2C
:102FC00084E005C082E003C083E001C081E0DF91BE
:102FD000CF911F91089564D06AD0E0ECF4E0818134
:102FE0008E7F818380818F77808310923232089523
:102FF000CF93DF93E0E4F0E01482848183608483E4
:103000004FD055D0C0ECD4E088818F7788838881F9
:10301000806888831092333210922F3210923132AE
:103020001092303288818064888348E068E480E8C8
:10303000BEDE48E068E480E0BADE88858064888788
:10304000898181608983DF91CF910895CF93DF9348
:103050002FB7F894C0ECD1E082E08A87EAE1F0E093
:10306000E491A0ECB4E0DA96EC93DA97EBE1F0E0CF
:10307000E491DB96EC93DB971A868EEC93E38E7FDC
:1030800016968D939C93179782E18C9383E0189604
:103090008C932FBF81E080933232DF91CF91A8CF04
:1030A000E0ECF4E080858370808711860895E0EC81
:1030B000F4E08FEF8287848708951F920F920FB6F6
:1030C0000F92112408B60F9218BE09B60F9219BEBE
:1030D0000BB60F921BBE2F933F934F935F936F934B
:1030E0007F938F939F93AF93BF93EF93FF938091C1
:1030F000CA0486FF07C080E48093CA0485E08093F9
:103100003332B0DB8091CA0485FF13C080E2809324
:10311000CA0480912F32882311F084E007C0809187
:10312000C304882311F083E001C081E0809333322F
:1031300099DB8091CA0484FF14C080E18093CA04A3
:1031400082E08093333210922F321092C304D2DE89
:1031500048E068E480E82BDE48E068E480E027DEB1
:1031600081DBFF91EF91BF91AF919F918F917F9103
:103170006F915F914F913F912F910F900BBE0F90E8
:1031800009BE0F9008BE0F900FBE0F901F901895AC
:1031900081E0089580910234882349F00E944733EA
:1031A000BC017695679586EE98E10C948A3E0E9464
:1031B0004733BC01660F771F680F791F76956795B7
:1031C0007695679586EE98E10C948A3E2F923F9211
:1031D0004F925F926F927F928F929F92AF92BF9227
:1031E000CF92DF92EF92FF920F931F93CF93DF93D3
:1031F00000D01F92CDB7DEB780910034909101349A
:10320000029709F0B9C060908120862D815008F4A2
:103210008FE0482E512CEBE1CE2EE2E3DE2EF5E0DE
:10322000AF2EF4E3BF2E0EEE11E3ACE5EA2EAEE2D4
:10323000FA2E1B821C82712CBFE78B2E912CF6017B
:1032400081916F01FB81F9833F2F3C5D880F880FCF
:10325000380FF50181915F01982F975F9331B0F09E
:103260001816A4F46AE00E947D44843008F083E0DC
:10327000E82FF0E0E15CFF4D8091812060810E94A9
:1032800071449923F1F0212C312C1EC0F70180816B
:103290009CE04B815C81949FF001959FF00D11247F
:1032A000E80FF11D74E0EE0FFF1F7A95E1F7E60DD0
:1032B000F71DE852F14D8081882329F3282E312C07
:1032C00003C06FE7262E312CF70181917F019CE02E
:1032D0004B815C81949FF001959FF00D1124E80FC4
:1032E000F11D54E0EE0FFF1F5A95E1F7E40DF51DB7
:1032F000E852F14D8081882341F02FE740E0632FB1
:1033000087E03A830E9497343A8121143104B9F05E
:10331000F8012081229DC001239D900D1124B4014C
:103320000E948A44262E262F41E0632F87E00E94C8
:1033300097346981665F422D87E00E9472344B8129
:103340005C814F5F5F4F4B835C83085F1F4F44304E
:10335000510509F074CF8091463790914737EAD8EC
:10336000809181208F5F80938120803129F4109299
:10337000812081E0809380202496CDBFDEBFDF9145
:10338000CF911F910F91FF90EF90DF90CF90BF9062
:10339000AF909F908F907F906F905F904F903F90F5
:1033A0002F9008957F928F929F92AF92BF92CF926B
:1033B000DF92EF92FF920F931F93CF93DF930BE176
:1033C00012E3CCE5DEE2AFEEB1E320E030E08FE3E4
:1033D000882E9FE7992EF80111928F0160E070E02E
:1033E00040E050E0F8EDEF2EFEE2FF2EE20EF31E7D
:1033F00015C0FC01EC0DFD1DE454FB4F7490F5016C
:10340000E80FF91F708201968031910591F74F5FA7
:103410005F4F605F7F4F4C30510561F080E090E07E
:103420006A01E4E0CC0CDD1CEA95E1F75701A60E39
:10343000B71EDFCF1992FD01329710828C92FD01E9
:1034400033971082FD0131979082FD0136971082EB
:10345000189620543F4F2115F3E03F0709F0BBCFEA
:1034600010922E3280E2E8EAFEE2DF011D928A9598
:10347000E9F780E1EAE0F2E3DF011D928A95E9F7DE
:103480001092C82E1092C92E1092CA2E1092CB2ED6
:10349000B4D4E8EAFEE28AE092E3C6E1D2E312E1C4
:1034A000E12E12E3F12E64E04CE958E10FE32CE940
:1034B00031E31FE710821182DC011D92CD01408FA4
:1034C000518F0993208B318B7FE7D7011D937D01AD
:1034D000615032966111EECF7093033410928620C2
:1034E000709387201092043410920832109209329F
:1034F0008AE580931F3210920234109200341092A9
:103500000134DF91CF911F910F91FF90EF90DF90E9
:10351000CF90BF90AF909F908F907F9008958091B3
:10352000003490910134892B59F481E090E080932C
:103530000034909301344FE76EE087E00C947234CE
:1035400010920034109201341092812040E06EE01D
:1035500087E00C947234109281200895CF93C82F85
:1035600020910034309101342130310551F4811122
:1035700029C082E090E08093003490930134CF9191
:1035800025CE22303105F1F40E945133882391F089
:103590008C2F992787FD9095029666E070E00E9437
:1035A0009E44892B79F461E070E08AEC98E1CF9138
:1035B0000C948A3E8C2F66E00E947D44911102C0DB
:1035C000CF9104CECF91089590E0FC01E45AF14DE3
:1035D00020813CE0389FF001399FF00D1124E20F6B
:1035E000F11D24E0EE0FFF1F2A95E1F7E60FF11D14
:1035F000E852F14D8081089590E0FC01E45AF14DCC
:1036000020813CE0389FF001399FF00D1124E20F3A
:10361000F11D34E0EE0FFF1F3A95E1F7E60FF11DC3
:10362000E852F14D40830895E82FF0E0E55EFD4C4F
:1036300060830895E82FF0E0E55EFD4C80810895F9
:103640004FE76FE087E00E94723440E06FE087E070
:103650000C947234982F94519430B8F498E0899F68
:10366000F0011124E85BFE4C81E0611180E084836D
:103670008091083290910932019709F083C00E942D
:103680008126049709F07EC097C0982F98519430F6
:1036900098F498E0899FF0011124E85DFE4C81E0E8
:1036A000611101C080E085838091083290910932D8
:1036B000019709F067C0E3CF982F96569031C0F577
:1036C00090E0865691099C01237033279595879544
:1036D0009595879553E0220F331F5A95E1F7F9012D
:1036E000E851FE4C82309105B9F083309105D1F05C
:1036F000019731F081E0611101C080E0808308957D
:1037000081E0611101C080E0818380910832909155
:1037100009320197B9F5B3CF81E0611101C080E0B2
:103720008283089581E0611101C080E08383089560
:103730008F3079F480910220882321F181E08093F9
:10374000023484E090E00E948626AED110920220DE
:1037500077CF8E30B9F4662369F080910034909170
:103760000134892B79F481E090E0809300349093C8
:103770000134089510920034109201341092812087
:10378000109280200895843098F0982F94509430AF
:1037900048F09450943048F08C50843048F423E042
:1037A00030E008C021E030E005C022E030E002C097
:1037B00020E030E0C90108952F923F924F925F922E
:1037C0006F927F928F929F92AF92BF92CF92DF9231
:1037D000EF92FF920F931F93CF93DF93CDB7DEB796
:1037E0002597CDBFDEBF2CEE622E21E3722E3FEE79
:1037F000832E31E3932E28EA3EE22C833D834EEE66
:10380000A42E41E3B42E5CE5C52E5EE2D52E58E031
:1038100059836CE0262E412C512C10E0F30180815D
:1038200081110DC0E0915B2EF0E0E454FD4F349027
:10383000E0912032F0E0E454FD4FF49004C08AE0BF
:10384000382E9AE0F92E920128513E4C2A833B8370
:10385000F9018181882331F0432D68E7812F0E948F
:10386000693904C060E0812F0E948639812FE2DE31
:1038700060E070E802C0769567958A95E2F74F2D73
:10388000812F0E944439812FD5DE482F26EF34E066
:10389000429FC001439F900D1124EC81FD818083E4
:1038A000918360E070E8F601008002C0769567952C
:1038B0000A94E2F74F2D812F8C5F0E944439F60164
:1038C000208146EF54E0249FC001259F900D1124D4
:1038D000EC81FD8180879187F3018081811106C091
:1038E000432D61E089810E94693904C060E08981CB
:1038F0000E948639EF2C00E021E030E040E0F50145
:10390000608189810E942B38F5018081F4E68F9FC8
:10391000C0011124EC81FD81808B918BEA81FB81B8
:103920008581882331F0432D6FE0822D0E94693913
:1039300004C060E0822D0E948639EF2C0EE721E062
:1039400030E041E0F4016081822D0E942B38F401C7
:103950008081F4E68F9FC0011124EC81FD81808F6E
:10396000918F1F5FF8E06F0E711C28E0420E511C12
:1039700038E0830E911C23944C815D814E5F5F4F34
:103980004C835D8358E0A50EB11C99819F5F99839C
:10399000EFEFCE1ADE0A143009F040CF2596CDBFE6
:1039A000DEBFDF91CF911F910F91FF90EF90DF90DD
:1039B000CF90BF90AF909F908F907F906F905F90CF
:1039C0004F903F902F900895AF92BF92CF92DF9289
:1039D000EF92FF920F931F93CF93DF9336D25C0148
:1039E000E8EAEE2EEEE2FE2E10E0C1E0D0E0FCE9C7
:1039F000CF2EF1E3DF2E9E012A213B21232B29F03C
:103A00006EE3812F0E94863904C060E0812F0E94FE
:103A1000863900E021E030E040E060E0812F0E9444
:103A2000AE38F701C192D1927F01CC0FDD1F1F5F2D
:103A3000103109F7DF91CF911F910F91FF90EF9017
:103A4000DF90CF90BF90AF900895FF920F931F9398
:103A5000CF93DF93C8EADEE210E0612F80912E322F
:103A6000B3DDF82E882329F06AE0812F0E94863981
:103A700004C060E0812F0E94863900E021E030E040
:103A800040E06F2D812F0E94AE3884E6F89E9001B1
:103A90001124299339931F5F1031F9F6DF91CF91EB
:103AA0001F910F91FF9008958091083290910932F3
:103AB0008230910531F08330910521F0019719F49E
:103AC0007BCE82CFC2CF0895DF92EF92FF920F9309
:103AD0001F93CF93DF931F92CDB7DEB7182FE82E39
:103AE000F12CF701E65FFD4C6081E0915B2EF0E088
:103AF000E454FD4F0491E0912032F0E0E454FD4F96
:103B0000D490698340DE69818130910531F140F0C4
:103B10008230910509F48BC0039709F0B5C09EC0AF
:103B2000F70153E0EE0FFF1F5A95E1F7E851FE4C05
:103B30008481882311F04AE001C04D2D812F4983F3
:103B400079DD60E070E802C0769567958A95E2F7C6
:103B50004981812F0E94443997C09701245031092F
:103B6000790143E0EE0CFF1C4A95E1F7D701A8511B
:103B7000BE4C14968C91882311F04AE001C04D2D63
:103B8000D901AB5FBB4C8C91882379F06AE00E942D
:103B90007D44A82FB0E0AA0FBB1FAD5BBF4D6D9158
:103BA0007C91812F0E9444390EC0245A314D60E02F
:103BB00070E8F901008002C0769567950A94E2F7F3
:103BC000812F0E944439D0908120DD2011F0DA94B9
:103BD00002C08FE0D82E6D2D812F8450F5DC882314
:103BE00009F1F701E851FE4C8481882311F04AE085
:103BF00001C0402F49830E9451334981882369F0D5
:103C0000D11005C06DE3812F0E9469393DC06091DC
:103C10001F32812F0E94693937C060E5812F0E94D1
:103C2000693932C060E0812F0E9486392DC0F701CA
:103C3000B3E0EE0FFF1FBA95E1F7E855FE4C848123
:103C4000811102C08FE701C08AE0E82E00E022E087
:103C500030E040E0812F0E942B3816C0F701A3E02E
:103C6000EE0FFF1FAA95E1F7E857FE4C8481811102
:103C700002C08FE701C08AE0E82E0EE722E030E0C4
:103C800041E0812F0E942B388091812080938420F5
:103C90000F90DF91CF911F910F91FF90EF90DF90E8
:103CA0000895CF93C82F80918120882311F08150EF
:103CB00001C08FE020910034309101342230310571
:103CC00009F080E0C8130DC060911F328C2F0E9454
:103CD0008639CC2311F0C15004C0CFE002C060E0AF
:103CE00007C06C2F80912E326FDC8823C1F36AE00D
:103CF0008C2FCF910C948639309181209091852022
:103D00003917C1F1A0910320A031A0F5A81332C04A
:103D1000809103346AE10E947144E4E0F0E0E81B22
:103D2000F109E65CFF4D2081832F622F0E947144D0
:103D30009C30E0F4622F70E06150710920E030E8BF
:103D400002C0369527956A95E2F740E050E86FEF9C
:103D50007FEF04C076956795579547959A95D2F76A
:103D6000242B352BB9018A2F0E9462398091812042
:103D70008093852008950F938091822090E0209178
:103D80000832309109322817390709F08DDE809109
:103D90000832909109328093822081309105B1F0F0
:103DA00030F082309105B1F00397D9F417C000E0EC
:103DB00020E030E040E060E0809183200E94AE3857
:103DC00060E5809183200E9486390BC0809183201A
:103DD0007BDE07C0809183208FDF03C0809183202A
:103DE00060DF809183208F5F803118F4809383207F
:103DF00002C0109283200F9108950F931F93CF93C9
:103E0000DF931092892010928A2001E010E0CDE02B
:103E1000D4E0CE010E942E05853A51F4809189208C
:103E200090918A20802B912B8093892090938A20D7
:103E3000000F111FC05CDF4FCD3088E0D80749F775
:103E4000DF91CF911F910F910895809189209091DA
:103E50008A200895F89421E030E0082E02C0220F55
:103E6000331F0A94E2F720953095409189205091B4
:103E70008A20422353234093892050938A2020E4B0
:103E8000829FC00111246FEF835F9B4F0E949A05B0
:103E9000789408958F929F92AF92BF92CF92DF92C3
:103EA000EF92FF920F931F93CF93DF93CDB7DEB7BF
:103EB000A097CDBFDEBFE82E0E94D10EFE01319645
:103EC00080E2DF011D928A95E9F7FE2CFF0C9FE14D
:103ED000992E9F0CA12C8F0121C06B2D8A2D74DB94
:103EE000882E6B2D6F5F8A2D6FDB86958695869564
:103EF0008F70282D2695269526952295207F822B3A
:103F0000F60181936F01B394B394F0E1BF12E5CF52
:103F1000085F1F4FA39424E0A21619F06801B12C8A
:103F2000DCCFCE0101960E94C805892D0E94D805DC
:103F3000D12C8E010F5F1F4F8D2D7CDBD8018D930F
:103F40008D01D394B4E0DB12F7CFEFEEF1E3BE01C5
:103F50006A5F7F4FCB0101979F0122503109D90140
:103F60002C91B0E82B9F900111243081322BDC0181
:103F70003C93CF010397DC018C91B0E88B9FC0018B
:103F800011249F0121503109D9019C91982BDB010B
:103F90009C9338966E5F7F4FB2E3EF30FB07D1F60C
:103FA000E9EEF1E391E080E02081222311F0292F56
:103FB00001C020E0822B990F389622E3E930F20706
:103FC00099F78F708D8785EA8E8741E050E002C0B7
:103FD000440F551FEA94E2F72091892030918A20FE
:103FE000242B352B2093892030938A20CE010196F3
:103FF0000E94C8058F2D805E0E94D8050E94D90EB0
:10400000A096CDBFDEBFDF91CF911F910F91FF90A2
:10401000EF90DF90CF90BF90AF909F908F900895DA
:104020009F92AF92BF92CF92DF92EF92FF920F9347
:104030001F93CF93DF9320E4829FC00111247C0162
:10404000E0E2EE1AECEFFE0A0CE51EE2E701B12C0D
:10405000F80111928F01CE01A12C6C01FFEFCF1A54
:10406000DF0A0E942E05982E482F42954F70440F6C
:10407000440F440F6A2D8B2DBFDA492D4F70440F2A
:10408000440F440F6A2D6F5F8B2DB6DAA394A3946F
:10409000C60120E1A212E1CF2896B39484E0B812C1
:1040A000D7CFC701809610E0EC0121960E942E0523
:1040B000682F812FB9DA1F5FCE011430A9F787016D
:1040C0000C5D1F4FCFEED1E324E1B22EC8010E9458
:1040D0002E058F7788836801EFEFCE1ADE0AC801BC
:1040E0000E942E05FE013297881F8827881F908125
:1040F000981731F06B2D6C5F4FE787E00E947234A8
:10410000C6010E942E05FE0131978F7780830E5FD6
:104110001F4FC6010E942E05FE013397881F882776
:10412000881F9081981729F04FE76B2D87E00E9438
:1041300072342896B394F8E1BF12C8CFC7018C96A9
:104140000E942E05082FCAE6D1E01FE78D2F80239D
:1041500041E009F440E0419F402D11246C2F87E09D
:104160000E947234DD0FCF5FCE3681F7DF91CF91A1
:104170001F910F91FF90EF90DF90CF90BF90AF9085
:104180009F900895EF92FF920F931F93CF93DF9329
:104190001F92CDB7DEB7182F809108329091093267
:1041A0008230910509F47BC08330910509F4C1C0C8
:1041B000019709F0F2C0812F6983E5DA69818130C6
:1041C000910539F140F08230910509F43EC0039722
:1041D00009F0E3C057C0662309F4DFC028E0129F4E
:1041E000F0011124E851FE4C818191E089278183FF
:1041F0004FE7849F402D1124612F665987E00E946C
:1042000072340F90DF91CF911F910F91FF90EF903B
:10421000D3CA6111C2C0E12FF0E0EE0FFF1FEF5FC4
:10422000FB4C80819181803D974050F41450109355
:104230002E3283E090E08093083290930932ADC033
:10424000BBDA8FE780930334A8C0662309F4A5C0C6
:1042500028E0129FF0011124E855FE4C8481882348
:1042600021F0612F645F4FE703C0612F645F4FE36C
:1042700087E00F90DF91CF911F910F91FF90EF900A
:104280000C947234662309F488C088E0189FF0010A
:104290001124E857FE4C85818111E7CFE2CF6623D8
:1042A00009F47BC080918820882351F0812FD2DDD2
:1042B00080910320811335C081E18093032031C0B8
:1042C000E12EF12C21E030E0012E02C0220F331F3D
:1042D0000A94E2F78091892090918A20282339233B
:1042E000EE0CFF1C812F232B79F09ADE1093032014
:1042F000F701E855F14D8081918164E670E00E94FC
:104300008A44609303340DC0C5DD10930320F70188
:10431000E855F14D8CE991E3808391838FE7809399
:1043200003340F90DF91CF911F910F91FF90EF9089
:104330004BCB662391F1612F80912E3245D900E05D
:1043400021E030E040E0811110C06FE7812F0E9432
:10435000AE38E12FF0E0EE0FFF1FE855F14D8CE98C
:1043600091E3808391834FE70DC060E0812F0E942D
:10437000AE38E12FF0E0EE0FFF1FE855F14D10824F
:10438000118240E0612F80912E320F90DF91CF910A
:104390001F910F91FF90EF902FC90F90DF91CF9158
:1043A0001F910F91FF90EF9008952F923F924F929F
:1043B0005F926F927F928F929F92AF92BF92CF92B5
:1043C000DF92EF92FF920F931F93CF93DF93CDB7BE
:1043D000DEB72797CDBFDEBF0E94BE3EE1E0CE2E06
:1043E000E4E3DE2EF1E08F2EF4E39F2EAAE0AA2E66
:1043F000A2E3BA2E2EEA31E32C833D8388EA9EE2C3
:104400008E839F83B8ECEB2EBEE2FB2EACEBBEE2BC
:10441000AA83BB83212C312C66246394712C522CEB
:10442000822D0E94B73E8983082F112707FD109522
:104430000115110509F453C1822D8C50843038F5D3
:104440008091083290910932019709F5EE81FF8140
:10445000808191810E94E12D8823C9F0AA81BB81CE
:104460008C912981820F8C938B303CF0E4E6F9E14A
:10447000AE81BF81ED93FC938EC0863F0CF08BC064
:10448000E8E3F8E1AE81BF81ED93FC9384C0AE8197
:10449000BF818D919C910E94EA2D8823B1F1EE811C
:1044A000FF81808191818436910520F410161106D8
:1044B0003CF00BC08933F1E39F0738F017FF05C0CC
:1044C000D7012C913981230F2C93D7012C912430C3
:1044D00064F08436910508F05EC024E630E0EE8199
:1044E000FF81208331831C9256C02D3F0CF053C0B6
:1044F0008933914308F44FC0E8E3F1E3AE81BF8113
:10450000ED93FC93D7011C9246C0B3E0B51598F02B
:104510008091083290910932019781F4EE81FF81F8
:1045200080819181298130E52302800D911D112424
:104530008083918326C047E04515A0F08091083222
:1045400090910932019771F4AE81BF818D919C9158
:104550001197298134E62302800D911D11248D933A
:104560009C930FC042EB409F9001419F300D11245E
:10457000AE81BF818D919C911197820F931F8D9376
:104580009C93EE81FF81808191810E94D22DAE812A
:10459000BF818D939C93EE81FF81808191810E94E8
:1045A000C32D482E809108329091093281309105B7
:1045B00009F07BC0852DE7D881309105E1F040F00E
:1045C0008230910509F45EC0039709F088C060C08D
:1045D000642D70E080E090E00E94F2402DEC3CEC15
:1045E00048E351E40E9457400E94C440852D1CD8E6
:1045F000D5014C9274C0F60120813181211531051D
:1046000059F1FEE4F09FA001F19F500D501B1124C1
:10461000AE81BF818D919C911197840F951F8D93D1
:104620009C9317FF03C0119501951109B4E6B09F43
:10463000C001B19F900D1124820F931FF60180835A
:104640009183D4018C912981820F8C9388320CF450
:1046500046C037E23C9343C08101085A114D642D96
:1046600070E080E090E00E94F2402DEC3CEC48E3EA
:1046700051E40E9457400E94C440D8016C93F50158
:1046800040822DC0AC81BD814C92F501408227C093
:10469000EC81FD817F974082D5014C92652D605F52
:1046A000442D87E00E9472341AC08330910579F45A
:1046B000442D652D80912E320E94FC1A00E021E0ED
:1046C00030E040E0642D852D0E94AE3808C002978E
:1046D00031F480910320581202C0409203340E94AA
:1046E000EE3E86219721892B21F061E0852D4ADD60
:1046F00009C00E94F33E86219721892B19F060E0C2
:10470000852D40DD852D8450843090F40E94E93E53
:1047100086219721892B39F0F601808191810196BC
:104720008083918305C0D6011D921C92F4011082F2
:10473000660C771CFFEF2F1A3F0A22E0C20ED11C35
:104740003FEF831A930A4FEFA41AB40A8C819D811C
:1047500008968C839D83AE81BF811296AE83BF8302
:10476000BFEFEB1AFB0AEA81FB813196EA83FB83F8
:10477000F0E12F16310409F052CE2796CDBFDEBFEF
:10478000DF91CF911F910F91FF90EF90DF90CF902D
:10479000BF90AF909F908F907F906F905F904F9061
:1047A0003F902F900895BF92CF92DF92EF92FF92A9
:1047B0000F931F93CF93DF93882309F442C0809116
:1047C0008820882371F081E090E0A0D2DF91CF9122
:1047D0001F910F91FF90EF90DF90CF90BF900C94BE
:1047E000FF2E81E08093882000E61EE22CE5C22E99
:1047F0002EE2D22E31E6E32E3EE2F32EB12C8B2DAB
:104800000E941A1BF8018083F60181916F01F70164
:104810008083C0E0D0E06C2F8B2D0E94E41AF80159
:10482000EC0FFD1F82832196C031D105A1F7B3940F
:104830000E5E1F4FF2E1EF0EF11C84E0B812DFCFE5
:1048400039C01092882000E61EE281E6E82E8EE252
:10485000F82E9CE5C92E9EE2D92EB12CF80160817C
:104860008B2D0E94141BF7018081F60181936F014B
:10487000C0E0D0E0F801EC0FFD1F42816C2F8B2DC2
:104880000E94FC1A2196C031D105A1F7B3940E5EA7
:104890001F4FF2E1EF0EF11C84E0B812DFCFDF9181
:1048A000CF911F910F91FF90EF90DF90CF90BF902D
:1048B0000C94DC1BDF91CF911F910F91FF90EF9033
:1048C000DF90CF90BF900895DF92EF92FF920F9309
:1048D0001F93CF93DF9380910234882339F0809126
:1048E000083290910932892B09F45EC00E94F83E8B
:1048F000D82E10E001E0C1E0D0E042E0E42EF12C3F
:1049000080918B209D2D9827902309F446C0902FED
:10491000982381E009F080E0133091F028F4113001
:10492000C1F0123029F409C0143099F0153009F1A2
:10493000882399F10E94AB1A30C00E94201B2DC021
:10494000882359F180918820811127C00E948F1AF5
:1049500024C020910832309109322130310511F400
:1049600022DF1BC0811119C0C0930832D0930932D5
:1049700014C020910832309109322230310549F4B7
:10498000882321F081E08093882007C0109288203E
:1049900004C0E0920832F0920932000F1F5F163017
:1049A00009F0AECFD0928B20DF91CF911F910F9164
:1049B000FF90EF90DF900895CF93DF93CDB7DEB7F0
:1049C0006397CDBFDEBF8B8B80919F209091A020FD
:1049D0008430910569F58B89882351F180911134D8
:1049E00089838981882309F445C08981893008F049
:1049F00041C08981882F90E00197880F991F8157C6
:104A00009F4DFC01808191810097A1F18981882FC0
:104A100090E00197880F991F81579F4DFC012081DD
:104A200031818B89815062E174E3F901199522C0CB
:104A300080919F209091A02083309105E1F48B8993
:104A40008230C8F0809111348630A9F480911234FC
:104A5000813089F481E1E9E2F0E2DE011296019011
:104A60000D928A95E1F7CE010296BC0181E10E9488
:104A7000793301C000006396CDBFDEBFDF91CF91D7
:104A80000895982F9150983040F4E82FF0E0EE0F01
:104A9000FF1FE357FF4D608371830895FC018091F0
:104AA0008E2081112CC081E080938E2081E194E3DF
:104AB00080938C2090938D208181803F09F063C08A
:104AC00082818E3779F4838190910620891719F0BD
:104AD0008F3709F058C083E090E080939F20909337
:104AE000A020089581114FC08381813009F04BC00F
:104AF00081E090E080939F209093A0200895809182
:104B00009F209091A0208130910501F58181893706
:104B1000D1F5A0918C20B0918D20CD0102962091ED
:104B20000420309105208217930768F524E030E0D7
:104B300020939F203093A02022812C9323811196D3
:104B40002C9380938C2090938D200895029709F1E7
:104B5000A0918C20B0918D20CD010396209104204E
:104B6000309105208217930770F421812C932281C4
:104B700011962C931197238112962C9380938C205D
:104B800090938D20089582E090E080939F209093F1
:104B9000A0200895FC0110928E2080919F2090917A
:104BA000A0208130910521F58181893709F03FC02E
:104BB000A0918C20B0918D20CD01029620910420EF
:104BC000309105208217930790F524E030E0209380
:104BD0009F203093A02022812C93238111962C9327
:104BE00080938C2090938D2081519443E5DE1FC0EB
:104BF0000297E9F0A0918C20B0918D20CD01039611
:104C000020910420309105208217930780F42181A0
:104C10002C93228111962C931197238112962C9319
:104C200080938C2090938D2081519443C5DE109207
:104C30009F201092A020089520918E20222359F1C8
:104C400010928E2020919F203091A020223031059B
:104C5000F1F0E0918C20F0918D209F012E5F3F4F6D
:104C600040910420509105202417350780F4DC0181
:104C700011964C911197408312968C9181832093C9
:104C80008C2030938D20C9018151944395DE109280
:104C90009F201092A020089520918E20222339F188
:104CA00010928E2020919F203091A020223031053B
:104CB000D1F0E0918C20F0918D209F012F5F3F4F2C
:104CC00040910420509105202417350760F4DC0141
:104CD00011968C91808320938C2030938D20C90174
:104CE0008151944369DE10929F201092A020089574
:104CF0001092A1201092A2201092A3201092A42022
:104D000008958091A5209091A62008958093A520D4
:104D10009093A6200895FC0184858093B320808120
:104D200091818093A7209093A82082819381809382
:104D3000A9209093AA20848195818093AB209093A1
:104D4000AC20868197818093AD209093AE208085A2
:104D500091858093AF209093B02082859385809336
:104D6000B1209093B220089587EA90E208951F93AE
:104D7000CF93DF93182FEB018091B320882319F094
:104D8000FFD6982F01C090E0E12FF0E0EE0FFF1F5B
:104D9000E955FF4D208131812630310509F4C3C02A
:104DA000A0F42230310509F45EC040F4211531052C
:104DB00029F12130310509F045C138C024303105D1
:104DC00009F492C008F09AC06EC02930310509F488
:104DD000DFC048F42730310509F4B4C0283031056C
:104DE00009F030C1C0C02B30310509F4FBC008F414
:104DF000E4C02C30310509F025C108C1C130D1050E
:104E000049F4612F685F892F880F890F880F680F19
:104E10004FE711C1CD2B09F015C1612F685F892FB4
:104E2000880F890F880F680F40E005C1C130D10598
:104E300009F008C1012E01C0CC0F0A94EAF7E92F4E
:104E4000F0E0EF55FF4D80818C278083C82311F05F
:104E50004FE701C040E0612F685F892F880F890FFD
:104E6000880F680FE8C0C130D10551F4612F685F29
:104E7000892F880F890F880F680F2FE741E00CC03A
:104E8000CD2B09F0DFC0612F685F892F880F890F54
:104E9000880F680F20E040E080912232DF91CF91AF
:104EA0001F910C949734C130D10509F0CBC0012E6D
:104EB00001C0CC0F0A94EAF7E92FF0E0EF55FF4D5F
:104EC00080818C2780838C2311F02FE701C020E0A4
:104ED00041E0811101C040E0612F685F892F880F98
:104EE000890F880F680FD8CFC130D10589F482E0CF
:104EF00090E08093A5209093A620A4C0C130D10556
:104F000039F483E090E08093A5209093A6209AC086
:104F1000CD2B09F097C073D781E090E08093A52056
:104F20009093A6208FC0219709F08CC029D683309A
:104F300008F088C025D640E0682F809122320E9478
:104F4000723473C0219709F07DC01AD6882309F402
:104F500079C016D640E0682F809122320E947234C8
:104F60000FD6815064C0219709F06CC009D640E08B
:104F7000682F809122320E9472344FE760E0809166
:104F800022320E94723480E0DF91CF911F915BC684
:104F9000219709F057C0F4D540E0682F8091223264
:104FA0000E9472344FE761E0809122320E94723495
:104FB00081E0DF91CF911F9146C6219709F042C051
:104FC000DFD540E0682F809122320E9472344FE793
:104FD00062E0809122320E94723482E0DF91CF91B0
:104FE0001F9131C6219771F5CBD540E0682F809194
:104FF00022320E9472344FE763E0809122320E9495
:10500000723483E0DF91CF911F911DC62197D1F4B7
:10501000B7D540E0682F809122320E947234B0D51B
:10502000833019F480E00FD603C0AAD58F5F0BD66A
:10503000A7D54FE7682F80912232DF91CF911F9142
:105040000C947234DF91CF911F9108950F931F93A9
:10505000CF93DF930E94F83E93D50E943A3F82712E
:105060009927429791F48091B4208271823011F097
:105070008031B9F584E090E08093A5209093A6203C
:105080000E94541D1092B4202CC010E001E00E9438
:105090003E3FC02FD0E08C239D23892B29F061E077
:1050A00070E0812F64DE15C00E94423F8C239D2357
:1050B000892B29F060E070E0812F59DE0AC00E9440
:1050C0003A3F8C239D23892B21F062E070E0812FF1
:1050D0004EDE000F1F5F1630D1F60E943A3F8093DC
:1050E000B420DF91CF911F910F9108958F929F92DD
:1050F000BF92CF92DF92EF92FF920F931F93CF93C5
:10510000DF931F921F92CDB7DEB7B62E082F10E0A7
:105110009EE0899F70011124E5EBF0E2EE0EFF1E88
:10512000F701808580FF69C0462F678186810E94D4
:105130007234F7018585882309F45FC0809121329C
:10514000B81608F45AC0882E912C60911A3270E07B
:1051500068197909882777FD8095982F0E94F24079
:1051600020E030E04EEF52E40E9457409B01AC013A
:1051700060E070E080E89FE30E9457406B017C0193
:105180006B2D70E068197909882777FD8095982F35
:105190000E94F2409B01AC01C701B6010E9402428D
:1051A0000E94C440809146379091473769837A8343
:1051B0000E949A126981462F7A81572F40385105F3
:1051C00010F04FE750E08EE0809FF001819FF00DDE
:1051D0001124EB54FF4D6781605C86810F900F9026
:1051E000DF91CF911F910F91FF90EF90DF90CF90C3
:1051F000BF909F908F900C9472340F900F90DF911E
:10520000CF911F910F91FF90EF90DF90CF90BF90C3
:105210009F908F9008950F931F93CF93DF93CDB7F7
:10522000DEB72897CDBFDEBF262F8A01F89430E87D
:10523000839FC0011124809648E050E0BE016F5F5B
:105240007F4FE8E02E9F800D911D11240E943F05A5
:1052500078948981982F9F70F801928315828295A6
:105260008F7083838A818F7784838B8181878C8100
:1052700082878D81982F9F779387881F8827881F23
:1052800080838E81982F93709487869586958370FE
:1052900081838F81982F9370908782958F708683FA
:1052A0008885982F9F779783881F8827881F8587F1
:1052B0002896CDBFDEBFDF91CF911F910F9108954A
:1052C000CF92DF92EF92FF920F931F93CF93DF93D2
:1052D000C0E0D0E01EE01C9FA0011D9F500D1124D6
:1052E0004B545F4D6C2F8091952195DF2196C031F5
:1052F000D10589F794E3C92E96E3D92E03E210E095
:1053000017C0C7010E942E05F601EC0FFD1F808318
:1053100068E0E60EF11C2196C031D10591F70058E6
:105320001F4F80E1C80ED11C0332E2E01E0721F0BE
:105330007801C0E0D0E0E5CF40919521552747FDA9
:10534000509505EB10E284E996E3C0E1D6E3A4E7CB
:10535000B6E32CE938E1F8016081662331F0288357
:1053600039832D933C93119705C0188219821D92A1
:105370001C921197FC011192CF01025F1F4F2296E0
:105380001296F1E205391F0731F7FA01EE0FFF1F00
:10539000E05DF84C1082118203E914E3C0E2D0E032
:1053A000CE010E942E0582958F70F8018083CE0178
:1053B00001960E942E05F80131978F778083CE01E8
:1053C00006960E942E05F801329782958F70808391
:1053D000CE0107960E942E05F80133978F778083C0
:1053E00028960C5F1F4FC032F2E0DF07C9F688E055
:1053F0008093962182E080939721DF91CF911F9136
:105400000F91FF90EF90DF90CF900895DF92EF9291
:10541000FF920F931F93CF93DF93CDB7DEB7A09783
:10542000CDBFDEBFE82ED62E8A01F62EF694F69476
:1054300020E8829FC0011124809640E250E0BE0126
:105440006F5F7F4FA0E2FA9E800D911D11240E9494
:105450003F058D2D8370E1E0F0E0EC0FFD1FB8E01B
:105460008B9FE00DF11D1124D80112969C9197FDA0
:1054700005C08081807F9F70892B8083D80113961F
:105480002C9127FD0CC080818F7030E021503109B4
:1054900054E0220F331F5A95E1F7822B8083D80105
:1054A00014968C9187FF8183D80119968C9187FF80
:1054B0008283D8011A968C9187FF8383D8019C91AF
:1054C00097FD04C0848190FB87F98483D8011B96E3
:1054D0009C9197FD05C0848180789F77892B848378
:1054E000D8011C969C9197FD05C085818C7F937097
:1054F000892B8583D80111962C9127FD0AC09581AF
:10550000937FB4E02B9F900111242C703327922BB2
:105510009583D80118968C9187FD05C096819C7F54
:105520008370982B9683D80116962C9127FD0CC07A
:1055300096819F7030E02150310944E0220F331FE3
:105540004A95E1F7922B9683D80117968C9187FDA7
:1055500004C097819078982B9783D8011D969C91D1
:1055600097FD04C0878190FB87F987831E2D110F5B
:10557000110F1F5F1F0DF894CE0101960E94C80500
:10558000812F0E94D8057894A096CDBFDEBFDF9111
:10559000CF911F910F91FF90EF90DF900895FF92B0
:1055A0000F931F93CF93DF93CDB7DEB7A097CDBFF7
:1055B000DEBFFE01319680E2DF011D928A95E9F798
:1055C00080E050E143E391E03FE322E050838183B8
:1055D00042839383348325839683878338968F5FB2
:1055E0008430A1F7FF24F3948E01085D1F4FF894D7
:1055F000CE0101960E94C8058F2D0E94D80578948F
:10560000AE014E5F5F4F9E012D5F3F4FBE016C5F4D
:105610007F4FFE013896DA018C918C5F8C93D90113
:105620008C918C5F8C93DB018C918C5F8C9380814F
:105630008C5F8083485F5F4F285F3F4F685F7F4F7D
:105640003896E017F10739F7F394B1E1FB12CFCFA9
:10565000A096CDBFDEBFDF91CF911F910F91FF903C
:105660000895BF92CF92DF92EF92FF920F931F9314
:10567000CF93DF93C82E0E94BE3E8C2D8295807FF3
:10568000ECE2DE2ED80EFCE3BF2EB80EC1E0D0E077
:105690000C2D10E0000F111FB0E3EB2EB6E3FB2E34
:1056A000E00EF11E0C5D184C0E94EE3E8C239D23F3
:1056B000892BB1F02FE741E06D2D809122320E94BD
:1056C0009734F701808191818C239D23892B31F5BB
:1056D000F801208131812C2B3D2B208331831EC08A
:1056E0000E94F33E8C239D23892BC1F020E040E0F3
:1056F0006D2D809122320E949734F70120813181F3
:105700002C233D23232B51F49E0120953095F80145
:10571000808191812823392320833183CC0FDD1FA1
:10572000D394DB10C1CF80919821EC2DF0E0EE0FE7
:10573000FF1FEC5DF84C21E030E0082E02C0220F84
:10574000331F0A94E2F7408151812423352360E01E
:10575000232B61F00E94863900E021E030E040E038
:105760006FE7809198210E94AE380BC00E94863965
:1057700000E021E030E040E060E0809198210E946C
:10578000AE38809198218F5F803118F480939821F2
:1057900002C010929821DF91CF911F910F91FF903D
:1057A000EF90DF90CF90BF900895E62F322F6031B9
:1057B00070F5009719F0019751F503C0642F8E2FF3
:1057C00095CCA62FB0E08EE0689FF0011124EB5439
:1057D000FF4D8281823030F0863021F0873011F029
:1057E000843061F48EE08A9FF0018B9FF00D1124CC
:1057F000EB54FF4D648183810C947234825082306B
:1058000030F4242F432F648183810C9497340895BE
:105810000F931F93CF93DF931F92CDB7DEB7082F5F
:1058200002950F70182F1F708091952108131DC0CD
:10583000812F69830E94463F698181111FC0E12F3A
:10584000F0E0DF01AA0FBB1FA05FB94C24E6629F06
:10585000C00111248D939C9380E1089FE00DF11D00
:105860001124E053FA4C608309C020E1029FF0014B
:105870001124E10FF11DE053FA4C60830F90DF918A
:10588000CF911F910F910895EF92FF920F931F9365
:10589000CF93DF93CDB7DEB72E97CDBFDEBF982F66
:1058A000462F82958F70692F6F70082F10E041117D
:1058B0002CC0462F50E0F801EE0FFF1FE85CF84CBB
:1058C00021E030E002C0220F331F6A95E2F72095F5
:1058D0003095808191812823392320833183F801F9
:1058E00064E0EE0FFF1F6A95E1F7E40FF51FEC5C33
:1058F000F94C8EE0849FD001859FB00D1124AB54EC
:10590000BF4D1A968C9180833BC0942F9150E62E08
:10591000F12CF801EE0FFF1FE85CF84C21E030E0BD
:10592000062E02C0220F331F0A94E2F79D3790F42F
:1059300080819181282B392B20833183F80184E0E9
:10594000EE0FFF1F8A95E1F7EE0DFF1DEC5CF94CA1
:10595000408316C040815181242B352B2083318315
:10596000AE014F5F5F4F57DCF80104E0EE0FFF1F01
:105970000A95E1F7EE0DFF1DEC5CF94C8A858083FA
:105980002E96CDBFDEBFDF91CF911F910F91FF907B
:10599000EF900895982F80912232981335C06111AD
:1059A00062C04C3208F45FC04D3408F05CC04C5209
:1059B000E42FE295EF70F0E04F7081E090E002C0DC
:1059C000880F991F4A95E2F7EE0FFF1FDF01A05DD8
:1059D000B94C4D915C911197482B592B4D935C9389
:1059E000EC5DF84C222339F020813181282B392BB2
:1059F0002083318308958095909520813181822381
:105A00009323808391830895E3E9F4E380E0DF0149
:105A100013973C91341309C0DF0112973C9139135D
:105A200004C0613001F5622FF3CEDF0111973C9184
:105A3000341315C03081391302C0622F25CF923044
:105A400071F4982F9F7082958F7030E1839FF001E1
:105A50001124E90FF11DE057FA4C208308958F5F60
:105A600034968034A1F608950F93CF9380919921B5
:105A7000282F30E090919521F90140E19402E00D4A
:105A8000F11D1124E053FA4CC081F901E656FE4D98
:105A90009081C917C9F09EE0929FF001939FF00D8D
:105AA0001124EB54FF4D248541E09081911101C0F8
:105AB00040E0038530E06C2F0E94AE38E0919921E0
:105AC000F0E0E656FE4DC08380919921282F30E00A
:105AD00090919521F90140E19402E00DF11D11240E
