:10000000C3C3000007C4000005C4000003C400000F
:1000100001C40000FFC300000C94E32B0C94162CC9
:100020000C94492C0C947C2CF5C30000F3C3000005
:10003000F1C30000EFC300000C94BD2D0C94F52D0E
:100040000C942D2E0C94652E0C949D2E0C94D52E74
:100050000C940D2F0C94452F0C947D2F0C94B52FE0
:10006000D9C30000D7C30000D5C30000D3C300002C
:10007000D1C30000CFC30000CDC30000CBC300003C
:10008000C9C30000C7C30000C5C30000C3C300004C
:10009000C1C30000BFC30000BDC30000BBC300005C
:1000A000B9C30000B7C30000B5C30000B3C300006C
:1000B000B1C30000AFC30000ADC300000C941D32FB
:1000C0000C9455320C948D320C94C5320C94FD3244
:1000D0000C9435339FC300009DC300009BC30000F8
:1000E00099C3000097C300000C94752A93C30000C5
:1000F00091C300008FC300008DC300008BC30000BC
:1001000089C3000087C3000085C3000083C30000CB
:1001100081C300007FC300007DC300007BC30000DB
:1001200079C3000077C3000075C3000073C30000EB
:1001300071C300000C94ED2F0C9425300C945D30AD
:100140000C9495300C94CD300C9405310C943D31C9
:100150000C9475310C94AD310C94E5315BC3000007
:1001600059C3000057C3000055C3000053C300002B
:1001700051C300004FC300004DC300004BC300003B
:1001800049C3000047C3000045C3000043C300004B
:1001900041C300003FC300003DC300003BC300005B
:1001A00039C3000037C3000035C3000033C300006B
:1001B00031C300002FC300002DC300002BC300007B
:1001C00029C3000027C3000025C3000023C300008B
:1001D00021C300001FC300001DC300001BC300009B
:1001E00019C3000017C3000015C3000013C30000AB
:1001F00011C300000C94641D0DC300000763423658
:10020000B79BD8A71A39685618AEBAAB558C1D3CA7
:10021000B7CC5763BD6DEDFD753EF6177231BF006B
:100220000000803F05A84CCDB2D44EB93836A902A3
:100230000C50B9918688083CA6AAAA2ABE000000E4
:10024000803F000000FF0000FF1500FF2200FF2E8E
:1002500000FF3B00FF4400FF5000FF5D00FF6A000D
:10026000FF7700FF7F00FF8C00FF9900FFA500FFD4
:10027000B200FFBF00FFC700FFD400FFE100FFEEA8
:1002800000FFFA00FAFF00EDFF00E1FF00D4FF00DD
:10029000C7FF00BFFF00B2FF00A5FF0099FF008C61
:1002A000FF007FFF0077FF006AFF005DFF0050FF47
:1002B0000043FF003BFF002EFF0021FF0015FF0061
:1002C00008FF0000FF0000FF0C00FF1900FF2600E0
:1002D000FF3300FF3F00FF4800FF5400FF6100FFB5
:1002E0006E00FF7B00FF8300FF9000FF9D00FFAAD0
:1002F00000FFB600FFBF00FFCB00FFD800FFE50006
:10030000FFF200FFFF00F6FF00E9FF00DCFF00D076
:10031000FF00C3FF00BBFF00AEFF00A1FF0094FF82
:100320000087FF007FFF0072FF0066FF0059FF009B
:100330004CFF003FFF0037FF002AFF001DFF0010A9
:10034000FF0004FF0400FF1000FF1D00FF2A00FF54
:100350003700FF3F00FF4C00FF5900FF6600FF72AF
:1003600000FF7F00FF8700FF9400FFA100FFAE00A9
:10037000FFBA00FFC300FFD000FFDD00FFE900FF70
:10038000F600FFFF00FFFF00F2FF00E5FF00D8FFCF
:1003900000CCFF00BFFF00B6FF00A9FF009DFF00DB
:1003A00090FF0083FF007BFF006EFF0061FF0055A0
:1003B000FF0048FF003FFF0032FF0026FF00196EDC
:1003C000C86E0000000000000000000000000000F7
:1003D00000007F000000000000000000000000009E
:1003E00000007F000000000000007F00000000000F
:1003F00000007F0000007F0000007F0000007F0001
:1004000000007F00007F00007F00007F00007F0071
:1004100000007F00007F00007F007F00007F000061
:100420007F007F7F7F0000007F7F7F0000007F7F55
:100430007F7F7F007F007F007F007F007F007F0045
:100440007F007F007F007F007F7F007F007F007F35
:10045000007F7F007F7F007F7F007F007F7F007FA6
:100460007F007F7F007F7F007F7F007F7F007F7F17
:10047000007F7F7F7F7F7F7F7F7F7F7F7F7F7F7F0B
:100480007F7F01E8ACF49CFF9CF49C075CDC5CDCA7
:100490005CDC5CE802D1D1AFAFACAFAFD101FF7F84
:1004A000E868E868D15100FFFFFFFFFFFFFFFF177B
:1004B000FFDCC59CACBAE8FF278CDCDCDC9CC5D13A
:1004C0009C280C0C0CE86868AF2F02FFFFFFFFFFB1
:1004D000FFFFFF06C545AC23C545AC2301FF7FF4F4
:1004E00074FF7FE868195CDC5CC54545AF2F02FFEF
:1004F000FFFFFFFFFFFFFF27E8F4AFACE8AFD1AC91
:1005000016AF2FAC232323232315AF2FAC23AC230B
:10051000E86802FFFFFFFFFFFFFFFF01F4E8F4E8D8
:10052000FFE8FFE823AC5C5C5CAC23DC5C012F2FB4
:10053000AF2FAFBA3AAF02FFFFFFFFFFFFFFFF028F
:10054000DC5C5CDCE86868AC03AF9CAFAC9CC59C31
:10055000DC029CACAFBAC551DCE800000000000032
:10056000000000000000000000000000000000008B
:10057000000000000000000000000000000000007B
:10058000000000000000000000000000000000006B
:10059000000000000000000000000000000000005B
:1005A000000000000000000000000000000000004B
:1005B000000000000000000000000000000000003B
:1005C000000000000000000000000000000000002B
:1005D000000000000000000000000000000000001B
:1005E000000000000000000000000000000000000B
:1005F00000000000000000000000000000000000FB
:1006000000000000000000000000000000000000EA
:1006100000000000000000000000000000000000DA
:1006200000000000000000000000000000000000CA
:1006300000000000000000000000000000000000BA
:1006400000000000000000000000000000000000AA
:10065000000000000000000000000000000000009A
:10066000000000000000000000000000000000008A
:10067000000000000000000000000000000000007A
:10068000000000000000000000000000000000006A
:10069000000000000000000000000000000000005A
:1006A000000000000000000000000000000000004A
:1006B000000000000000000000000000000000003A
:1006C00000002A034D006900640069002000460014
:1006D0006900670068007400650072002000540023
:1006E00077006900730074006500720000001C034D
:1006F00044004A00200054006500630068002000A8
:1007000054006F006F006C007300000004030904C4
:1007100009026500020100C0320904000000010165
:10072000000009240100010900010109040100027F
:100730000103000007240100014100062402010119
:100740000006240202020009240301030102010041
:10075000092403020401010100090501024000050A
:100760000000052501010109058202400005000085
:100770000525010103120110010000000880250772
:10078000000100010200010011241FBECFEFDFE3D2
:10079000DEBFCDBF00E00CBF18BE19BE1ABE1BBE27
:1007A0008091780083FF1CC0809157369091583615
:1007B000A0915936B0915A368A3C9C4AA244BC4D0D
:1007C00079F410925736109258361092593610928A
:1007D0005A3681E08CBFE0910020F09101201995FC
:1007E00010E2A0E0B0E2EAE2F7E800E00BBF02C0EE
:1007F00007900D92A834B107D9F71BBE26E3A8E4F1
:10080000B0E201C01D92A735B207E1F70E94E93EB0
:100810000C94773FF5CB8091820080FDFCCF08954A
:100820006091800062706160880F880F8C73682B04
:1008300080E890E00E94612BEECF609180006C7F99
:10084000616080E890E00C94612B609180006C7393
:10085000636080E890E00E94612BDDCF63E080E878
:1008600090E00E94612BD7DF6BE281E890E00E946C
:10087000612BD1DFA895FFCF8F929F92AF92BF924D
:10088000CF92DF92EF92FF920F931F93CF93DF935C
:10089000CDB7DEB7CD54D109CDBFDEBFFB0183306C
:1008A00008F440C19081F180911161C0863008F454
:1008B00039C1FF2009F436C19281992309F432C16C
:1008C000048110E090E00497081719070CF02AC182
:1008D0004F2D50E09A0123503109C90137FF02C062
:1008E000CA010C9654E0959587955A95E1F7F82E34
:1008F000C90160E170E00E944343682F9E012F5FB1
:100900003F4F8EE0D9011D928A95E9F7D9019E01EA
:10091000215F3F4F80E88D93A217B307E1F735962B
:1009200090E00150110915C0DF01A20FB31F2C91F7
:100930002A502E3068F4892F8F5FDF01A80FB11D78
:100940008C91A1E0B0E0AC0FBD1FA20FB11D8C9344
:100950009E5F292F30E02017310734F3AE014F5F3F
:100960005F4F8F2D0E94CB1F0E94E136DBC091307C
:1009700009F0D8C0EF2DF0E09F0123503109C901E3
:1009800060E170E00E94434337FF03C09F01245F92
:100990003F4F44E0359527954A95E1F7AE01405C1D
:1009A0005F4F682F822F0E94031F8AE08CA321963D
:1009B0008FAD21978DA38BE08EA322968FAD2297CA
:1009C0008FA38CE088A723968FAD239789A78DE00E
:1009D0008AA724968FAD24978BA78EE08CA72596A7
:1009E0008FAD25978DA78FE08EA71FA680E188ABDE
:1009F00027968FAD279789AB81E18AAB28968FAD7B
:100A000028978BAB82E18CAB29968FAD29978DAB64
:100A100083E18EAB2A968FAD2A978FAB84E188AFA6
:100A20002B968FAD2B9789AF85E18AAF2C968FAD32
:100A30002C978BAF86E18CAF2D968FAD2D978DAF18
:100A400087E18EAF2E968FAD2E978FAF8F2D83506F
:100A5000803410F40CE101C000E0802F68E10E94B6
:100A60001643E82EE394C12CDD24D39480EFB82EF6
:100A7000AA24A39499E7992E24E0822E17EF802FC1
:100A8000093108F088E10851B9821A82AB829C8250
:100A90008D821E82FF82D886E9868A871B871C8703
:100AA0001D871E871F87188B198B1A8B1B8B1C8B1E
:100AB0001D8B1E8B1F8B188F198F1A8F1B8F1C8FEE
:100AC0001D8F1E8F1F8F18A319A31AA31BA39AE0B3
:100AD000282F30E0275F3F4F10C0A1E0B0E0AC0FFF
:100AE000BD1FA40FB51FE4E2F0E0EC0FFD1FEC0DFD
:100AF000F11D60816C93C3949F5F492F50E02417D0
:100B000035075CF7BE016F5F7F4F855F0E9411293B
:100B100080910A3690910B360E94A617D394ED145B
:100B200008F0ADCFC35BDF4FCDBFDEBFDF91CF910C
:100B30001F910F91FF90EF90DF90CF90BF90AF90FB
:100B40009F908F900895A0E050E04150510911C04E
:100B5000FB01E20FF31F20812A3050F43A2F3F5F50
:100B6000FB01E30FF11D3081FC01E20FF11D308329
:100B7000AE5F2A2F30E02417350754F30895CF9342
:100B8000DF93CDB7DEB76B97CDBFDEBFF8940E9481
:100B90000F1EFC01789480EF89831A8281E08B8399
:100BA00099E79C8322E02D838E831F8290919D2163
:100BB0009F5F9887898784858A872B8780818C8728
:100BC00083E08D8782818E8784E08F878481888B04
:100BD00085E0898B86818A8B86E08B8B80858C8BE8
:100BE00087E08D8B82858E8B88E08F8B8091CA31D8
:100BF000888F89E0898F8091C4318A8F87EF8B8FAE
:100C0000BE016F5F7F4F8BE10E9411296B96CDBFB4
:100C1000DEBFDF91CF910895882329F0FB01808109
:100C2000811101C0ACCF0895CF93DF93CDB7DEB76C
:100C30002D97CDBFDEBFF89481E090E00E94FC2CA0
:100C400083E090E00E94FC2C91E0811101C090E0D3
:100C50009D8784E090E00E94FC2C89831A8285E0C5
:100C600090E00E94FC2C8B831C8286E090E00E9426
:100C7000FC2C8D831E8287E090E00E94FC2C8F83E9
:100C8000188688E090E00E94FC2C89871A8689E00B
:100C900090E00E94FC2C8B871C868AE090E00E94EA
:100CA000FC2C8093CA318BE090E00E94FC2C809356
:100CB000C431CE0101960E94E61D78942D96CDBFD9
:100CC000DEBFDF91CF910895CF93DF93CDB7DEB72D
:100CD0002D97CDBFDEBF6C877D878B87AEDDFE0194
:100CE00031969AE0DF011D929A95E9F78B85482F9E
:100CF0006C857D85CF0127DF6981615081E090E0BF
:100D00000E94682D6A8183E090E00E94682D6B81CB
:100D100084E090E00E94682D6C8185E090E00E9464
:100D2000682D6D8186E090E00E94682D6E8187E0DD
:100D300090E00E94682D6F8188E090E00E94682D0D
:100D4000688589E090E00E94682D69858AE090E0DE
:100D50000E94682D6A858BE090E00E94682D0E94B9
:100D6000D93660E07FEF80E090E00E94883A5CDF57
:100D70000E94581F04DF0E94D6242D96CDBFDEBFEF
:100D8000DF91CF910895F89462E080E090E00E94B6
:100D9000682D60E081E090E00E94682D61E083E0D2
:100DA00090E00E94682D64E084E090E00E94682D4D
:100DB00061E085E090E00E94682D65E086E090E0CB
:100DC0000E94682D64E087E090E00E94682D61E059
:100DD00088E090E00E94682D65E089E090E00E9444
:100DE000682D6FE38AE090E00E94682D6FE78BE04A
:100DF00090E00E94682D78940C948C2064E676E054
:100E000081E00E9428166CE076E082E00E942816BD
:100E10006AE177E083E00E9428166CE374E084E0E6
:100E20000E94281680E090E00E94FC2C823009F09D
:100E3000AACF08958823B1F0FB018081813019F099
:100E4000823081F402C0F9DC0EC0F7DC9CDF6FEF6A
:100E50007FEF80E090E00E94883A81E090E0E0DC63
:100E6000F4DCFFCF08950E94F21CF89480E02FEF8D
:100E70003FE891E0215030409040E1F700C0000091
:100E80008F5F8038A1F78AEC9CEAA2E4BCED8093E6
:100E9000573690935836A0935936B0935A36DECCD5
:100EA00081E008953F924F925F926F927F928F926E
:100EB0009F92AF92BF92CF92DF92EF92FF920F93E9
:100EC0001F93CF93DF938091D731882309F497C183
:100ED0000E94D92826E0289FE001299FD00D1124E7
:100EE000D7FF03C0D195C195D10910914920BE010A
:100EF00080E090E010FF12C00E94BC402AE037ED75
:100F000043E25EE30E94634220E030E0A9010E94D8
:100F100063420E9490406C0F7D1F13C00E94BC4032
:100F20002AE037ED43E25EE30E94634220E030E0D6
:100F3000A9010E9463420E949040CE01861B970B3C
:100F4000BC011F3021F082E597E00E94F03D409106
:100F5000492061E081E00E94242A8091FF316AE10A
:100F60000E941643E4E0F0E0E81BF109EA5CFF4D63
:100F70008091492060810E94164320E0C22E22E326
:100F8000D22E0AE911E3C5ECD1E3512CE12CF12C6E
:100F9000A92EB12C3CE0732E4FE7842E912C5AE001
:100FA000652EF60181916F01982F975F933120F1A3
:100FB000181614F5662D0E942243843008F083E051
:100FC000E82FF0E0E55CFF4D8091492060810E94B0
:100FD000164391113EC0F80140806881650D20E004
:100FE00040E087E00E94492A6881650D242D41E098
:100FF00087E00E94492A2DC0F701EE5EF14D808105
:101000007E9CF0017F9CF00D1124E80FF11D84E01F
:10101000EE0FFF1F8A95E1F7EA0DFB1DEE57F14D2C
:1010200040804420B1F0F80130806881650D20E0F7
:1010300040E087E00E94492A439CC0011124B4018A
:101040000E944343262F6881650D41E087E00E949E
:10105000492AFFEFEF1AFF0A085F1F4F219680E130
:10106000580E90E459129DCF80910A3690910B361C
:101070000E94A617E5E9F1E390E08081811191E0FB
:10108000389681E3E53BF807C1F78091D931992380
:1010900009F47AC0883008F070C0E091FE31F0E0C9
:1010A000E852FE4C848587FF06C04FE762E487E084
:1010B0000E94242A05C040E062E487E00E94242ABE
:1010C000E091FE31F0E0E852FE4C858987FF06C0D2
:1010D0004FE763E487E00E94242A05C040E063E410
:1010E00087E00E94242AE091FE31F0E0E852FE4CB5
:1010F000868D87FF06C04FE764E487E00E94242ABC
:1011000005C040E064E487E00E94242A9091D83131
:10111000E091FE31F0E0E852FE4C83818F77989F9A
:10112000C00111246FE770E00E944343462F61E441
:1011300087E00E94242AE091FE31F0E0E852FE4C64
:1011400044854F7765E487E00E94242AE091FE31D0
:10115000F0E0E852FE4C45894F7766E487E00E9454
:10116000242AE091FE31F0E0E852FE4C468D4F77A4
:1011700067E487E00E94242A18C04091D83161E4D6
:1011800087E00E94242A11C0883078F440E062E4AD
:1011900087E00E94242A40E063E487E00E94242A3A
:1011A00040E064E487E00E94242A80910A3690910E
:1011B0000B360E94A617809149208F5F803119F06D
:1011C0008093492005C01092492081E080934820F7
:1011D000E091DA31F0E0EE5CFF4D809149206081D2
:1011E0000E941643911105C08091FE318F5F80935C
:1011F000FE318091FE31883011F41092FE31DF9182
:10120000CF911F910F91FF90EF90DF90CF90BF9003
:10121000AF909F908F907F906F905F904F903F9096
:1012200008955F926F927F928F929F92AF92BF923A
:10123000CF92DF92EF92FF920F931F93CF93DF93A2
:10124000CDB7DEB7A497CDBFDEBFA5ECEA2EA1E3F4
:10125000FA2E02E11EE2ABE9B1E320E030E08FE3D9
:10126000682E9FE7792EF70111927F0160E070E010
:1012700040E050E0F2E8CF2EFEE2DF2EC20ED31E99
:1012800015C0FC01EA0DFB1DEE53FC4F5490F40118
:10129000E80FF91F508201968031910591F74F5F59
:1012A0005F4F605F7F4F4C30510561F080E090E010
:1012B0005A01E4E0AA0CBB1CEA95E1F74601860E50
:1012C000971EDFCFF80111928F01FD013297108236
:1012D0006C92FD0133971082FD0131977082189650
:1012E00020543F4F2115F3E03F0709F0BCCF109287
:1012F000D7311092D6318FE78093D8311092D931FF
:1013000060E0CE010196C1D484E2FE013196AAEDDF
:10131000B1E301900D928A95E1F780E2EEE5FEE2FD
:10132000DF011D928A95E9F780E1E4EBF1E3DF014B
:101330001D928A95E9F710927E2E10927F2E1092C0
:10134000802E1092812E0ED5EEE5FEE224EB31E3E5
:1013500080EC91E36CEBC62E61E3D62E14E06CE9D1
:1013600078E1AFE3FA2E4CE951E30FE710821182E6
:10137000D9011D929D01608F718FDC01FD92CD011D
:10138000408B518BD6010D936D0111503296111186
:10139000EDCF8FE78093FF3181E090E08093823141
:1013A000909383318AE58093C931E2D21092122E54
:1013B000A496CDBFDEBFDF91CF911F910F91FF901B
:1013C000EF90DF90CF90BF90AF909F908F907F90E5
:1013D0006F905F9008958091D731811110C00E9465
:1013E000D928892B39F080919C21882319F081E03C
:1013F0008093D73181E0809348200C94002910928B
:10140000D73110924920089510924920089590E014
:10141000FC01EE5EF14D20813CE0389FF001399FE8
:10142000F00D1124E20FF11D24E0EE0FFF1F2A95AD
:10143000E1F7E60FF11DEE57F14D8081089590E040
:10144000FC01EE5EF14D20813CE0389FF001399FB8
:10145000F00D1124E20FF11D34E0EE0FFF1F3A955D
:10146000E1F7E60FF11DEE57F14D408308958091AD
:101470008231909183310895E82FF0E0EB53FE4CD8
:1014800060830895E82FF0E0EB53FE4C80810895CF
:101490002FE741E06FE787E00E94492A20E040E023
:1014A0006FE787E00C94492A982F94569430C0F443
:1014B00098E0899FF0011124EC58F14D81E0611111
:1014C00001C080E0848380918231909183310197C3
:1014D00009F084C00E94DC1D049709F07FC099C008
:1014E000982F9856943098F498E0899FF001112431
:1014F000EC5AF14D81E0611101C080E0858380915B
:10150000823190918331019709F068C0E3CF982F21
:101510009C569031C0F590E08C5691099C01237047
:101520003327959587959595879553E0220F331F1F
:101530005A95E1F7F901EC56FE4C82309105B9F06D
:1015400083309105D1F0019731F081E0611101C044
:1015500080E08083089581E0611101C080E0818393
:1015600080918231909183310197C1F5B3CF81E0B1
:10157000611101C080E08283089581E0611101C0A2
:1015800080E0838308958F3759F480910220882367
:1015900029F184E090E00E94E11D1092022078CFB2
:1015A0008236E1F46623B1F08091D731811116C003
:1015B0000E94D928892B19F081E08093D73181E0EE
:1015C000809348200E9400298C3040F484E080936E
:1015D000492008951092D7311092492008958430FF
:1015E00058F0982F9450943050F09450943050F01C
:1015F0008C50843050F0089520E030E008C021E0A5
:1016000030E005C022E030E002C023E030E0C90154
:1016100008953F924F925F926F927F928F929F9226
:10162000AF92BF92CF92DF92EF92FF920F931F93F0
:10163000CF93DF9300D0CDB7DEB72BE9C22E21E3E5
:10164000D22E8EE59EE28A839B833AE9E32E31E334
:10165000F32E42E1642E4EE2742E58E0552E6CE0DB
:10166000462EA12CB12C10E094E9892E91E3992EFD
:101670008A0C9B1CF40181818823C1F068E7812FCB
:101680000E941F3900E021E030E040E06091D83155
:10169000812F0E9473388091D831F4E68F9FC0016A
:1016A0001124EA81FB81808391832AC060E0812F2D
:1016B0000E941F39812FE6DE682F70E080E090E005
:1016C0000E94BE4023E333E34BE451E40E946342B3
:1016D00020E030E040E85FE30E948A3F0E949040B3
:1016E000362E00E020E030E040E0812F0E94733889
:1016F000F4E63F9EB0011124EA81FB81608371838F
:1017000084E0382E310E60E0832D0E941F39F301F2
:1017100021913F01220F922F990F990F920F995FFC
:1017200000E020E030E040E0692F832D99830E94A3
:1017300073389981F4E69F9FB0011124EA81FB81FF
:1017400060877187F4018481811105C061E0852D76
:101750000E941F3904C060E0852D0E941F3900E0FF
:1017600021E030E040E0F7016081852D0E94733870
:10177000F7018081F4E68F9FC0011124EA81FB818B
:10178000808B918BF4018581882329F06FE0842D73
:101790000E941F3904C060E0842D0E941F390EE7AB
:1017A00021E030E041E0F6016081842D0E94733831
:1017B000F6018081F4E68F9FC0011124EA81FB814C
:1017C000808F918F1F5FF8E0AF0EB11C28E0C20E32
:1017D000D11C43948A819B8102968A839B8398E0E3
:1017E000E90EF11C5394143009F03ECF2396CDBF7F
:1017F000DEBFDF91CF911F910F91FF90EF90DF90AF
:10180000CF90BF90AF909F908F907F906F905F90A0
:101810004F903F900895AF92BF92CF92DF92EF9298
:10182000FF920F931F93CF93DF93C4D25C01EEE539
:10183000EE2EEEE2FE2E10E0C1E0D0E0FCE9CF2E6D
:10184000F1E3DF2E9E012A213B21232B29F06EE3B9
:10185000812F0E941F3904C060E0812F0E941F3930
:1018600000E021E030E040E060E0812F0E9473382A
:10187000F701C192D1927F01CC0FDD1F1F5F1031A4
:1018800009F7DF91CF911F910F91FF90EF90DF90BB
:10189000CF90BF90AF900895FF920F931F93CF9377
:1018A000DF93CEE5DEE210E0612F8091D631AFDD2F
:1018B000F82E882329F06AE0812F0E941F3904C086
:1018C00060E0812F0E941F3900E021E030E040E01D
:1018D0006F2D812F0E94733884E6F89E90011124A9
:1018E000299339931F5F1031F9F6DF91CF911F9142
:1018F0000F91FF9008950F931F93CF93DF93CEE541
:10190000DEE210E02091D83184E6289F9001112476
:10191000288339838091D93181130EC068E7812FE4
:101920000E941F3900E021E030E040E06091D831B2
:10193000812F0E9473380CC060E0812F0E941F39F4
:1019400000E021E030E040E060E0812F0E94733849
:101950002091D83184E6289F90011124299339934E
:101960001F5F103179F6DF91CF911F910F9108958C
:1019700080918231909183318230910559F018F431
:10198000019759F406C08330910529F0049729F492
:1019900003C03FCE40CF80CFAECF0895FF920F93CC
:1019A0001F93CF93DF93182FC82FD0E0FE01EC5484
:1019B000FE4CF08014DE892B51F5FE0103E0EE0FA2
:1019C000FF1F0A95E1F7EC56FE4C81818823F9F060
:1019D0008091D83124E6829FC0011124E5E9F1E32A
:1019E000AEE5BEE22081222319F08D939C931197DE
:1019F0003896129621E3E53BF207A1F700E021E0DB
:101A000030E040E06091D831812F0E947338812FFF
:101A1000E6DD0197A1F4FE01E450FE4C80818823AD
:101A200071F06AE00E942243E82FF0E0EE0FFF1F02
:101A3000E15CFF4D60817181812F0E940539FE01BB
:101A4000E55BFF4D8081F81609F441C0812FC7DDA9
:101A500081309105D9F030F08230910519F103976A
:101A600091F529C0FE01A3E0EE0FFF1FAA95E1F753
:101A7000EC56FE4C8181811126C000E020E030E070
:101A800040E06F2D812F0E9473381DC0FE01EC5481
:101A9000FE4C00E020E030E040E06081812F0E94B9
:101AA000733811C000E021E030E040E06F2D812F5D
:101AB0000E94733808C00EE721E030E041E06F2D4E
:101AC000812F0E947338FE01E55BFF4DF082FE011D
:101AD000EC57FE4CF08080918231909183310197D8
:101AE000F1F41430E0F0812F84508430C0F4609120
:101AF00049208DDC882379F080914920811105C02F
:101B00006DE3812F0E941F390AC06091C931812F76
:101B10000E941F3904C060E0812F0E941F39C55AFE
:101B2000DF4DF882DF91CF911F910F91FF900895C3
:101B3000CF93C82F80914920C8130DC06091C9313F
:101B40008C2F0E941F39CC2311F0C15004C0CFE06C
:101B500002C060E007C06C2F8091D63158DC88232A
:101B6000C1F36AE08C2FCF910C941F39309149203A
:101B700090916B203917C1F1A0910320A031A0F5FD
:101B8000A81332C08091FF316AE10E941643E4E05D
:101B9000F0E0E81BF109EA5CFF4D2081832F622F02
:101BA0000E9416439C30E0F4622F70E0615071098E
:101BB00020E030E802C0369527956A95E2F740E0CC
:101BC00050E86FEF7FEF04C076956795579547957E
:101BD0009A95D2F7242B352BB9018A2F0E9405390B
:101BE0008091492080936B2008950F93CF93DF93CA
:101BF000C82FD091D931D8130EC068E78D2F0E941D
:101C00001F3900E021E030E040E06091D8318D2FB5
:101C10000E9473380BC060E00E941F3900E021E091
:101C200030E040E060E08C2F0E947338DF91CF916C
:101C30000F91089580918231909183318230910586
:101C400071F018F40197B1F406C08330910559F092
:101C5000049781F40CC080914A20A0DE0BC08091D3
:101C60004A2084DF07C080914A2062DF03C0809150
:101C70004A20BBDF80914A208F5F803118F4809327
:101C80004A20089510924A2008958F929F92AF9211
:101C9000BF92CF92DF92EF92FF920F931F93CF9359
:101CA000DF93CDB7DEB7A497CDBFDEBF24E2629F3E
:101CB000B0011124FB01E557FB4F9490FB01EC565A
:101CC000FB4FA490FB01E356FB4FB4906E01E2E0A2
:101CD000CE0ED11C7E01FBE0EF0EF11C8E010C5EDE
:101CE0001F4FDE015D9620E030E0A901460F571F2F
:101CF000FA01ED57FB4F8490F60181926F01FA01D2
:101D0000E457FB4F8490F70181927F01FA01EB5673
:101D1000FB4F8490F80181928F01FA01E256FB4F4C
:101D200044914D932F5F3F4F28303105F1F69A864D
:101D3000AB8ABC8E24E2FE013196DC0101900D924B
:101D40002A95E1F7A496CDBFDEBFDF91CF911F9119
:101D50000F91FF90EF90DF90CF90BF90AF909F904A
:101D60008F9008950F931F93CF93DF9310926F205E
:101D70001092702001E010E0CEE0D4E0CE010E948D
:101D8000FC2C853A51F480916F2090917020802B2B
:101D9000912B80936F2090937020000F111FC05CD7
:101DA000DF4FCE3088E0D80749F7DF91CF911F9100
:101DB0000F91089580916F20909170200895CF9396
:101DC000C82FF89420E4829FC00111246FEF825F36
:101DD0009B4F0E94682D789421E030E002C0220FD2
:101DE000331FCA95E2F72095309580916F2090912E
:101DF00070208223932380936F2090937020CF9143
:101E000008958F929F92AF92BF92CF92DF92EF92FE
:101E1000FF920F931F93CF93DF93CDB7DEB7A097B9
:101E2000CDBFDEBFD82EFE01319680E2DF011D92CC
:101E30008A95E9F7CD2CCC0C9FE1992E9C0CA12C16
:101E40008F0121C06B2D8A2DE2DA882E6B2D6F5FFA
:101E50008A2DDDDA8695869586958F70282D2695B4
:101E6000269526952295207F822BF70181937F016D
:101E7000B394B394F0E1BF12E5CF085F1F4FA39472
:101E800024E0A21619F07801B12CDCCFCE01019626
:101E90000E94962D892D0E94A62DF12C8E010F5F98
:101EA0001F4F8F2DEFDAD8018D938D01F394B4E09D
:101EB000FB12F7CFEBE9F1E3BE016A5F7F4FCB0185
:101EC00001979F0122503109D9012C91B0E82B9F35
:101ED000900111243081322BDC013C93CF01039718
:101EE000DC018C91B0E88B9FC00111249F0121502F
:101EF0003109D9019C91982BDB019C9338966E5F38
:101F00007F4FB1E3EB3BFB07D1F6E5E9F1E381E07D
:101F100020E09081992311F0982F01C090E0292BA7
:101F2000880F389631E3E53BF30799F78091D93173
:101F300040E1849FC0011124822B8D878091D8318C
:101F40008E8785EA8F87CE0101960E94962D8C2D73
:101F5000805E0E94A62D21E030E002C0220F331FD8
:101F6000DA94E2F780916F2090917020822B932B6E
:101F700080936F2090937020A096CDBFDEBFDF913D
:101F8000CF911F910F91FF90EF90DF90CF90BF9076
:101F9000AF909F908F900895BF92CF92DF92EF9273
:101FA000FF920F931F93CF93DF93882309F441C0CF
:101FB00080916C20882379F081E090E00E94E11DFF
:101FC000DF91CF911F910F91FF90EF90DF90CF9015
:101FD000BF900C94D62481E080936C2006E11EE231
:101FE00042E1C42E4EE2D42E57E1E52E5EE2F52EFC
:101FF000B12C8B2D47DAF8018083F60181916F01B6
:10200000F7018083C0E0D0E06C2F8B2D00DAF8015F
:10201000EC0FFD1F82832196C031D105A9F7B3943F
:102020000E5E1F4FF2E1EF0EF11C84E0B812E1CF1B
:1020300036C010926C2006E11EE227E1E22E2EE26D
:10204000F22E32E1C32E3EE2D32EB12CF801608194
:102050008B2D12DAF7018081F60181936F01C0E0C8
:10206000D0E0F801EC0FFD1F42816C2F8B2DE7D9DA
:102070002196C031D105A9F7B3940E5E1F4FF2E14E
:10208000EF0EF11C84E0B812E1CFDF91CF911F91E8
:102090000F91FF90EF90DF90CF90BF90BACADF9181
:1020A000CF911F910F91FF90EF90DF90CF90BF9055
:1020B0000895BF92CF92DF92EF92FF920F931F93FA
:1020C000CF93DF930E94543EB82EC0E0D1E0CC24E1
:1020D000C394D12C72E0E72EF12C04E010E0909133
:1020E00071208B2D89278D2309F467C09D2381E002
:1020F00009F080E0C33099F128F4C13099F0C23082
:1021000031F41DC0C43099F1C53009F441C08823B1
:1021100009F453C080916C20882311F0B9D94DC0C7
:1021200073D94BC0209182313091833121303105F8
:1021300029F12530310521F581113FC00AC02091D8
:102140008231309183312430310509F428C088234D
:10215000A1F1D1DB00938231109383312EC088230B
:1021600061F180916C20811128C035D926C0209161
:102170008231309183312130310511F40DDF1DC0E2
:1021800081111BC046DAC0928231D092833115C0D2
:1021900020918231309183312230310549F48823F6
:1021A00021F081E080936C2008C010926C2005C063
:1021B00032DBE0928231F0928331DD0FCF5FC630A7
:1021C00009F08DCFB0927120DF91CF911F910F91C7
:1021D000FF90EF90DF90CF90BF9008950F931F93E3
:1021E000CF93DF9380910A3690910B36AFD6CBE92F
:1021F000D1E314E60FE7FE0133974081409F202D85
:102200001124612F87E00E94492AFE013297408104
:10221000409F202D1124612F6C5F87E00E94492A86
:10222000FE0136974081409F202D1124612F645F6D
:1022300087E00E94492A612F6855488187E00E9403
:10224000242A1F5F28961836B1F66091E33170E0BA
:1022500080E090E00E94BE4021EE3AE744E450E482
:102260000E9463420E949040462F68E487E00E94EB
:10227000242A6091EC3170E080E090E00E94BE4042
:1022800021EE3AE744E450E40E9463420E94904009
:10229000462F69E487E00E94242A6091F53170E0BE
:1022A00080E090E00E94BE4021EE3AE744E450E432
:1022B0000E9463420E949040462F6AE487E0DF91CB
:1022C000CF911F910F910C94242A7F928F929F920D
:1022D000AF92BF92CF92DF92EF92FF920F931F9334
:1022E000CF93DF93CDB7DEB7A497CDBFDEBF20E499
:1022F000829FC00111247C01E0E2EE1AECEFFE0A9D
:10230000E2E1CE2EEEE2DE2E8701912CF601119253
:102310006F01C801812C5C01FFEFAF1ABF0A0E9458
:10232000FC2C782E482F42954F70440F440F440FD9
:10233000682D892D84D8472D4F70440F440F440FCA
:10234000682D6F5F892D7BD883948394C50120E12C
:102350008212E1CF085F1F4F939484E09812D6CF8A
:10236000C7018096D12C8C010F5F1F4F0E94FC2C5F
:10237000682F8D2D81D8D394C801E4E0DE12F3CF0D
:102380006701F4E2CF0ED11C0BE911E3C6010E94F4
:10239000FC2CF8013297881F8827881F80835601FC
:1023A0002FEFA21AB20AC6010E94FC2C8F77F80107
:1023B0008083C5010E94FC2CF8013397881F882771
:1023C000881F8083F2E0CF0ED11CC5010E94FC2C37
:1023D000F80131978F778083085F1F4F21E30B3B14
:1023E0001207A1F68701035D1F4FC7018C960E945B
:1023F000FC2CE5E9F1E391E0392F382321E009F4E1
:1024000020E02083990F389621E3E53BF207A1F7FE
:10241000682F62956F706093D931CE01019635DCDB
:1024200084E2FE013196AAEDB1E301900D928A9506
:10243000E1F7C8010E94FC2C8093D831A496CDBF4F
:10244000DEBFDF91CF911F910F91FF90EF90DF9052
:10245000CF90BF90AF909F908F907F90BFCEEF9224
:10246000FF920F931F93CF93DF93CDB7DEB7A5975E
:10247000CDBFDEBF182F80918231909183318230A1
:10248000910509F481C020F4019709F07BC108C0CF
:102490008330910509F4C5C0049709F073C1F2C0F7
:1024A000812F6DA39CD86DA181309105F9F038F092
:1024B00082309105D9F1039709F064C157C06623B2
:1024C00009F460C128E0129FF0011124EC56FE4C83
:1024D000418181E0482741832FE7429F202D11242D
:1024E000612F605987E00E94492A36C061114AC1B4
:1024F000E12FF0E0EE0FFF1FE450FE4C8081918150
:10250000883B9B4048F514501093D63183E090E00F
:102510008093823190938331A596CDBFDEBFDF914A
:10252000CF911F910F91FF90EF90B6C9662309F4E8
:1025300029C188E0189FF0011124EC5AFE4C448117
:1025400081E0482744832FE7429F202D1124612FEB
:10255000645A87E00E94492AA596CDBFDEBFDF916D
:10256000CF911F910F91FF90EF9053C8662309F40C
:1025700009C128E0129FF0011124EC5CFE4C45815A
:1025800081E048274583DFCF662309F4FBC08091B3
:102590006C20882351F0812F12DC8091032081135D
:1025A00036C081E18093032032C0E12EF12C81E01E
:1025B00090E0012E02C0880F991F0A94E2F7209143
:1025C0006F203091702082239323EE0CFF1C892B07
:1025D00081F0812F7ADE10930320F701E25AF14D4A
:1025E0008081918164E670E00E942F436093FF3107
:1025F0000EC0812F06DC10930320F701E25AF14D43
:102600008CE991E3808391838FE78093FF31A596D6
:10261000CDBFDEBFDF91CF911F910F91FF90EF9063
:10262000FAC8662309F4AEC0612F8091D6310E94AA
:10263000070A00E021E030E040E0811110C06FE7C0
:10264000812F0E947338E12FF0E0EE0FFF1FE25A56
:10265000F14D8CE991E3808391834FE705C060E001
:10266000812F0E94733840E0612F8091D631A5966A
:10267000CDBFDEBFDF91CF911F910F91FF90EF9003
:102680000C941F0A80916C20662309F469C08111A3
:1026900079C0612FCE010196F8DA84E2FE0131960D
:1026A000AAEDB1E301900D928A95E1F71830E8F5B3
:1026B0006091E33170E080E090E00E94BE4021EE46
:1026C0003AE744E450E40E9463420E949040462F5F
:1026D00068E487E00E94242A6091EC3170E080E099
:1026E00090E00E94BE4021EE3AE744E450E40E94AC
:1026F00063420E949040462F69E487E00E94242AAA
:102700006091F53170E080E090E00E94BE4021EEE3
:102710003AE744E450E40E9463420E949040462F0E
:102720006AE487E00E94242A0FC040E062E487E068
:102730000E94242A40E063E487E00E94242A40E0CB
:1027400064E487E00E94242A1093D931A596CDBF76
:10275000DEBFDF91CF911F910F91FF90EF90CBC81B
:10276000811110C0612F6F5B20E040E087E0A596EB
:10277000CDBFDEBFDF91CF911F910F91FF90EF9002
:102780000C94492AA596CDBFDEBFDF91CF911F9152
:102790000F91FF90EF9008952F923F924F925F928A
:1027A0006F927F928F929F92AF92BF92CF92DF9261
:1027B000EF92FF920F931F93CF93DF93CDB7DEB7C6
:1027C0002997CDBFDEBF0E941A3E8E839F839CEF68
:1027D000892E91E3992E2CEFA22E21E3B22E34EB19
:1027E000E32E31E3F32E2EE03EE22C833D8345E9D8
:1027F000242E41E3342E8EE59EE2888799875EE79A
:10280000C52E5EE2D52EE2E7FEE2EA83FB83412C91
:1028100066246394712C842D0E94133E8983082FB3
:10282000112707FD10950115110509F442C1842DEA
:102830008C50843038F580918231909183310197AA
:1028400009F5E885F985808191810E94C623882356
:10285000C9F0EA81FB8180812981820F80838B30DE
:102860003CF020E039E1E885F985208331835AC0C6
:10287000863F0CF057C028E338E1E885F9852083CE
:10288000318350C0E885F985808191810E94CF23F2
:102890008823A1F1E885F9858081918184369105AD
:1028A00020F4101611063CF00BC08933F1E39F07AA
:1028B00038F017FF05C0F60120813981230F2083EE
:1028C000F6012081243064F08436910558F524E621
:1028D00030E0E885F98520833183F601108222C03B
:1028E0002D3F04F589339143E8F028E331E3E8858F
:1028F000F98520833183F601108214C0F2EBF09F3A
:10290000C001F19F900D1124E885F9852081318166
:10291000820F931F808391830E94B723E885F985F6
:1029200080839183E885F985808191810E94A92324
:10293000582E0E94370A019709F093C0842D0E94F7
:10294000EF0A8130910569F140F08230910509F478
:1029500079C0039709F0ADC078C0F1018081882368
:1029600029F05092D831842D19D811C0652D70E00E
:1029700080E090E00E94BE4023E333E34BE451E467
:102980000E94F23F0E949040842D0E943C0AFEE784
:10299000F51520F05394F70150828BC0F701508257
:1029A00088C0F40180819181892BD1F0FEE4F09FF1
:1029B0009001F19F300D301B1124E885F98580814D
:1029C0009181820F931F80839183F50180812981FA
:1029D000820F808388320CF46CC037E2308369C088
:1029E0008AE0851530F0F7011082EC81FD811082BC
:1029F00060C0652D70E080E090E00E94BE4020E065
:102A000030E048E351E40E94F23F0E949040EC81A4
:102A1000FD816083652D70E080E090E00E94BC4005
:102A200020E030E040E351E40E94893F28E632E2B2
:102A30004CE85FE30E9463420E9490406F5FF701A1
:102A4000608337C0F101FB9703C0F101EA55F1093A
:102A50005082F7015082452D642D87E00E94242A80
:102A600028C080918231909183318330910579F42F
:102A7000452D642D8091D6310E941F0A00E021E08F
:102A800030E040E0652D842D0E94733812C0823002
:102A9000910539F48091032048120BC05092FF3108
:102AA00008C0049731F48091D931841102C050924A
:102AB000D8310E811F810621172180916D209091C0
:102AC0006E20862197210115110531F0892B49F4DB
:102AD00061E0842DC4DC05C0892B19F060E0842DF1
:102AE000BEDC842D8450843068F4F401012B31F075
:102AF0008081918101968083918304C0108211822C
:102B0000F5011082660C771C4394F2E08F0E911C45
:102B10002FEFA21AB20A3FEFE31AF30A8C819D81CC
:102B200001968C839D8398E0290E311CE885F985F8
:102B30003296E887F987FFEFCF1ADF0A2A813B81B7
:102B40002F5F3F4F2A833B8330E1431264CE8E8157
:102B50009F8180936D2090936E202996CDBFDEBF1C
:102B6000DF91CF911F910F91FF90EF90DF90CF9069
:102B7000BF90AF909F908F907F906F905F904F909D
:102B80003F902F900895CF93DF93CDB7DEB7639733
:102B9000CDBFDEBF8B8B80918520909186208430C5
:102BA000910569F58B89882351F180910C328983D5
:102BB0008981882309F445C08981893008F041C0A2
:102BC0008981882F90E00197880F991F8B589F4D1E
:102BD000FC01808191810097A1F18981882F90E08B
:102BE0000197880F991F8B589F4DFC0120813181DF
:102BF0008B8981506DE072E3F901199522C08091B3
:102C000085209091862083309105E1F48B89823074
:102C1000C8F080910C328630A9F480910D32813059
:102C200089F481E1E1E2F0E2DE01129601900D9279
:102C30008A95E1F7CE010296BC0181E10E9411293B
:102C400001C000006396CDBFDEBFDF91CF91089534
:102C5000982F9150983040F4E82FF0E0EE0FFF1FCE
:102C6000ED58FF4D608371830895FC0180917420BD
:102C700081112CC081E0809374208CE092E38093DA
:102C80007220909373208181803F09F063C082811C
:102C90008E3779F4838190910620891719F08F3748
:102CA00009F058C083E090E08093852090938620BF
:102CB000089581114FC08381813009F04BC081E0BC
:102CC00090E08093852090938620089580918520C0
:102CD000909186208130910501F581818937D1F568
:102CE000A0917220B0917320CD0102962091042012
:102CF000309105208217930768F524E030E0209397
:102D000085203093862022812C93238111962C9349
:102D100080937220909373200895029709F1A091F7
:102D20007220B0917320CD01039620910420309140
:102D300005208217930770F421812C93228111962C
:102D40002C931197238112962C9380937220909349
:102D50007320089582E090E08093852090938620F0
:102D60000895FC0110927420809185209091862016
:102D70008130910521F58181893709F03FC0A0910B
:102D80007220B0917320CD010296209104203091E1
:102D900005208217930790F524E030E020938520EA
:102DA0003093862022812C93238111962C9380933B
:102DB0007220909373208C509243E5DE1FC00297DF
:102DC000E9F0A0917220B0917320CD01039620917B
:102DD0000420309105208217930780F421812C93E1
:102DE000228111962C931197238112962C93809314
:102DF0007220909373208C509243C5DE10928520F0
:102E000010928620089520917420222359F1109267
:102E10007420209185203091862022303105F1F0F8
:102E2000E0917220F09173209F012E5F3F4F4091FF
:102E30000420509105202417350780F4DC011196F9
:102E40004C911197408312968C918183209372202C
:102E500030937320C9018C50924395DE10928520E7
:102E600010928620089520917420222339F1109227
:102E70007420209185203091862022303105D1F0B8
:102E8000E0917220F09173209F012F5F3F4F40919E
:102E90000420509105202417350760F4DC011196B9
:102EA0008C9180832093722030937320C9018C50C1
:102EB000924369DE10928520109286200895CF9368
:102EC000DF93EC011B8682E08C83898761E0CE0171
:102ED0000196B3D4882331F061E0CE010696DF91EC
:102EE000CF91ABC480E0DF91CF9108950F931F93F2
:102EF000CF93DF931F92CDB7DEB78B0120918F3236
:102F00002430E9F4FC018181AAD340E050E064E080
:102F100070E0C801C4D1811113C020919832309162
:102F20009932F901EF5BFF4F4081F901E05CFF4FFF
:102F30009081491728F089834CD3898101C082E0B0
:102F40000F90DF91CF911F910F91089520918F32B3
:102F50002430F9F4FC01818182D380919C3220914C
:102F6000983230919932F90187FF05C0EF5BFF4F2E
:102F7000808190E00AC0E05CFF4F8081F901EF5B47
:102F8000FF4F208190E0821B9109892B21F021D3F2
:102F9000EAC482E0089580E00895CF93DF93EC01C6
:102FA00080918F32843049F4898159D3FBD38823AF
:102FB00021F0CE01DF91CF91C9CFDF91CF9108955C
:102FC000CF93DF93EB0120918F32243009F021C0A1
:102FD000FC01868144D3CDD38823D9F080919C32E3
:102FE0004091983250919932FA0187FF05C0EF5B0A
:102FF000FF4F208130E00AC0E05CFF4F2081FA01E2
:10300000EF5BFF4F808130E0281B3109232B19F43F
:10301000F9D280E007C040E050E064E070E0CE010B
:1030200091D181E0DF91CF9108950F931F93CF93BA
:10303000DF93CDB7DEB7EC97CDBFDEBF00E912E37B
:10304000F0D2F80181938F01F2E308391F07C1F72D
:103050000E94763F75D3882309F402C18091903293
:1030600090919132953009F47BC038F4913081F120
:1030700070F0933009F0F4C02BC0983009F4CDC043
:10308000993009F4D2C0963009F0EAC07DC080388A
:1030900021F0823809F0E4C008C010918C32809190
:1030A0008D32882381F012600EC0809194328F702F
:1030B000D6D2E0919A32F0919B32118112FB112706
:1030C00010F980E0CCD210D3812FBAD280E0AAC010
:1030D000882319F0823009F0C3C08F7121F082304B
:1030E00009F0BEC00BC080919232813009F0B8C0A7
:1030F000933009F080E080938D322DC08091923220
:10310000811129C000919432109195320F701127CE
:103110000115110509F4A4C0802FA1D2809191322C
:10312000833011F4C6D217C0E0919A32F0919B32ED
:1031300081818B7F818384E8809FF001819FF00DE6
:103140001124E252FD4C1082E0919A32F0919B32B0
:1031500080818E7F808380E082D2C6D2EDD380C012
:1031600081117EC0109192321F77BED2E5D31AD35F
:103170008823E9F31093C304112311F083E001C005
:1031800082E080938F326CC08058823008F068C033
:1031900080919232909193328C3D23E0920761F5B9
:1031A00083E08A838AE389834FB7F894DE0113961C
:1031B00020E038E052E05093CA01E32FF0E0E491C0
:1031C0001092CA0120FF03C0E295EF703F5FEF70DD
:1031D0008E2F90E0EA3010F0C79601C0C0968D9314
:1031E0009D932F5F2C3139F74FBF7ED26AE370E099
:1031F000CE010196FAD00FC0AE01455C5F4F6091E1
:1032000094320E94C2358C01009751F16DD2B80101
:103210008BAD9CAD63D1F6D123C0803809F564D263
:1032200080918B320DD2D5D199CF811119C0809167
:1032300092328230A8F458D28091923280938B32AD
:103240007BD380918B32811104C08091C304882389
:1032500011F084E001C081E080938F320E94633FCF
:103260006FD2882311F040D224D2EC96CDBFDEBFBE
:10327000DF91CF911F910F9108950895CF93809181
:103280008F32882351F0C0919C3280E0E8D158D22F
:103290008111CBDE8C2FCF91E2C1CF910895BF92E7
:1032A000CF92DF92EF92FF920F931F93CF93DF9312
:1032B0007C018B01EA0157D3B82E811138C02097C9
:1032C00031F028813981021B130BE20EF31EC12C51
:1032D000D12C28C02091983230919932F901EF5BBE
:1032E000FF4F9081F901E05CFF4F8081981788F0D3
:1032F00070D1C4DF209749F0888199818C0D9D1D84
:103300008883998325E0B22E12C02DD3882351F0F3
:103310000DC0F70181917F0193D101501109FFEF99
:10332000CF1ADF0A01151105A9F601C0B82E8B2DA1
:10333000DF91CF911F910F91FF90EF90DF90CF9091
:10334000BF900895BF92CF92DF92EF92FF920F93BA
:103350001F93CF93DF937C018B01EA0104D3B82E36
:10336000811138C0209731F028813981021B130B5D
:10337000E20EF31EC12CD12C28C02091983230913E
:103380009932F901EF5BFF4F9081F901E05CFF4F4B
:103390008081981788F036D171DF209749F08881B5
:1033A00099818C0D9D1D8883998345E0B42E12C0B0
:1033B000DAD2882351F00DC034D1F70181937F0117
:1033C00001501109FFEFCF1ADF0A01151105A9F607
:1033D00001C0B82E8B2DDF91CF911F910F91FF90DF
:1033E000EF90DF90CF90BF900895DF92EF92FF9221
:1033F0000F931F93CF93DF93182F092FEB01809129
:103400009C3280682CD120919632309197322C17C3
:103410003D0720F0209719F4DCD001C0E901E12E2E
:10342000F02ED12C3FC080918F32811102C082E0FA
:103430004DC0853011F483E049C082D1811145C06F
:1034400098D181113DC0AED1882361F120919C3289
:103450008091983290919932FC0127FF05C0EF5B73
:10346000FF4F008110E012C0E05CFF4F0081FC01C3
:10347000EF5BFF4F808110E0081B110907C0F701C7
:1034800081917F01DDD021970F5F1F4F209719F0A9
:1034900008301105A0F3DD24D3940830110509F09C
:1034A000D12C97D0209709F0BECFD110BCCF08C047
:1034B00080918F32882309F4BACF853009F4BBCFCD
:1034C00058D18823A9F380E001C081E0DF91CF913A
:1034D0001F910F91FF90EF90DF900895DF92EF9290
:1034E000FF920F931F93CF93DF93182F092FEB01B8
:1034F00080919C328068B3D020919632309197327F
:103500002C173D0720F0209719F463D001C0E90182
:10351000E12EF02ED12C41C080918F32811102C05A
:1035200082E04FC0853011F483E04BC009D1811196
:1035300047C01FD181113FC035D1882371F120913F
:103540009C328091983290919932FC0127FF05C0FE
:10355000EF5BFF4F008110E014C0E05CFF4F008183
:10356000FC01EF5BFF4F808110E0081B110909C0CF
:10357000F701849165D0FFEFEF1AFF0A21970F5FE3
:103580001F4F209719F00830110590F3DD24D394D4
:103590000830110509F0D12C1CD0209709F0BCCFC0
:1035A000D110BACF08C080918F32882309F4B8CFE8
:1035B000853009F4B9CFDDD08823A9F380E001C0BC
:1035C00081E0DF91CF911F910F91FF90EF90DF90FD
:1035D0000895E0919A32F0919B32A0919832B09187
:1035E0009932AF5BBF4F8C9190E08283938380814F
:1035F0008D798083E0919832F0919932EF5BFF4FA3
:1036000010820895E0919A32F0919B3280818D79F9
:103610008083E0919832F0919932EF5BFF4F1082F6
:1036200008958091983290919932FC01EF5BFF4FA1
:103630002081DC01A20FB11D8C912F5F20830895A2
:103640002091983230919932F901EF5BFF4F9081D0
:10365000D901A90FB11D8C939F5F9083089580932A
:103660009C32482F4F7094E8499F900111242356B3
:103670003D4C6091C6047091C70490E1499FA00140
:10368000112487FF0BC0CA010896860F971F8093ED
:103690009A3290939B322E5B3F4F06C0460F571FC6
:1036A00040939A3250939B322093983230939932C0
:1036B0000895E0919A32F0919B32818184608183F8
:1036C000E0919A32F0919B328181807C803459F470
:1036D00080919C328058C3DFE0919A32F0919B3206
:1036E000818184608183089580919C328F77B7DFD8
:1036F000E0919A32F0919B3280818D788083E091C5
:103700009A32F0919B32808181608083E09198327F
:10371000F0919932EF5BFF4F108280919C3280686C
:103720009EDFE0919A32F0919B32808181608083AC
:10373000E0919832F0919932EF5BFF4F108208953B
:1037400080919C328F778BDFE0919A32F0919B329F
:10375000808184FF0CC0209198323091993282810F
:103760009381F901E05CFF4F808381E0089580E060
:10377000089580919C328F7772DFE0919A32F091B8
:103780009B32808185FF0CC0209198323091993214
:1037900082819381F901E05CFF4F808381E008958D
:1037A00080E0089580919C32806859DFE0919A32E0
:1037B000F0919B3280818695817008951F93CF93FD
:1037C000DF931F921F92CDB7DEB7182F4A8369830C
:1037D00046DFE0919A32F0919B321182E0919A3269
:1037E000F0919B32812F881F8827881F880F808344
:1037F000E0919A32F0919B3269816183E0919A3233
:10380000F0919B321282138220919832309199323A
:1038100024833583110F110B4A811423F901E05CD5
:10382000FF4F1083F901EF5BFF4F108281E00F9093
:103830000F90DF91CF911F910895CF92DF92EF9279
:10384000FF920F931F93CF93DF931F921F92CDB7D9
:10385000DEB7E62E6C01F12C46C0F6015081511105
:1038600005C0F394F5E0CF0ED11C3DC0F6010181F7
:10387000128183819481923010F048E101C048E0C8
:1038800028E030E090E003C09F5F220F331F201735
:103890003107D0F3252F2F7030E02330310514F09D
:1038A00080E024C001341105D8F7942B9F7E882333
:1038B00019F0813029F402C0906405C0906C0CC0EE
:1038C0009068811109C0402F692F852F8058598336
:1038D0009A8374DF9A815981402F692F852F6EDF7B
:1038E0008111BFCFDDCFFE10B8CF81E00F900F90D8
:1038F000DF91CF911F910F91FF90EF90DF90CF90CC
:103900000895E0ECF4E0A681B78119961C92A68197
:10391000B78111961C92A681B78159961C92A681F7
:10392000B78151961C92A681B78199961C92068008
:10393000F781E02D11A208958091903287FD04C097
:1039400031DF882351F00EC014DF811105C0809152
:103950008F328111F9CF089555CE80918F32811128
:10396000EFCF089536CE1F93CF93DF93E091C60437
:10397000F091C704C0A9D1A914E602C0EC01122F2E
:1039800080919C328078803851F40CDF811105C021
:1039900080918F32811105C01CC080E01FC0E9DE1C
:1039A000F5CF8530C1F0E0919A32F0919B32818160
:1039B00082FD13C0E091C604F091C70480A991A9CB
:1039C0008C179D07E9F2212F21501111D7CF84E0E8
:1039D00005C082E003C083E001C081E0DF91CF91A8
:1039E0001F91089564D06AD0E0ECF4E081818E7F6D
:1039F000818380818F77808310928E320895CF9358
:103A0000DF93E0E4F0E014828481836084834FD00C
:103A100055D0C0ECD4E088818F7788838881806816
:103A2000888310928F3210928B3210928D321092C6
:103A30008C3288818064888348E068E480E8BEDE58
:103A400048E068E480E0BADE888580648887898100
:103A500081608983DF91CF910895CF93DF932FB752
:103A6000F894C0ECD1E082E08A87EAE1F0E0E491EA
:103A7000A0ECB4E0DA96EC93DA97EBE1F0E0E491B5
:103A8000DB96EC93DB971A868AE294E38E7F169698
:103A90008D939C93179782E18C9383E018968C9377
:103AA0002FBF81E080938E32DF91CF91A8CFE0ECE1
:103AB000F4E080858370808711860895E0ECF4E05F
:103AC0008FEF8287848708951F920F920FB60F920F
:103AD000112408B60F9218BE09B60F9219BE0BB684
:103AE0000F921BBE2F933F934F935F936F937F93E0
:103AF0008F939F93AF93BF93EF93FF938091CA04EB
:103B000087FF08C08091C80487FF04C080E88093C5
:103B1000CA04B3DB8091CA0486FF07C080E48093A7
:103B2000CA0485E080938F32A8DB8091CA0485FFA8
:103B300013C080E28093CA0480918B32882311F0F5
:103B400084E007C08091C304882311F083E001C0A2
:103B500081E080938F3291DB8091CA0484FF14C08E
:103B600080E18093CA0482E080938F3210928B327E
:103B70001092C304C6DE48E068E480E81FDE48E037
:103B800068E480E01BDE79DBFF91EF91BF91AF919C
:103B90009F918F917F916F915F914F913F912F9165
:103BA0000F900BBE0F9009BE0F9008BE0F900FBE76
:103BB0000F901F90189508958091872090918820EC
:103BC000089580938720909388200895FC01848530
:103BD00080939520808191818093892090938A2081
:103BE0008281938180938B2090938C208481958116
:103BF00080938D2090938E208681978180938F2053
:103C0000909390208085918580939120909392202D
:103C1000828593858093932090939420089589E8DA
:103C200090E20895BF92CF92DF92EF92FF920F93AE
:103C30001F93CF93DF930E94543E88D5C82F0E94D4
:103C4000963E82719927429799F4809196208271CD
:103C5000823019F0803109F0CCC084E090E080938C
:103C60008720909388200E94B80C10929620C1C0A3
:103C70009C2F990F9C0F990F88E0D82ED90E09E838
:103C800010E22EE0B22EB90ECC24C3940E94963ED0
:103C90002091962030E08217930709F4A0C00E947B
:103CA0009A3EEC2CF12C8E219F2121E030E0892BD3
:103CB00011F420E030E0F801C081D181C530D10598
:103CC00009F462C090F4C230D10509F443C030F465
:103CD000209701F1219709F082C02BC0C330D10594
:103CE000C9F1249709F07BC048C0C830D10509F458
:103CF00061C040F4C630D10509F450C0279709F0DF
:103D00006EC052C0C930D10509F45AC02A9709F0D3
:103D100066C05CC02130310531F44FE76D2D83E082
:103D20000E94242A5CC040E06D2D83E00E94242A7A
:103D300056C02130310539F42FE741E06D2D83E085
:103D40000E94492A4CC020E040E06D2D83E00E9493
:103D5000492A45C00E94963E8E219F21892B29F039
:103D6000C0938720D09388203AC020D681E090E08D
:103D7000809387209093882032C02130310579F5D7
:103D8000E5D4833060F528C02130310541F5DED41B
:103D9000882329F1DBD481503BD521C02130310566
:103DA000F1F480E035D51BC021303105C1F481E04C
:103DB0002FD515C02130310591F482E029D50FC0EF
:103DC0002130310561F483E023D509C0213031056C
:103DD00031F4BCD4833029F3B9D48F5F19D5CC0C1E
:103DE0000E5F1F4FD394DB1051CF0E94963E8093FD
:103DF0009620DF91CF911F910F91FF90EF90DF9070
:103E0000CF90BF9008950F931F93CF93DF93CDB7BB
:103E1000DEB72897CDBFDEBF262F8A01F89430E8A1
:103E2000839FC0011124809648E050E0BE016F5F7F
:103E30007F4FE8E02E9F800D911D11240E940D2DD3
:103E400078948981982F9F70F801928315828295CA
:103E50008F7083838A818F7784838B8181878C8124
:103E600082878D81982F9F779387881F8827881F47
:103E700080838E81982F9370948786958695837022
:103E800081838F81982F9370908782958F7086831E
:103E90008885982F9F779783881F8827881F858715
:103EA0002896CDBFDEBFDF91CF911F910F9108956E
:103EB000CF92DF92EF92FF920F931F93CF93DF93F6
:103EC000C0E0D0E01EE01C9FA0011D9F500D1124FA
:103ED00049565F4D6C2F8091772195DF2196C03137
:103EE000D10589F780E0C82E85E3D82E03E210E0E3
:103EF00017C0C7010E94FC2CF601EC0FFD1F808348
:103F000068E0E60EF11C2196C031D10591F700580A
:103F10001F4F80E1C80ED11C0332C2E01C0721F004
:103F20007801C0E0D0E0E5CFE7E9F0E220E635E354
:103F300084EF95E3ACEDB4E300E415E34CE958E11C
:103F40006081662321F04D935C93119706C01D920A
:103F50001C921197E80118821982E90119929E01B9
:103F6000EC0119921992CE013E9612960E5F1F4FE8
:103F7000D0E2EF3CFD0721F788E08093782182E0D2
:103F800080937921DF91CF911F910F91FF90EF9056
:103F9000DF90CF900895DF92EF92FF920F931F93DF
:103FA000CF93DF93CDB7DEB7A097CDBFDEBFE82EAE
:103FB000D62E8A01F62EF694F69420E8829FC00150
:103FC0001124809640E250E0BE016F5F7F4FA0E277
:103FD000FA9E800D911D11240E940D2D8D2D837050
:103FE000E1E0F0E0EC0FFD1FB8E08B9FE00DF11D6C
:103FF0001124D80112969C9197FD05C08081807F85
:104000009F70892B8083D80113962C9127FD08C0BF
:1040100080818F70B0E12B9F90011124822B8083CF
:10402000D80114968C9187FF8183D80119968C91C1
:1040300087FF8283D8011A968C9187FF8383D801EA
:104040009C9197FD04C0848190FB87F98483D801FB
:104050001B969C9197FD05C0848180789F77892B62
:104060008483D8011C969C9197FD05C085818C7F27
:104070009370892B8583D80111962C9127FD0AC056
:104080009581937FB4E02B9F900111242C703327EE
:10409000922B9583D80118968C9187FD05C0968147
:1040A0009C7F8370982B9683D80116962C9127FDC0
:1040B00008C096819F70B0E12B9F90011124922B34
:1040C0009683D80117968C9187FD04C097819078CC
:1040D000982B9783D8011D969C9197FD04C08781EA
:1040E00090FB87F987831E2D110F110F1F5F1F0D86
:1040F000F894CE0101960E94962D812F0E94A62D44
:104100007894A096CDBFDEBFDF91CF911F910F9124
:10411000FF90EF90DF900895FF920F931F93CF933E
:10412000DF93CDB7DEB7A097CDBFDEBFFE013196DE
:1041300080E2DF011D928A95E9F780E050E14FE3CC
:1041400032E021E050838183982F9D5C92839253CB
:10415000938344833583268387833896892F9430CD
:1041600089F7FF24F3948E01085D1F4FF894CE0168
:1041700001960E94962D8F2D0E94A62D7894AE0157
:104180004E5F5F4F9E012D5F3F4FBE016C5F7F4FC3
:10419000FE013896DA018C918C5F8C93D9018C9159
:1041A0008C5F8C93DB018C918C5F8C9380818C5F16
:1041B0008083485F5F4F285F3F4F685F7F4F38962F
:1041C000E017F10739F7F394B1E1FB12CFCFA096D6
:1041D000CDBFDEBFDF91CF911F910F91FF9008956A
:1041E000BF92CF92DF92EF92FF920F931F93CF93E4
:1041F000DF93B42E422F603108F08EC081309105DC
:1042000009F45EC020F0029709F086C077C0062F3F
:1042100010E08EE0689FE0011124C956DF4D8885CB
:1042200080FF7AC04B2D6F818E810E94242A8D855C
:10423000882309F471C0C091CA31BC1608F46CC05F
:10424000D0E06091C43170E06C1B7D0B882777FD56
:104250008095982F0E94BE4020E030E04EEF52E45F
:104260000E94F23F9B01AC0160E070E080E89FE3B8
:104270000E94F23F6B017C016B2D70E06C1B7D0B8B
:10428000882777FD8095982F0E94BE409B01AC0146
:10429000C701B6010E9463420E949040AB016038A2
:1042A000710510F04FE750E08EE0809FF001819F94
:1042B000F00D1124E956FF4D6781615C86810CC0C9
:1042C0008EE0689FF0011124E956FF4D8281823013
:1042D00070F44B2D64818381DF91CF911F910F91F9
:1042E000FF90EF90DF90CF90BF900C94242A8250E3
:1042F000823090F42B2D6481838103C0645D2B2D6B
:1043000083E0DF91CF911F910F91FF90EF90DF90AD
:10431000CF90BF900C94492ADF91CF911F910F91BC
:10432000FF90EF90DF90CF90BF900895BF92CF9213
:10433000DF92EF92FF920F931F93CF93DF93C82EDC
:104340000E94453EBC2CB29430EFB322D12CC1E088
:10435000D0E00C2D10E0000F111F5CEFE52E54E3B0
:10436000F52EE00EF11E00511A4C0E944A3E8C239D
:104370009D23892BB1F06D2D6B0D21E04FE782E07D
:1043800090E02EDFF701808191818C239D23892B82
:1043900031F5F801208131812C2B3D2B2083318395
:1043A0001EC00E944F3E8C239D23892BC1F06D2D92
:1043B0006B0D20E040E082E090E012DFF701208109
:1043C00031812C233D23232B51F49E0120953095E0
:1043D000F801808191812823392320833183CC0FF8
:1043E000DD1FD394F0E1DF12C0CF80917A21EC2D54
:1043F000F0E0EE0FFF1FE051FA4C21E030E0082E14
:1044000002C0220F331F0A94E2F740815181242316
:104410003523232B69F06FE70E941F3900E021E06C
:1044200030E040E06FE780917A210E9473380CC041
:1044300060E00E941F3900E021E030E040E060E0F1
:1044400080917A210E94733880917A218F5F803128
:1044500018F480937A2102C010927A21DF91CF91D3
:104460001F910F91FF90EF90DF90CF90BF90089534
:10447000342F32953F70A42FAF70813099F138F00E
:10448000823009F4AAC0833009F0EEC0B3C06130B5
:1044900009F0EAC0EA2FF0E044E6249FB0011124BD
:1044A000DF01AA0FBB1FA452BB4C8D919C91861BB0
:1044B000970B97FF03C091958195910981399140A0
:1044C0000CF4D2C0DF0180E1389FA00DB11D112492
:1044D000A456BB4C2C93EE0FFF1FE452FB4C6083A1
:1044E0007183089580919C206813BEC0432F50E0D3
:1044F00021112CC02A2F30E0FA01EE0FFF1FE450EB
:10450000FA4C81E090E002C0880F991FAA95E2F76B
:104510008095909560817181862397238083918314
:10452000FA0174E0EE0FFF1F7A95E1F7E20FF31F37
:10453000E050FB4C8EE0829FD001839FB00D112490
:10454000A956BF4D1A968C9180830895822F815071
:104550006A2F70E0FA01EE0FFF1FE450FA4C8D371E
:10456000C8F481E090E002C0880F991FAA95E2F795
:10457000A081B1818A2B9B2B80839183FA01B4E0C7
:10458000EE0FFF1FBA95E1F7E60FF71FE050FB4C67
:104590002083089581E090E002C0880F991FAA95BA
:1045A000E2F720813181822B932B80839183FA0162
:1045B000A4E0EE0FFF1FAA95E1F7E60FF71FE0500A
:1045C000FB4C8EE0869FD001879FB00D1124A95629
:1045D000BF4D19968C9180830895613009F044C0D5
:1045E00040E1349FF0011124EA0FF11DE45AFB4C25
:1045F00020830895611138C04C32B0F14D34A0F5DC
:104600004C52342F3F70E42FE295EF70F0E0EE0F44
:10461000FF1FDF01A450BB4C81E090E0BC0102C051
:10462000660F771F4A95E2F7AB016D917C91119768
:10463000462B572B4D935C93E051FA4C02C0880FE8
:10464000991F3A95E2F7222339F020813181282BF6
:10465000392B208331830895809590952081318175
:10466000822393238083918308950F93CF93809126
:104670007B21282F30E090917721F90140E19402CD
:10468000E00DF11D1124E456FB4CC081F901E45802
:10469000FE4D9081C917C9F09EE0929FF001939F53
:1046A000F00D1124E956FF4D248541E090819111D0
:1046B00001C040E0038530E06C2F0E947338E09128
:1046C0007B21F0E0E458FE4DC08380917B21282FB0
:1046D00030E090917721F90140E19402E00DF11D65
:1046E0001124E050FB4CC081F901E457FE4D90814C
:1046F000C91749F06C2F0E941F39E0917B21F0E02F
:10470000E457FE4DC0832091772180917B2190E179
:10471000290290011124280F311DF901E45AFB4CA4
:104720006081662331F0F901E050FB4C40810E942A
:10473000743980917B218F5F803118F480937B21C5
:1047400002C010927B21CF910F9108958091772123
:1047500008959C0129533841273C310510F48FE31B
:10476000089564E670E00E944343862F08959C01FB
:1047700097FD05C02D3981E3380724F405C020E0FA
:1047800030E002C02CE931E3C90108959C012953AE
:10479000384181E0273C310508F080E008959C0114
:1047A0002456310981E0253D304308F480E0089526
:1047B0001F93CF93DF93182F8EE0689FD0011124B1
:1047C000A956BF4D12969C9196509230D0F4C1E0FC
:1047D000D0E002C0CC0FDD1F6A95E2F70E94453E93
:1047E0008C239D23892B79F4E12FF0E0EE0FFF1F3E
:1047F000EC50FA4C208131812C233D2381E0232B86
:1048000019F480E001C081E0DF91CF911F910895FC
:104810002F923F924F925F926F927F928F929F92D0
:10482000AF92BF92CF92DF92EF92FF920F931F93BE
:10483000CF93DF93CDB7DEB72997CDBFDEBF782EFC
:104840004CEDE42E44E3F42E00E415E38CE791E212
:1048500089839A83ACE8B1E2AB83BC83C72CD12CAB
:10486000160154E0220C331C5A95E1F7ECE9F4E30D
:104870002E0E3F1E65E0CC0CDD1C6A95E1F780E74B
:1048800095E3C80ED91E412C512C1886198674E662
:10489000A72EB12C66246A9498859F8380917721F6
:1048A00028853985A0E18A02200D311D1124F901E6
:1048B000E456FB4CD7018D919C91B5010E94434376
:1048C0006083F901EE0FFF1FE059FA4CD8018D917A
:1048D0009C91B5010E94434360837183E885F9850B
:1048E000E20DF31DED83FE838081F4E68F9FC0010E
:1048F0001124D7018D939C934601840C951CF401DF
:1049000040815181F4E6F49F9001F59F300D112410
:10491000D8012D933C936885872D4ADF882329F0A1
:10492000F4018081AD81BE818C93E981FA8161922D
:10493000E983FA83AB81BC816D92AB83BC832EE0AB
:10494000E885F9852E9FA0012F9F500D112449560F
:104950005F4D6F81872D57DA888599850196888705
:10496000998792E0E90EF11CA2E04A0E511C0E5FFD
:104970001F4FE885F985709709F08ECF70927721E7
:104980002996CDBFDEBFDF91CF911F910F91FF9090
:10499000EF90DF90CF90BF90AF909F908F907F90DF
:1049A0006F905F904F903F902F9008958091772166
:1049B0002FCF2F923F924F925F926F927F928F9262
:1049C0009F92AF92BF92CF92DF92EF92FF920F939E
:1049D0001F93CF93DF93CDB7DEB72897CDBFDEBF50
:1049E0000E941A3EB9E92B2EB0E23B2E47E950E275
:1049F0004A835B830CED14E380E4682E85E3782E14
:104A000090EA892E90E2992E20E6A22E25E3B22E7E
:104A100031EAC32E30E2D32E1F821886EE24E394AF
:104A2000F12C54E6452E512C5F815983852F0E942D
:104A3000133E482F282F332727FD309521153105A8
:104A400009F4DFC0AA81BB818C91882309F1F801A8
:104A50008081918189539841873C910508F4EEC289
:104A600017C0E0E0F9E1D801ED93FC93CAC0332709
:104A700027FD3095992781950CF4909528173907D3
:104A80000CF0BFC0E8E3F8E1D801ED93FC93B9C0A6
:104A9000D8016D917C91CB0184569109853D90435D
:104AA00008F0D6C2DAC2121613061CF006C037FF91
:104AB00004C0F5018081840F8083D5012C91809101
:104AC0007921821744F4643671052CF4F801408290
:104AD00051821C9296C0332727FD309599278195E6
:104AE0000CF49095281739070CF08BC0693371438B
:104AF0000CF487C0E8E3F1E3D801ED93FC93D50112
:104B00001C927FC0405CD6011397F60134976C91DC
:104B100080819AD476C0F1018081853089F42C831C
:104B20003E834D830E94453E8E219F212C813E81F4
:104B30004D81892B29F0F9E14F02A001112410C009
:104B4000F60139978081811105C024E64202A00157
:104B5000112406C062EB629FA001639F500D1124D7
:104B60006981809177214D835C8322DE4D815C8158
:104B7000882341F1D3018D919C91840F951FF7DD1E
:104B8000F30180839183E5DD382F21E0482F69818F
:104B900081E090E03E8324DB809177214F8158852E
:104BA000F0E18F02400D511D1124DA01A456BB4CD7
:104BB0003E813C93FA01EE0FFF1FE059FA4C30831F
:104BC00011821FC0D8018D919C91840F951FCFDD5C
:104BD000F80180839183BDDD382F21E0482F698162
:104BE00080E090E03E83FCDA80917721EF81F885C8
:104BF00020E18202E00DF11D1124E456FB4C3E81C0
:104C000030830E944A3E8E219F21892BD9F0D10109
:104C10008C918330F1F060F48130D9F00E944A3EEB
:104C20008E219F2120917721892B09F46EC05DC0D0
:104C3000863009F4F6C0873009F468C1843009F081
:104C4000D9C1C0C00E944F3E8E219F21892BF9F609
:104C5000D1C10E944A3E8E219F21892B09F4CAC1ED
:104C6000E0917721B0E1EB0290011124AF81B8858A
:104C7000A20FB31FAA0FBB1FA059BA4C8D919C91D4
:104C8000892B19F040E050E002C04FE750E0AF81BF
:104C9000B885A20FB31FAA0FBB1FA059BA4C4D93E2
:104CA0005C9381E090E00F8002C0880F991F0A9406
:104CB000E2F7F0E0EE0FFF1FE450FA4C60817181E3
:104CC00086239723892B09F073C04115510519F0EC
:104CD000F401808102C0D6018C91EF81F885E20F4A
:104CE000F31FE050FB4C808363C0EF81F885B0E197
:104CF0002B02E00DF11D1124EE0FFF1FE059FA4CBD
:104D00004FE750E0408351830DC0EF81F88550E1BB
:104D10002502E00DF11D1124EE0FFF1FE059FA4CA2
:104D200010821182E091772181E090E00F8002C033
:104D3000880F991F0A94E2F7AE2FB0E0AA0FBB1FAD
:104D4000A450BA4C2D913C9182239323FF27E7FD79
:104D5000F095892BF1F4CF0154E0880F991F5A95F3
:104D6000E1F7AF81B885A80FB91FAA0FBB1FA059E3
:104D7000BA4C2D913C91232B19F0D4012C9102C0F7
:104D8000D6012C91AF81B885A80FB91FA050BB4C9C
:104D90002C9334E0EE0FFF1F3A95E1F74F815885D1
:104DA000E40FF51FEE0FFF1FE059FA4C40815181CF
:104DB00021E04115510509F420E0698181E090E08E
:104DC0000FDA18C10E944A3E8E219F21892B49F19A
:104DD000AA81BB818C91882331F04CE958E1F8011C
:104DE0004083518303C0D8011D921C92F5011082AB
:104DF000D8018D919C91ADDC382F21E0482F69813D
:104E000080E090E03E83ECD980917721EF81F885B6
:104E1000B0E18B02E00DF11D1124E456FB4C3E8104
:104E200030830E944A3E8E219F21892BA1F1E0917F
:104E3000772181E090E00F8002C0880F991F0A94CB
:104E4000E2F7AE2FB0E0AA0FBB1FA450BA4C2D91D1
:104E50003C91822393232E2F332727FD3095892BD6
:104E600079F4D90184E0AA0FBB1F8A95E1F7EF819D
:104E7000F885AE0FBF1FA050BB4CF40180818C930E
:104E8000F901A4E0EE0FFF1FAA95E1F74F815885C5
:104E9000E40FF51F7DC00E944F3E8E219F21892B7C
:104EA00009F4A8C0E091772181E090E00F8002C072
:104EB000880F991F0A94E2F7AE2FB0E0AA0FBB1F2C
:104EC000A450BA4C2D913C91822393232E2F33274B
:104ED00027FD3095892B79F4D90164E0AA0FBB1F17
:104EE0006A95E1F7EF81F885AE0FBF1FA050BB4C6C
:104EF000F60180818C93F90154E0EE0FFF1F5A9563
:104F0000E1F74F815885E40FF51F6BC00E944A3EC0
:104F10008E219F21892B09F46DC040917721242F88
:104F2000332727FD3095F901EE0FFF1FEC50FA4CA7
:104F3000808191818E259F25808391838E219F2161
:104F4000E42FF0E044E0220F331F4A95E1F7892B6C
:104F500049F181E090E00F8002C0880F991F0A9408
:104F6000E2F7EE0FFF1FE450FA4C40815181842399
:104F70009523892B49F4EF81F885E20FF31FE05068
:104F8000FB4CD4018C918083EF81F885E20FF31FF5
:104F9000E456FB4CD3018D919C91B2010E94434396
:104FA000608328C081E090E00F8002C0880F991FC5
:104FB0000A94E2F7EE0FFF1FE450FA4C4081518152
:104FC00084239523892B49F4EF81F885E20FF31FA1
:104FD000E050FB4CD6018C918083EF81F885E20F85
:104FE000F31FE456FB4CD8018D919C91B2010E94B5
:104FF00043436083EE0CFF1CEF81F8853196EF830D
:10500000F887FEE02F0E311C4A815B81425F5F4FC3
:105010004A835B830E5F1F4F52E0650E711C6EE08A
:10502000860E911C8FEFA81AB80A9EE0C90ED11CFB
:10503000AF81B885509709F0F7CC16C0F5012081F3
:10504000240F20838091782182170CF40ACD0FCD94
:10505000643671050CF427CD2ACDF6013297808194
:10506000823009F058CD4ECD2896CDBFDEBFDF91FE
:10507000CF911F910F91FF90EF90DF90CF90BF9055
:10508000AF909F908F907F906F905F904F903F90E8
:105090002F90089587E090E280930A3690930B3624
:1050A000E0E8F6E091E0918382E0818328E02183CB
:1050B00024E02283968310929E2110929F21868362
:1050C000089581E020919E2130919F21232B09F0AA
:1050D00080E00895CF92DF92EF92FF920F931F939B
:1050E000CF93DF93C0916008D09161082091A021F7
:1050F0003091A121C090A221D090A321E090A421C1
:10510000F090A5212C173D0788F4BE01621B730B9C
:1051100080E090E06C197D098E099F0928E030E05D
:1051200040E050E00E947843C9011CC081E190E05A
:10513000821B930B97FF03C0919581959109BC0148
:105140006C0F7D1F80E090E06C197D098E099F092E
:1051500028E030E040E050E00E94784380E090E0BA
:10516000820F931F8C01222717FD2095322F0C0DE3
:105170001D1D2E1D3F1D0093A2211093A3212093DE
:10518000A4213093A521009729F005971CF481E014
:1051900080939C21C093A021D093A121B801C90183
:1051A000DF91CF911F910F91FF90EF90DF90CF9003
:1051B000089580919C21882329F02091A22130918B
:1051C000A32102C020E030E0C901089583DF80916F
:1051D00013208F5F80931320893189F481E08093BD
:1051E000132080914820882351F0E3DFBC0176959D
:1051F000679582E597E00E94F03D1092482008955F
:1052000080911320089592E090931320882321F039
:1052100081E08093A62108951092A62110929C21EE
:105220000895FF920F931F93CF93DF93CDB7DEB70F
:105230002597CDBFDEBF8B01282F81E064E0F62EDD
:1052400019C0F982F8013196D8018C918A83808146
:105250008B8381818C830D5F1F4FBE016F5F7F4FFA
:1052600080910A3690910B362D830E9476172D81FE
:10527000235080E0243028F7222339F195E09983E8
:10528000F80190819A831B821C82223029F486E0E7
:10529000898381818B8310C0233071F4882311F0BE
:1052A000298302C087E08983D80111968C911197D8
:1052B0008B8312968C918C83BE016F5F7F4F8091A0
:1052C0000A3690910B360E9476172596CDBFDEBF29
:1052D000DF91CF911F910F91FF900895EF92FF9270
:1052E0000F931F93CF93DF9300D01F92CDB7DEB7FC
:1052F00069837A838B839C83673009F491C048F477
:10530000653009F483C008F086C0643009F08CC0B1
:1053100078C06930E1F008F443C06B3009F45DC037
:105320006F3009F081C08A818A3F39F08C3F61F08B
:10533000883F09F079C04ADF77C082E0809313206C
:1053400081E08093A62170C080E05DDF6DC01A818E
:105350001F70FB80EC80123041F483E08F1528F041
:105360008FE7E81202C08F2D53DA20919D2112178A
:1053700070F0412F50E030E02C5F3F4F241735078D
:1053800034F001E02C814B8160E0812F71D817301F
:1053900009F04AC041E06E2D8F2D0E94540A44C08E
:1053A0001A811F70FB80EC80E0919D211E1768F030
:1053B000A12FB0E0F0E03496EA17FB0734F000E0EC
:1053C0002E2D4F2D60E0812F53D8173069F540E026
:1053D0006E2D8F2D0E94540A27C08A818F702091D4
:1053E0009D21821708F1482F50E030E02C5F3F4F9D
:1053F00024173507CCF001E02C814B8161E038D8CF
:1054000013C0CE0101960E9435160EC0CE01019642
:105410000E94331709C0CE0101960E94031704C0F1
:10542000CE0101960E94B1162496CDBFDEBFDF915A
:10543000CF911F910F91FF90EF90089544E050E0BD
:10544000BC0180EA9AE00CC1CF93DF9300D01F9299
:10545000CDB7DEB79BE099838F70806B8A836F77BF
:105460006B834F774C832DDE882351F0BE016F5F35
:105470007F4F80910A3690910B360E94761703C0B9
:10548000CE010196DBDF2496CDBFDEBFDF91CF9149
:105490000895CF93DF9300D01F92CDB7DEB744239A
:1054A00011F090E901C090E8392F32953F703983AF
:1054B0008F70892B8A836F776B832F772C8301DE24
:1054C000882351F0BE016F5F7F4F80910A36909123
:1054D0000B360E94761703C0CE010196AFDF2496EB
:1054E000CDBFDEBFDF91CF9108951F920F920FB60F
:1054F0000F92112408B60F9218BE09B60F9219BE6A
:105500000BB60F921BBE2F933F934F935F936F93F6
:105510007F938F939F93AF93BF93EF93FF9380EA13
:105520009AE00E94EE349091073620910636309131
:105530000936921B932320910836921799F02091F7
:105540000736932F96959223E0910436F091053615
:10555000E90FF11D8083822F8F5F90910936892397
:1055600080930736FF91EF91BF91AF919F918F91FB
:105570007F916F915F914F913F912F910F900BBE53
:105580000F9009BE0F9008BE0F900FBE0F901F9096
:1055900018951F93CF93DF93C0E0D2E011E056C07F
:1055A0009091073680910636981791F080910636D3
:1055B00020910936922F96959823E0910436F09128
:1055C0000536E90FF11DC0818F5F82238093063677
:1055D0008091A721813009F118F08230B9F529C0F6
:1055E0008C2F807F99F18C2F82958F708093A821CA
:1055F000C093A9211092AA211092AB218F3051F4AF
:105600006091A8217091A9218091AA219091AB214C
:1056100065DE1CC01093A72119C08091A821C093FA
:10562000AA21803241F0803609F405C0D093A72129
:105630000DC0C093AB216091A8217091A9218091E8
:10564000AA219091AB214ADE1092A72190910736B2
:10565000809106369813A4CFDF91CF911F910895C2
:10566000EF92FF920F931F93CF93DF937C01EB0197
:105670008A01060F171F04C06991C7010E94E63412
:10568000C017D107C9F780E090E0DF91CF911F915B
:105690000F91FF90EF9008952FB7F894FC01E05917
:1056A000FF4F60958081862380832FBF08952FB799
:1056B000F894FC01E059FF4F8081862B80832FBF37
:1056C00008951BBEFC0128ED24BF608308950F934D
:1056D0001F93CF93DF93282F30E0F901719644E0B8
:1056E000EE0FFF1F4A95E1F760910401A0910301BD
:1056F000A9014C5F5F4FC1E0D0E08E01042E01C0D4
:10570000000F0A94EAF7082E01C0CC0F0A94EAF7BA
:10571000C02BAC23B0E08D01042E02C01595079577
:105720000A94E2F700FD1DC0082E02C0B595A795AA
:105730000A94E2F7A0FD18C0C6236C2F70E0DB01CD
:1057400002C0B595A7954A95E2F7A0FD10C0AB0140
:1057500002C0559547958A95E2F7CA01817099274D
:1057600008C084E090E005C083E090E002C082E0E1
:1057700090E0418140634183F901EE0FFF1FEE5E2F
:10578000F94C0190F081E02D309729F0DF91CF9115
:105790001F910F911994DF91CF911F910F9108954F
:1057A00061E080E090E078DF9FB7F894EDE0F6E309
:1057B00080818F5F80839FBFE0E0F1E080E48083A1
:1057C00080E8808308951F920F920FB60F921124E4
:1057D00008B60F9218BE09B60F9219BE0BB60F92FB
:1057E0001BBE2F933F934F935F936F937F938F9342
:1057F0009F93AF93BF93EF93FF9380E068DFFF9198
:10580000EF91BF91AF919F918F917F916F915F9138
:105810004F913F912F910F900BBE0F9009BE0F90AB
:1058200008BE0F900FBE0F901F9018951F920F92F9
:105830000FB60F92112408B60F9218BE09B60F9238
:1058400019BE0BB60F921BBE2F933F934F935F93DE
:105850006F937F938F939F93AF93BF93EF93FF9338
:1058600081E035DFFF91EF91BF91AF919F918F91D3
:105870007F916F915F914F913F912F910F900BBE50
:105880000F9009BE0F9008BE0F900FBE0F901F9093
:1058900018951F920F920FB60F92112408B60F920F
:1058A00018BE09B60F9219BE0BB60F921BBE2F93EE
:1058B0003F934F935F936F937F938F939F93AF9398
:1058C000BF93EF93FF9382E002DFFF91EF91BF91CF
:1058D000AF919F918F917F916F915F914F913F9188
:1058E0002F910F900BBE0F9009BE0F9008BE0F9026
:1058F0000FBE0F901F9018951F920F920FB60F9228
:10590000112408B60F9218BE09B60F9219BE0BB635
:105910000F921BBE2F933F934F935F936F937F9391
:105920008F939F93AF93BF93EF93FF9383E0CFDE6B
:10593000FF91EF91BF91AF919F918F917F916F9167
:105940005F914F913F912F910F900BBE0F9009BE29
:105950000F9008BE0F900FBE0F901F901895DB019F
:10596000E82FF0E0719664E0EE0FFF1F6A95E1F713
:105970002FB7F89419968C91199784871A968C9161
:105980001A978587168617968C9117978087189691
:105990008C9118978187128612968C911297828328
:1059A00013968C911397838314968D919C911597E0
:1059B0008483958316968C911697868311968C9185
:1059C000119781838C918F7780832FBF0895809169
:1059D000CF0187FDFCCF08951F93CF93DF93C0ECD9
:1059E000D1E01A858A8761E08BEC91E06ADE1A8744
:1059F000DF91CF911F910895CF93DF93EC01E7DF03
:105A0000ECECF1E0808188608083D05F88819081B8
:105A1000977F9083DF91CF910895EF92FF920F933C
:105A20001F93CF93DF9300D01F92CDB7DEB78C01C9
:105A3000CB014B835C8369839A83C9DF8CECE82EAE
:105A4000FF24F394F7012081286020839801305FC0
:105A50004B815C81B90189819A810E94793FF7016C
:105A60008081877F80832496CDBFDEBFDF91CF9179
:105A70001F910F91FF90EF900895A9DF8091CF01C2
:105A800081FF07C086E38093CA0161E08BEC91E05F
:105A900018CE0895CF93DF931F921F92CDB7DEB734
:105AA0006A83898394DF2CEC31E0D9019C91986062
:105AB0009C938981A82FB0E0B05F6A816C93F90153
:105AC0008081877F80830F900F90DF91CF91089521
:105AD000EF92FF920F931F93CF93DF931F921F922A
