:10000000C3C3000007C4000005C4000003C400000F
:1000100001C40000FFC300000C949E2C0C94D12C52
:100020000C94042D0C94372DF5C30000F3C300008D
:10003000F1C30000EFC300000C94782E0C94B02E96
:100040000C94E82E0C94202F0C94582F0C94902F85
:100050000C94C82F0C9400300C9438300C947030F1
:10006000D9C30000D7C30000D5C30000D3C300002C
:10007000D1C30000CFC30000CDC30000CBC300003C
:10008000C9C30000C7C30000C5C30000C3C300004C
:10009000C1C30000BFC30000BDC30000BBC300005C
:1000A000B9C30000B7C30000B5C30000B3C300006C
:1000B000B1C30000AFC30000ADC300000C94D83240
:1000C0000C9410330C9448330C9480330C94B83354
:1000D0000C94F0339FC300009DC300009BC300003D
:1000E00099C3000097C300000C94302B93C3000009
:1000F00091C300008FC300008DC300008BC30000BC
:1001000089C3000087C3000085C3000083C30000CB
:1001100081C300007FC300007DC300007BC30000DB
:1001200079C3000077C3000075C3000073C30000EB
:1001300071C300000C94A8300C94E0300C9418317A
:100140000C9450310C9488310C94C0310C94F831DB
:100150000C9430320C9468320C94A0325BC30000D3
:1001600059C3000057C3000055C3000053C300002B
:1001700051C300004FC300004DC300004BC300003B
:1001800049C3000047C3000045C3000043C300004B
:1001900041C300003FC300003DC300003BC300005B
:1001A00039C3000037C3000035C3000033C300006B
:1001B00031C300002FC300002DC300002BC300007B
:1001C00029C3000027C3000025C3000023C300008B
:1001D00021C300001FC300001DC300001BC300009B
:1001E00019C3000017C3000015C3000013C30000AB
:1001F00011C300000C947A1D0DC300000763423642
:10020000B79BD8A71A39685618AEBAAB558C1D3CA7
:10021000B7CC5763BD6DEDFD753EF6177231BF006B
:100220000000803F05A84CCDB2D44EB93836A902A3
:100230000C50B9918688083CA6AAAA2ABE000000E4
:10024000803F000000FF0000FF1500FF2200FF2E8E
:1002500000FF3B00FF4400FF5000FF5D00FF6A000D
:10026000FF7700FF7F00FF8C00FF9900FFA500FFD4
:10027000B200FFBF00FFC700FFD400FFE100FFEEA8
:1002800000FFFA00FAFF00EDFF00E1FF00D4FF00DD
:10029000C7FF00BFFF00B2FF00A5FF0099FF008C61
:1002A000FF007FFF0077FF006AFF005DFF0050FF47
:1002B0000043FF003BFF002EFF0021FF0015FF0061
:1002C00008FF0000FF0000FF0C00FF1900FF2600E0
:1002D000FF3300FF3F00FF4800FF5400FF6100FFB5
:1002E0006E00FF7B00FF8300FF9000FF9D00FFAAD0
:1002F00000FFB600FFBF00FFCB00FFD800FFE50006
:10030000FFF200FFFF00F6FF00E9FF00DCFF00D076
:10031000FF00C3FF00BBFF00AEFF00A1FF0094FF82
:100320000087FF007FFF0072FF0066FF0059FF009B
:100330004CFF003FFF0037FF002AFF001DFF0010A9
:10034000FF0004FF0400FF1000FF1D00FF2A00FF54
:100350003700FF3F00FF4C00FF5900FF6600FF72AF
:1003600000FF7F00FF8700FF9400FFA100FFAE00A9
:10037000FFBA00FFC300FFD000FFDD00FFE900FF70
:10038000F600FFFF00FFFF00F2FF00E5FF00D8FFCF
:1003900000CCFF00BFFF00B6FF00A9FF009DFF00DB
:1003A00090FF0083FF007BFF006EFF0061FF0055A0
:1003B000FF0048FF003FFF0032FF0026FF00196EDC
:1003C000C86E0000000000000000000000000000F7
:1003D00000007F000000000000000000000000009E
:1003E00000007F000000000000007F00000000000F
:1003F00000007F0000007F0000007F0000007F0001
:1004000000007F00007F00007F00007F00007F0071
:1004100000007F00007F00007F007F00007F000061
:100420007F007F7F7F0000007F7F7F0000007F7F55
:100430007F7F7F007F007F007F007F007F007F0045
:100440007F007F007F007F007F7F007F007F007F35
:10045000007F7F007F7F007F7F007F007F7F007FA6
:100460007F007F7F007F7F007F7F007F7F007F7F17
:10047000007F7F7F7F7F7F7F7F7F7F7F7F7F7F7F0B
:100480007F7F01E8ACF49CFF9CF49C075CDC5CDCA7
:100490005CDC5CE802D1D1AFAFACAFAFD101FF7F84
:1004A000E868E868D15100FFFFFFFFFFFFFFFF177B
:1004B000FFDCC59CACBAE8FF278CDCDCDC9CC5D13A
:1004C0009C280C0C0CE86868AF2F02FFFFFFFFFFB1
:1004D000FFFFFF06C545AC23C545AC2301FF7FF4F4
:1004E00074FF7FE868195CDC5CC54545AF2F02FFEF
:1004F000FFFFFFFFFFFFFF27E8F4AFACE8AFD1AC91
:1005000016AF2FAC232323232315AF2FAC23AC230B
:10051000E86802FFFFFFFFFFFFFFFF01F4E8F4E8D8
:10052000FFE8FFE823AC5C5C5CAC23DC5C012F2FB4
:10053000AF2FAFBA3AAF02FFFFFFFFFFFFFFFF028F
:10054000DC5C5CDCE86868AC03AF9CAFAC9CC59C31
:10055000DC029CACAFBAC551DCE800000000000032
:10056000000000000000000000000000000000008B
:10057000000000000000000000000000000000007B
:10058000000000000000000000000000000000006B
:10059000000000000000000000000000000000005B
:1005A000000000000000000000000000000000004B
:1005B000000000000000000000000000000000003B
:1005C000000000000000000000000000000000002B
:1005D000000000000000000000000000000000001B
:1005E000000000000000000000000000000000000B
:1005F00000000000000000000000000000000000FB
:1006000000000000000000000000000000000000EA
:1006100000000000000000000000000000000000DA
:1006200000000000000000000000000000000000CA
:1006300000000000000000000000000000000000BA
:1006400000000000000000000000000000000000AA
:10065000000000000000000000000000000000009A
:10066000000000000000000000000000000000008A
:10067000000000000000000000000000000000007A
:10068000000000000000000000000000000000006A
:10069000000000000000000000000000000000005A
:1006A000000000000000000000000000000000004A
:1006B000000000000000000000000000000000003A
:1006C00000002A034D006900640069002000460014
:1006D0006900670068007400650072002000540023
:1006E00077006900730074006500720000001C034D
:1006F00044004A00200054006500630068002000A8
:1007000054006F006F006C007300000004030904C4
:1007100009026500020100C0320904000000010165
:10072000000009240100010900010109040100027F
:100730000103000007240100014100062402010119
:100740000006240202020009240301030102010041
:10075000092403020401010100090501024000050A
:100760000000052501010109058202400005000085
:100770000525010103120110010000000880250772
:10078000000100010200010011241FBECFEFDFE3D2
:10079000DEBFCDBF00E00CBF18BE19BE1ABE1BBE27
:1007A0008091780083FF1CC080915C3690915D360B
:1007B000A0915E36B0915F368A3C9C4AA244BC4D03
:1007C00079F410925C3610925D3610925E3610927B
:1007D0005F3681E08CBFE0910020F09101201995F7
:1007E00010E2A0E0B0E2ECE6F8E800E00BBF02C0E7
:1007F00007900D92A834B107D9F71BBE26E3A8E4F1
:10080000B0E201C01D92AC35B207E1F70E948A3F09
:100810000C941840F5CB8091820080FDFCCF0895A8
:100820006091800062706160880F880F8C73682B04
:1008300080E890E00E941C2CEECF609180006C7FDD
:10084000616080E890E00C941C2C609180006C73D7
:10085000636080E890E00E941C2CDDCF63E080E8BC
:1008600090E00E941C2CD7DF6BE281E890E00E94B0
:100870001C2CD1DFA895FFCF8F929F92AF92BF9291
:10088000CF92DF92EF92FF920F931F93CF93DF935C
:10089000CDB7DEB7CD54D109CDBFDEBFFB0183306C
:1008A00008F440C19081F180911161C0863008F454
:1008B00039C1FF2009F436C19281992309F432C16C
:1008C000048110E090E00497081719070CF02AC182
:1008D0004F2D50E09A0123503109C90137FF02C062
:1008E000CA010C9654E0959587955A95E1F7F82E34
:1008F000C90160E170E00E94E443682F9E012F5F10
:100900003F4F8EE0D9011D928A95E9F7D9019E01EA
:10091000215F3F4F80E88D93A217B307E1F735962B
:1009200090E00150110915C0DF01A20FB31F2C91F7
:100930002A502E3068F4892F8F5FDF01A80FB11D78
:100940008C91A1E0B0E0AC0FBD1FA20FB11D8C9344
:100950009E5F292F30E02017310734F3AE014F5F3F
:100960005F4F8F2D0E9469200E949C37DBC0913021
:1009700009F0D8C0EF2DF0E09F0123503109C901E3
:1009800060E170E00E94E44337FF03C09F01245FF1
:100990003F4F44E0359527954A95E1F7AE01405C1D
:1009A0005F4F682F822F0E94A11F8AE08CA321969F
:1009B0008FAD21978DA38BE08EA322968FAD2297CA
:1009C0008FA38CE088A723968FAD239789A78DE00E
:1009D0008AA724968FAD24978BA78EE08CA72596A7
:1009E0008FAD25978DA78FE08EA71FA680E188ABDE
:1009F00027968FAD279789AB81E18AAB28968FAD7B
:100A000028978BAB82E18CAB29968FAD29978DAB64
:100A100083E18EAB2A968FAD2A978FAB84E188AFA6
:100A20002B968FAD2B9789AF85E18AAF2C968FAD32
:100A30002C978BAF86E18CAF2D968FAD2D978DAF18
:100A400087E18EAF2E968FAD2E978FAF8F2D83506F
:100A5000803410F40CE101C000E0802F68E10E94B6
:100A6000B743E82EE394C12CDD24D39480EFB82E55
:100A7000AA24A39499E7992E24E0822E17EF802FC1
:100A8000093108F088E10851B9821A82AB829C8250
:100A90008D821E82FF82D886E9868A871B871C8703
:100AA0001D871E871F87188B198B1A8B1B8B1C8B1E
:100AB0001D8B1E8B1F8B188F198F1A8F1B8F1C8FEE
:100AC0001D8F1E8F1F8F18A319A31AA31BA39AE0B3
:100AD000282F30E0275F3F4F10C0A1E0B0E0AC0FFF
:100AE000BD1FA40FB51FE4E2F0E0EC0FFD1FEC0DFD
:100AF000F11D60816C93C3949F5F492F50E02417D0
:100B000035075CF7BE016F5F7F4F855F0E94CC2980
:100B100080910F36909110360E94BC17D394ED143B
:100B200008F0ADCFC35BDF4FCDBFDEBFDF91CF910C
:100B30001F910F91FF90EF90DF90CF90BF90AF90FB
:100B40009F908F900895A0E050E04150510911C04E
:100B5000FB01E20FF31F20812A3050F43A2F3F5F50
:100B6000FB01E30FF11D3081FC01E20FF11D308329
:100B7000AE5F2A2F30E02417350754F30895CF9342
:100B8000DF93CDB7DEB76B97CDBFDEBFF8940E9481
:100B9000311EFC01789480EF89831A8281E08B8377
:100BA00099E79C8322E02D838E831F829091A2215E
:100BB0009F5F9887898784858A872B8780818C8728
:100BC00083E08D8782818E8784E08F878481888B04
:100BD00085E0898B86818A8B86E08B8B80858C8BE8
:100BE00087E08D8B82858E8B88E08F8B8091CF31D3
:100BF000888F89E0898F8091C9318A8F87EF8B8FA9
:100C0000BE016F5F7F4F8BE10E94CC296B96CDBFF9
:100C1000DEBFDF91CF910895882329F0FB01808109
:100C2000811101C0ACCF0895CF93DF93CDB7DEB76C
:100C30002D97CDBFDEBFF89481E090E00E94B72DE4
:100C400083E090E00E94B72D91E0811101C090E017
:100C50009D8784E090E00E94B72D89831A8285E009
:100C600090E00E94B72D8B831C8286E090E00E946A
:100C7000B72D8D831E8287E090E00E94B72D8F8371
:100C8000188688E090E00E94B72D89871A8689E04F
:100C900090E00E94B72D8B871C868AE090E00E942E
:100CA000B72D8093CF318BE090E00E94B72D8093D9
:100CB000C931CE0101960E94081E78942D96CDBFB1
:100CC000DEBFDF91CF910895CF93DF93CDB7DEB72D
:100CD0002D97CDBFDEBF6C877D878B87AEDDFE0194
:100CE00031969AE0DF011D929A95E9F78B85482F9E
:100CF0006C857D85CF0127DF6981615081E090E0BF
:100D00000E94232E6A8183E090E00E94232E6B8153
:100D100084E090E00E94232E6C8185E090E00E94A8
:100D2000232E6D8186E090E00E94232E6E8187E065
:100D300090E00E94232E6F8188E090E00E94232E95
:100D4000688589E090E00E94232E69858AE090E022
:100D50000E94232E6A858BE090E00E94232E0E9441
:100D6000943760E07FEF80E090E00E94423B5CDFE0
:100D70000E94F61F04DF0E9491252D96CDBFDEBF95
:100D8000DF91CF910895F89463E080E090E00E94B5
:100D9000232E60E081E090E00E94232E61E083E05A
:100DA00090E00E94232E66E084E090E00E94232ED3
:100DB00060E085E090E00E94232E67E086E090E00E
:100DC0000E94232E66E087E090E00E94232E60E0E0
:100DD00088E090E00E94232E67E089E090E00E9486
:100DE000232E6FE38AE090E00E94232E6FE78BE0D2
:100DF00090E00E94232E78940C942A2164E676E0F9
:100E000081E00E943E166CE076E082E00E943E1691
:100E10006AE177E083E00E943E166CE374E084E0D0
:100E20000E943E1680E090E00E94B72D833009F0CA
:100E3000AACF0895882361F1FB018081813019F0E8
:100E4000823031F50DC0F9DC0E94081DFFEF2FE460
:100E500083ECF15020408040E1F700C0000019C051
:100E6000ECDC91DF6FEF7FEF80E090E00E94423B8F
:100E70000E94081D9FEFEFE4F3EC9150E040F0403A
:100E8000E1F700C0000081E090E0CADCDEDCFFCFCB
:100E900008950E94081DF89480E02FEF3FE891E04C
:100EA000215030409040E1F700C000008F5F803853
:100EB000A1F78AEC9CEAA2E4BCED80935C369093A7
:100EC0005D36A0935E36B0935F36C8CC81E008955E
:100ED0003F924F925F926F927F928F929F92AF92CA
:100EE000BF92CF92DF92EF92FF920F931F93CF9317
:100EF000DF938091DC31882309F497C10E94942903
:100F000026E0289FE001299FD00D1124D7FF03C0C0
:100F1000D195C195D10910914920BE0180E090E0A2
:100F200010FF12C00E945D412AE037ED43E25EE30C
:100F30000E94044320E030E0A9010E9404430E9483
:100F400031416C0F7D1F13C00E945D412AE037EDD7
:100F500043E25EE30E94044320E030E0A9010E94E6
:100F600004430E943141CE01861B970BBC011F3008
:100F700021F088E697E00E948D3E4091492061E093
:100F800081E00E94DF2A809104326AE10E94B74327
:100F9000E4E0F0E0E81BF109EA5CFF4D80914920B4
:100FA00060810E94B74325E0C22E22E3D22E0FE9D2
:100FB00011E3CAECD1E3512CE12CF12CA92EB12C78
:100FC0003CE0732E4FE7842E912C5AE0652EF601FB
:100FD00081916F01982F975F933120F1181614F5C6
:100FE000662D0E94C343843008F083E0E82FF0E0D0
:100FF000E55CFF4D8091492060810E94B7439111CB
:101000003EC0F80140806881650D20E040E087E047
:101010000E94042B6881650D242D41E087E00E9429
:10102000042B2DC0F701E95EF14D80817E9CF0011B
:101030007F9CF00D1124E80FF11D84E0EE0FFF1FDF
:101040008A95E1F7EA0DFB1DE957F14D40804420F8
:10105000B1F0F80130806881650D20E040E087E064
:101060000E94042B439CC0011124B4010E94E4435C
:10107000262F6881650D41E087E00E94042BFFEF79
:10108000EF1AFF0A085F1F4F219680E1580E90E487
:1010900059129DCF80910F36909110360E94BC1747
:1010A000EAE9F1E390E08081811191E0389681E3F3
:1010B000EA3BF807C1F78091DE31992309F47AC041
:1010C000883008F070C0E0910332F0E0E352FE4C4B
:1010D000848587FF06C04FE762E487E00E94DF2A2D
:1010E00005C040E062E487E00E94DF2AE09103321D
:1010F000F0E0E352FE4C858987FF06C04FE763E4CA
:1011000087E00E94DF2A05C040E063E487E00E9498
:10111000DF2AE0910332F0E0E352FE4C868D87FF38
:1011200006C04FE764E487E00E94DF2A05C040E084
:1011300064E487E00E94DF2A9091DD31E091033280
:10114000F0E0E352FE4C83818F77989FC001112419
:101150006FE770E00E94E443462F61E487E00E945D
:10116000DF2AE0910332F0E0E352FE4C44854F77F2
:1011700065E487E00E94DF2AE0910332F0E0E35269
:10118000FE4C45894F7766E487E00E94DF2AE091B4
:101190000332F0E0E352FE4C468D4F7767E487E080
:1011A0000E94DF2A18C04091DD3161E487E00E948F
:1011B000DF2A11C0883078F440E062E487E00E94C2
:1011C000DF2A40E063E487E00E94DF2A40E064E435
:1011D00087E00E94DF2A80910F36909110360E949E
:1011E000BC17809149208F5F803119F0809349208E
:1011F00005C01092492081E080934820E091DF31C2
:10120000F0E0EE5CFF4D8091492060810E94B74381
:10121000911105C0809103328F5F809303328091DA
:101220000332883011F410920332DF91CF911F9175
:101230000F91FF90EF90DF90CF90BF90AF909F9075
:101240008F907F906F905F904F903F9008955F9246
:101250006F927F928F929F92AF92BF92CF92DF92C6
:10126000EF92FF920F931F93CF93DF93CDB7DEB72B
:10127000A497CDBFDEBFAAECEA2EA1E3FA2E07E1C8
:101280001EE2A0EAB1E320E030E08FE3682E9FE7A2
:10129000792EF70111927F0160E070E040E050E0AC
:1012A000F7E8CF2EFEE2DF2EC20ED31E15C0FC01E2
:1012B000EA0DFB1DEE53FC4F5490F401E80FF91FAB
:1012C000508201968031910591F74F5F5F4F605FCB
:1012D0007F4F4C30510561F080E090E05A01E4E02E
:1012E000AA0CBB1CEA95E1F74601860E971EDFCFDC
:1012F000F80111928F01FD01329710826C92FD016D
:1013000033971082FD0131977082189620543F4F19
:101310002115F3E03F0709F0BCCF1092DC311092A9
:10132000DB318FE78093DD311092DE3160E0CE015A
:101330000196C1D484E2FE013196AFEDB1E3019094
:101340000D928A95E1F780E2E3E6FEE2DF011D926D
:101350008A95E9F780E1E9EBF1E3DF011D928A95D7
:10136000E9F71092832E1092842E1092852E1092FF
:10137000862E0ED5E3E6FEE229EB31E385EC91E320
:1013800061ECC62E61E3D62E14E06CE978E1AFE3A0
:10139000FA2E4CE951E30FE710821182D9011D9218
:1013A0009D01608F718FDC01FD92CD01408B518BCF
:1013B000D6010D936D01115032961111EDCF8FE7CB
:1013C0008093043281E090E080938731909388315C
:1013D0008AE58093CE31E2D21092172EA496CDBF2B
:1013E000DEBFDF91CF911F910F91FF90EF90DF90C3
:1013F000CF90BF90AF909F908F907F906F905F90B5
:1014000008958091DC31811110C00E949429892BAC
:1014100039F08091A121882319F081E08093DC319B
:1014200081E0809348200C94BB291092DC3110920B
:101430004920089510924920089590E0FC01E95E4A
:10144000F14D20813CE0389FF001399FF00D1124CF
:10145000E20FF11D24E0EE0FFF1F2A95E1F7E60FE2
:10146000F11DE957F14D8081089590E0FC01E95E9E
:10147000F14D20813CE0389FF001399FF00D11249F
:10148000E20FF11D34E0EE0FFF1F3A95E1F7E60F92
:10149000F11DE957F14D4083089580918731909176
:1014A00088310895E82FF0E0E653FE4C60830895FC
:1014B000E82FF0E0E653FE4C808108952FE741E0ED
:1014C0006FE787E00E94042B20E040E06FE787E0B1
:1014D0000C94042B982F94569430C0F498E0899F74
:1014E000F0011124E758F14D81E0611101C080E065
:1014F00084838091873190918831019709F084C06D
:101500000E94FE1D049709F07FC099C0982F98563D
:10151000943098F498E0899FF0011124E75AF14D36
:1015200081E0611101C080E08583809187319091D5
:101530008831019709F068C0E3CF982F9C5690310D
:10154000C0F590E08C5691099C0123703327959546
:1015500087959595879553E0220F331F5A95E1F7AC
:10156000F901E756FE4C82309105B9F083309105C0
:10157000D1F0019731F081E0611101C080E08083FA
:10158000089581E0611101C080E0818380918731FD
:10159000909188310197C1F5B3CF81E0611101C00D
:1015A00080E08283089581E0611101C080E083833F
:1015B00008958F3759F480910220882329F184E01F
:1015C00090E00E94031E1092022078CF8236E1F450
:1015D0006623B1F08091DC31811116C00E949429FC
:1015E000892B19F081E08093DC3181E080934820E1
:1015F0000E94BB298C3040F484E0809349200895F8
:101600001092DC31109249200895843058F0982FC0
:101610009450943050F09450943050F08C5084306A
:1016200050F0089520E030E008C021E030E005C02F
:1016300022E030E002C023E030E0C90108953F928B
:101640004F925F926F927F928F929F92AF92BF92D2
:10165000CF92DF92EF92FF920F931F93CF93DF937E
:1016600000D0CDB7DEB720EAC22E21E3D22E83E62A
:101670009EE28A839B833FE9E32E31E3F32E47E129
:10168000642E4EE2742E58E0552E6CE0462EA12CAE
:10169000B12C10E099E9892E91E3992E8A0C9B1CBC
:1016A000F40181818823C1F068E7812F0E94DA3933
:1016B00000E021E030E040E06091DD31812F0E94C8
:1016C0002E398091DD31F4E68F9FC0011124EA812B
:1016D000FB81808391832AC060E0812F0E94DA39E8
:1016E000812FE6DE682F70E080E090E00E945F418D
:1016F00023E333E34BE451E40E94044320E030E071
:1017000040E85FE30E942B400E943141362E00E00A
:1017100020E030E040E0812F0E942E39F4E63F9E29
:10172000B0011124EA81FB816083718384E0382E4B
:10173000310E60E0832D0E94DA39F30121913F01DF
:10174000220F922F990F990F920F995F00E020E0DE
:1017500030E040E0692F832D99830E942E399981D2
:10176000F4E69F9FB0011124EA81FB8160877187B5
:10177000F4018481811105C061E0852D0E94DA3970
:1017800004C060E0852D0E94DA3900E021E030E0FD
:1017900040E0F7016081852D0E942E39F70180819C
:1017A000F4E68F9FC0011124EA81FB81808B918B2D
:1017B000F4018581882329F06FE0842D0E94DA39B5
:1017C00004C060E0842D0E94DA390EE721E030E0A9
:1017D00041E0F6016081842D0E942E39F60180815E
:1017E000F4E68F9FC0011124EA81FB81808F918FE5
:1017F0001F5FF8E0AF0EB11C28E0C20ED11C43946D
:101800008A819B8102968A839B8398E0E90EF11C72
:101810005394143009F03ECF2396CDBFDEBFDF9145
:10182000CF911F910F91FF90EF90DF90CF90BF90DD
:10183000AF909F908F907F906F905F904F903F9070
:101840000895AF92BF92CF92DF92EF92FF920F93E3
:101850001F93CF93DF93C4D25C01E3E6EE2EEEE25A
:10186000FE2E10E0C1E0D0E0FCE9CF2EF1E3DF2E48
:101870009E012A213B21232B29F06EE3812F0E9418
:10188000DA3904C060E0812F0E94DA3900E021E0FB
:1018900030E040E060E0812F0E942E39F701C192D4
:1018A000D1927F01CC0FDD1F1F5F103109F7DF914F
:1018B000CF911F910F91FF90EF90DF90CF90BF904D
:1018C000AF900895FF920F931F93CF93DF93C3E6DA
:1018D000DEE210E0612F8091DB31AFDDF82E88234E
:1018E00029F06AE0812F0E94DA3904C060E0812F7C
:1018F0000E94DA3900E021E030E040E06F2D812FD6
:101900000E942E3984E6F89E900111242993399380
:101910001F5F1031F9F6DF91CF911F910F91FF906A
:1019200008950F931F93CF93DF93C3E6DEE210E099
:101930002091DD3184E6289F90011124288339838A
:101940008091DE3181130EC068E7812F0E94DA3961
:1019500000E021E030E040E06091DD31812F0E9425
:101960002E390CC060E0812F0E94DA3900E021E0BE
:1019700030E040E060E0812F0E942E392091DD317F
:1019800084E6289F90011124299339931F5F103119
:1019900079F6DF91CF911F910F9108958091873152
:1019A000909188318230910559F018F4019759F4DB
:1019B00006C08330910529F0049729F403C03FCE77
:1019C00040CF80CFAECF0895FF920F931F93CF9358
:1019D000DF93182FC82FD0E0FE01E754FE4CF080B3
:1019E00014DE892B51F5FE0103E0EE0FFF1F0A956F
:1019F000E1F7E756FE4C81818823F9F08091DD31D3
:101A000024E6829FC0011124EAE9F1E3A3E6BEE2E5
:101A10002081222319F08D939C931197389612966A
:101A200021E3EA3BF207A1F700E021E030E040E0EB
:101A30006091DD31812F0E942E39812FE6DD0197E3
:101A4000A1F4FE01EF5FFD4C8081882371F06AE014
:101A50000E94C343E82FF0E0EE0FFF1FE15CFF4D53
:101A600060817181812F0E94C039FE01E55BFF4DCD
:101A70008081F81609F441C0812FC7DD81309105BE
:101A8000D9F030F08230910519F1039791F529C012
:101A9000FE01A3E0EE0FFF1FAA95E1F7E756FE4C0B
:101AA0008181811126C000E020E030E040E06F2D10
:101AB000812F0E942E391DC0FE01E754FE4C00E02C
:101AC00020E030E040E06081812F0E942E3911C07B
:101AD00000E021E030E040E06F2D812F0E942E39A0
:101AE00008C00EE721E030E041E06F2D812F0E9419
:101AF0002E39FE01E55BFF4DF082FE01E757FE4CFB
:101B0000F08080918731909188310197F1F4143001
:101B1000E0F0812F84508430C0F4609149208DDC46
:101B2000882379F080914920811105C06DE3812FD0
:101B30000E94DA390AC06091CE31812F0E94DA39D1
:101B400004C060E0812F0E94DA39C55ADF4DF88267
:101B5000DF91CF911F910F91FF900895CF93C82FE0
:101B600080914920C8130DC06091CE318C2F0E9406
:101B7000DA39CC2311F0C15004C0CFE002C060E0DC
:101B800007C06C2F8091DB3158DC8823C1F36AE0F9
:101B90008C2FCF910C94DA393091492090916B20A1
:101BA0003917C1F1A0910320A031A0F5A81332C0CC
:101BB000809104326AE10E94B743E4E0F0E0E81B60
:101BC000F109EA5CFF4D2081832F622F0E94B74309
:101BD0009C30E0F4622F70E06150710920E030E841
:101BE00002C0369527956A95E2F740E050E86FEF1E
:101BF0007FEF04C076956795579547959A95D2F7EC
:101C0000242B352BB9018A2F0E94C039809149209D
:101C100080936B2008950F93CF93DF93C82FD091BB
:101C2000DE31D8130EC068E78D2F0E94DA3900E04C
:101C300021E030E040E06091DD318D2F0E942E39AF
:101C40000BC060E00E94DA3900E021E030E040E0C3
:101C500060E08C2F0E942E39DF91CF910F91089573
:101C600080918731909188318230910571F018F41C
:101C70000197B1F406C08330910559F0049781F4BF
:101C80000CC080914A20A0DE0BC080914A2084DFE6
:101C900007C080914A2062DF03C080914A20BBDFE9
:101CA00080914A208F5F803118F480934A200895F4
:101CB00010924A2008958F929F92AF92BF92CF9236
:101CC000DF92EF92FF920F931F93CF93DF93CDB7E5
:101CD000DEB7A497CDBFDEBF24E2629FB00111241E
:101CE000FB01E557FB4F9490FB01EC56FB4FA49092
:101CF000FB01E356FB4FB4906E01E2E0CE0ED11C27
:101D00007E01FBE0EF0EF11C8E010C5E1F4FDE0129
:101D10005D9620E030E0A901460F571FFA01ED570C
:101D2000FB4F8490F60181926F01FA01E457FB4F5B
:101D30008490F70181927F01FA01EB56FB4F84906A
:101D4000F80181928F01FA01E256FB4F44914D93C5
:101D50002F5F3F4F28303105F1F69A86AB8ABC8E53
:101D600024E2FE013196DC0101900D922A95E1F703
:101D7000A496CDBFDEBFDF91CF911F910F91FF9051
:101D8000EF90DF90CF90BF90AF909F908F9008958D
:101D90000F931F93CF93DF9310926F2010927020B8
:101DA00001E010E0CEE0D4E0CE010E94B72D853AEC
:101DB00051F480916F2090917020802B912B809313
:101DC0006F2090937020000F111FC05CDF4FCE304A
:101DD00088E0D80749F7DF91CF911F910F910895BF
:101DE00080916F20909170200895CF93C82FF89420
:101DF00020E4829FC00111246FEF825F9B4F0E94FD
:101E0000232E789421E030E002C0220F331FCA95C0
:101E1000E2F72095309580916F2090917020822379
:101E2000932380936F2090937020CF9108958F9289
:101E30009F92AF92BF92CF92DF92EF92FF920F9359
:101E40001F93CF93DF93CDB7DEB7A097CDBFDEBF93
:101E5000D82EFE01319680E2DF011D928A95E9F7C6
:101E6000CD2CCC0C9FE1992E9C0CA12C8F0121C074
:101E70006B2D8A2DE2DA882E6B2D6F5F8A2DDDDACD
:101E80008695869586958F70282D2695269526957C
:101E90002295207F822BF70181937F01B394B39425
:101EA000F0E1BF12E5CF085F1F4FA39424E0A21614
:101EB00019F07801B12CDCCFCE0101960E94512E91
:101EC000892D0E94612EF12C8E010F5F1F4F8F2DE7
:101ED000EFDAD8018D938D01F394B4E0FB12F7CFC4
:101EE000E0EAF1E3BE016A5F7F4FCB0101979F01FA
:101EF00022503109D9012C91B0E82B9F9001112477
:101F00003081322BDC013C93CF010397DC018C91B3
:101F1000B0E88B9FC00111249F0121503109D901E4
:101F20009C91982BDB019C9338966E5F7F4FB1E3B9
:101F3000E03CFB07D1F6EAE9F1E381E020E09081A3
:101F4000992311F0982F01C090E0292B880F389623
:101F500031E3EA3BF30799F78091DE3140E1849F5A
:101F6000C0011124822B8D878091DD318E8785EA17
:101F70008F87CE0101960E94512E8C2D805E0E948B
:101F8000612E21E030E002C0220F331FDA94E2F725
:101F900080916F2090917020822B932B80936F20E3
:101FA00090937020A096CDBFDEBFDF91CF911F919F
:101FB0000F91FF90EF90DF90CF90BF90AF909F90E8
:101FC0008F900895BF92CF92DF92EF92FF920F937E
:101FD0001F93CF93DF93882309F441C080916C2035
:101FE000882379F081E090E00E94031EDF91CF9179
:101FF0001F910F91FF90EF90DF90CF90BF900C94C6
:10200000912581E080936C200BE11EE247E1C42E14
:102010004EE2D42E5CE1E52E5EE2F52EB12C8B2D46
:1020200047DAF8018083F60181916F01F70180831F
:10203000C0E0D0E06C2F8B2D00DAF801EC0FFD1F13
:1020400082832196C031D105A9F7B3940E5E1F4F4C
:10205000F2E1EF0EF11C84E0B812E1CF36C010922D
:102060006C200BE11EE22CE1E22E2EE2F22E37E193
:10207000C32E3EE2D32EB12CF80160818B2D12DAF3
:10208000F7018081F60181936F01C0E0D0E0F80193
:10209000EC0FFD1F42816C2F8B2DE7D92196C031AB
:1020A000D105A9F7B3940E5E1F4FF2E1EF0EF11CBC
:1020B00084E0B812E1CFDF91CF911F910F91FF9093
:1020C000EF90DF90CF90BF90BACADF91CF911F9170
:1020D0000F91FF90EF90DF90CF90BF900895BF9247
:1020E000CF92DF92EF92FF920F931F93CF93DF93E4
:1020F0000E94F13EB82EC0E0D1E0CC24C394D12C94
:1021000072E0E72EF12C04E010E0909171208B2D0D
:1021100089278D2309F467C09D2381E009F080E0C1
:10212000C33099F128F4C13099F0C23031F41DC0A8
:10213000C43099F1C53009F441C0882309F453C073
:1021400080916C20882311F0B9D94DC073D94BC050
:1021500020918731309188312130310529F12530A6
:10216000310521F581113FC00AC02091873130919E
:1021700088312430310509F428C08823A1F1D1DB4E
:1021800000938731109388312EC0882361F18091AC
:102190006C20811128C035D926C02091873130911B
:1021A00088312130310511F40DDF1DC081111BC0B4
:1021B00046DAC0928731D092883115C0209187319C
:1021C000309188312230310549F4882321F081E0B3
:1021D00080936C2008C010926C2005C032DBE09226
:1021E0008731F0928831DD0FCF5FC63009F08DCF97
:1021F000B0927120DF91CF911F910F91FF90EF90DE
:10220000DF90CF90BF9008950F931F93CF93DF93EC
:1022100080910F3690911036AFD6C0EAD1E314E624
:102220000FE7FE0133974081409F202D1124612F3D
:1022300087E00E94042BFE0132974081409F202DB1
:102240001124612F6C5F87E00E94042BFE013697FA
:102250004081409F202D1124612F645F87E00E9400
:10226000042B612F6855488187E00E94DF2A1F5F99
:1022700028961836B1F66091E83170E080E090E081
:102280000E945F4121EE3AE744E450E40E94044397
:102290000E943141462F68E487E00E94DF2A609166
:1022A000F13170E080E090E00E945F4121EE3AE77A
:1022B00044E450E40E9404430E943141462F69E403
:1022C00087E00E94DF2A6091FA3170E080E090E0C0
:1022D0000E945F4121EE3AE744E450E40E94044347
:1022E0000E943141462F6AE487E0DF91CF911F9130
:1022F0000F910C94DF2A7F928F929F92AF92BF92A0
:10230000CF92DF92EF92FF920F931F93CF93DF93C1
:10231000CDB7DEB7A497CDBFDEBF20E4829FC0015A
:1023200011247C01E0E2EE1AECEFFE0AE7E1CE2E8A
:10233000EEE2DE2E8701912CF60111926F01C801A9
:10234000812C5C01FFEFAF1ABF0A0E94B72D782ED7
:10235000482F42954F70440F440F440F682D892D2C
:1023600084D8472D4F70440F440F440F682D6F5F82
:10237000892D7BD883948394C50120E18212E1CF1B
:10238000085F1F4F939484E09812D6CFC7018096C0
:10239000D12C8C010F5F1F4F0E94B72D682F8D2D00
:1023A00081D8D394C801E4E0DE12F3CF6701F4E2F0
:1023B000CF0ED11C00EA11E3C6010E94B72DF8012F
:1023C0003297881F8827881F808356012FEFA21A13
:1023D000B20AC6010E94B72D8F77F8018083C5012C
:1023E0000E94B72DF8013397881F8827881F8083A4
:1023F000F2E0CF0ED11CC5010E94B72DF801319734
:102400008F778083085F1F4F21E3003C1207A1F6FE
:102410008701035D1F4FC7018C960E94B72DEAE923
:10242000F1E391E0392F382321E009F420E0208303
:10243000990F389621E3EA3BF207A1F7682F6295DE
:102440006F706093DE31CE01019635DC84E2FE01CF
:102450003196AFEDB1E301900D928A95E1F7C80195
:102460000E94B72D8093DD31A496CDBFDEBFDF91F2
:10247000CF911F910F91FF90EF90DF90CF90BF9081
:10248000AF909F908F907F90BFCEEF92FF920F936F
:102490001F93CF93DF93CDB7DEB7A597CDBFDEBF38
:1024A000182F80918731909188318230910509F4FD
:1024B00081C020F4019709F07BC108C083309105E9
:1024C00009F4C5C0049709F073C1F2C0812F6DA350
:1024D0009CD86DA181309105F9F038F082309105DA
:1024E000D9F1039709F064C157C0662309F460C1AC
:1024F00028E0129FF0011124E756FE4C418181E053
:10250000482741832FE7429F202D1124612F6059D6
:1025100087E00E94042B36C061114AC1E12FF0E030
:10252000EE0FFF1FEF5FFD4C80819181883B9B4048
:1025300048F514501093DB3183E090E080938731AD
:1025400090938831A596CDBFDEBFDF91CF911F91CB
:102550000F91FF90EF90B6C9662309F429C188E076
:10256000189FF0011124E75AFE4C448181E048276E
:1025700044832FE7429F202D1124612F645A87E066
:102580000E94042BA596CDBFDEBFDF91CF911F9196
:102590000F91FF90EF9053C8662309F409C128E01A
:1025A000129FF0011124E75CFE4C458181E0482731
:1025B0004583DFCF662309F4FBC080916C2088231C
:1025C00051F0812F12DC80910320811336C081E10C
:1025D0008093032032C0E12EF12C81E090E0012EA7
:1025E00002C0880F991F0A94E2F720916F20309162
:1025F000702082239323EE0CFF1C892B81F0812F06
:102600007ADE10930320F701ED59F14D808191811D
:1026100064E670E00E94D043609304320EC0812FC4
:1026200006DC10930320F701ED59F14D8CE991E39D
:10263000808391838FE780930432A596CDBFDEBF60
:10264000DF91CF911F910F91FF90EF90FAC8662311
:1026500009F4AEC0612F8091DB310E941D0A00E0B9
:1026600021E030E040E0811110C06FE7812F0E942F
:102670002E39E12FF0E0EE0FFF1FED59F14D8CE9FF
:1026800091E3808391834FE705C060E0812F0E9432
:102690002E3940E0612F8091DB31A596CDBFDEBFA2
:1026A000DF91CF911F910F91FF90EF900C94350A1D
:1026B00080916C20662309F469C0811179C0612F73
:1026C000CE010196F8DA84E2FE013196AFEDB1E376
:1026D00001900D928A95E1F71830E8F56091E831A4
:1026E00070E080E090E00E945F4121EE3AE744E430
:1026F00050E40E9404430E943141462F68E487E081
:102700000E94DF2A6091F13170E080E090E00E9449
:102710005F4121EE3AE744E450E40E9404430E9402
:102720003141462F69E487E00E94DF2A6091FA3147
:1027300070E080E090E00E945F4121EE3AE744E4DF
:1027400050E40E9404430E943141462F6AE487E02E
:102750000E94DF2A0FC040E062E487E00E94DF2A87
:1027600040E063E487E00E94DF2A40E064E487E021
:102770000E94DF2A1093DE31A596CDBFDEBFDF9128
:10278000CF911F910F91FF90EF90CBC8811110C096
:10279000612F6F5B20E040E087E0A596CDBFDEBFF4
:1027A000DF91CF911F910F91FF90EF900C94042B2C
:1027B000A596CDBFDEBFDF91CF911F910F91FF9006
:1027C000EF9008952F923F924F925F926F927F9277
:1027D0008F929F92AF92BF92CF92DF92EF92FF9231
:1027E0000F931F93CF93DF93CDB7DEB72997CDBF5C
:1027F000DEBF0E94B73E8E839F8391E0892E92E3D5
:10280000992E21E0A22E22E3B22E39EBE32E31E302
:10281000F32E23E13EE22C833D834AE9242E41E35B
:10282000342E83E69EE28887998753E8C52E5EE2C0
:10283000D52EE7E7FEE2EA83FB83412C662463940E
:10284000712C842D0E94B03E8983082F112707FD2B
:1028500010950115110509F442C1842D8C50843066
:1028600038F58091873190918831019709F5E88595
:10287000F985808191810E9481248823C9F0EA81B1
:10288000FB8180812981820F80838B303CF020E0A6
:1028900039E1E885F985208331835AC0863F0CF001
:1028A00057C028E338E1E885F9852083318350C09B
:1028B000E885F985808191810E948A248823A1F18D
:1028C000E885F985808191818436910520F4101680
:1028D00011063CF00BC08933F1E39F0738F017FF76
:1028E00005C0F60120813981230F2083F601208164
:1028F000243064F08436910558F524E630E0E8850C
:10290000F98520833183F601108222C02D3F04F522
:1029100089339143E8F028E331E3E885F9852083A2
:102920003183F601108214C0F2EBF09FC001F19FD9
:10293000900D1124E885F98520813181820F931F44
:10294000808391830E947224E885F9858083918336
:10295000E885F985808191810E946424582E0E9427
:102960004D0A019709F093C0842D0E94050B813018
:10297000910569F140F08230910509F479C003971F
:1029800009F0ADC078C0F1018081882329F0509210
:10299000DD31842D19D811C0652D70E080E090E004
:1029A0000E945F4123E333E34BE451E40E949340F0
:1029B0000E943141842D0E94520AFEE7F51520F055
:1029C0005394F70150828BC0F701508288C0F40104
:1029D00080819181892BD1F0FEE4F09F9001F19FDD
:1029E000300D301B1124E885F98580819181820F9B
:1029F000931F80839183F50180812981820F8083D9
:102A000088320CF46CC037E2308369C08AE08515E7
:102A100030F0F7011082EC81FD81108260C0652DDD
:102A200070E080E090E00E945F4120E030E048E309
:102A300051E40E9493400E943141EC81FD8160830A
:102A4000652D70E080E090E00E945D4120E030E084
:102A500040E351E40E942A4028E632E24CE85FE37A
:102A60000E9404430E9431416F5FF701608337C0C9
:102A7000F101FB9703C0F101EA55F1095082F7011A
:102A80005082452D642D87E00E94DF2A28C0809166
:102A90008731909188318330910579F4452D642DEB
:102AA0008091DB310E94350A00E021E030E040E017
:102AB000652D842D0E942E3912C08230910539F483
:102AC0008091032048120BC05092043208C0049732
:102AD00031F48091DE31841102C05092DD310E81DB
:102AE0001F810621172180916D2090916E208621F3
:102AF00097210115110531F0892B49F461E0842DEE
:102B0000C4DC05C0892B19F060E0842DBEDC842D67
:102B10008450843068F4F401012B31F0808191817C
:102B200001968083918304C010821182F501108286
:102B3000660C771C4394F2E08F0E911C2FEFA21AC3
:102B4000B20A3FEFE31AF30A8C819D8101968C83D0
:102B50009D8398E0290E311CE885F9853296E88737
:102B6000F987FFEFCF1ADF0A2A813B812F5F3F4FA2
:102B70002A833B8330E1431264CE8E819F81809310
:102B80006D2090936E202996CDBFDEBFDF91CF914F
:102B90001F910F91FF90EF90DF90CF90BF90AF907B
:102BA0009F908F907F906F905F904F903F902F906D
:102BB0000895CF93DF93CDB7DEB76397CDBFDEBF68
:102BC0008B8B80918520909186208430910569F5CA
:102BD0008B89882351F180911132898389818823DF
:102BE00009F445C08981893008F041C08981882F66
:102BF00090E00197880F991F8B589F4DFC018081B1
:102C000091810097A1F18981882F90E00197880F29
:102C1000991F8B589F4DFC01208131818B898150F8
:102C200062E172E3F901199522C0809185209091AB
:102C3000862083309105E1F48B898230C8F0809141
:102C400011328630A9F480911232813089F481E109
:102C5000E1E2F0E2DE01129601900D928A95E1F731
:102C6000CE010296BC0181E10E94CC2901C0000086
:102C70006396CDBFDEBFDF91CF910895982F91501D
:102C8000983040F4E82FF0E0EE0FFF1FED58FF4DB5
:102C9000608371830895FC018091742081112CC0A0
:102CA00081E08093742081E192E38093722090937D
:102CB00073208181803F09F063C082818E3779F46F
:102CC000838190910620891719F08F3709F058C039
:102CD00083E090E080938520909386200895811171
:102CE0004FC08381813009F04BC081E090E0809338
:102CF000852090938620089580918520909186204C
:102D00008130910501F581818937D1F5A09172203B
:102D1000B0917320CD0102962091042030910520BE
:102D20008217930768F524E030E0209385203093E4
:102D3000862022812C93238111962C9380937220DC
:102D4000909373200895029709F1A0917220B09199
:102D50007320CD0103962091042030910520821725
:102D6000930770F421812C93228111962C93119753
:102D7000238112962C938093722090937320089550
:102D800082E090E080938520909386200895FC0156
:102D90001092742080918520909186208130910539
:102DA00021F58181893709F03FC0A0917220B0914F
:102DB0007320CD01029620910420309105208217C6
:102DC000930790F524E030E020938520309386200F
:102DD00022812C93238111962C93809372209093BF
:102DE000732081519243E5DE1FC00297E9F0A09164
:102DF0007220B0917320CD01039620910420309170
:102E000005208217930780F421812C93228111964B
:102E10002C931197238112962C9380937220909378
:102E2000732081519243C5DE109285201092862036
:102E3000089520917420222359F11092742020913A
:102E400085203091862022303105F1F0E09172200A
:102E5000F09173209F012E5F3F4F409104205091CD
:102E600005202417350780F4DC0111964C91119749
:102E7000408312968C91818320937220309373202B
:102E8000C9018151924395DE1092852010928620CF
:102E9000089520917420222339F1109274202091FA
:102EA00085203091862022303105D1F0E0917220CA
:102EB000F09173209F012F5F3F4F4091042050916C
:102EC00005202417350760F4DC0111968C9180836E
:102ED0002093722030937320C9018151924369DE9F
:102EE00010928520109286200895CF93DF93EC01F5
:102EF0001B8682E08C83898761E0CE010196B3D482
:102F0000882331F061E0CE010696DF91CF91ABC40A
:102F100080E0DF91CF9108950F931F93CF93DF93BC
:102F20001F92CDB7DEB78B01209194322430E9F4A3
:102F3000FC018181AAD340E050E064E070E0C80168
:102F4000C4D1811113C020919D3230919E32F9017C
:102F5000EF5BFF4F4081F901E05CFF4F9081491723
:102F600028F089834CD3898101C082E00F90DF91E2
:102F7000CF911F910F910895209194322430F9F44C
:102F8000FC01818182D38091A13220919D323091C8
:102F90009E32F90187FF05C0EF5BFF4F808190E013
:102FA0000AC0E05CFF4F8081F901EF5BFF4F208199
:102FB00090E0821B9109892B21F021D3EAC482E0A1
:102FC000089580E00895CF93DF93EC0180919432CF
:102FD000843049F4898159D3FBD3882321F0CE0171
:102FE000DF91CF91C9CFDF91CF910895CF93DF9338
:102FF000EB0120919432243009F021C0FC0186813C
:1030000044D3CDD38823D9F08091A13240919D3211
:1030100050919E32FA0187FF05C0EF5BFF4F208180
:1030200030E00AC0E05CFF4F2081FA01EF5BFF4F08
:10303000808130E0281B3109232B19F4F9D280E07C
:1030400007C040E050E064E070E0CE0191D181E043
:10305000DF91CF9108950F931F93CF93DF93CDB757
:10306000DEB7EC97CDBFDEBF05E912E3F0D2F80181
:1030700081938F01F2E30D391F07C1F70E941740BA
:1030800075D3882309F402C18091953290919632CC
:10309000953009F47BC038F4913081F170F09330B1
:1030A00009F0F4C02BC0983009F4CDC0993009F470
:1030B000D2C0963009F0EAC07DC0803821F0823855
:1030C00009F0E4C008C010919132809192328823B7
:1030D00081F012600EC0809199328F70D6D2E0914B
:1030E0009F32F091A032118112FB112710F980E07C
:1030F000CCD210D3812FBAD280E0AAC0882319F095
:10310000823009F0C3C08F7121F0823009F0BEC057
:103110000BC080919732813009F0B8C0933009F02C
:1031200080E0809392322DC080919732811129C026
:103130000091993210919A320F70112701151105E3
:1031400009F4A4C0802FA1D280919632833011F46B
:10315000C6D217C0E0919F32F091A03281818B7F5F
:10316000818384E8809FF001819FF00D1124ED514F
:10317000FD4C1082E0919F32F091A03280818E7FD1
:10318000808380E082D2C6D2EDD380C081117EC020
:10319000109197321F77BED2E5D31AD38823E9F373
:1031A0001093C304112311F083E001C082E08093E7
:1031B00094326CC08058823008F068C08091973299
:1031C000909198328C3D23E0920761F583E08A83E9
:1031D0008AE389834FB7F894DE01139620E038E044
:1031E00052E05093CA01E32FF0E0E4911092CA013B
:1031F00020FF03C0E295EF703F5FEF708E2F90E0ED
:10320000EA3010F0C79601C0C0968D939D932F5F52
:103210002C3139F74FBF7ED26AE370E0CE010196C0
:10322000FAD00FC0AE01455C5F4F609199320E94A9
:103230007D368C01009751F16DD2B8018BAD9CADFC
:1032400063D1F6D123C0803809F564D280919032E1
:103250000DD2D5D199CF811119C08091973282308A
:10326000A8F458D280919732809390327BD380918A
:103270009032811104C08091C304882311F084E04E
:1032800001C081E0809394320E9404406FD2882371
:1032900011F040D224D2EC96CDBFDEBFDF91CF91AA
:1032A0001F910F9108950895CF93809194328823B0
:1032B00051F0C091A13280E0E8D158D28111CBDE2B
:1032C0008C2FCF91E2C1CF910895BF92CF92DF9220
:1032D000EF92FF920F931F93CF93DF937C018B01AB
:1032E000EA0157D3B82E811138C0209731F02881D8
:1032F0003981021B130BE20EF31EC12CD12C28C006
:1033000020919D3230919E32F901EF5BFF4F908109
:10331000F901E05CFF4F8081981788F070D1C4DF1D
:10332000209749F0888199818C0D9D1D8883998310
:1033300025E0B22E12C02DD3882351F00DC0F70125
:1033400081917F0193D101501109FFEFCF1ADF0A5C
:1033500001151105A9F601C0B82E8B2DDF91CF9173
:103360001F910F91FF90EF90DF90CF90BF90089545
:10337000BF92CF92DF92EF92FF920F931F93CF9362
:10338000DF937C018B01EA0104D3B82E811138C090
:10339000209731F028813981021B130BE20EF31EB6
:1033A000C12CD12C28C020919D3230919E32F90140
:1033B000EF5BFF4F9081F901E05CFF4F8081981730
:1033C00088F036D171DF209749F0888199818C0D82
:1033D0009D1D8883998345E0B42E12C0DAD28823DC
:1033E00051F00DC034D1F70181937F0101501109D3
:1033F000FFEFCF1ADF0A01151105A9F601C0B82E9B
:103400008B2DDF91CF911F910F91FF90EF90DF9067
:10341000CF90BF900895DF92EF92FF920F931F938A
:10342000CF93DF93182F092FEB018091A132806891
:103430002CD120919B3230919C322C173D0720F0EB
:10344000209719F4DCD001C0E901E12EF02ED12C37
:103450003FC080919432811102C082E04DC085301E
:1034600011F483E049C082D1811145C098D1811106
:103470003DC0AED1882361F12091A13280919D326F
:1034800090919E32FC0127FF05C0EF5BFF4F00814A
:1034900010E012C0E05CFF4F0081FC01EF5BFF4FCA
:1034A000808110E0081B110907C0F70181917F019D
:1034B000DDD021970F5F1F4F209719F008301105BD
:1034C000A0F3DD24D3940830110509F0D12C97D056
:1034D000209709F0BECFD110BCCF08C080919432A4
:1034E000882309F4BACF853009F4BBCF58D188239B
:1034F000A9F380E001C081E0DF91CF911F910F918E
:10350000FF90EF90DF900895DF92EF92FF920F937C
:103510001F93CF93DF93182F092FEB018091A132D6
:103520008068B3D020919B3230919C322C173D079C
:1035300020F0209719F463D001C0E901E12EF02EAC
:10354000D12C41C080919432811102C082E04FC0E1
:10355000853011F483E04BC009D1811147C01FD1E0
:1035600081113FC035D1882371F12091A132809122
:103570009D3290919E32FC0127FF05C0EF5BFF4F0B
:10358000008110E014C0E05CFF4F0081FC01EF5BA4
:10359000FF4F808110E0081B110909C0F7018491D9
:1035A00065D0FFEFEF1AFF0A21970F5F1F4F20979B
:1035B00019F00830110590F3DD24D394083011057B
:1035C00009F0D12C1CD0209709F0BCCFD110BACF74
:1035D00008C080919432882309F4B8CF853009F46B
:1035E000B9CFDDD08823A9F380E001C081E0DF916D
:1035F000CF911F910F91FF90EF90DF900895E09190
:103600009F32F091A032A0919D32B0919E32AF5B7B
:10361000BF4F8C9190E08283938380818D798083EA
:10362000E0919D32F0919E32EF5BFF4F1082089542
:10363000E0919F32F091A03280818D798083E0917A
:103640009D32F0919E32EF5BFF4F10820895809182
:103650009D3290919E32FC01EF5BFF4F2081DC0197
:10366000A20FB11D8C912F5F2083089520919D3270
:1036700030919E32F901EF5BFF4F9081D901A90F84
:10368000B11D8C939F5F908308958093A132482F42
:103690004F7094E8499F900111242E553D4C609144
:1036A000C6047091C70490E1499FA001112487FFCF
:1036B0000BC0CA010896860F971F80939F32909384
:1036C000A0322E5B3F4F06C0460F571F40939F32DC
:1036D0005093A03220939D3230939E320895E09112
:1036E0009F32F091A032818184608183E0919F328A
:1036F000F091A0328181807C803459F48091A13294
:103700008058C3DFE0919F32F091A03281818460C4
:10371000818308958091A1328F77B7DFE0919F3246
:10372000F091A03280818D788083E0919F32F0917A
:10373000A032808181608083E0919D32F0919E3241
:10374000EF5BFF4F10828091A13280689EDFE09195
:103750009F32F091A032808181608083E0919D3220
:10376000F0919E32EF5BFF4F108208958091A1325D
:103770008F778BDFE0919F32F091A032808184FFC0
:103780000CC020919D3230919E3282819381F9014B
:10379000E05CFF4F808381E0089580E00895809190
:1037A000A1328F7772DFE0919F32F091A032808159
:1037B00085FF0CC020919D3230919E328281938191
:1037C000F901E05CFF4F808381E0089580E0089577
:1037D0008091A132806859DFE0919F32F091A03250
:1037E00080818695817008951F93CF93DF931F92F8
:1037F0001F92CDB7DEB7182F4A83698346DFE09169
:103800009F32F091A0321182E0919F32F091A0326C
:10381000812F881F8827881F880F8083E0919F321F
:10382000F091A03269816183E0919F32F091A032E2
:103830001282138220919D3230919E3224833583EF
:10384000110F110B4A811423F901E05CFF4F108323
:10385000F901EF5BFF4F108281E00F900F90DF9135
:10386000CF911F910895CF92DF92EF92FF920F9325
:103870001F93CF93DF931F921F92CDB7DEB7E62E33
:103880006C01F12C46C0F6015081511105C0F39432
:10389000F5E0CF0ED11C3DC0F6010181128183817C
:1038A0009481923010F048E101C048E028E030E017
:1038B00090E003C09F5F220F331F20173107D0F322
:1038C000252F2F7030E02330310514F080E024C024
:1038D00001341105D8F7942B9F7E882319F081308D
:1038E00029F402C0906405C0906C0CC090688111EE
:1038F00009C0402F692F852F805859839A8374DF20
:103900009A815981402F692F852F6EDF8111BFCF9A
:10391000DDCFFE10B8CF81E00F900F90DF91CF91F7
:103920001F910F91FF90EF90DF90CF900895E0EC02
:10393000F4E0A681B78119961C92A681B7811196F1
:103940001C92A681B78159961C92A681B781519687
:103950001C92A681B78199961C920680F781E02D72
:1039600011A208958091953287FD04C031DF88232C
:1039700051F00EC014DF811105C080919432811185
:10398000F9CF089555CE809194328111EFCF0895EB
:1039900036CE1F93CF93DF93E091C604F091C70416
:1039A000C0A9D1A914E602C0EC01122F8091A13266
:1039B0008078803851F40CDF811105C080919432F9
:1039C000811105C01CC080E01FC0E9DEF5CF853045
:1039D000C1F0E0919F32F091A032818182FD13C04D
:1039E000E091C604F091C70480A991A98C179D07A6
:1039F000E9F2212F21501111D7CF84E005C082E0D8
:103A000003C083E001C081E0DF91CF911F91089551
:103A100064D06AD0E0ECF4E081818E7F8183808184
:103A20008F778083109293320895CF93DF93E0E4F1
:103A3000F0E014828481836084834FD055D0C0EC41
:103A4000D4E088818F77888388818068888310920A
:103A50009432109290321092923210929132888168
:103A60008064888348E068E480E8BEDE48E068E47B
:103A700080E0BADE88858064888789818160898357
:103A8000DF91CF910895CF93DF932FB7F894C0ECD7
:103A9000D1E082E08A87EAE1F0E0E491A0ECB4E0D2
:103AA000DA96EC93DA97EBE1F0E0E491DB96EC93B5
:103AB000DB971A868FE294E38E7F16968D939C9304
:103AC000179782E18C9383E018968C932FBF81E047
:103AD00080939332DF91CF91A8CFE0ECF4E0808522
:103AE0008370808711860895E0ECF4E08FEF828781
:103AF000848708951F920F920FB60F92112408B673
:103B00000F9218BE09B60F9219BE0BB60F921BBECC
:103B10002F933F934F935F936F937F938F939F93D5
:103B2000AF93BF93EF93FF938091CA0487FF08C0C0
:103B30008091C80487FF04C080E88093CA04B3DB87
:103B40008091CA0486FF07C080E48093CA0485E0A0
:103B500080939432A8DB8091CA0485FF13C080E271
:103B60008093CA0480919032882311F084E007C0CA
:103B70008091C304882311F083E001C081E0809329
:103B8000943291DB8091CA0484FF14C080E1809359
:103B9000CA0482E080939432109290321092C3044F
:103BA000C6DE48E068E480E81FDE48E068E480E0C4
:103BB0001BDE79DBFF91EF91BF91AF919F918F91C8
:103BC0007F916F915F914F913F912F910F900BBE1D
:103BD0000F9009BE0F9008BE0F900FBE0F901F9060
:103BE00018951092872010928820109289201092A8
:103BF0008A2010928B2010928C20089580918B2027
:103C000090918C20089580938B2090938C20089520
:103C1000FC018485809399208081918180938D20FF
:103C200090938E208281938180938F209093902017
:103C300084819581809391209093922086819781B1
:103C400080939320909394208085918580939520F4
:103C500090939620828593858093972090939820C7
:103C600008958DE890E208951F93CF93DF93182F66
:103C7000EB0180919920882319F023D6982F01C059
:103C800090E0E12FF0E0EE0FFF1FE357FF4D2081A2
:103C900031812630310509F4C7C0A0F42230310546
:103CA00009F463C040F42115310529F121303105B3
:103CB00009F0F3C03DC02430310509F496C008F086
:103CC0009EC072C02930310509F4C7C048F42730BE
:103CD000310509F4B0C02830310509F0DEC0B6C0A6
:103CE0002B30310509F4C7C008F4BEC02C303105B3
:103CF00009F0D3C0C7C0C130D10549F4612F685F56
:103D0000892F880F890F880F680F4FE70BC0CD2BC5
:103D100009F0C3C0612F685F892F880F890F880F52
:103D2000680F40E083E0DF91CF911F910C94DF2A70
:103D3000C130D10509F0B1C0012E01C0CC0F0A94E9
:103D4000EAF7E92FF0E0E957FF4D80818C27808367
:103D5000C82311F04FE701C040E0612F685F892F51
:103D6000880F890F880F680FDDCFC130D10551F45E
:103D7000612F685F892F880F890F880F680F2FE7E1
:103D800041E00CC0CD2B09F088C0612F685F892FFE
:103D9000880F890F880F680F20E040E083E0DF91F3
:103DA000CF911F910C94042BC130D10509F075C03F
:103DB000012E01C0CC0F0A94EAF7E92FF0E0E95791
:103DC000FF4D80818C2780838C2311F02FE701C069
:103DD00020E041E0811101C040E0612F685F892F40
:103DE000880F890F880F680FD9CFC130D10589F4AA
:103DF00082E090E080938B2090938C204EC0C13065
:103E0000D10539F483E090E080938B2090938C204F
:103E100044C0CD2B09F041C084D681E090E080936E
:103E20008B2090938C2039C0219709F036C049D55A
:103E3000833098F52CC0219781F543D5882369F10B
:103E400040D58150DF91CF911F919DC5219729F5D4
:103E500080E0DF91CF911F9196C52197F1F481E029
:103E6000DF91CF911F918FC52197B9F482E0DF9147
:103E7000CF911F9188C5219781F483E0DF91CF9185
:103E80001F9181C5219749F41CD5833009F319D5B9
:103E90008F5FDF91CF911F9176C5DF91CF911F91F9
:103EA00008950F931F93CF93DF930E94F13E09D59E
:103EB0000E94333F82719927429791F480919A2012
:103EC0008271823011F08031B9F584E090E0809306
:103ED0008B2090938C200E94CE0C10929A202CC0A4
:103EE00010E001E00E94373FC02FD0E08C239D23DB
:103EF000892B29F061E070E0812FB6DE15C00E94A9
:103F00003B3F8C239D23892B29F060E070E0812FBB
:103F1000ABDE0AC00E94333F8C239D23892B21F006
:103F200062E070E0812FA0DE000F1F5F1630D1F637
:103F30000E94333F80939A20DF91CF911F910F9180
:103F400008950F931F93CF93DF93CDB7DEB72897D4
:103F5000CDBFDEBF262F8A01F89430E8839FC001D1
:103F60001124809648E050E0BE016F5F7F4FE8E08B
:103F70002E9F800D911D11240E94C82D7894898157
:103F8000982F9F70F8019283158282958F7083839A
:103F90008A818F7784838B8181878C8182878D81D1
:103FA000982F9F779387881F8827881F80838E810B
:103FB000982F9370948786958695837081838F81DF
:103FC000982F9370908782958F7086838885982F1D
:103FD0009F779783881F8827881F85872896CDBF5E
:103FE000DEBFDF91CF911F910F910895CF92DF92A5
:103FF000EF92FF920F931F93CF93DF93C0E0D0E037
:104000001EE01C9FA0011D9F500D112445565F4DC1
:104010006C2F80917B2195DF2196C031D10589F7E6
:1040200085E0C82E85E3D82E03E210E017C0C70153
:104030000E94B72DF601EC0FFD1F808368E0E60EAD
:10404000F11C2196C031D10591F700581F4F80E136
:10405000C80ED11C0332C2E01C0721F07801C0E079
:10406000D0E0E5CFEBE9F0E225E635E389EF95E333
:10407000A1EEB4E305E415E34CE958E16081662361
:1040800021F04D935C93119706C01D921C921197DD
:10409000E80118821982E90119929E01EC01199236
:1040A0001992CE013E9612960E5F1F4FD0E2E33D6D
:1040B000FD0721F788E080937C2182E080937D21B9
:1040C000DF91CF911F910F91FF90EF90DF90CF90F4
:1040D0000895DF92EF92FF920F931F93CF93DF9398
:1040E000CDB7DEB7A097CDBFDEBFE82ED62E8A01B2
:1040F000F62EF694F69420E8829FC0011124809653
:1041000040E250E0BE016F5F7F4FA0E2FA9E800D5B
:10411000911D11240E94C82D8D2D8370E1E0F0E0E7
:10412000EC0FFD1FB8E08B9FE00DF11D1124D801AD
:1041300012969C9197FD05C08081807F9F70892B8E
:104140008083D80113962C9127FD08C080818F7041
:10415000B0E12B9F90011124822B8083D80114960B
:104160008C9187FF8183D80119968C9187FF828378
:10417000D8011A968C9187FF8383D8019C9197FD73
:1041800004C0848190FB87F98483D8011B969C919D
:1041900097FD05C0848180789F77892B8483D8011F
:1041A0001C969C9197FD05C085818C7F9370892B0F
:1041B0008583D80111962C9127FD0AC09581937FA4
:1041C000B4E02B9F900111242C703327922B958300
:1041D000D80118968C9187FD05C096819C7F8370CD
:1041E000982B9683D80116962C9127FD08C09681AE
:1041F0009F70B0E12B9F90011124922B9683D801E0
:1042000017968C9187FD04C097819078982B97839F
:10421000D8011D969C9197FD04C0878190FB87F97A
:1042200087831E2D110F110F1F5F1F0DF894CE01F4
:1042300001960E94512E812F0E94612E7894A096A3
:10424000CDBFDEBFDF91CF911F910F91FF90EF9017
:10425000DF900895FF920F931F93CF93DF93CDB715
:10426000DEB7A097CDBFDEBFFE01319680E2DF0151
:104270001D928A95E9F780E050E14FE332E021E0BA
:1042800050838183982F9D5C9283925393834483C0
:104290003583268387833896892F943089F7FF24C6
:1042A000F3948E01085D1F4FF894CE0101960E9491
:1042B000512E8F2D0E94612E7894AE014E5F5F4F7C
:1042C0009E012D5F3F4FBE016C5F7F4FFE01389610
:1042D000DA018C918C5F8C93D9018C918C5F8C93DB
:1042E000DB018C918C5F8C9380818C5F8083485F35
:1042F0005F4F285F3F4F685F7F4F3896E017F107A9
:1043000039F7F394B1E1FB12CFCFA096CDBFDEBF5A
:10431000DF91CF911F910F91FF900895AF92BF92BF
:10432000CF92DF92EF92FF920F931F93CF93DF9381
:10433000B42E422F603108F0B8C08130910509F4E5
:1043400091C020F0029709F0B0C0A0C0C62FD0E005
:104350008EE0689FF0011124E556FF4D808580FFB7
:10436000A4C08585882309F472C00091CF31B016AE
:1043700008F46DC0A0907F2181E0A826A0927F2143
:1043800010E06091C93170E0601B710B882777FDE8
:104390008095982F0E945F4120E030E04EEF52E47C
:1043A0000E9493409B01AC0160E070E080E89FE3D5
:1043B0000E9493406B017C016B2D70E0601B710BC0
:1043C000882777FD8095982F0E945F419B01AC0163
:1043D000C701B6010E9404430E9431417B0160384D
:1043E000710518F09FE7E92EF12C8EE08C9F80017B
:1043F0008D9F100D112405561F4DAA2089F0F8013C
:104400006781615C4E2D86810E94DF2A80910F3684
:10441000909110360E94BC174B2DF80167810AC09D
:104420004B2DF801678186810E94DF2AF8016781A0
:10443000615C4E2D8681DF91CF911F910F91FF908E
:10444000EF90DF90CF90BF90AF900C94DF2A8EE07A
:104450008C9FF0018D9FF00D1124E556FF4D4B2DE3
:104460006781E8CF8EE0689FF0011124E556FF4D8B
:104470008281823020F44B2D64818381DCCF825095
:10448000823098F42B2D6481838103C0645D2B2DD1
:1044900083E0DF91CF911F910F91FF90EF90DF901C
:1044A000CF90BF90AF900C94042BDF91CF911F91D0
:1044B0000F91FF90EF90DF90CF90BF90AF90089555
:1044C000BF92CF92DF92EF92FF920F931F93CF9301
:1044D000DF93C82E0E94B73EBC2CB29440EFB422AA
:1044E000D12CC1E0D0E00C2D10E0000F111F61E0D5
:1044F000E62E65E3F62EE00EF11E0B501A4C0E94DC
:10450000E73E8C239D23892BB1F06D2D6B0D21E0AF
:104510004FE782E090E002DFF701808191818C23F8
:104520009D23892B31F5F801208131812C2B3D2BE6
:10453000208331831EC00E94EC3E8C239D23892B57
:10454000C1F06D2D6B0D20E040E082E090E0E6DEF2
:10455000F701208131812C233D23232B51F49E012F
:1045600020953095F801808191812823392320837B
:104570003183CC0FDD1FD394F0E1DF12C0CF8091E7
:104580007E21EC2DF0E0EE0FFF1FEB50FA4C21E006
:1045900030E0082E02C0220F331F0A94E2F7408158
:1045A00051812423352300E0232B39F021E030E032
:1045B00040E06FE70E942E3906C021E030E040E085
:1045C00060E00E942E3980917E218F5F803118F447
:1045D00080937E2102C010927E21DF91CF911F91A6
:1045E0000F91FF90EF90DF90CF90BF900895342F00
:1045F00032953F70A42FAF70813099F138F082303E
:1046000009F4A6C0833009F0EAC0AFC0613009F0F8
:10461000E6C0EA2FF0E044E6249FB0011124DF0158
:10462000AA0FBB1FAF51BB4C8D919C91861B970B62
:1046300097FF03C0919581959109813991400CF4C0
:10464000CEC0DF0180E1389FA00DB11D1124AF5510
:10465000BB4C2C93EE0FFF1FEF51FB4C608371831B
:104660000895432F50E021112CC02A2F30E0FA0189
:10467000EE0FFF1FEF5FF94C81E090E002C0880F62
:10468000991FAA95E2F780959095608171818623A4
:10469000972380839183FA0174E0EE0FFF1F7A95D0
:1046A000E1F7E20FF31FEB5FFA4C8EE0829FD0013F
:1046B000839FB00D1124A556BF4D1A968C9180830F
:1046C0000895822F81506A2F70E0FA01EE0FFF1FCC
:1046D000EF5FF94C8D37C8F481E090E002C0880F9D
:1046E000991FAA95E2F7A081B1818A2B9B2B808329
:1046F0009183FA01B4E0EE0FFF1FBA95E1F7E60FE0
:10470000F71FEB5FFA4C2083089581E090E002C030
:10471000880F991FAA95E2F720813181822B932B74
:1047200080839183FA01A4E0EE0FFF1FAA95E1F7C1
:10473000E60FF71FEB5FFA4C8EE0869FD001879F54
:10474000B00D1124A556BF4D19968C918083089504
:10475000613009F044C040E1349FF0011124EA0FB8
:10476000F11DEF59FB4C20830895611138C04C3284
:10477000B0F14D34A0F54C52342F3F70E42FE29548
:10478000EF70F0E0EE0FFF1FDF01AF5FBA4C81E08A
:1047900090E0BC0102C0660F771F4A95E2F7AB01BB
:1047A0006D917C911197462B572B4D935C93EB5059
:1047B000FA4C02C0880F991F3A95E2F7222339F08C
:1047C00020813181282B392B2083318308958095D6
:1047D0009095208131818223932380839183089552
:1047E0000F93CF9380918021282F30E090917B21EF
:1047F000F90140E19402E00DF11D1124EF55FB4C4D
:10480000C081F901EF57FE4D9081C917C9F09EE0B4
:10481000929FF001939FF00D1124E556FF4D2485E2
:1048200041E09081911101C040E0038530E06C2FA0
:104830000E942E39E0918021F0E0EF57FE4DC083B9
:1048400080918021282F30E090917B21F90140E177
:104850009402E00DF11D1124EB5FFA4CC081F901C7
:10486000EF56FE4D9081C91749F06C2F0E94DA393E
:10487000E0918021F0E0EF56FE4DC08320917B2136
:104880008091802190E1290290011124280F311D8F
:10489000F901EF59FB4C6081662331F0F901EB5FC0
:1048A000FA4C40810E942F3A809180218F5F8031A5
:1048B00018F48093802102C010928021CF910F9133
:1048C000089580917B2108959C0129533841273C0C
:1048D000310510F48FE3089564E670E00E94E4432C
:1048E000862F08959C0197FD05C02D3981E3380777
:1048F00024F405C020E030E002C02CE931E3C90116
:1049000008959C012953384181E0273C310508F086
:1049100080E008959C012456310981E0253D304313
:1049200008F480E008951F93CF93DF93182F8EE053
:10493000689FD0011124A556BF4D12969C919650A8
:104940009230D0F4C1E0D0E002C0CC0FDD1F6A95F8
:10495000E2F70E94E23E8C239D23892B79F4E12F1C
:10496000F0E0EE0FFF1FE750FA4C208131812C233D
:104970003D2381E0232B19F480E001C081E0DF9129
:10498000CF911F9108952F923F924F925F926F9215
:104990007F928F929F92AF92BF92CF92DF92EF92CF
:1049A000FF920F931F93CF93DF93CDB7DEB7299775
:1049B000CDBFDEBF782E41EEE42E44E3F42E05E4B5
:1049C00015E381E891E289839A83A1E9B1E2AB839F
:1049D000BC83C72CD12C160154E0220C331C5A95F1
:1049E000E1F7E1EAF4E32E0E3F1E65E0CC0CDD1C9E
:1049F0006A95E1F785E795E3C80ED91E412C512C45
:104A00001886198674E6A72EB12C66246A949885B8
:104A10009F8380917B2128853985A0E18A02200D22
:104A2000311D1124F901EF55FB4CD7018D919C915B
:104A3000B5010E94E4436083F901EE0FFF1FEB58BC
:104A4000FA4CD8018D919C91B5010E94E44360839A
:104A50007183E885F985E20DF31DED83FE83808186
:104A6000F4E68F9FC0011124D7018D939C934601DA
:104A7000840C951CF40140815181F4E6F49F90016F
:104A8000F59F300D1124D8012D933C936885872D17
:104A90004ADF882329F0F4018081AD81BE818C93A7
:104AA000E981FA816192E983FA83AB81BC816D92DD
:104AB000AB83BC832EE0E885F9852E9FA0012F9F54
:104AC000500D112445565F4D6F81872D3ADA888548
:104AD000998501968887998792E0E90EF11CA2E0FA
:104AE0004A0E511C0E5F1F4FE885F985709709F03B
:104AF0008ECF70927B212996CDBFDEBFDF91CF9103
:104B00001F910F91FF90EF90DF90CF90BF90AF90EB
:104B10009F908F907F906F905F904F903F902F90DD
:104B2000089580917B212FCF2F923F924F925F92D9
:104B30006F927F928F929F92AF92BF92CF92DF92AD
:104B4000EF92FF920F931F93CF93DF93CDB7DEB712
:104B50002897CDBFDEBF0E94B73EBDE92B2EB0E245
:104B60003B2E4BE950E24A835B8301EE14E385E47C
:104B7000682E85E3782E94EA892E90E2992E25E618
:104B8000A22E25E3B22E35EAC32E30E2D32E1F82A9
:104B90001886EE24E394F12C54E6452E512C5F81C7
:104BA0005983852F0E94B03E482F282F332727FD99
:104BB00030952115310509F4DFC0AA81BB818C91A4
:104BC000882309F1F8018081918189539841873CBC
:104BD000910508F4EEC217C0E0E0F9E1D801ED93C9
:104BE000FC93CAC0332727FD3095992781950CF493
:104BF0009095281739070CF0BFC0E8E3F8E1D80119
:104C0000ED93FC93B9C0D8016D917C91CB01845692
:104C10009109853D904308F0D6C2DAC212161306F8
:104C20001CF006C037FF04C0F5018081840F80832B
:104C3000D5012C9180917D21821744F46436710551
:104C40002CF4F801408251821C9296C0332727FD34
:104C50003095992781950CF49095281739070CF019
:104C60008BC0693371430CF487C0E8E3F1E3D801EA
:104C7000ED93FC93D5011C927FC0405CD601139745
:104C8000F60134976C9180819AD476C0F1018081CD
:104C9000853089F42C833E834D830E94E23E8E2131
:104CA0009F212C813E814D81892B29F0F9E14F0212
:104CB000A001112410C0F60139978081811105C02F
:104CC00024E64202A001112406C062EB629FA0010B
:104CD000639F500D1124698180917B214D835C83FA
:104CE00022DE4D815C81882341F1D3018D919C911D
:104CF000840F951FF7DDF30180839183E5DD382F65
:104D000021E0482F698181E090E03E8307DB8091BC
:104D10007B214F815885F0E18F02400D511D1124F8
:104D2000DA01AF55BB4C3E813C93FA01EE0FFF1FF9
:104D3000EB58FA4C308311821FC0D8018D919C91A1
:104D4000840F951FCFDDF80180839183BDDD382F5F
:104D500021E0482F698180E090E03E83DFDA809196
:104D60007B21EF81F88520E18202E00DF11D112405
:104D7000EF55FB4C3E8130830E94E73E8E219F2100
:104D8000892BD9F0D1018C918330F1F060F481301E
:104D9000D9F00E94E73E8E219F2120917B21892B13
:104DA00009F46EC05DC0863009F4F6C0873009F49E
:104DB00068C1843009F0D9C1C0C00E94EC3E8E2188
:104DC0009F21892BF9F6D1C10E94E73E8E219F21B8
:104DD000892B09F4CAC1E0917B21B0E1EB0290017B
:104DE0001124AF81B885A20FB31FAA0FBB1FAB5808
:104DF000BA4C8D919C91892B19F040E050E002C093
:104E00004FE750E0AF81B885A20FB31FAA0FBB1FB9
:104E1000AB58BA4C4D935C9381E090E00F8002C098
:104E2000880F991F0A94E2F7F0E0EE0FFF1FEF5F83
:104E3000F94C6081718186239723892B09F073C017
:104E40004115510519F0F401808102C0D6018C9101
:104E5000EF81F885E20FF31FEB5FFA4C808363C0AC
:104E6000EF81F885B0E12B02E00DF11D1124EE0F6A
:104E7000FF1FEB58FA4C4FE750E0408351830DC0C1
:104E8000EF81F88550E12502E00DF11D1124EE0FB0
:104E9000FF1FEB58FA4C10821182E0917B2181E0D8
:104EA00090E00F8002C0880F991F0A94E2F7AE2F9E
:104EB000B0E0AA0FBB1FAF5FB94C2D913C9182238C
:104EC0009323FF27E7FDF095892BF1F4CF0154E000
:104ED000880F991F5A95E1F7AF81B885A80FB91FC0
:104EE000AA0FBB1FAB58BA4C2D913C91232B19F044
:104EF000D4012C9102C0D6012C91AF81B885A80FA6
:104F0000B91FAB5FBA4C2C9334E0EE0FFF1F3A95FC
:104F1000E1F74F815885E40FF51FEE0FFF1FEB58A7
:104F2000FA4C4081518121E04115510509F420E0FE
:104F3000698181E090E0F2D918C10E94E73E8E219C
:104F40009F21892B49F1AA81BB818C91882331F063
:104F50004CE958E1F8014083518303C0D8011D9208
:104F60001C92F5011082D8018D919C91ADDC382FF7
:104F700021E0482F698180E090E03E83CFD9809185
:104F80007B21EF81F885B0E18B02E00DF11D11244A
:104F9000EF55FB4C3E8130830E94E73E8E219F21DE
:104FA000892BA1F1E0917B2181E090E00F8002C08C
:104FB000880F991F0A94E2F7AE2FB0E0AA0FBB1F2B
:104FC000AF5FB94C2D913C91822393232E2F332731
:104FD00027FD3095892B79F4D90184E0AA0FBB1FF6
:104FE0008A95E1F7EF81F885AE0FBF1FAB5FBA4C32
:104FF000F40180818C93F901A4E0EE0FFF1FAA95C4
:10500000E1F74F815885E40FF51F7DC00E94EC3E0B
:105010008E219F21892B09F4A8C0E0917B2181E09A
:1050200090E00F8002C0880F991F0A94E2F7AE2F1C
:10503000B0E0AA0FBB1FAF5FB94C2D913C9182230A
:1050400093232E2F332727FD3095892B79F4D9010F
:1050500064E0AA0FBB1F6A95E1F7EF81F885AE0FF8
:10506000BF1FAB5FBA4CF60180818C93F90154E00D
:10507000EE0FFF1F5A95E1F74F815885E40FF51F9A
:105080006BC00E94E73E8E219F21892B09F46DC0E1
:1050900040917B21242F332727FD3095F901EE0F16
:1050A000FF1FE750FA4C808191818E259F258083D8
:1050B00091838E219F21E42FF0E044E0220F331FE3
:1050C0004A95E1F7892B49F181E090E00F8002C019
:1050D000880F991F0A94E2F7EE0FFF1FEF5FF94C5C
:1050E0004081518184239523892B49F4EF81F885F0
:1050F000E20FF31FEB5FFA4CD4018C918083EF81B8
:10510000F885E20FF31FEF55FB4CD3018D919C9175
:10511000B2010E94E443608328C081E090E00F80E8
:1051200002C0880F991F0A94E2F7EE0FFF1FEF5F8E
:10513000F94C4081518184239523892B49F4EF81D7
:10514000F885E20FF31FEB5FFA4CD6018C91808358
:10515000EF81F885E20FF31FEF55FB4CD8018D91DD
:105160009C91B2010E94E4436083EE0CFF1CEF812E
:10517000F8853196EF83F887FEE02F0E311C4A81C7
:105180005B81425F5F4F4A835B830E5F1F4F52E03C
:10519000650E711C6EE0860E911C8FEFA81AB80A7E
:1051A0009EE0C90ED11CAF81B885509709F0F7CCAD
:1051B00016C0F5012081240F208380917C21821765
:1051C0000CF40ACD0FCD643671050CF427CD2ACD31
:1051D000F60132978081823009F058CD4ECD289665
:1051E000CDBFDEBFDF91CF911F910F91FF90EF9068
:1051F000DF90CF90BF90AF909F908F907F906F90F7
:105200005F904F903F902F90089587E090E28093B9
:105210000F3690931036E0E8F6E091E0918382E05B
:10522000818328E0218324E0228396831092A321A6
:105230001092A4218683089581E02091A3213091CA
:10524000A421232B09F080E00895CF92DF92EF9202
:10525000FF920F931F93CF93DF93C0916008D0917B
:1052600061082091A5213091A621C090A721D0905E
:10527000A821E090A921F090AA212C173D0788F4DD
:10528000BE01621B730B80E090E06C197D098E09F2
:105290009F0928E030E040E050E00E941944C90135
:1052A0001CC081E190E0821B930B97FF03C0919596
:1052B00081959109BC016C0F7D1F80E090E06C1915
:1052C0007D098E099F0928E030E040E050E00E940F
:1052D000194480E090E0820F931F8C01222717FD74
:1052E0002095322F0C0D1D1D2E1D3F1D0093A72153
:1052F0001093A8212093A9213093AA21009729F087
:1053000005971CF481E08093A121C093A521D0933F
:10531000A621B801C901DF91CF911F910F91FF9094
:10532000EF90DF90CF9008958091A121882329F0FC
:105330002091A7213091A82102C020E030E0C901CE
:10534000089583DF809113208F5F8093132089312C
:1053500089F481E08093132080914820882351F0C4
:10536000E3DFBC017695679588E697E00E948D3E65
:1053700010924820089580911320089592E0909310
:105380001320882321F081E08093AB2108951092AF
:10539000AB211092A1210895FF920F931F93CF93F9
:1053A000DF93CDB7DEB72597CDBFDEBF8B01282FAA
:1053B00081E064E0F62E19C0F982F8013196D80137
:1053C0008C918A8380818B8381818C830D5F1F4FB9
:1053D000BE016F5F7F4F80910F36909110362D8305
:1053E0000E948C172D81235080E0243028F722233F
:1053F00039F195E09983F80190819A831B821C8290
:10540000223029F486E0898381818B8310C0233088
:1054100071F4882311F0298302C087E08983D801C1
:1054200011968C9111978B8312968C918C83BE016F
:105430006F5F7F4F80910F36909110360E948C17CE
:105440002596CDBFDEBFDF91CF911F910F91FF90C9
:105450000895EF92FF920F931F93CF93DF9300D0A5
:105460001F92CDB7DEB769837A838B839C836730C5
:1054700009F491C048F4653009F483C008F086C08F
:10548000643009F08CC078C06930E1F008F443C0A2
:105490006B3009F45DC06F3009F081C08A818A3FAA
:1054A00039F08C3F61F0883F09F079C04ADF77C05E
:1054B00082E08093132081E08093AB2170C080E074
:1054C0005DDF6DC01A811F70FB80EC80123041F4EB
:1054D00083E08F1528F08FE7E81202C08F2D53DA92
:1054E0002091A221121770F0412F50E030E02C5F84
:1054F0003F4F2417350734F001E02C814B8160E0E9
:10550000812F75D8173009F04AC041E06E2D8F2DDC
:105510000E946A0A44C01A811F70FB80EC80E091EF
:10552000A2211E1768F0A12FB0E0F0E03496EA1730
:10553000FB0734F000E02E2D4F2D60E0812F57D86F
:10554000173069F540E06E2D8F2D0E946A0A27C042
:105550008A818F702091A221821708F1482F50E094
:1055600030E02C5F3F4F24173507CCF001E02C8151
:105570004B8161E03CD813C0CE0101960E944B16CE
:105580000EC0CE0101960E94491709C0CE010196B6
:105590000E94191704C0CE0101960E94C7162496D6
:1055A000CDBFDEBFDF91CF911F910F91FF90EF90A4
:1055B000089544E050E0BC0180EA9AE00CC1CF932A
:1055C000DF9300D01F92CDB7DEB79BE099838F7039
:1055D000806B8A836F776B834F774C832DDE8823B4
:1055E00051F0BE016F5F7F4F80910F369091103662
:1055F0000E948C1703C0CE010196DBDF2496CDBF3D
:10560000DEBFDF91CF910895CF93DF9300D01F923B
:10561000CDB7DEB7442311F090E901C090E8392FEF
:1056200032953F7039838F70892B8A836F776B83B4
:105630002F772C8301DE882351F0BE016F5F7F4FEF
:1056400080910F36909110360E948C1703C0CE01C6
:105650000196AFDF2496CDBFDEBFDF91CF910895D5
:105660001F920F920FB60F92112408B60F9218BE18
:1056700009B60F9219BE0BB60F921BBE2F933F9324
:105680004F935F936F937F938F939F93AF93BF934A
:10569000EF93FF9380EA9AE00E94A93590910C362F
:1056A00020910B3630910E36921B932320910D36AC
:1056B000921799F020910C36932F96959223E091B2
:1056C0000936F0910A36E90FF11D8083822F8F5F32
:1056D00090910E36892380930C36FF91EF91BF9104
:1056E000AF919F918F917F916F915F914F913F917A
:1056F0002F910F900BBE0F9009BE0F9008BE0F9018
:105700000FBE0F901F9018951F93CF93DF93C0E0AB
:10571000D2E011E056C090910C3680910B3698176C
:1057200091F080910B3620910E36922F969598230A
:10573000E0910936F0910A36E90FF11DC0818F5FC3
:10574000822380930B368091AC21813009F118F0CF
:105750008230B9F529C08C2F807F99F18C2F8295EA
:105760008F708093AD21C093AE211092AF21109223
:10577000B0218F3051F46091AD217091AE218091B4
:10578000AF219091B02165DE1CC01093AC2119C0EF
:105790008091AD21C093AF21803241F0803609F471
:1057A00005C0D093AC210DC0C093B0216091AD2154
:1057B0007091AE218091AF219091B0214ADE10927C
:1057C000AC2190910C3680910B369813A4CFDF91C9
:1057D000CF911F910895EF92FF920F931F93CF9354
:1057E000DF937C01EB018A01060F171F04C069914A
:1057F000C7010E94A135C017D107C9F780E090E02A
:10580000DF91CF911F910F91FF90EF9008952FB7E7
:10581000F894FC01E059FF4F6095808186238083D6
:105820002FBF08952FB7F894FC01E059FF4F8081F6
:10583000862B80832FBF08951BBEFC0128ED24BF5B
:10584000608308950F931F93CF93DF93282F30E049
:10585000F901719644E0EE0FFF1F4A95E1F7609160
:105860000401A0910301A9014C5F5F4FC1E0D0E0AA
:105870008E01042E01C0000F0A94EAF7082E01C021
:10588000CC0F0A94EAF7C02BAC23B0E08D01042EB4
:1058900002C0159507950A94E2F700FD1DC0082E79
:1058A00002C0B595A7950A94E2F7A0FD18C0C623DB
:1058B0006C2F70E0DB0102C0B595A7954A95E2F721
:1058C000A0FD10C0AB0102C0559547958A95E2F73F
:1058D000CA018170992708C084E090E005C083E088
:1058E00090E002C082E090E0418140634183F90191
:1058F000EE0FFF1FE95EF94C0190F081E02D30972B
:1059000029F0DF91CF911F910F911994DF91CF91E1
:105910001F910F91089561E080E090E078DF9FB7DC
:10592000F894E2E1F6E380818F5F80839FBFE0E03F
:10593000F1E080E4808380E8808308951F920F92D5
:105940000FB60F92112408B60F9218BE09B60F9227
:1059500019BE0BB60F921BBE2F933F934F935F93CD
:105960006F937F938F939F93AF93BF93EF93FF9327
:1059700080E068DFFF91EF91BF91AF919F918F9190
:105980007F916F915F914F913F912F910F900BBE3F
:105990000F9009BE0F9008BE0F900FBE0F901F9082
:1059A00018951F920F920FB60F92112408B60F92FE
:1059B00018BE09B60F9219BE0BB60F921BBE2F93DD
:1059C0003F934F935F936F937F938F939F93AF9387
:1059D000BF93EF93FF9381E035DFFF91EF91BF918C
:1059E000AF919F918F917F916F915F914F913F9177
:1059F0002F910F900BBE0F9009BE0F9008BE0F9015
:105A00000FBE0F901F9018951F920F920FB60F9216
:105A1000112408B60F9218BE09B60F9219BE0BB624
:105A20000F921BBE2F933F934F935F936F937F9380
:105A30008F939F93AF93BF93EF93FF9382E002DF27
:105A4000FF91EF91BF91AF919F918F917F916F9156
:105A50005F914F913F912F910F900BBE0F9009BE18
:105A60000F9008BE0F900FBE0F901F9018951F92B9
:105A70000F920FB60F92112408B60F9218BE09B6F6
:105A80000F9219BE0BB60F921BBE2F933F934F93ED
:105A90005F936F937F938F939F93AF93BF93EF9396
:105AA000FF9383E0CFDEFF91EF91BF91AF919F9184
:105AB0008F917F916F915F914F913F912F910F90B7
:105AC0000BBE0F9009BE0F9008BE0F900FBE0F9037
:105AD0001F901895DB01E82FF0E0719664E0EE0F5F
