:100000000AC400004EC400004CC400004AC40000F2
:1000100048C4000046C40000D3C4000004C500006A
:1000200035C5000066C500003CC400003AC40000AD
:1000300038C4000036C400007FC60000B5C600000A
:10004000EBC6000021C7000057C700008DC70000A5
:10005000C3C70000F9C700000C945C080C94940816
:1000600020C400001EC400001CC400001AC400000C
:1000700018C4000016C4000014C4000012C400001C
:1000800010C400000EC400000CC400000AC400002C
:1000900008C4000006C4000004C4000002C400003C
:1000A00000C40000FEC30000FCC30000FAC300004F
:1000B000F8C30000F6C30000F4C300000C94FC0A6F
:1000C0000C94340B0C946C0B0C94A40B0C94DC0B64
:1000D0000C94140CE6C30000E4C30000E2C300006B
:1000E000E0C30000DEC30000DCC30000DAC3000090
:1000F000D8C30000D6C30000D4C30000D2C30000A0
:10010000D0C30000CEC30000CCC30000CAC30000AF
:10011000C8C30000C6C30000C4C30000C2C30000BF
:10012000C0C30000BEC30000BCC30000BAC30000CF
:10013000B8C300000C94CC080C9404090C943C093E
:100140000C9474090C94AC090C94E4090C941C0AEA
:100150000C94540A0C948C0A0C94C40AA2C3000098
:10016000A0C300009EC300009CC300009AC300000F
:1001700098C3000096C3000094C3000092C300001F
:1001800090C300008EC300008CC300008AC300002F
:1001900088C3000086C3000084C3000082C300003F
:1001A00080C300007EC300007CC300007AC300004F
:1001B00078C3000076C3000074C3000072C300005F
:1001C00070C300006EC300006CC300006AC300006F
:1001D00068C3000066C3000064C3000062C300007F
:1001E00060C300005EC300005CC300005AC300008F
:1001F00058C300000C94B21854C30000A613C513D2
:100200009114C51391140414181491146A147314DE
:100210004B2763278027A027C127CB27EA27DA2788
:10022000F42702281228432860287D289A28DC28F1
:10023000DC28DC28DC28B7282533D0322533D0321F
:100240009533DD333735FC3393346E3A733A783A6D
:100250007D3A483A303A813A503A813A813A813A85
:10026000103A07634236B79BD8A71A39685618AEBA
:10027000BAAB558C1D3CB7CC5763BD6DEDFD753EDB
:10028000F6177231BF000000803F05A84CCDB2D4F4
:100290004EB93836A9020C50B9918688083CA6AAF6
:1002A000AA2ABE000000803F08000000BE92244938
:1002B000123EABAAAA2ABECDCCCC4C3E0000008098
:1002C000BEABAAAAAA3E00000000BF000000803F0B
:1002D0000000000000084178D3BB4387D1133D19CB
:1002E0000E3CC3BD4282AD2B3E68EC8276BED98FF8
:1002F000E1A93E4C80EFFFBE01C4FF7F3F0000003C
:1003000000000101020202020303040505060708BA
:100310000A0B0D0F1215181C21262C333C46515E7A
:100320006E7F0101010101010101010101020202CF
:100330000202020202020202020202030303030398
:100340000303030404040404040405050505050669
:1003500006060606070707080808080909090A0A21
:100360000B0B0B0C0C0D0D0E0E0F101011111213A8
:1003700014141516171819191A1C1D1E1F202123D5
:10038000242527282A2B2D2F31333537393B3D4063
:100390004245474A4D5053565A5D6164686C7175C9
:1003A0007A7F0000001E1E1E7F7F7FFFFFFF4C4CE8
:1003B000FF0000FF00007F00001E6CBDFF0054FF27
:1003C000001D59001B274CFFFF00FFFF005959007B
:1003D00019194CFF8800FF5400591C002B144CFFC6
:1003E0004C00FF00007F000019005EFF4C19FF0069
:1003F0000D590002190088FF4C56F6281F680B1390
:100400002400B7FF4C99FF002B5900121900FFC3BD
:100410004CFFA900524100191000FF884CFF550005
:100420001D5900190800FF4C4CFF00007F00001E02
:100430000000FF4C87FF005464001930000FFF4C90
:10044000FFFF00FF590059190019874CFF5400FFA6
:100450001D00591300220015FF0035990051790045
:1004600064430039033557007F5400FF00004F45B7
:1004700000CC00257F7F7F2020200000FF2DFFBDC6
:1004800006EDAF09FF64008B1087FF00FFA900FF96
:100490002A00FF003FFF007A7E1AB2002140004A86
:1004A000FF06E18815FF7200FF0026FF3B71FF5930
:1004B000CCFF38FF8A5BC65131E97F87FF1DD35DD2
:1004C00000FF007FFF004CB900FF90075D83002B09
:1004D00039104C1438500D2A15155A20161C3C6939
:1004E0000A00A83D51DE1C6AD826E1FF2FE19E0FCD
:1004F000B567301E1E6BFFDCBDFF80FF999AFF665B
:100500008E404040757575FFFFE00000A00000358B
:1005100000D01A004207004CB900313F005FB3021F
:10052000154B000000FF0000FF0000FF0100FF036B
:1005300000FF0600FF0900FF0E00FF1400FF1C0073
:10054000FF2500FF2C00FF3800FF4700FF5500FF8C
:100550006700FF7B00FF8900FFA000FFBA00FFD605
:1005600000FFF200FAFF00EDFF00E1FF00D4FF0002
:10057000C7FF00BFFF00B2FF00A5FF0099FF008C7E
:10058000FF007FFF0077FF006AFF005DFF0050FF64
:100590000043FF003BFF002EFF0021FF0015FF007E
:1005A00008FF0000FF0000FF0000FF0000FF000048
:1005B000FF0000FF0000FF0000FF0000FF0200FF3F
:1005C0000300FF0600FF0900FF0E00FF1600FF21D9
:1005D00000FF2F00FF3C00FF5100FF6F00FF940061
:1005E000FFC400FFFF00E9FF00CBFF00B0FF009950
:1005F000FF0082FF0075FF0062FF0050FF0041FF17
:100600000034FF002CFF0022FF0019FF0012FF0042
:100610000CFF0007FF0005FF0002FF0001FF0000C4
:10062000FF0000FF0400FF1000FF1D00FF2A00FF75
:100630003700FF3F00FF4C00FF5900FF6600FF72CC
:1006400000FF7F00FF8700FF9400FFA100FFAE00C6
:10065000FFBA00FFC300FFD000FFDD00FFE900FF8D
:10066000F600FFFF00FFFF00DBFF00C4FF00AAFF52
:100670000094FF0085FF007FFF006FFA006FED0020
:1006800053E1003CD4002FC70020C70016BF001064
:10069000B2000FA5000E99000D8C000C7F000BFF1F
:1006A000FFFF00000000000000000000000000004C
:1006B00000007F0000007F0000007F0000007F003E
:1006C0000000000000007F000000000000007F002C
:1006D000000000000000000000000055007F000046
:1006E0007F007F00005500006400006E00007F0066
:1006F00000001455007F00007F0000007F000023F1
:100700005555557F7F0000006E7F64000000005546
:10071000555555146E007F0A6414002D7F006E2D10
:100720004B237F007F007F006E7F007F007F7F0074
:100730007F007F007F7F7F007F7F7F007F7F7F7FC5
:100740007F7F557F647F557F557F557F557F6E7FB7
:10075000647F2A034D0069006400690020004600A0
:100760006900670068007400650072002000540092
:1007700077006900730074006500720000001A03BE
:1007800044004A00200054006500630068005400E3
:100790006F006F006C00730000000403090409027D
:1007A000650002010080F009040000000101000062
:1007B00009240100010900010109040100020103EB
:1007C0000000072401000141000624020101000687
:1007D000240202020009240301030102010009248A
:1007E00003020401010100090501024000000000AC
:1007F00005250101010905820240000000000525D0
:1008000001010312011001000000408025070001D2
:1008100000010203010011241FBECFEFCDBFDFE3B3
:10082000DEBF00E00CBF18BE19BE1ABE1BBE809111
:10083000780083FF1CC080912E3990912F39A091B0
:100840003039B09131398A3C9C4AA244BC4D79F48C
:1008500010922E3910922F3910923039109231396E
:1008600081E08CBFE0910220F0910320199510E205
:10087000A0E0B0E2E8E6FCE900E00BBF02C00790B0
:100880000D92AC3BB107D9F71BBE29E3ACEBB0E24C
:1008900001C01D92AE32B207E1F70E9417490C94D5
:1008A000324EAECB2FB7F894FC01E059FF4F609564
:1008B0008081682360832FBF08951BBEFC0128ED53
:1008C00024BF608308950F931F93CF93DF93E82F86
:1008D000F0E0DF01519634E0AA0FBB1F3A95E1F733
:1008E0002091040160910301EF01249641E050E062
:1008F0008A01082E01C0000F0A94EAF70C2E01C0ED
:10090000440F0A94EAF7402B642370E08B010C2E0D
:1009100002C0159507950A94E2F700FD1DC0082E48
:1009200002C0759567950A94E2F760FD18C04223EE
:10093000242F30E0A90102C055954795CA95E2F7EA
:1009400040FD10C0A90102C0559547958A95E2F770
:10095000CA018170992708C084E090E005C083E057
:1009600090E002C082E090E011962C9111972063F4
:1009700011962C93EE0FFF1FE852F44D0190F08179
:10098000E02D309729F0DF91CF911F910F911994AD
:10099000DF91CF911F910F91089561E080E090E089
:1009A00081DF9FB7F894E2EDFBE281818F5F818365
:1009B0009FBFE0E0F1E080E4808380E880830895D9
:1009C0001F920F920FB60F92112408B60F9218BE05
:1009D00009B60F9219BE0BB60F921BBE2F933F9311
:1009E0004F935F936F937F938F939F93AF93BF9337
:1009F000EF93FF9380E067DFFF91EF91BF91AF919D
:100A00009F918F917F916F915F914F913F912F9126
:100A10000F900BBE0F9009BE0F9008BE0F900FBE37
:100A20000F901F9018951F920F920FB60F921124DE
:100A300008B60F9218BE09B60F9219BE0BB60F92E8
:100A40001BBE2F933F934F935F936F937F938F932F
:100A50009F93AF93BF93EF93FF9381E034DFFF91B8
:100A6000EF91BF91AF919F918F917F916F915F9126
:100A70004F913F912F910F900BBE0F9009BE0F9099
:100A800008BE0F900FBE0F901F9018951F920F92E7
:100A90000FB60F92112408B60F9218BE09B60F9226
:100AA00019BE0BB60F921BBE2F933F934F935F93CC
:100AB0006F937F938F939F93AF93BF93EF93FF9326
:100AC00082E001DFFF91EF91BF91AF919F918F91F4
:100AD0007F916F915F914F913F912F910F900BBE3E
:100AE0000F9009BE0F9008BE0F900FBE0F901F9081
:100AF00018951F920F920FB60F92112408B60F92FD
:100B000018BE09B60F9219BE0BB60F921BBE2F93DB
:100B10003F934F935F936F937F938F939F93AF9385
:100B2000BF93EF93FF9383E0CEDEFF91EF91BF91F0
:100B3000AF919F918F917F916F915F914F913F9175
:100B40002F910F900BBE0F9009BE0F9008BE0F9013
:100B50000FBE0F901F901895DB01E82FF0E0719603
:100B600084E0EE0FFF1F8A95E1F79FB7F89419967E
:100B70008C91199784871A968C911A978587168677
:100B800017968C911797808718968C911897818764
:100B9000128612968C911297828313968C911397DA
:100BA000838314962D913C91159724833583169653
:100BB0008C911697868311968C91119781838C91D5
:100BC0008F7780839FBF08958091CF0187FDFCCFF1
:100BD00008951F93CF93DF93C0ECD1E01A858A87E5
:100BE00061E08BEC91E069DE1A87DF91CF911F9174
:100BF0000895CF93DF93EC01E7DFECECF1E0808127
:100C000088608083D05F88819081977F9083DF9117
:100C1000CF910895CF92DF92EF92FF920F931F939F
:100C2000CF93DF938C017B016A01CEDFCCECD1E066
:100C3000888188608883B801705FA601C7010E941F
:100C4000224E8881877F8883DF91CF911F910F91FA
:100C5000FF90EF90DF90CF900895B6DF8091CF01A5
:100C600081FF07C086E38093CA0161E08BEC91E0CD
:100C700024CE0895CF93DF93C82FD62FA5DFACECF9
:100C8000B1E08C9188608C93EC2FF0E0F05FD08322
:100C90008C91877F8C93DF91CF910895EF92FF9293
:100CA0000F931F93CF93DF93182FF92EE62EC0ECEE
:100CB000D1E00A85D2DF88DF6E2D812FDBDF1A823B
:100CC000F982188385E38A8761E08BEC91E0F5DD9A
:100CD0000A87DF91CF911F910F91FF90EF900895B8
:100CE0000F931F93CF938C016FDFC0E0F8016191E8
:100CF0008F018C2FBFDFCF5FC032C1F7CF911F9123
:100D00000F910895CF93C82F5FDF20E2C29FC001EB
:100D10001124E0ECF1E012829183808385E390E07E
:100D2000CF9157CF4091CA01E62FF72F8093CA0188
:100D300084914093CA0108951F920F920FB60F92AB
:100D4000112408B60F9218BE09B60F9219BE0BB641
:100D50000F921BBE2F933F934F935F936F937F939D
:100D60008F939F93AF93BF93EF93FF93E091EE2008
:100D7000F091EF20309709F01995FF91EF91BF9115
:100D8000AF919F918F917F916F915F914F913F9123
:100D90002F910F900BBE0F9009BE0F9008BE0F90C1
:100DA0000FBE0F901F9018951F920F920FB60F92C3
:100DB000112408B60F9218BE09B60F9219BE0BB6D1
:100DC0000F921BBE2F933F934F935F936F937F932D
:100DD0008F939F93AF93BF93EF93FF93E091EC209A
:100DE000F091ED20309709F01995FF91EF91BF91A7
:100DF000AF919F918F917F916F915F914F913F91B3
:100E00002F910F900BBE0F9009BE0F9008BE0F9050
:100E10000FBE0F901F9018951F920F920FB60F9252
:100E2000112408B60F9218BE09B60F9219BE0BB660
:100E30000F921BBE2F933F934F935F936F937F93BC
:100E40008F939F93AF93BF93EF93FF93E091EA202B
:100E5000F091EB20309709F01995FF91EF91BF9138
:100E6000AF919F918F917F916F915F914F913F9142
:100E70002F910F900BBE0F9009BE0F9008BE0F90E0
:100E80000FBE0F901F9018951F920F920FB60F92E2
:100E9000112408B60F9218BE09B60F9219BE0BB6F0
:100EA0000F921BBE2F933F934F935F936F937F934C
:100EB0008F939F93AF93BF93EF93FF93E091E820BD
:100EC000F091E920309709F01995FF91EF91BF91CA
:100ED000AF919F918F917F916F915F914F913F91D2
:100EE0002F910F900BBE0F9009BE0F9008BE0F9070
:100EF0000FBE0F901F9018951F920F920FB60F9272
:100F0000112408B60F9218BE09B60F9219BE0BB67F
:100F10000F921BBE2F933F934F935F936F937F93DB
:100F20008F939F93AF93BF93EF93FF93E091E6204E
:100F3000F091E720309709F01995FF91EF91BF915B
:100F4000AF919F918F917F916F915F914F913F9161
:100F50002F910F900BBE0F9009BE0F9008BE0F90FF
:100F60000FBE0F901F9018951F920F920FB60F9201
:100F7000112408B60F9218BE09B60F9219BE0BB60F
:100F80000F921BBE2F933F934F935F936F937F936B
:100F90008F939F93AF93BF93EF93FF93E091E420E0
:100FA000F091E520309709F01995FF91EF91BF91ED
:100FB000AF919F918F917F916F915F914F913F91F1
:100FC0002F910F900BBE0F9009BE0F9008BE0F908F
:100FD0000FBE0F901F9018951F920F920FB60F9291
:100FE000112408B60F9218BE09B60F9219BE0BB69F
:100FF0000F921BBE2F933F934F935F936F937F93FB
:101000008F939F93AF93BF93EF93FF93E091E22071
:10101000F091E320309709F01995FF91EF91BF917E
:10102000AF919F918F917F916F915F914F913F9180
:101030002F910F900BBE0F9009BE0F9008BE0F901E
:101040000FBE0F901F9018951F920F920FB60F9220
:10105000112408B60F9218BE09B60F9219BE0BB62E
:101060000F921BBE2F933F934F935F936F937F938A
:101070008F939F93AF93BF93EF93FF93E091E02003
:10108000F091E120309709F01995FF91EF91BF9110
:10109000AF919F918F917F916F915F914F913F9110
:1010A0002F910F900BBE0F9009BE0F9008BE0F90AE
:1010B0000FBE0F901F9018951F920F920FB60F92B0
:1010C000112408B60F9218BE09B60F9219BE0BB6BE
:1010D0000F921BBE2F933F934F935F936F937F931A
:1010E0008F939F93AF93BF93EF93FF93E091DE2095
:1010F000F091DF20309709F01995FF91EF91BF91A2
:10110000AF919F918F917F916F915F914F913F919F
:101110002F910F900BBE0F9009BE0F9008BE0F903D
:101120000FBE0F901F9018951F920F920FB60F923F
:10113000112408B60F9218BE09B60F9219BE0BB64D
:101140000F921BBE2F933F934F935F936F937F93A9
:101150008F939F93AF93BF93EF93FF93E091DC2026
:10116000F091DD20309709F01995FF91EF91BF9133
:10117000AF919F918F917F916F915F914F913F912F
:101180002F910F900BBE0F9009BE0F9008BE0F90CD
:101190000FBE0F901F9018951F920F920FB60F92CF
:1011A000112408B60F9218BE09B60F9219BE0BB6DD
:1011B0000F921BBE2F933F934F935F936F937F9339
:1011C0008F939F93AF93BF93EF93FF93E091DA20B8
:1011D000F091DB20309709F01995FF91EF91BF91C5
:1011E000AF919F918F917F916F915F914F913F91BF
:1011F0002F910F900BBE0F9009BE0F9008BE0F905D
:101200000FBE0F901F9018951F920F920FB60F925E
:10121000112408B60F9218BE09B60F9219BE0BB66C
:101220000F921BBE2F933F934F935F936F937F93C8
:101230008F939F93AF93BF93EF93FF93E091D82049
:10124000F091D920309709F01995FF91EF91BF9156
:10125000AF919F918F917F916F915F914F913F914E
:101260002F910F900BBE0F9009BE0F9008BE0F90EC
:101270000FBE0F901F9018951F920F920FB60F92EE
:10128000112408B60F9218BE09B60F9219BE0BB6FC
:101290000F921BBE2F933F934F935F936F937F9358
:1012A0008F939F93AF93BF93EF93FF93E091D620DB
:1012B000F091D720309709F01995FF91EF91BF91E8
:1012C000AF919F918F917F916F915F914F913F91DE
:1012D0002F910F900BBE0F9009BE0F9008BE0F907C
:1012E0000FBE0F901F9018951F920F920FB60F927E
:1012F000112408B60F9218BE09B60F9219BE0BB68C
:101300000F921BBE2F933F934F935F936F937F93E7
:101310008F939F93AF93BF93EF93FF93E091D4206C
:10132000F091D520309709F01995FF91EF91BF9179
:10133000AF919F918F917F916F915F914F913F916D
:101340002F910F900BBE0F9009BE0F9008BE0F900B
:101350000FBE0F901F9018951F920F920FB60F920D
:10136000112408B60F9218BE09B60F9219BE0BB61B
:101370000F921BBE2F933F934F935F936F937F9377
:101380008F939F93AF93BF93EF93FF93E091D220FE
:10139000F091D320309709F01995FF91EF91BF910B
:1013A000AF919F918F917F916F915F914F913F91FD
:1013B0002F910F900BBE0F9009BE0F9008BE0F909B
:1013C0000FBE0F901F9018951F920F920FB60F929D
:1013D000112408B60F9218BE09B60F9219BE0BB6AB
:1013E0000F921BBE2F933F934F935F936F937F9307
:1013F0008F939F93AF93BF93EF93FF93E091D02090
:10140000F091D120309709F01995FF91EF91BF919C
:10141000AF919F918F917F916F915F914F913F918C
:101420002F910F900BBE0F9009BE0F9008BE0F902A
:101430000FBE0F901F9018951F920F920FB60F922C
:10144000112408B60F9218BE09B60F9219BE0BB63A
:101450000F921BBE2F933F934F935F936F937F9396
:101460008F939F93AF93BF93EF93FF93E091CE2021
:10147000F091CF20309709F01995FF91EF91BF912E
:10148000AF919F918F917F916F915F914F913F911C
:101490002F910F900BBE0F9009BE0F9008BE0F90BA
:1014A0000FBE0F901F9018951F920F920FB60F92BC
:1014B000112408B60F9218BE09B60F9219BE0BB6CA
:1014C0000F921BBE2F933F934F935F936F937F9326
:1014D0008F939F93AF93BF93EF93FF93E091CC20B3
:1014E000F091CD20309709F01995FF91EF91BF91C0
:1014F000AF919F918F917F916F915F914F913F91AC
:101500002F910F900BBE0F9009BE0F9008BE0F9049
:101510000FBE0F901F9018951F920F920FB60F924B
:10152000112408B60F9218BE09B60F9219BE0BB659
:101530000F921BBE2F933F934F935F936F937F93B5
:101540008F939F93AF93BF93EF93FF93E091CA2044
:10155000F091CB20309709F01995FF91EF91BF9151
:10156000AF919F918F917F916F915F914F913F913B
:101570002F910F900BBE0F9009BE0F9008BE0F90D9
:101580000FBE0F901F9018951F920F920FB60F92DB
:10159000112408B60F9218BE09B60F9219BE0BB6E9
:1015A0000F921BBE2F933F934F935F936F937F9345
:1015B0008F939F93AF93BF93EF93FF93E091C820D6
:1015C000F091C920309709F01995FF91EF91BF91E3
:1015D000AF919F918F917F916F915F914F913F91CB
:1015E0002F910F900BBE0F9009BE0F9008BE0F9069
:1015F0000FBE0F901F9018951F920F920FB60F926B
:10160000112408B60F9218BE09B60F9219BE0BB678
:101610000F921BBE2F933F934F935F936F937F93D4
:101620008F939F93AF93BF93EF93FF93E091C62067
:10163000F091C720309709F01995FF91EF91BF9174
:10164000AF919F918F917F916F915F914F913F915A
:101650002F910F900BBE0F9009BE0F9008BE0F90F8
:101660000FBE0F901F9018951F920F920FB60F92FA
:10167000112408B60F9218BE09B60F9219BE0BB608
:101680000F921BBE2F933F934F935F936F937F9364
:101690008F939F93AF93BF93EF93FF93E091C420F9
:1016A000F091C520309709F01995FF91EF91BF9106
:1016B000AF919F918F917F916F915F914F913F91EA
:1016C0002F910F900BBE0F9009BE0F9008BE0F9088
:1016D0000FBE0F901F9018951F920F920FB60F928A
:1016E000112408B60F9218BE09B60F9219BE0BB698
:1016F0000F921BBE2F933F934F935F936F937F93F4
:101700008F939F93AF93BF93EF93FF93E091C2208A
:10171000F091C320309709F01995FF91EF91BF9197
:10172000AF919F918F917F916F915F914F913F9179
:101730002F910F900BBE0F9009BE0F9008BE0F9017
:101740000FBE0F901F9018951F920F920FB60F9219
:10175000112408B60F9218BE09B60F9219BE0BB627
:101760000F921BBE2F933F934F935F936F937F9383
:101770008F939F93AF93BF93EF93FF93E091C0201C
:10178000F091C120309709F01995FF91EF91BF9129
:10179000AF919F918F917F916F915F914F913F9109
:1017A0002F910F900BBE0F9009BE0F9008BE0F90A7
:1017B0000FBE0F901F9018951F920F920FB60F92A9
:1017C000112408B60F9218BE09B60F9219BE0BB6B7
:1017D0000F921BBE2F933F934F935F936F937F9313
:1017E0008F939F93AF93BF93EF93FF93E091BE20AE
:1017F000F091BF20309709F01995FF91EF91BF91BB
:10180000AF919F918F917F916F915F914F913F9198
:101810002F910F900BBE0F9009BE0F9008BE0F9036
:101820000FBE0F901F9018951F920F920FB60F9238
:10183000112408B60F9218BE09B60F9219BE0BB646
:101840000F921BBE2F933F934F935F936F937F93A2
:101850008F939F93AF93BF93EF93FF93E091BC203F
:10186000F091BD20309709F01995FF91EF91BF914C
:10187000AF919F918F917F916F915F914F913F9128
:101880002F910F900BBE0F9009BE0F9008BE0F90C6
:101890000FBE0F901F901895CF93CFB7F894811576
:1018A00028E0920711F461E005C0803428E0920737
:1018B00049F462E083E090E00E94520464E083E037
:1018C00090E01EC0811529E0920711F461E005C087
:1018D000803429E0920749F462E084E090E00E94BD
:1018E000520464E084E090E00BC081159A4091F4CA
:1018F00061E085E090E00E94520464E085E090E0C1
:101900000E9452049FB7F8948091D32B8F5F8093ED
:10191000D32B9FBFCFBFCF910895811528E09207A9
:1019200029F46093EA207093EB200895803428E036
:10193000920729F46093DE207093DF2008958115CB
:1019400029E0920729F46093D6207093D720089558
:10195000803429E0920729F46093CA207093CB2049
:10196000089581159A4021F46093C2207093C3209A
:101970000895811528E0920729F46093E820709378
:10198000E9200895803428E0920729F46093DC2050
:101990007093DD200895811529E0920729F4609362
:1019A000D4207093D5200895803429E0920729F43B
:1019B0006093C8207093C920089581159A4021F43E
:1019C0006093C0207093C1200895009709F49BC0D4
:1019D000803C910511F460E105C0811524E0920777
:1019E00021F464E080E090E08CC0803821E0920730
:1019F00011F462E0F7CF811521E0920711F461E064
:101A0000F1CF803823E0920711F461E005C0811521
:101A100022E0920721F462E081E090E072C080321F
:101A200023E0920721F464E082E090E06AC081152F
:101A300028E0920711F461E05BC0811529E092076C
:101A400011F461E04DC081152AE0920711F461E0C4
:101A500056C0803428E0920711F462E049C0803417
:101A600029E0920711F462E03BC0803928E0920738
:101A700011F464E03DC0803929E0920711F464E07C
:101A80002FC080392AE0920711F464E038C0803C0E
:101A900028E0920711F468E02BC0803C29E092070F
:101AA00011F468E01DC0803A28E0920711F460E16B
:101AB0001FC0803A29E0920711F460E111C0803A1A
:101AC0002AE0920711F460E11AC0803B28E09207F7
:101AD00011F460E20DC0803B29E0920721F460E23E
:101AE00084E090E00EC0803824E0920721F460E4A6
:101AF00083E090E006C0803A944029F460E485E0F9
:101B000090E00C94520408950F931F93CF93DF93AA
:101B1000EC01D901C801369527951795079540170F
:101B200051076207730768F49A01AB01220F331F54
:101B3000441F551FBC01CD010E94CC4D21503109DD
:101B400002C020E030E0832F8F708F832E83DF91DF
:101B5000CF911F910F910895EF92FF920F931F93D2
:101B6000CF93DF93EC017B0130DF8C818F7E8C8300
:101B7000F70124812250C03AF8E0DF0731F4809168
:101B80004E0684FD6BC011E11FC0C03B88E0D80742
:101B900009F464C0C03AE9E0DE0731F480916E06D2
:101BA00084FD5EC019E110C0C03BF9E0DF0709F415
:101BB00057C0C03A8AE0D80739F480918E0684FD78
:101BC00002C011E201C015E2E12FE695E695E69527
:101BD00080E2E89FF0011124FA5F177081E090E045
:101BE00001C0880F1A95EAF78183223010F020E0B7
:101BF00001C020E48093B000208B85838D81806CB0
:101C00008D83F70184818D7F813019F48D8182600D
:101C100002C08D818D7F8D83F7018581882319F026
:101C20008D81846002C08D818B7F8D83F70140811F
:101C300051816281738100E018E428EE31E0CE0129
:101C400063DF8C8188608C838C8180618C83DF91E1
:101C5000CF911F910F91FF90EF90089515E1B4CFB0
:101C60001DE1B2CF8091820080FDFCCF089590915C
:101C70008000880F880F682F6C7392709160692BB9
:101C800080E890E00E945D04EDCF609180006C7F61
:101C9000616080E890E00C945D04609180006C735A
:101CA000636080E890E00E945D04DCCF63E080E840
:101CB00090E00E945D04D6DF6BE281E890E00E9434
:101CC0005D04D0DFA895FFCF8EE090E00E94F9057B
:101CD000813039F482EA93E08093002090930120D0
:101CE000089582E295E0809300209093012008956A
:101CF000CF92DF92EF92FF920F931F93CF93DF93D8
:101D0000CDB7DEB76797CDBFDEBF8823A1F1FB015A
:101D10008081811130C088E0EFE1F0E2DE01509671
:101D200001900D928A95E1F78FE0E7E2F0E2DE01A3
:101D3000119601900D928A95E1F77E01F0E1EF0E88
:101D4000F11C8E01095F1F4F6E018FE0C80ED11C80
:101D5000F70161917F0170E082E00E949206F80134
:101D600081938F01EC15FD0599F7BE016F5F7F4FE1
:101D70008FE00E9497396796CDBFDEBFDF91CF918C
:101D80001F910F91FF90EF90DF90CF9008958F9269
:101D90009F92AF92BF92CF92DF92EF92FF920F93FA
:101DA0001F93CF93DF93CDB7DEB7C055D109CDBF19
:101DB000DEBFFB01833008F445C190811181111110
:101DC00001C010E4911156C0863008F43BC19281E5
:101DD000992309F437C1248130E090E00497281753
:101DE00039070CF02FC1612F70E0615071096B0150
:101DF00044E0D594C7944A95E1F76F707727AE0118
:101E00004F5F5F4F8FE0DA011D928A95E9F7CA01B3
:101E10008E01005F1F4F70E8F72EDC01FD92CD01AF
:101E2000A017B107D1F7359690E08901015011094B
:101E3000292F30E020173107B4F42E0F3F1FD901AE
:101E40002C912A502F3068F4DA01A20FB11D9D01A8
:101E500081E0890F7F01E80EF11CD7018C91D90137
:101E60008C939E5FE5CF8C2D0E94282F0E94BC3B57
:101E7000A895E8C0913009F0E5C00FEF010F0034DC
:101E800060F4612F70E061507109CB0134E09595E9
:101E900087953A95E1F76F7002C060E080E0AE018F
:101EA0004E5B5F4F0E944E298AE08CA323968FAD34
:101EB00023978DA38BE08EA324968FAD24978FA3B9
:101EC0008CE088A725968FAD259789A78DE08AA7F6
:101ED00026968FAD26978F5F8BA78EE08CA72796CF
:101EE0008FAD27978DA78FE08EA71FA680E188ABC7
:101EF00029968FAD29978F5F89AB81E18AAB2A96AE
:101F00008FAD2A978BAB82E18CAB2B968FAD2B9745
:101F10008DAB83E18EAB2C968FAD2C978FAB84E18C
:101F200088AF2D968FAD2D9789AF85E18AAF2E961C
:101F30008FAD2E978BAF86E18CAF2F968FAD2F97FD
:101F40008DAF87E18EAF60968FAD60978FAF88E1E0
:101F500021968FAF219761968FAD61978F5F229603
:101F60008FAF2297003410F000E001C00EE1802F07
:101F700068E10E948C4DEE24E394E80E103411F0D9
:101F8000C12E01C0C12CD12CFF24F39480EFB82EB8
:101F9000AA24A39499E7992E24E0822E17EF802F8C
:101FA000093108F088E10851B9821A82AB829C821B
:101FB0008D821E82CF82F886E9868A871B871C87DE
:101FC0001D871E871F87188B198B1A8B1B8B1C8BE9
:101FD0001D8B1E8B1F8B188F198F1A8F1B8F1C8FB9
:101FE0001D8F1E8F1F8F18A319A31AA31BA39AE07E
:101FF000482F50E0475F5F4F292F30E042175307CB
:102000008CF0A1E0B0E0AC0FBD1FA20FB31FE4E263
:10201000F0E0EC0FFD1FED0DF11D60816C939F5FF3
:10202000D394EACFBE016F5F7F4F855F0E949739DF
:102030008091BD389091BE38F2D2A895F394EF14F8
:1020400008F0ADCFC05BDF4FCDBFDEBFDF91CF91DA
:102050001F910F91FF90EF90DF90CF90BF90AF90C6
:102060009F908F900895DC0190E050E0415051091D
:10207000292F30E024173507F4F481E0890FFB01A4
:10208000E20FF31F20812A3048F4FB01E80FF11D15
:102090008081FD01E20FF11D80830BC02F3148F0DC
:1020A000FB01E80FF11D8081FD01E20FF11D759725
:1020B00080839E5FDDCF0895FF920F931F93CF9390
:1020C000DF93CDB7DEB7AB97CDBFDEBFF8940E94EC
:1020D000F9268C0180E190E00E94F905F82E7894B1
:1020E00080EF89831A8281E08B8399E79C8322E0C9
:1020F0002D838E831F829091B92F9F5F9887898748
:10210000F80184858A872B8780818C8783E08D877F
:1021100082818E8784E08F878481888B85E0898B9C
:1021200086818A8B86E08B8B80858C8B87E08D8B7C
:1021300082858E8B88E08F8B8091B82F888F89E085
:10214000898F8091B12F8A8F8FE18B8F8091E02BC7
:102150008C8F80E28D8F8091B72F8E8F81E28F8F51
:102160008EE090E00E94F90588A382E289A3809125
:102170009D2F982F92959F709F5F9AA393E29BA3A8
:102180008F708F5F8CA384E28DA38F2D8F738EA3AE
:1021900085E28FA3F294F694F69483E0F822F8A6F1
:1021A00086E289A780919E2F8AA787EF8BA7BE0121
:1021B0006F5F7F4F8BE20E949739AB96CDBFDEBF3A
:1021C000DF91CF911F910F91FF900895882329F0FF
:1021D000FB018081811101C06FCF0895CF93DF9300
:1021E000CDB7DEB72D97CDBFDEBFF89481E090E08C
:1021F0000E94F9058093B92F83E090E00E94F905D1
:1022000091E0811101C090E09D8784E090E00E9400
:10221000F90590E089839A8385E090E00E94F905B2
:1022200090E08B839C8386E090E00E94F90590E02B
:102230008D839E8387E090E00E94F90590E08F8374
:10224000988788E090E00E94F90590E089879A8756
:1022500089E090E00E94F90590E08B879C878AE0F6
:1022600090E00E94F9058093B82F8BE090E00E94E7
:10227000F9058093B12F8CE090E00E94F9058093DE
:10228000E02B8DE090E00E94F9058093B72F1CDDD4
:102290008FE090E00E94F90580939D2F80E190E00F
:1022A0000E94F905E82FEF73E83008F0E0E0F0E075
:1022B000E456FF4D908190939F2182958695869557
:1022C000837080939E2181E190E00E94F9058093C4
:1022D0009E2FCE0101960E94CE2678942D96CDBFDA
:1022E000DEBFDF91CF910895FF920F931F93CF939D
:1022F000DF93CDB7DEB76297CDBFDEBFF82E8B017F
:10230000C4DCCE01019622E1FC0111922A95E9F785
:102310004F2DB801A8DE6981615081E090E00E94F4
:102320004E066A8183E090E00E944E066B8184E055
:1023300090E00E944E066C8185E090E00E944E067F
:102340006D8186E090E00E944E066E8187E090E00D
:102350000E944E066F8188E090E00E944E066885DC
:1023600089E090E00E944E0669858AE090E00E9434
:102370004E066A858BE090E00E944E066B858CE0ED
:1023800090E00E944E066C858DE090E00E944E0623
:102390006D858EE090E00E944E068E85882319F0B0
:1023A0009FEF980F01C095E06F85662311F0615093
:1023B00001C062E0F0E19F9FC00111246F70682BA3
:1023C0008FE090E00E944E0668896F73998920E43F
:1023D000929FC0011124682B80E190E00E944E067C
:1023E0006A8981E190E00E944E060E94054460E007
:1023F0007FEF80E090E00E947341F0DE0E94A72909
:102400005BDE0E943F356296CDBFDEBFDF91CF918C
:102410001F910F91FF900895F89468E080E090E09C
:102420000E944E0663E081E090E00E944E0661E06B
:1024300083E090E00E944E0660E084E090E00E941D
:102440004E0669E085E090E00E944E0660E086E07E
:1024500090E00E944E0660E087E090E00E944E0609
:1024600068E088E090E00E944E0660E089E090E03D
:102470000E944E066FE38AE090E00E944E066FE7EE
:102480008BE090E00E944E066FE78CE090E00E94A7
:102490004E066FE78DE090E00E944E0660E08EE011
:1024A00090E00E944E0662E58FE090E00E944E06AA
:1024B00067E480E190E00E944E0661E081E190E0F7
:1024C0000E944E0678940C94312A882369F1FB010E
:1024D0008081813019F0823069F00895D6DBD1D542
:1024E0002FEF8FE493EC215080409040E1F700C043
:1024F00000003CC0CADB90DF87E08093A2006FEF52
:102500007FEF80E090E00E947341BBD52FEF8FE416
:1025100093EC215080409040E1F700C0000081E042
:1025200090E0A5DBBADBFFCF089564E771E181E0BD
:102530000E94652566EE70E182E00E94652565E6F1
:1025400072E183E00E94652567EC7EE084E00E94F2
:10255000652568E77EE085E00E94652580E090E0E3
:102560000E94F905883009F057CF08958AD5F8946C
:1025700080E02FEF3FE891E0215030409040E1F7BC
:1025800000C000008F5F8038A1F78AEC9CEAA2E4CB
:10259000BCED80932E3990932F39A0933039B093AE
:1025A000313984CBCF93DF93EC011B8682E08C839F
:1025B000898761E0CE0101969CD4882331F061E0E7
:1025C000CE010696DF91CF9194C480E0DF91CF9148
:1025D0000895CF93DF932091EA2F2430D1F4EB01BB
:1025E000FC01818195D340E050E064E070E0CE01D1
:1025F000B7D1811111C08091F32F9091F42FFC017C
:10260000EF5BFF4F208131978081281720F038D36E
:1026100002C082E001C080E0DF91CF910895209157
:10262000EA2F2430E9F4FC01818172D38091F72FE5
:102630002091F32F3091F42FF90187FF05C0EF5B54
:10264000FF4F808190E008C0E05CFF4F80813196B1
:10265000208190E0821B9109892B21F011D3D2C4F3
:1026600082E0089580E00895CF93DF932091EA2FD0
:10267000243051F4EC0189814BD37FD3882321F09E
:10268000CE01DF91CF91CBCFDF91CF9108950F9302
:102690001F93CF932091EA2F243011F0C0E027C080
:1026A0008B01FC01868134D374D3C82F8823B1F306
:1026B0008091F32F9091F42FFC01EF5BFF4F20816D
:1026C00031978081281750F740E050E064E070E0D7
:1026D000C80193D18091F32F9091F42FFC01EF5B0F
:1026E000FF4F208131978081281708F0E2D28C2F8C
:1026F000CF911F910F9108950F931F93CF93DF9365
:10270000CDB7DEB7EA97CDBFDEBF0BEE1FE2E0D25A
:10271000F80181938F01FFE2033F1F07C1F70E9479
:102720006D4951D3882309F4FCC09091EB2F20917F
:10273000EC2F422F50E04A30510508F0F2C0FA0168
:102740008827E250FF4F8F4F0C940A4E903891F03B
:10275000923809F0E6C08091EF2F8F70D9D2E091C6
:10276000F52FF091F62F118112FB112710F980E05F
:10277000CFD206C01091E72F8091E82F811112600F
:102780003CD3812FB5D280E0AAC0892F8D7F09F07C
:10279000C8C0992319F0923061F0C3C08091ED2F29
:1027A000813009F0BEC0233009F080E08093E82F2B
:1027B00027C08091ED2F811123C0E091EF2F1E2FB4
:1027C0001F7009F4AEC0812FA3D28091EC2F83300B
:1027D00011F43FD315C0E091F52FF091F62F8181D0
:1027E0008B7F818324E8129FF0011124E75CFF4C6A
:1027F0001082E091F52FF091F62F80818E7F8083FB
:1028000080E086D2FAD26DC091118BC01091ED2F6D
:102810001F77F3D2E1D3B1D28823E9F31093C30435
:10282000111102C082E001C083E08093EA2F79C0D9
:102830009058923008F075C08091ED2F9091EE2F56
:102840008C3D43E0940759F583E08A838AE38983CA
:102850004FB7F894DE01139620E038E052E0509331
:10286000CA01E32FF0E0E4911092CA0120FF03C0F7
:10287000E295EF703F5FEF708E2F90E0EA3010F03E
:10288000C79601C0C0968D939D932F5F2C3139F769
:102890004FBFB3D26AE370E0CE01019616C0AE011D
:1028A0004F5F5F4F6091EF2F0E948B3A8C01892B15
:1028B00009F437C0A2D22091ED2F3091EE2F8981FB
:1028C0009A81B8012330334011F4E4D001C05CD1C7
:1028D000F0D127C0903829F590D28091E62F08D208
:1028E000CFD17AD31EC091111CC08091ED2F909151
:1028F000EE2F99270297ACF480D28091ED2F809330
:10290000E62F6AD38091E62F811106C08091C3041F
:10291000811102C081E001C084E08093EA2F0E940F
:10292000534951D2882311F068D293D2EA96CDBF91
:10293000DEBFDF91CF911F910F9108950895CF933E
:102940008091EA2F882351F0C091F72F80E0E0D1E9
:102950003AD28111D1DE8C2FCF91DAC1CF91089577
:10296000CF92DF92EF92FF920F931F93CF93DF935B
:10297000EC018B017A0146D3811136C0E114F104D8
:1029800039F0F70180819181081B190BC80FD91FFD
:10299000C12CD12C0115110531F18091F32F9091AB
:1029A000F42FFC01EF5BFF4F2081319780812817C6
:1029B00090F066D1C4DFE114F10449F0F7018081A1
:1029C0009181C80ED91EC082D18285E00DC01AD374
:1029D000882301F309C089918BD101501109FFEFC0
:1029E000CF1ADF0AD7CF80E0DF91CF911F910F91EF
:1029F000FF90EF90DF90CF900895CF92DF92EF920B
:102A0000FF920F931F93CF93DF93EC018B017A0119
:102A1000F9D2811136C0E114F10439F0F701808157
:102A20009181081B190BC80FD91FC12CD12C01157E
:102A3000110531F18091F32F9091F42FFC01EF5BA0
:102A4000FF4F208131978081281790F032D177DFB6
:102A5000E114F10449F0F70180819181C80ED91E7B
:102A6000C082D18285E00DC0CDD2882301F309C098
:102A70002FD1899301501109FFEFCF1ADF0AD7CF69
:102A800080E0DF91CF911F910F91FF90EF90DF9049
:102A9000CF900895DF92EF92FF920F931F93CF9301
:102AA000DF93D82FC92F8B018091F72F806830D109
:102AB0008091F12F9091F22F8017910728F0011546
:102AC000110519F4DDD001C08C01ED2EFC2ED12CA6
:102AD0000115110509F43FC08091EA2F811102C050
:102AE00082E04AC0853011F483E046C06CD1811188
:102AF00042C04FD181113AC040D1882349F320917F
:102B0000F72F8091F32F9091F42FFC0127FF05C040
:102B1000EF5BFF4FC081D0E013C0E05CFF4FC0818E
:102B200031968081D0E0C81BD1090AC0C034D105DC
:102B300050F4F70181917F01DBD0015011092196FA
:102B40000115110599F7DD24D394C034D10509F09E
:102B5000D12C96D0BDCFD110BFCF08C08091EA2F25
:102B6000882309F4BDCF853009F4BECF12D1882364
:102B7000A9F380E001C081E0DF91CF911F910F9117
:102B8000FF90EF90DF900895DF92EF92FF920F9306
:102B90001F93CF93DF93D82FC92F8B018091F72FED
:102BA0008068B6D08091F12F9091F22F8017910715
:102BB00028F00115110519F463D001C08C01ED2E28
:102BC000FC2ED12C0115110509F441C08091EA2F8A
:102BD000811102C082E04CC0853011F483E048C00E
:102BE000F2D0811144C0D5D081113CC0C6D0882319
:102BF00049F32091F72F8091F32F9091F42FFC014E
:102C000027FF05C0EF5BFF4FC081D0E015C0E05C3F
:102C1000FF4FC08131968081D0E0C81BD1090CC024
:102C2000C034D10560F4F701849162D0FFEFEF1A50
:102C3000FF0A0150110921960115110589F7DD24BC
:102C4000D394C034D10509F0D12C1AD0BBCFD11008
:102C5000BDCF08C08091EA2F882309F4BBCF85300F
:102C600009F4BCCF96D08823A9F380E001C081E0AD
:102C7000DF91CF911F910F91FF90EF90DF9008951A
:102C8000E091F52FF091F62FA091F32FB091F42F52
:102C9000AF5BBF4F8C9190E08283938380818D796D
:102CA0008083E091F32FF091F42FEF5BFF4F1082C0
:102CB0000895E091F52FF091F62F80818D79808332
:102CC000E091F32FF091F42FEF5BFF4F1082089506
:102CD0008091F32F9091F42FFC01EF5BFF4F208147
:102CE00031E0320F3083FC01E20FF11D8081089545
:102CF0002091F32F3091F42FF901EF5BFF4F90817A
:102D000041E0490F4083F901E90FF11D80830895E7
:102D10008093F72F482F4F7050E06091C604709158
:102D2000C7049A0194E0220F331F9A95E1F7E4E873
:102D300087FF11C0E49FC001E59F900D1124865CC0
:102D40009F4C8093F32F9093F42FC90108969B0119
:102D5000280F391F0DC0E49FC001E59F900D11247D
:102D60008850904D8093F32F9093F42F260F371FA8
:102D70002093F52F3093F62F08958091F72F8068D8
:102D8000C7DFE091F52FF091F62F80818695817055
:102D900008958091F72F8F77BBDFA091F52FB09129
:102DA000F62F8C9185FF0DC0E091F32FF091F42F59
:102DB00012968D919C911397E05CFF4F808381E088
:102DC000089580E008958091F72F8F77A1DFA0917B
:102DD000F52FB091F62F8C9184FF0DC0E091F32F69
:102DE000F091F42F12968D919C911397E05CFF4F18
:102DF000808381E0089580E008958091F72F8F7798
:102E000087DFE091F52FF091F62F80818D78808318
:102E1000E091F52FF091F62F808181608083E09121
:102E2000F32FF091F42FEF5BFF4F10828091F72F7B
:102E300080686EDFE091F52FF091F62F8081816040
:102E40008083E091F32FF091F42FEF5BFF4F10821E
:102E50000895E091F52FF091F62F818184608183B0
:102E6000E091F52FF091F62F8181807C803459F428
:102E70008091F72F80584CDFE091F52FF091F62FDD
:102E800081818460818308951F93CF93DF93C82F3E
:102E9000162FD42F3DDFE091F52FF091F62F118200
:102EA000E091F52FF091F62F8C2F881F8827881F2F
:102EB000880F8083E091F52FF091F62F1183E09138
:102EC000F52FF091F62F128213822091F32F30917B
:102ED000F42F24833583CC0FCC0BCD23F901E05C98
:102EE000FF4FC0833196108281E0DF91CF911F9117
:102EF0000895CF92DF92EF92FF920F931F93CF939B
:102F0000DF93C62E8C01D12CDC1409F43FC0F801EC
:102F1000D081D11104C0D3940B5F1F4FF5CFF801BE
:102F2000E180F28093818481823010F488E001C0D6
:102F300088E128E030E0C0E02E153F0520F4CF5FA7
:102F4000220F331FF9CFC82B8D2F8F70833010F0D5
:102F500080E01DC0CF7EF1E4EF16F104C8F799239D
:102F600021F0913021F4C06C0AC0C06403C0C06875
:102F7000911105C04E2D6C2F80E88D0F85DF4E2DF1
:102F80006C2F8D2F81DF8111C6CFE2CF81E0DF91E1
:102F9000CF911F910F91FF90EF90DF90CF90089508
:102FA00080E090E0E091C604F091C7049C0144E009
:102FB000220F331F4A95E1F7E20FF31F118640916C
:102FC000C6045091C704FA01E20FF31F1182019663
:102FD0008330910539F708958091EB2F87FF0DC05D
:102FE000D8DE811105C08091EA2F8111F9CF09C087
:102FF00060CE8091EA2F882321F0BFDE8823C9F3B9
:103000003FCE08950F931F93CF93E091C604F091A4
:10301000C70400A911A9C4E68091F72F87FF0AC051
:10302000ACDE811105C08091EA2F811105C020C05E
:1030300080E023C0AEDEF5CF8530E1F0E091F52FE2
:10304000F091F62F818182FD17C0E091C604F091C6
:10305000C70480A991A90817190711F48C01DCCFC6
:103060002FEF2C0FCC2311F0C22FF8CF84E005C036
:1030700082E003C083E001C081E0CF911F910F91F6
:10308000089563D069D0E0ECF4E081818E7F818384
:1030900080818F7780831092E92F0895CF93DF93FB
:1030A000E0E4F0E014828481836084834ED054D0C5
:1030B000C0ECD4E088818F7788838881806888839A
:1030C0001092EA2F1092E62F1092E82F1092E72F1D
:1030D00088818064888340E46BE480E8D5DE40E446
:1030E0006BE480E0D1DE8885806488878981816097
:1030F0008983DF91CF910895CF93DF932FB7F89411
:10310000C0ECD1E082E08A87EAE1F0E0E491A0EC53
:10311000B4E0DA96EC93DA97EBE1F0E0E491DB9639
:10312000EC93DB971A8685E891E38E7F16968D9354
:103130009C93179782E18C9381E018968C932FBF14
:103140008093E92FDF91CF91A9CFE0ECF4E0808567
:103150008370808711860895E0ECF4E08FEF82871A
:10316000848708951F920F920FB60F92112408B60C
:103170000F9218BE09B60F9219BE0BB60F921BBE66
:103180002F933F934F935F936F937F938F939F936F
:10319000AF93BF93EF93FF938091CA0486FF07C05C
:1031A00080E48093CA0485E08093EA2FC7DB809196
:1031B000CA0485FF13C080E28093CA048091E62F81
:1031C000882311F084E007C08091C304811102C0FC
:1031D00081E001C083E08093EA2FB0DB8091CA04D4
:1031E00084FF14C080E18093CA0482E08093EA2FB8
:1031F0001092E62F1092C304D3DE40E46BE480E823
:1032000043DE40E46BE480E03FDE98DBFF91EF912A
:10321000BF91AF919F918F917F916F915F914F91EE
:103220003F912F910F900BBE0F9009BE0F9008BEDB
:103230000F900FBE0F901F90189581E008950E9487
:103240000439DC01CB01F2E0B695A79597958795F7
:10325000FA95D1F72091B931222339F0BC01769546
:10326000679583E499E10C94F6469C01220F331F85
:10327000B901680F791F769567957695679583E410
:1032800099E10C94F6462F923F924F925F926F9283
:103290007F928F929F92AF92BF92CF92DF92EF92E6
:1032A000FF920F931F93CF93DF938091B73190914B
:1032B000B831029709F0ABC06090F1208FEF860D16
:1032C0008F3F09F48FE0482E512C2CEBA22E21E3E6
:1032D000B22E0DE71FE231EEE32E3BE2F32E42EB7E
:1032E000C42E4FE2D42E54E2252E712C6FE7862E89
:1032F000912C9601225B3F42F60131906F01330C15
:10330000330C320CF50181915F0199E0980F9331F4
:10331000B0F01816A4F46AE00E94984D84300CF0C6
:1033200083E0E82FF0E0E459FF4D8091F1206081C7
:103330000E948C4D91111BC0CFE7D0E01AC0F7015D
:1033400080819CE0929FF001939FF00D1124E80F83
:10335000F11D94E0EE0FFF1F9A95E1F7E359F34D4D
:10336000E60DF71DC081CC2311F0D0E002C0C0E013
:10337000D0E0F70181917F019CE0929FF001939F43
:10338000F00D1124E80FF11D84E0EE0FFF1F8A9568
:10339000E1F7E359F34DE40DF51D8081882331F009
:1033A0002FE740E0632D87E00E944E392097B9F067
:1033B000F80126812C9FC0012D9F900D1124B4018E
:1033C0000E94A54DC62F262F41E0632D87E00E9465
:1033D0004E394C2F66EE620D87E00E9476392394B9
:1033E000085F1F4FF8E22F1284CF8091BD38909173
:1033F000BE3815D98091F1208F5F803119F080930C
:10340000F12005C01092F12081E08093F020DF913F
:10341000CF911F910F91FF90EF90DF90CF90BF90D1
:10342000AF909F908F907F906F905F904F903F9064
:103430002F900895BF92CF92DF92EF92FF920F9359
:103440001F93CF93DF9362EB7FE2C1EEDBE2ADE748
:10345000BFE240E050E08FE3C82E9FE7D92EFB018A
:103460001192BF0180E090E020E030E08C01040F79
:10347000151FFC01E20FF31FEE55F94FB4907801D0
:10348000E20EF31EF701E359F34DB0822F5F3F4F79
:103490002031310571F74096803C910529F719924A
:1034A00015961C9215971796CC92179714961C9206
:1034B00014971696DC92169711961C9211971896EF
:1034C00040545F4F4115F3E05F0749F61092C52F56
:1034D00080E2EDE3FCE2DF011D928A95E9F780E1ED
:1034E000E1EAFFE2DF011D928A95E9F784E0EDE56C
:1034F000FCE2DF011D928A95E9F7B1D4ADE3BCE2AD
:10350000E1EAFFE284E06CE978E13FE34CE951E372
:103510002FE71D921C921197108258966D937C9301
:103520005997348750964D935C9351979FE7208726
:103530008150129631968111ECCF9093BA3110924E
:10354000F8209093F9201092BB3110929F2F109287
:10355000A02F8AE58093B62F1092B9311092B7311F
:103560001092B831DF91CF911F910F91FF90EF90A2
:10357000DF90CF90BF9008958091B7319091B8318E
:10358000892B59F481E090E08093B7319093B83162
:103590004FE76EE087E00C9476391092B7311092C5
:1035A000B8311092F12040E06EE087E00C9476395B
:1035B0001092F1200895CF932091B7313091B83116
:1035C0002130310551F4811129C082E090E08093CF
:1035D000B7319093B831CF9156CE22303105F1F406
:1035E000C82F0E940D39882389F08C2FCC0F990B9E
:1035F000029666E070E00E94B94D892B79F461E093
:1036000070E08FE199E1CF910C94F6468C2F66E043
:103610000E94984D911102C0CF9135CECF9108955F
:1036200090E0FC01EF51F44D20813CE0389FF00127
:10363000399FF00D1124E20FF11D84E0EE0FFF1F02
:103640008A95E1F7E359F34DE60FF11D8081089566
:1036500090E0FC01EF51F44D20813CE0389FF001F7
:10366000399FF00D1124E20FF11D84E0EE0FFF1FD2
:103670008A95E1F7E359F34DE60FF11D4083089574
:10368000E82FF0E0EE54F04D60830895E82FF0E06D
:10369000EE54F04D808108954FE76FE087E00E947F
:1036A000763940E06FE087E00C9476399CEE980F15
:1036B0009430B8F498E0899FF0011124E352F14D61
:1036C00081E0611180E0848380919F2F9091A02FF1
:1036D000019709F083C00E94C126049709F07EC0BB
:1036E00097C098EE980F943098F498E0899FF00175
:1036F0001124E354F14D81E0611101C080E0858324
:1037000080919F2F9091A02F019709F067C0E3CF80
:103710009AE9980F9031C0F590E0865691099C0186
:1037200023703327959587959595879553E0220FBC
:10373000331F5A95E1F7F901E358F04D82309105B6
:10374000B9F083309105D1F0019731F081E061113A
:1037500001C080E08083089581E0611101C080E0B4
:10376000818380919F2F9091A02F0197B9F5B3CFBE
:1037700081E0611101C080E08283089581E06111E0
:1037800001C080E0838308958F3079F48091042014
:10379000882321F181E08093B93184E090E00E9498
:1037A000C626A7D11092042077CF8E30B9F46623B5
:1037B00069F08091B7319091B831892B79F481E02B
:1037C00090E08093B7319093B83108951092B7315B
:1037D0001092B8311092F1201092F02008958430A8
:1037E000A0F09CEF980F943050F098EF980F943021
:1037F00048F08C50843048F483E090E0089581E0F4
:1038000090E0089582E090E0089580E090E00895CF
:103810002F923F924F925F926F927F928F929F92E0
:10382000BF92CF92DF92EF92FF920F931F93CF93AD
:10383000DF9300D01F92CDB7DEB7E091E02BF0E030
:10384000EE5DFC4FE491E091B72FF0E0EE5DFC4FB0
:10385000E4918DE79FE28B839C839DE3C92E9CE2DC
:10386000D92E21EE422E2BE2522E49825A8238E086
:10387000B32E4CE0242E312C812C50E8952E66EF8F
:10388000662E64E0762EEB81FC81848181110DC06F
:10389000E091E02BF0E0EE5DFC4FF490E091B72F6B
:1038A000F0E0EE5DFC4F149103C08AE0F82E1AE0C0
:1038B000EB81FC818181882331F04F2D68E7832DD6
:1038C0000E94F93E04C060E0832D0E940D3F832DCD
:1038D000DDDEB40102C0769567958A95E2F7412F47
:1038E000832D0E94D73E832DD1DEF82FF69DC00197
:1038F000F79D900D1124F60180839183F201B401AC
:10390000019002C0769567950A94E2F72F01412F46
:1039100084E0830D0E94D73EE981FA812191E983F9
:10392000FA83269DC001279D900D1124F601808702
:103930009187EB81FC818481811106C04F2D61E06C
:103940008B2D0E94F93E04C060E08B2D0E940D3F3C
:10395000E12E00E021E030E040E0EB81FC81668177
:103960008B2D0E94CE3DEB81FC818681F4E68F9FFA
:10397000C0011124F601808B918BEB81FC81858144
:10398000882331F04F2D6FE0822D0E94F93E04C054
:1039900060E0822D0E940D3FE12E0EE721E030E035
:1039A00041E0EB81FC816781822D0E94CE3DEB815D
:1039B000FC818781F4E68F9FC0011124F601808F7E
:1039C000918F33948B819C8108968B839C83239465
:1039D00092E0C90ED11CB394E4E03E1254CF249679
:1039E000CDBFDEBFDF91CF911F910F91FF90EF9080
:1039F000DF90CF90BF909F908F907F906F905F905F
:103A00004F903F902F9008958F929F92AF92BF92C8
:103A1000CF92DF92EF92FF920F93CF9348D24C0157
:103A20009DE3C92E9CE2D92EC0E0EE24E394F12C54
:103A30003CE9A32E31E3B32EC4018E219F21892BB3
:103A400029F06EE38C2F0E940D3F04C060E08C2FA4
:103A50000E940D3F00E021E030E040E060E08C2F6C
:103A60000E944E3EF601A192B1926F01EE0CFF1C36
:103A7000CF5FC03109F7CF910F91FF90EF90DF90AA
:103A8000CF90BF90AF909F908F900895EF92FF924C
:103A90000F93CF93DF938DE3E82E8CE2F82EC0E0F6
:103AA0006C2F8091C52FBCDDD82F882329F06AE0C8
:103AB0008C2F0E940D3F04C060E08C2F0E940D3FB0
:103AC00000E021E030E040E06D2F8C2F0E944E3E60
:103AD00024E6D29FC0011124F701819391937F01C5
:103AE000CF5FC031E9F6DF91CF910F91FF90EF905A
:103AF000089580919F2F9091A02F8230910531F0F1
:103B00008330910521F0019719F482CE7DCFBECF8D
:103B10000895EF92FF920F931F93CF93DF93182F87
:103B2000C82FD0E0E091E02BF0E0EE5DFC4FF49088
:103B3000E091B72FF0E0EE5DFC4F049150DE813054
:103B4000910531F140F08230910509F489C0039765
:103B500009F4A1C0BAC053E0CC0FDD1F5A95E1F7BC
:103B6000C358D04D8C8181110AE0812F8FDD60E038
:103B700070E802C0769567958A95E2F7402F812F0D
:103B8000DF91CF911F910F91FF90EF900C94D73E52
:103B90009E0124503109E90143E0CC0FDD1F4A9515
:103BA000E1F7FE01E358F04D848181110AE0F9014B
:103BB000E454FE4C8081882381F06AE00E94984D95
:103BC000A82FB0E0AA0FBB1FA059BF4D6D917C91EB
:103BD000402F812F0E94D73E0FC0F901EF51F44DC5
:103BE00060E070E8008002C0769567950A94E2F77D
:103BF000402F812F0E94D73E0091F120002311F029
:103C0000015001C00FE0602F8CEF810F09DD882388
:103C1000E9F0C358D04D8C81882311F02AE0F22EB0
:103C20000E940D394F2D882379F0011102C06DE3F8
:103C300002C06091B62F812FDF91CF911F910F911C
:103C4000FF90EF900C94F93E60E5F5CF60E0812F96
:103C5000DF91CF911F910F91FF90EF900C940D3F4A
:103C6000289793E0CC0FDD1F9A95E1F7FE01E3580A
:103C7000F04D8481882311F08AE001C08FE7C3589A
:103C8000D04DE82E00E022E030E040E06E81812F50
:103C90000E94CE3D1AC02C9783E0CC0FDD1F8A9581
:103CA000E1F7FE01E358F04D8481882311F08AE0AA
:103CB00001C08FE7C358D04DE82E0EE722E030E078
:103CC00041E06F81812F0E94CE3DDF91CF911F9106
:103CD0000F91FF90EF900895CF93DF93D82FC0916D
:103CE000F120CC2311F0C15001C0CFE08091B73159
:103CF0009091B831029761F5CD1318C06091B62F3D
:103D00008C2F0E940D3FCC2311F0C15001C0CFE099
:103D10006C2F8091C52F84DC811102C060E001C04E
:103D20006AE08C2FDF91CF910C940D3F6D2F809125
:103D3000C52F76DC882331F06AE08D2FDF91CF919B
:103D40000C940D3F60E08D2FDF91CF910C940D3FCF
:103D5000D111ECCF6091B62F80E00E940D3FCFE0F3
:103D6000D7CF4091F1209091F2204917B1F13091D5
:103D70000520303190F5381330C08091BA316AE1B6
:103D80000E948C4DE4E0F0E0E81BF109E959FF4D99
:103D90002081842F622F0E948C4D492F9C30C8F4C3
:103DA000215080E090E8BC0102C0769567952A9585
:103DB000E2F780E090E8AFEFBFEF04C0B695A795BB
:103DC000979587954A95D2F7682B792B832F0E9478
:103DD000F23E8091F1208093F22008950F9380911C
:103DE000F42090E020919F2F3091A02F821793070D
:103DF00009F07FDE80919F2F9091A02F8093F42077
:103E000081309105C9F048F082309105C9F00397DF
:103E1000D1F48091F32060DF16C000E020E030E0B4
:103E200040E060E08091F3200E944E3E60E580918A
:103E3000F3200E940D3F07C08091F3206ADE03C08B
:103E40008091F3208EDF8091F3208F5F803118F412
:103E50008093F32002C01092F3200F9108950F93E6
:103E60001F93CF93DF931092F6201092F72001E07A
:103E700010E0CDE0D4E0CE010E94F905853A51F47E
:103E80008091F6209091F720802B912B8093F62043
:103E90009093F720000F111FC05CDF4FCD3088E0FA
:103EA000D80749F7DF91CF911F910F910895809125
:103EB000F6209091F7200895F89421E030E0082E44
:103EC00002C0220F331F0A94E2F7209530954091EB
:103ED000F6205091F720242335232093F6203093A9
:103EE000F72020E4829FC00111246FEF835F9B4F76
:103EF0000E944E06789408956F927F928F929F92BF
:103F0000AF92BF92CF92DF92EF92FF920F931F93E7
:103F1000CF93DF93CDB7DEB7A097CDBFDEBFC82E5E
:103F20000E94450E8E010F5F1F4F80E2D8011D9247
:103F30008A95E9F7DC2CDD0C2FE1622E6D0CE12C6B
:103F400048015401F12C6F2D8E2D6ADB782E61E033
:103F50006F0D8E2D65DB769476947694729490EF47
:103F600079228695869586958F708729F5018193AC
:103F70005F01F394F394F0E1FF12E5CF88E0880E3F
:103F8000911CE394A4E0EA12DCCFC8010E94700601
:103F9000862D0E94820678014801B12C8B2D76DB9C
:103FA000F40181934F01B394F4E0BF12F7CF6DE7B2
:103FB0007FE29E01275F3F4FFB0185818795882720
:103FC00087959781892BD70114968C9314978481B8
:103FD0008795882787959681892B15968C93389697
:103FE000B2E0EB0EF11CE216F30639F74DE95FE2A1
:103FF00091E080E0FB012181222311F0292F01C0F3
:1040000020E0822B990F685F7F4F4617570791F783
:104010008F708D8785EA8E8781E090E002C0880FDF
:10402000991FCA94E2F72091F6203091F720822B55
:10403000932B8093F6209093F720C8010E9470067E
:1040400080E28D0D0E9482060E944D0EA096CDBF8B
:10405000DEBFDF91CF911F910F91FF90EF90DF9026
:10406000CF90BF90AF909F908F907F906F9008956A
:104070009F92AF92BF92CF92DF92EF92FF920F93F7
:104080001F93CF93DF9320E4829FC0011124EC01A2
:10409000C052DC4F91EEA92E9BE2B92E6E0100E0DA
:1040A000F50111925F01C601912C7C01FFEFEF1A1F
:1040B000FF0A0E94F905182F482F42954F70440FB0
:1040C000440F440F692D802FC3DA412F4F70440FE6
:1040D000440F440F61E0690D802FBADA93949394F2
:1040E000C70120E19212E1CF88E0C80ED11C0F5F1A
:1040F0000430B1F6CE01809610E07C01EFEFEE1AAD
:10410000FE0A0E94F905682F812FBADA1F5FC701E6
:10411000143099F76E01F4E2CF0ED11C0DE71FE2C7
:1041200084E1F82EC6010E94F9058F77F801878394
:104130005601FFEFAF1ABF0AC6010E94F905881F9A
:104140008827881FF8019581891731F04FE764E0CF
:104150006F0D87E00E947639C5010E94F9058F77BF
:10416000F8018683F2E0CF0ED11CC5010E94F9054B
:10417000881F8827881FF8019481891729F04FE745
:104180006F2D87E00E947639085F1F4FF394F8E1A6
:10419000FF12C8CFCE018C960E94F905082FCAE6FF
:1041A000D1E01FE741E0802F8D2309F440E0419FDB
:1041B000402D11246C2F87E00E947639DD0FCF5FF0
:1041C000CE3681F7DF91CF911F910F91FF90EF9045
:1041D000DF90CF90BF90AF909F900895EF92FF92A5
:1041E0000F931F93CF93C82F162F80919F2F9091DD
:1041F000A02F8230910509F474C08330910509F431
:10420000B9C0019709F0E8C08C2FE9DA8130910537
:1042100029F140F08230910509F43CC0039709F47C
:1042200049C0DAC0112309F4D7C028E0C29FF001C9
:104230001124E358F04D418181E0482741838FE705
:10424000489F402D11246AE66C0F87E00E94763962
:10425000CF911F910F91FF90EF90DACA1111BCC05E
:10426000EC2FF0E0EE0FFF1FE854FE4C80819181AF
:10427000803D974050F4C450C093C52F83E090E038
:1042800080939F2F9093A02FA7C0C2DA8FE78093CF
:10429000BA31A2C0112309F49FC088E0C89FF00181
:1042A0001124E35CF04D8481882381F06CE06C0F75
:1042B0004FE70FC0112309F48FC028E0C29FF0011F
:1042C0001124E35EF04D8581882381F36CE06C0F4F
:1042D0004FE387E0CF911F910F91FF90EF900C94E7
:1042E0007639662309F478C08091FA20882351F04A
:1042F0008C2FE2DD80910520C81336C081E18093C8
:10430000052032C00C2F10E081E090E00C2E02C09E
:10431000880F991F0A94E2F72091F6203091F72038
:1043200082239323000F111F892B81F08C2FA0DE95
:10433000C0930520F801E35CF34D8081918164E630
:1043400070E00E94A54D6093BA310EC08C2FD4DD71
:10435000C0930520F801E35CF34D8CE991E3808381
:1043600091838FE78093BA31CF911F910F91FF9086
:10437000EF904ACB662381F16C2F8091C52F50D9E5
:10438000EC2EF12C00E021E030E040E081110FC084
:104390006FE78C2F0E944E3EF701EE0FFF1FE35C8C
:1043A000F34D8CE991E3808391834FE70CC060E08B
:1043B0008C2F0E944E3EF701EE0FFF1FE35CF34D82
:1043C0001082118240E06C2F8091C52FCF911F91F8
:1043D0000F91FF90EF903CC9CF911F910F91FF90EB
:1043E000EF9008952F923F924F925F926F927F923B
:1043F0008F929F92AF92BF92CF92DF92EF92FF92F5
:104400000F931F93CF93DF93CDB7DEB72997CDBF1F
:10441000DEBF0E94364798EBC92E91E3D92E28EBD8
:10442000A22E21E3B22E31EA832E3FE2932E44E204
:10443000442E4FE2542E8DED9BE28A839B83EDE365
:10444000FCE2E887F98751E5E52E5CE2F52E712C58
:1044500022242394312C80917A2090917B208C838C
:104460009D83E0917820F0917920EE83FF83872D62
:104470000E9424478983082F880F110B011511050D
:1044800009F44DC184EF870D843038F580919F2F5A
:104490009091A02F019709F5E885F9858081918198
:1044A0000E94C52E8823C9F0F7018081F9818F0F02
:1044B000F70180838B303CF08E819F81E885F98500
:1044C0008083918388C0863F0CF085C08C819D815C
:1044D000E885F985808391837EC0E885F9858081B0
:1044E00091810E94CE2EE885F98520813181882333
:1044F000A1F12436310520F4101611063CF00CC051
:104500002933F1E33F0740F017FF06C0F701848528
:10451000F9818F0FF7018487F701848584306CF06F
:104520002436310508F057C084E690E0E885F98527
:1045300080839183F70114864EC08D3F0CF04BC0F1
:104540002933314308F447C088E391E3E885F985CE
:1045500080839183F70114863EC0F3E0F71588F05D
:1045600080919F2F9091A02F019771F4498180E550
:104570004802200D311D1124E885F98520833183FF
:1045800020C0F7E0F71588F080919F2F9091A02F21
:10459000019759F4498184E64802200D311D112408
:1045A000E885F985208331830CC0F2EBF09FC001D0
:1045B000F19F900D1124280F391FE885F98520837C
:1045C0003183E885F985808191810E94B82EE88544
:1045D000F98580839183E885F985808191810E94A6
:1045E000B12E682E80919F2F9091A02F8130910540
:1045F00009F07BC0872DF3D88130910531F190F01F
:104600008230910509F466C0039709F088C0F20171
:104610006082F4016082462D60E1670D87E00E94B0
:1046200076397DC0662D70E080E090E00E94724A8D
:104630002DEC3CEC48E351E40E94D7490E94444AE7
:10464000872D1ED8F40160826AC0F60180819181B5
:10465000009761F1FEE4F09F9001F19F300D301B57
:104660001124E885F98540815181240F351F20836D
:10467000318317FF03C0119501951109F4E6F09FEE
:104680009001F19F300D1124820F931FF60180835A
:104690009183F5018081F9818F0F88321CF4F50137
:1046A00080833DC047E2F501408339C0662D70E04C
:1046B00080E090E00E94724A2DEC3CEC48E351E42B
:1046C0000E94D7490E94444AEA81FB816083F40139
:1046D000608225C0F201678EF4016082462D60E29F
:1046E000670D87E00E9476391AC08330910579F40E
:1046F000462D672D8091C52F0E94281B00E021E0E8
:1047000030E040E0662D872D0E944E3E08C00297A3
:1047100031F480910520871102C06092BA310E9465
:10472000654782219321892B21F061E0872D56DD99
:1047300009C00E946A4782219321892B19F060E009
:10474000872D4CDD8CEF870D843088F40E94604704
:1047500082219321F601892B31F08081918101968C
:104760008083918304C010821182F5011082220C93
:10477000331C7394F2E0CF0ED11C4FEFA41AB40A8D
:104780008FEF881A980A98E0490E511CEA81FB8144
:104790003196EA83FB838885998502968887998775
:1047A0009FEFE91AF90AE0E17E1261CE2996CDBFAA
:1047B000DEBFDF91CF911F910F91FF90EF90DF90BF
:1047C000CF90BF90AF909F908F907F906F905F90B1
:1047D0004F903F902F900895CF92DF92EF92FF92EB
:1047E0000F931F93CF93882309F442C08091FA203E
:1047F000882361F081E090E0C9D2CF911F910F91A1
:10480000FF90EF90DF90CF900C943F3581E0809344
:10481000FA2005EE1BE291EEC92E9BE2D92EC0E0F4
:104820008C2F0E94461BF8018083F60181916F0155
:10483000F8018183E12CF12C6E2D8C2F0E94101B2E
:10484000F801EE0DFF1D8283FFEFEF1AFF0A80E1F2
:10485000E816F10489F7CF5F0E5E1F4FC43001F7F1
:10486000CF911F910F91FF90EF90DF90CF9008951F
:104870001092FA2005EE1BE281EEC82E8BE2D82EB4
:10488000C0E0F80160818C2F0E94401BF8018181FB
:10489000F60181936F01E12CF12CF801EE0DFF1D63
:1048A00042816E2D8C2F0E94281BFFEFEF1AFF0A0A
:1048B00080E1E816F10489F7CF5F0E5E1F4FC43028
:1048C00001F7CF911F910F91FF90EF90DF90CF9064
:1048D0000C94081CDF92EF92FF920F931F93CF93DB
:1048E000DF938091B931882339F080919F2F909187
:1048F000A02F892B09F47DC00E946F47D82EC0E0FD
:10490000D1E082E0E82EF12C01E010E08091F5206A
:104910009D2D98279D2339F08D23B9F00BC0C2300F
:1049200059F00E94D81ADD0FCF5FC63079F7D092C8
:10493000F5205FC0C23019F40E944C1BF4CFC33085
:10494000E0F4C13081F780E008C0C33009F44AC008
:1049500008F044C0C13019F781E020919F2F3091B9
:10496000A02F2130310599F08111DDCF00939F2FC9
:104970001093A02F0E94081CD6CFC43089F480E089
:1049800020919F2F3091A02F2130310511F424DF89
:10499000CACF8111C8CF00939F2F1093A02FC3CFF0
:1049A000C53009F0C0CF80E004C0C53009F0B9CFF0
:1049B00081E020919F2F3091A02F2230310549F4C2
:1049C000882321F081E08093FA20ADCF1092FA2065
:1049D000AACFE0929F2FF092A02FA5CFC43029F745
:1049E00081E0CECF8091FA2081119DCF0E94BC1A28
:1049F0009ACFDF91CF911F910F91FF90EF90DF90B1
:104A00000895CF93DF93CDB7DEB76397CDBFDEBFF9
:104A10008B8B8091FB209091FC20049769F58B890A
:104A2000882351F18091C83189838981882309F4D1
:104A300044C08981893008F040C08981882F90E086
:104A40000197880F991F83509F4DFC0180819181B0
:104A5000892B99F18981882F90E00197880F991F00
:104A600083509F4DFC01208131818B89815069ECFD
:104A700071E3F901199521C08091FB209091FC20F0
:104A80000397E1F48B898230C8F08091C831863079
:104A9000A9F48091C931813089F481E1E6E3F0E243
:104AA000DE01129601900D928A95E1F7CE010296F1
:104AB000BC0181E10E94973901C0000000006396AB
:104AC000CDBFDEBFDF91CF9108959FEF980F983053
:104AD00040F4E82FF0E0EE0FFF1FE550FF4D60833C
:104AE00071830895FC0180910D21811129C081E01D
:104AF00080930D2188EC91E380930E2190930F21F8
:104B00008181803F39F582818E3771F48381909164
:104B10001420891711F08F37E9F483E090E0809337
:104B2000FB209093FC200895811114C08381813073
:104B300089F481E090E08093FB209093FC2008951D
:104B40008091FB209091FC2081309105F1F48181CE
:104B5000893739F082E090E08093FB209093FC202D
:104B60000895A0910E21B0910F21CD0102962091C0
:104B70000620309107208217930760F784E090E0C9
:104B80008093FB209093FC201AC0029761F1A091C2
:104B90000E21B0910F21CD01039620910620309176
:104BA000072082179307B0F6029780930E21909307
:104BB0000F2181818C93A0910E21B0910F21CD0105
:104BC000019680930E2190930F2182818C93A09166
:104BD0000E21B0910F21CD01019680930E2190936B
:104BE0000F2183818C930895FC0110920D218091F7
:104BF000FB209091FC2081309105C1F4818189379F
:104C000009F049C0A0910E21B0910F21CD0102966B
:104C1000209106203091072082179307E0F584E069
:104C200090E08093FB209093FC201AC0029799F1AA
:104C3000A0910E21B0910F21CD0103962091062065
:104C4000309107208217930730F5029780930E2149
:104C500090930F2181818C93A0910E21B0910F210F
:104C6000CD01019680930E2190930F2182818C9328
:104C7000A0910E21B0910F21CD01019680930E21BC
:104C800090930F2183818C9380910E2190910F211D
:104C9000885C9143B6DE1092FB201092FC200895B0
:104CA00020910D212223B9F110920D212091FB209A
:104CB0003091FC202230310551F1A0910E21B091AC
:104CC0000F219D012E5F3F4F4091062050910720FC
:104CD00024173507E0F4FC01CD01019680930E21E5
:104CE00090930F2181818C93A0910E21B0910F217F
:104CF000CD01019680930E2190930F2182818C9398
:104D000080910E2190910F21885C91437ADE109260
:104D1000FB201092FC20089520910D21222349F1BF
:104D200010920D212091FB203091FC202230310582
:104D3000E1F0A0910E21B0910F219D012F5F3F4F17
:104D400040910620509107202417350770F4FC018C
:104D500020930E2130930F2181818C9380910E211D
:104D600090910F21885C91434CDE1092FB201092B1
:104D7000FC200895E4E1F1E2108211821282138294
:104D8000089580911121909112210895809311210D
:104D9000909312210895809113210895DC011C96AF
:104DA0008C911C97E8E1F1E284878D919C91119799
:104DB0008083918312968D919C9113978283938324
:104DC00014968D919C9115978483958316968D9159
:104DD0009C9117978683978318968D919C9119972C
:104DE000808791871A968D919C911B9782879387D4
:104DF000089588E191E20895CF93C0E021E040E07A
:104E000050E0BA018C2F0E945A3E60E070E08C2F77
:104E10000E94F23ECF5FC03189F7C0E09FD720E00B
:104E20008C1308C040E05FEF6FEF70E08C2F0E94A2
:104E30005A3E07C04FEF50E060E070E08C2F0E94B8
:104E40005A3ECF5FC43051F7CF9108951F93CF934F
:104E5000DF93182FEB016230710510F40E940544B6
:104E600080912421882319F079D7982F01C090E0F0
:104E7000E12FF0E0EE0FFF1FE85EFE4D0190F081A4
:104E8000E02DE431F10508F097C18827E85FFE4F77
:104E90008F4F0C940A4EC130D10549F468E0610F80
:104EA000292F220F920F990F690F4FE77EC1CD2B4B
:104EB00009F082C1892F880F980F990F68E0610F60
:104EC000690F40E072C1C130D10509F075C1012EF2
:104ED00001C0CC0F0A94EAF7E92FF0E0EC5EFE4D3A
:104EE00080818C278083C82311F440E001C04FE704
:104EF000892F880F980F990F68E0610F690F55C1CE
:104F0000C130D10551F468E0610F292F220F920FB3
:104F1000990F690F2FE741E00CC0CD2B09F04CC170
:104F2000892F880F980F990F68E0610F690F20E0B3
:104F300040E08091B92FDF91CF911F910C944E39B1
:104F4000C130D10509F038C1012E01C0CC0F0A943F
:104F5000EAF7E92FF0E0EC5EFE4D80818C2780833C
:104F6000C82311F420E001C02FE741E0C11101C0C6
:104F700040E0692F660F960F990F68E0610F690F87
:104F8000D8CFC130D10551F482E090E08093112157
:104F90009093122111C1C130D105A9F0CD2B09F098
:104FA0000BC10E943F3581E090E0809311219093E6
:104FB000122102C1219709F0FFC080911121909127
:104FC0001221039771F383E090E080931121909375
:104FD0001221F2C0219709F0EFC080911121909128
:104FE0001221029789F6DDCF219709F0E5C0B6D6E8
:104FF000833008F0E1C0B2D690E003970CF4BCC057
:10500000C3E0BFC0219709F0D7C0A8D6882309F410
:10501000D3C0A4D690E005970CF0B2C09FD6CFEFD6
:10502000C80FAFC0C130D10551F481E08093132186
:1050300095D60E941745DF91CF911F91DDCEC230EA
:10504000D105B9F48BD6C82F85E00E94453FD82FF3
:10505000282F40E05FEF6FEF70E08C2F0E945A3EE8
:105060004D2F6FEF7FEF8C2FDF91CF911F910C941D
:10507000D73ECD2B09F0A0C010921321DF91CF9124
:105080001F910C943F35219709F096C067D640E0F8
:10509000682F8091B92F0E9476394FE760E08091A8
:1050A000B92F0E94763980919E2F882319F080E0D5
:1050B0000E948F4280E0DF91CF911F910C94E130EC
:1050C000219709F079C04AD640E0682F8091B92F26
:1050D0000E9476394FE761E08091B92F0E947639BE
:1050E00080919E2F882319F081E00E948F4281E0F9
:1050F000DF91CF911F910C94E130219709F05CC0B2
:105100002DD640E0682F8091B92F0E9476394FE765
:1051100062E08091B92F0E94763980919E2F88237A
:1051200019F082E00E948F4282E0DF91CF911F91BF
:105130000C94E130219709F03FC010D640E0682F71
:105140008091B92F0E9476394FE763E08091B92FA3
:105150000E94763980919E2F882319F083E00E9467
:105160008F4283E0DF91CF911F910C94E130219722
:1051700019F5F4D5833020F4F1D5C1E0C80F01C092
:10518000C0E0ECD540E0682F8091B92F0E947639BD
:1051900080919E2F882319F08C2F0E948F428C2F94
:1051A0000E94E130DBD54FE7682F8091B92FDF9166
:1051B000CF911F910C947639DF91CF911F91089573
:1051C0000F931F93CF93DF930E946F470E94B247C4
:1051D00082719927429791F48091102182718230D7
:1051E00011F08031B9F584E090E080931121909323
:1051F00012210E94791D109210212CC0C0E0D1E034
:105200000E94B6470D2F10E080239123892B29F0AF
:1052100061E070E08C2F1ADE15C00E94BA4780232F
:105220009123892B29F060E070E08C2F0FDE0AC0FB
:105230000E94B24780239123892B21F062E070E025
:105240008C2F04DEDD0FCF5FC630D1F60E94B2474F
:1052500080931021DF91CF911F910F9108959FE0CE
:10526000989FD0011124A95FBB4C969FF001112497
:10527000E95FFB4C17969C911797878198130CC098
:1052800018969C918085981307C0923029F094302D
:1052900019F081E0953009F480E008950F931F9391
:1052A000CF93DF93CDB7DEB72897CDBFDEBF262FD4
:1052B0008A01F89430E8839FC0011124809648E069
:1052C00050E0BE016F5F7F4FE8E02E9F800D911D83
:1052D00011240E940A0678948981982F9F70F80102
:1052E0009283158282958F7083838A818F778483DE
:1052F0008B8181878C8182878D81982F9F7793877F
:10530000881F8827881F80838E81982F93709487A9
:10531000982F969596959370918382958F70868736
:105320008F81982F9770908782958F70868388855C
:10533000982F9F779783881F8827881F85872896AF
:10534000CDBFDEBFDF91CF911F910F910895AF9236
:10535000BF92CF92DF92EF92FF920F931F93CF9362
:10536000DF93C7E0D4E37E0110E0612F6F70A701E7
:10537000812F82958F7092DF1F5F8FE0E80EF11C06
:10538000103499F79BECA92E97E3B92E23E2E22E75
:10539000F12C670100E010E0C6010E94F905F5015B
:1053A000E00FF11F808388E0C80ED11C0F5F1F4FF4
:1053B0000031110589F780E8E80EF11C80E1A80EA4
:1053C000B11C83E2E81682E0F80619F71092A738BC
:1053D0001092A8381092A9381092AA381092AB38BF
:1053E0001092AC381092AD381092AE38E09189210D
:1053F000F0E0ABE0B8E31D9288E3AB31B807D9F732
:10540000EE0FFF1FE955F74C10821182E7ECF2E333
:1054100027E433E38CE998E14881DF01A058BF4FCE
:10542000442329F0808391838D939C9304C0108240
:1054300011821D921C922F9632962E173F0761F70C
:1054400088E08093882182E080938721DF91CF914B
:105450001F910F91FF90EF90DF90CF90BF90AF9092
:105460000895DF92EF92FF920F931F93CF93DF93F4
:10547000CDB7DEB7A897CDBFDEBF80914720909112
:105480004820A0914920B0914A208DA39EA3AFA3AC
:10549000B8A780914B2090914C20A0914D20B091C5
:1054A0004E2089A39AA3ABA3BCA38E010F5F1F4F0D
:1054B00080E2F80111928A95E9F7F80180E050E165
:1054C0009FE74FE332E421E050838183928393830B
:1054D00044833583268387838F5F38968430A1F792
:1054E00080E07E01F1E2EF0EF11CDD24D394D80EB2
:1054F0008695869590E0E5E2F0E0EC0FFD1FE80F61
:10550000F91F2081F701E80FF91F80812B838C831D
:105510002B878C872B8B8C8B2B8F8C8FF894C801CF
:105520000E9470068D2D0E9482067894F801818178
:105530008C5F818387818C5F87833896EE15FF05AA
:10554000B1F78D2D803189F6A896CDBFDEBFDF91F2
:10555000CF911F910F91FF90EF90DF9008958F9260
:105560009F92AF92BF92CF92DF92EF92FF927B0118
:10557000682F70E080E090E00E94704A2091B8208F
:105580003091B9204091BA205091BB200E94824BAB
:105590004B015C01B70180E090E00E94704A9B01E2
:1055A000AC01C501B4010E94D7492091B4203091CB
:1055B000B5204091B6205091B7200E946F496B01F1
:1055C0007C0120E030E040E853E40E947E4B181656
:1055D0008CF020E030E040E85FE3C701B6010E94B4
:1055E000D34987FF0DC0C12CD12C90E8E92E9FE351
:1055F000F92E06C0C12CD12C80E8E82E83E4F82EC9
:10560000C701B6010E94444ACB01FF90EF90DF90A2
:10561000CF90BF90AF909F908F9008953FE0439FB1
:10562000F0011124E95FFB4C9081992369F0E62F8A
:10563000F0E0EE0FFF1FE953FD4C408151814156D0
:105640005841413D510510F080E0089590E0DC01A3
:10565000A55FB74C3C91230F2C93409188214217B2
:1056600034F482E399E18083918381E00895022EEE
:10567000000C330B552741950CF450952417350732
:1056800034F480E698E18083918381E0089520914D
:10569000892130E1239F800D911D1124FC01E957E0
:1056A000FD4C8FE3808381E008959FE0499FF001E6
:1056B0001124E95FFB4C9085923081F09450923038
:1056C00068F070E0660F771FFB01E953FD4C4081E5
:1056D0005181FA013197EB39F14310F480E00895DC
:1056E000E82FF0E0443651051CF412161CF008C0F7
:1056F00027FF06C0DF01A55FB74C8C91280F2C93C4
:10570000E55FF74C20818091872182176CF4443645
:10571000510554F4DB01A953BD4C84E690E08D9310
:105720009C93108281E00895022E000C330B992780
:1057300081950CF49095281739076CF4493351433F
:1057400054F0DB01A953BD4C88E391E38D939C9306
:10575000108281E0089581E00895BF92CF92DF9298
:10576000EF92FF920F931F93CF93DF93C82F0E9466
:1057700036478C2F8295807FDCE2D80F3CE3B32E36
:10578000B80EEE24E394F12C0C2F10E0000F111F43
:10579000C8018953984C6C010556174C0E94654707
:1057A0008E219F21892BB1F02FE741E06D2F809151
:1057B000B92F0E944E39F601808191818E219F215F
:1057C000892B31F5F801808191818E299F29808371
:1057D00091831EC00E946A478E219F21892BC1F0B0
:1057E00020E040E06D2F8091B92F0E944E39F601E4
:1057F000808191818E219F21892B51F4F801208194
:105800003181C70180959095822393238083918372
:10581000EE0CFF1CDF5FBD12C1CF80912621EC2F63
:10582000F0E0EE0FFF1FE556F74C21E030E0082EC8
:1058300002C0220F331F0A94E2F7408151812423D2
:10584000352360E0232B61F00E940D3F00E021E052
:1058500030E040E06FE7809126210E944E3E0BC071
:105860000E940D3F00E021E030E040E060E08091E8
:1058700026210E944E3E809126218F5F803118F4B0
:105880008093262102C010922621DF91CF911F9193
:105890000F91FF90EF90DF90CF90BF900895AF925F
:1058A000BF92CF92DF92EF92FF920F931F93CF930D
:1058B000DF93C82FD0E08FE08C9FF0018D9FF00D1B
:1058C0001124E95FFB4C222311F0068501C00681FB
:1058D0002FE02C9FC0012D9F900D11249C01295F6A
:1058E0003B4C7901F9018085982F9D7F913009F01B
:1058F00066C0162F462F6781802F0E947639F701E8
:105900008585882309F46EC06091B12FA090B82FCF
:105910001A1578F1B12C70E06A197B09072E000C7A
:10592000880B990B0E94724A20E030E04EEF52E45F
:105930000E94D7499B01AC0160E070E080E89FE3E2
:105940000E94D7496B017C01612F70E06A197B09C5
:10595000072E000C880B990B0E94724A9B01AC0128
:10596000C701B6010E94824B0E94444AF62E172FAF
:1059700002C0F12C10E08091BD389091BE380E9499
:105980000F134F2D512F4038510510F04FE750E0C5
:105990008FE08C9FF0018D9FF00D1124E95FFB4C8F
:1059A0006781605C802FDF91CF911F910F91FF90F5
:1059B000EF90DF90CF90BF90AF900C94763981112B
:1059C00011C0262F41E0F7016781802FDF91CF9131
:1059D0001F910F91FF90EF90DF90CF90BF90AF900D
:1059E0000C944E39DF91CF911F910F91FF90EF9062
:1059F000DF90CF90BF90AF9008954423B9F0282F47
:105A000030E09FE0899FF0011124E95FFB4C808525
:105A1000833061F4F901EE0FFF1FE953FD4C8081E3
:105A20009181C29664E670E00E94B94D862F089578
:105A3000282F22952F70782F7F7030E0E72FF0E02D
:105A4000611128C0D901AA0FBB1FA155B74C41E075
:105A500050E002C0440F551F7A95E2F740955095EB
:105A60006D917C911197462357234D935C9364E08D
:105A7000220F331F6A95E1F72553384CE20FF31FCD
:105A80009FE0899FD0011124A95FBB4C1A968C918D
:105A9000808308959FEF960FD901AA0FBB1FA155D0
:105AA000B74C9D37D0F481E090E002C0880F991F79
:105AB0007A95E2F74D915C911197842B952B8D93FC
:105AC0009C93C90124E0880F991F2A95E1F785531B
:105AD000984CE80FF91F6083089541E050E002C040
