:10000000B2C30000F6C30000F4C30000F2C3000056
:10001000F0C30000EEC300007BC40000ACC40000CD
:10002000DDC400000EC50000E4C30000E2C3000010
:10003000E0C30000DEC3000027C600005DC600006C
:1000400093C60000C9C60000FFC6000035C7000007
:100050006BC70000A1C70000D7C700000C943C0884
:10006000C8C30000C6C30000C4C30000C2C3000070
:10007000C0C30000BEC30000BCC30000BAC3000080
:10008000B8C30000B6C30000B4C30000B2C3000090
:10009000B0C30000AEC30000ACC30000AAC30000A0
:1000A000A8C30000A6C30000A4C30000A2C30000B0
:1000B000A0C300009EC300009CC300000C94A40ACF
:1000C0000C94DC0A0C94140B0C944C0B0C94840BC5
:1000D0000C94BC0B8EC300008CC300008AC30000CC
:1000E00088C3000086C3000084C3000082C30000F0
:1000F00080C300007EC300007CC300007AC3000000
:1001000078C3000076C3000074C3000072C300000F
:1001100070C300006EC300006CC300006AC300001F
:1001200068C3000066C3000064C3000062C300002F
:1001300060C30000D9C700000C94AC080C94E4081C
:100140000C941C090C9454090C948C090C94C4094B
:100150000C94FC090C94340A0C946C0A4AC30000F9
:1001600048C3000046C3000044C3000042C300006F
:1001700040C300003EC300003CC300003AC300007F
:1001800038C3000036C3000034C3000032C300008F
:1001900030C300002EC300002CC300002AC300009F
:1001A00028C3000026C3000024C3000022C30000AF
:1001B00020C300001EC300001CC300001AC30000BF
:1001C00018C3000016C3000014C3000012C30000CF
:1001D00010C300000EC300000CC300000AC30000DF
:1001E00008C3000006C3000004C3000002C30000EF
:1001F00000C300000C945518FCC20000491368139A
:10020000341468133414A713BB1334140D141614C8
:100210000D1B251B421B621B831B8D1BAC1B9C1BD8
:10022000B61BC41BD41B051C221C3F1C5C1C791C68
:10023000961CB31CD01CEC1C1627C1261627C12601
:100240008627CE272829ED2784283A2E3F2E442EB4
:10025000492E1A2E022E4D2E222E4D2E4D2E4D2E73
:10026000E12D07634236B79BD8A71A39685618AEF6
:10027000BAAB558C1D3CB7CC5763BD6DEDFD753EDB
:10028000F6177231BF000000803F05A84CCDB2D4F4
:100290004EB93836A9020C50B9918688083CA6AAF6
:1002A000AA2ABE000000803F08000000BE92244938
:1002B000123EABAAAA2ABECDCCCC4C3E0000008098
:1002C000BEABAAAAAA3E00000000BF000000803F0B
:1002D0000000000000084178D3BB4387D1133D19CB
:1002E0000E3CC3BD4282AD2B3E68EC8276BED98FF8
:1002F000E1A93E4C80EFFFBE01C4FF7F3F0000003C
:1003000000000101020202020303040505060708BA
:100310000A0B0D0F1215181C21262C333C46515E7A
:100320006E7F0101010101010101010101020202CF
:100330000202020202020202020202030303030398
:100340000303030404040404040405050505050669
:1003500006060606070707080808080909090A0A21
:100360000B0B0B0C0C0D0D0E0E0F101011111213A8
:1003700014141516171819191A1C1D1E1F202123D5
:10038000242527282A2B2D2F31333537393B3D4063
:100390004245474A4D5053565A5D6164686C7175C9
:1003A0007A7F0000001E1E1E7F7F7FFFFFFF4C4CE8
:1003B000FF0000FF00007F00001E6CBDFF0054FF27
:1003C000001D59001B274CFFFF00FFFF005959007B
:1003D00019194CFF8800FF5400591C002B144CFFC6
:1003E0004C00FF00007F000019005EFF4C19FF0069
:1003F0000D590002190088FF4C56F6281F680B1390
:100400002400B7FF4C99FF002B5900121900FFC3BD
:100410004CFFA900524100191000FF884CFF550005
:100420001D5900190800FF4C4CFF00007F00001E02
:100430000000FF4C87FF005464001930000FFF4C90
:10044000FFFF00FF590059190019874CFF5400FFA6
:100450001D00591300220015FF0035990051790045
:1004600064430039033557007F5400FF00004F45B7
:1004700000CC00257F7F7F2020200000FF2DFFBDC6
:1004800006EDAF09FF64008B1087FF00FFA900FF96
:100490002A00FF003FFF007A7E1AB2002140004A86
:1004A000FF06E18815FF7200FF0026FF3B71FF5930
:1004B000CCFF38FF8A5BC65131E97F87FF1DD35DD2
:1004C00000FF007FFF004CB900FF90075D83002B09
:1004D00039104C1438500D2A15155A20161C3C6939
:1004E0000A00A83D51DE1C6AD826E1FF2FE19E0FCD
:1004F000B567301E1E6BFFDCBDFF80FF999AFF665B
:100500008E404040757575FFFFE00000A00000358B
:1005100000D01A004207004CB900313F005FB3021F
:10052000154B000000FF0000FF0000FF0100FF036B
:1005300000FF0600FF0900FF0E00FF1400FF1C0073
:10054000FF2500FF2C00FF3800FF4700FF5500FF8C
:100550006700FF7B00FF8900FFA000FFBA00FFD605
:1005600000FFF200FAFF00EDFF00E1FF00D4FF0002
:10057000C7FF00BFFF00B2FF00A5FF0099FF008C7E
:10058000FF007FFF0077FF006AFF005DFF0050FF64
:100590000043FF003BFF002EFF0021FF0015FF007E
:1005A00008FF0000FF0000FF0000FF0000FF000048
:1005B000FF0000FF0000FF0000FF0000FF0200FF3F
:1005C0000300FF0600FF0900FF0E00FF1600FF21D9
:1005D00000FF2F00FF3C00FF5100FF6F00FF940061
:1005E000FFC400FFFF00E9FF00CBFF00B0FF009950
:1005F000FF0082FF0075FF0062FF0050FF0041FF17
:100600000034FF002CFF0022FF0019FF0012FF0042
:100610000CFF0007FF0005FF0002FF0001FF0000C4
:10062000FF0000FF0400FF1000FF1D00FF2A00FF75
:100630003700FF3F00FF4C00FF5900FF6600FF72CC
:1006400000FF7F00FF8700FF9400FFA100FFAE00C6
:10065000FFBA00FFC300FFD000FFDD00FFE900FF8D
:10066000F600FFFF00FFFF00DBFF00C4FF00AAFF52
:100670000094FF0085FF007FFF006FFA006FED0020
:1006800053E1003CD4002FC70020C70016BF001064
:10069000B2000FA5000E99000D8C000C7F000BFF1F
:1006A000FFFF2A034D006900640069002000460036
:1006B0006900670068007400650072002000540043
:1006C00077006900730074006500720000001A036F
:1006D00044004A0020005400650063006800540094
:1006E0006F006F006C00730000000403090409022E
:1006F000650002010080F009040000000101000013
:10070000092401000109000101090401000201039B
:100710000000072401000141000624020101000637
:10072000240202020009240301030102010009243A
:10073000030204010101000905010240000000005C
:100740000525010101090582024000000000052580
:100750000101031201100100000040802507000183
:1007600000010203010011241FBECFEFCDBFDFE364
:10077000DEBF00E00CBF18BE19BE1ABE1BBE8091C2
:10078000780083FF1CC080919B3B90919C3BA09183
:100790009D3BB0919E3B8A3C9C4AA244BC4D79F45F
:1007A00010929B3B10929C3B10929D3B10929E3B63
:1007B00081E08CBFE0910220F0910320199510E2B6
:1007C000A0E0B0E2E6E9F3E800E00BBF02C007906A
:1007D0000D92AE3AB107D9F71BBE2BE3AEEAB0E2F9
:1007E00001C01D92AB39B207E1F70E94B03C0C94F6
:1007F000C94106CC2FB7F894FC01E059FF4F609532
:100800008081682360832FBF08951BBEFC0128ED03
:1008100024BF608308950F931F93CF93DF93E82F36
:10082000F0E0DF01519634E0AA0FBB1F3A95E1F7E3
:100830002091040160910301EF01249641E050E012
:100840008A01082E01C0000F0A94EAF70C2E01C09D
:10085000440F0A94EAF7402B642370E08B010C2EBE
:1008600002C0159507950A94E2F700FD1DC0082EF9
:1008700002C0759567950A94E2F760FD18C042239F
:10088000242F30E0A90102C055954795CA95E2F79B
:1008900040FD10C0A90102C0559547958A95E2F721
:1008A000CA018170992708C084E090E005C083E008
:1008B00090E002C082E090E011962C9111972063A5
:1008C00011962C93EE0FFF1FEE53F44D0190F08123
:1008D000E02D309729F0DF91CF911F910F9119945E
:1008E000DF91CF911F910F91089561E080E090E03A
:1008F00081DF9FB7F894ECEBFBE281818F5F81830E
:100900009FBFE0E0F1E080E4808380E88083089589
:100910001F920F920FB60F92112408B60F9218BEB5
:1009200009B60F9219BE0BB60F921BBE2F933F93C1
:100930004F935F936F937F938F939F93AF93BF93E7
:10094000EF93FF9380E067DFFF91EF91BF91AF914D
:100950009F918F917F916F915F914F913F912F91D7
:100960000F900BBE0F9009BE0F9008BE0F900FBEE8
:100970000F901F9018951F920F920FB60F9211248F
:1009800008B60F9218BE09B60F9219BE0BB60F9299
:100990001BBE2F933F934F935F936F937F938F93E0
:1009A0009F93AF93BF93EF93FF9381E034DFFF9169
:1009B000EF91BF91AF919F918F917F916F915F91D7
:1009C0004F913F912F910F900BBE0F9009BE0F904A
:1009D00008BE0F900FBE0F901F9018951F920F9298
:1009E0000FB60F92112408B60F9218BE09B60F92D7
:1009F00019BE0BB60F921BBE2F933F934F935F937D
:100A00006F937F938F939F93AF93BF93EF93FF93D6
:100A100082E001DFFF91EF91BF91AF919F918F91A4
:100A20007F916F915F914F913F912F910F900BBEEE
:100A30000F9009BE0F9008BE0F900FBE0F901F9031
:100A400018951F920F920FB60F92112408B60F92AD
:100A500018BE09B60F9219BE0BB60F921BBE2F938C
:100A60003F934F935F936F937F938F939F93AF9336
:100A7000BF93EF93FF9383E0CEDEFF91EF91BF91A1
:100A8000AF919F918F917F916F915F914F913F9126
:100A90002F910F900BBE0F9009BE0F9008BE0F90C4
:100AA0000FBE0F901F901895DB01E82FF0E07196B4
:100AB00084E0EE0FFF1F8A95E1F79FB7F89419962F
:100AC0008C91199784871A968C911A978587168628
:100AD00017968C911797808718968C911897818715
:100AE000128612968C911297828313968C9113978B
:100AF000838314962D913C91159724833583169604
:100B00008C911697868311968C91119781838C9185
:100B10008F7780839FBF08958091CF0187FDFCCFA1
:100B200008951F93CF93DF93C0ECD1E01A858A8795
:100B300061E08BEC91E069DE1A87DF91CF911F9124
:100B40000895CF93DF93EC01E7DFECECF1E08081D7
:100B500088608083D05F88819081977F9083DF91C8
:100B6000CF910895CF92DF92EF92FF920F931F9350
:100B7000CF93DF938C017B016A01CEDFCCECD1E017
:100B8000888188608883B801705FA601C7010E94D0
:100B9000B9418881877F8883DF91CF911F910F9121
:100BA000FF90EF90DF90CF900895B6DF8091CF0156
:100BB00081FF07C086E38093CA0161E08BEC91E07E
:100BC00024CE0895CF93DF93C82FD62FA5DFACECAA
:100BD000B1E08C9188608C93EC2FF0E0F05FD083D3
:100BE0008C91877F8C93DF91CF910895EF92FF9244
:100BF0000F931F93CF93DF93182FF92EE62EC0EC9F
:100C0000D1E00A85D2DF88DF6E2D812FDBDF1A82EB
:100C1000F982188385E38A8761E08BEC91E0F5DD4A
:100C20000A87DF91CF911F910F91FF90EF90089568
:100C30000F931F93CF938C016FDFC0E0F801619198
:100C40008F018C2FBFDFCF5FC032C1F7CF911F91D3
:100C50000F910895CF93C82F5FDF20E2C29FC0019C
:100C60001124E0ECF1E012829183808385E390E02F
:100C7000CF9157CF4091CA01E62FF72F8093CA0139
:100C800084914093CA0108951F920F920FB60F925C
:100C9000112408B60F9218BE09B60F9219BE0BB6F2
:100CA0000F921BBE2F933F934F935F936F937F934E
:100CB0008F939F93AF93BF93EF93FF93E091E020C7
:100CC000F091E120309709F01995FF91EF91BF91D4
:100CD000AF919F918F917F916F915F914F913F91D4
:100CE0002F910F900BBE0F9009BE0F9008BE0F9072
:100CF0000FBE0F901F9018951F920F920FB60F9274
:100D0000112408B60F9218BE09B60F9219BE0BB681
:100D10000F921BBE2F933F934F935F936F937F93DD
:100D20008F939F93AF93BF93EF93FF93E091DE2058
:100D3000F091DF20309709F01995FF91EF91BF9165
:100D4000AF919F918F917F916F915F914F913F9163
:100D50002F910F900BBE0F9009BE0F9008BE0F9001
:100D60000FBE0F901F9018951F920F920FB60F9203
:100D7000112408B60F9218BE09B60F9219BE0BB611
:100D80000F921BBE2F933F934F935F936F937F936D
:100D90008F939F93AF93BF93EF93FF93E091DC20EA
:100DA000F091DD20309709F01995FF91EF91BF91F7
:100DB000AF919F918F917F916F915F914F913F91F3
:100DC0002F910F900BBE0F9009BE0F9008BE0F9091
:100DD0000FBE0F901F9018951F920F920FB60F9293
:100DE000112408B60F9218BE09B60F9219BE0BB6A1
:100DF0000F921BBE2F933F934F935F936F937F93FD
:100E00008F939F93AF93BF93EF93FF93E091DA207B
:100E1000F091DB20309709F01995FF91EF91BF9188
:100E2000AF919F918F917F916F915F914F913F9182
:100E30002F910F900BBE0F9009BE0F9008BE0F9020
:100E40000FBE0F901F9018951F920F920FB60F9222
:100E5000112408B60F9218BE09B60F9219BE0BB630
:100E60000F921BBE2F933F934F935F936F937F938C
:100E70008F939F93AF93BF93EF93FF93E091D8200D
:100E8000F091D920309709F01995FF91EF91BF911A
:100E9000AF919F918F917F916F915F914F913F9112
:100EA0002F910F900BBE0F9009BE0F9008BE0F90B0
:100EB0000FBE0F901F9018951F920F920FB60F92B2
:100EC000112408B60F9218BE09B60F9219BE0BB6C0
:100ED0000F921BBE2F933F934F935F936F937F931C
:100EE0008F939F93AF93BF93EF93FF93E091D6209F
:100EF000F091D720309709F01995FF91EF91BF91AC
:100F0000AF919F918F917F916F915F914F913F91A1
:100F10002F910F900BBE0F9009BE0F9008BE0F903F
:100F20000FBE0F901F9018951F920F920FB60F9241
:100F3000112408B60F9218BE09B60F9219BE0BB64F
:100F40000F921BBE2F933F934F935F936F937F93AB
:100F50008F939F93AF93BF93EF93FF93E091D42030
:100F6000F091D520309709F01995FF91EF91BF913D
:100F7000AF919F918F917F916F915F914F913F9131
:100F80002F910F900BBE0F9009BE0F9008BE0F90CF
:100F90000FBE0F901F9018951F920F920FB60F92D1
:100FA000112408B60F9218BE09B60F9219BE0BB6DF
:100FB0000F921BBE2F933F934F935F936F937F933B
:100FC0008F939F93AF93BF93EF93FF93E091D220C2
:100FD000F091D320309709F01995FF91EF91BF91CF
:100FE000AF919F918F917F916F915F914F913F91C1
:100FF0002F910F900BBE0F9009BE0F9008BE0F905F
:101000000FBE0F901F9018951F920F920FB60F9260
:10101000112408B60F9218BE09B60F9219BE0BB66E
:101020000F921BBE2F933F934F935F936F937F93CA
:101030008F939F93AF93BF93EF93FF93E091D02053
:10104000F091D120309709F01995FF91EF91BF9160
:10105000AF919F918F917F916F915F914F913F9150
:101060002F910F900BBE0F9009BE0F9008BE0F90EE
:101070000FBE0F901F9018951F920F920FB60F92F0
:10108000112408B60F9218BE09B60F9219BE0BB6FE
:101090000F921BBE2F933F934F935F936F937F935A
:1010A0008F939F93AF93BF93EF93FF93E091CE20E5
:1010B000F091CF20309709F01995FF91EF91BF91F2
:1010C000AF919F918F917F916F915F914F913F91E0
:1010D0002F910F900BBE0F9009BE0F9008BE0F907E
:1010E0000FBE0F901F9018951F920F920FB60F9280
:1010F000112408B60F9218BE09B60F9219BE0BB68E
:101100000F921BBE2F933F934F935F936F937F93E9
:101110008F939F93AF93BF93EF93FF93E091CC2076
:10112000F091CD20309709F01995FF91EF91BF9183
:10113000AF919F918F917F916F915F914F913F916F
:101140002F910F900BBE0F9009BE0F9008BE0F900D
:101150000FBE0F901F9018951F920F920FB60F920F
:10116000112408B60F9218BE09B60F9219BE0BB61D
:101170000F921BBE2F933F934F935F936F937F9379
:101180008F939F93AF93BF93EF93FF93E091CA2008
:10119000F091CB20309709F01995FF91EF91BF9115
:1011A000AF919F918F917F916F915F914F913F91FF
:1011B0002F910F900BBE0F9009BE0F9008BE0F909D
:1011C0000FBE0F901F9018951F920F920FB60F929F
:1011D000112408B60F9218BE09B60F9219BE0BB6AD
:1011E0000F921BBE2F933F934F935F936F937F9309
:1011F0008F939F93AF93BF93EF93FF93E091C8209A
:10120000F091C920309709F01995FF91EF91BF91A6
:10121000AF919F918F917F916F915F914F913F918E
:101220002F910F900BBE0F9009BE0F9008BE0F902C
:101230000FBE0F901F9018951F920F920FB60F922E
:10124000112408B60F9218BE09B60F9219BE0BB63C
:101250000F921BBE2F933F934F935F936F937F9398
:101260008F939F93AF93BF93EF93FF93E091C6202B
:10127000F091C720309709F01995FF91EF91BF9138
:10128000AF919F918F917F916F915F914F913F911E
:101290002F910F900BBE0F9009BE0F9008BE0F90BC
:1012A0000FBE0F901F9018951F920F920FB60F92BE
:1012B000112408B60F9218BE09B60F9219BE0BB6CC
:1012C0000F921BBE2F933F934F935F936F937F9328
:1012D0008F939F93AF93BF93EF93FF93E091C420BD
:1012E000F091C520309709F01995FF91EF91BF91CA
:1012F000AF919F918F917F916F915F914F913F91AE
:101300002F910F900BBE0F9009BE0F9008BE0F904B
:101310000FBE0F901F9018951F920F920FB60F924D
:10132000112408B60F9218BE09B60F9219BE0BB65B
:101330000F921BBE2F933F934F935F936F937F93B7
:101340008F939F93AF93BF93EF93FF93E091C2204E
:10135000F091C320309709F01995FF91EF91BF915B
:10136000AF919F918F917F916F915F914F913F913D
:101370002F910F900BBE0F9009BE0F9008BE0F90DB
:101380000FBE0F901F9018951F920F920FB60F92DD
:10139000112408B60F9218BE09B60F9219BE0BB6EB
:1013A0000F921BBE2F933F934F935F936F937F9347
:1013B0008F939F93AF93BF93EF93FF93E091C020E0
:1013C000F091C120309709F01995FF91EF91BF91ED
:1013D000AF919F918F917F916F915F914F913F91CD
:1013E0002F910F900BBE0F9009BE0F9008BE0F906B
:1013F0000FBE0F901F9018951F920F920FB60F926D
:10140000112408B60F9218BE09B60F9219BE0BB67A
:101410000F921BBE2F933F934F935F936F937F93D6
:101420008F939F93AF93BF93EF93FF93E091BE2071
:10143000F091BF20309709F01995FF91EF91BF917E
:10144000AF919F918F917F916F915F914F913F915C
:101450002F910F900BBE0F9009BE0F9008BE0F90FA
:101460000FBE0F901F9018951F920F920FB60F92FC
:10147000112408B60F9218BE09B60F9219BE0BB60A
:101480000F921BBE2F933F934F935F936F937F9366
:101490008F939F93AF93BF93EF93FF93E091BC2003
:1014A000F091BD20309709F01995FF91EF91BF9110
:1014B000AF919F918F917F916F915F914F913F91EC
:1014C0002F910F900BBE0F9009BE0F9008BE0F908A
:1014D0000FBE0F901F9018951F920F920FB60F928C
:1014E000112408B60F9218BE09B60F9219BE0BB69A
:1014F0000F921BBE2F933F934F935F936F937F93F6
:101500008F939F93AF93BF93EF93FF93E091BA2094
:10151000F091BB20309709F01995FF91EF91BF91A1
:10152000AF919F918F917F916F915F914F913F917B
:101530002F910F900BBE0F9009BE0F9008BE0F9019
:101540000FBE0F901F9018951F920F920FB60F921B
:10155000112408B60F9218BE09B60F9219BE0BB629
:101560000F921BBE2F933F934F935F936F937F9385
:101570008F939F93AF93BF93EF93FF93E091B82026
:10158000F091B920309709F01995FF91EF91BF9133
:10159000AF919F918F917F916F915F914F913F910B
:1015A0002F910F900BBE0F9009BE0F9008BE0F90A9
:1015B0000FBE0F901F9018951F920F920FB60F92AB
:1015C000112408B60F9218BE09B60F9219BE0BB6B9
:1015D0000F921BBE2F933F934F935F936F937F9315
:1015E0008F939F93AF93BF93EF93FF93E091B620B8
:1015F000F091B720309709F01995FF91EF91BF91C5
:10160000AF919F918F917F916F915F914F913F919A
:101610002F910F900BBE0F9009BE0F9008BE0F9038
:101620000FBE0F901F9018951F920F920FB60F923A
:10163000112408B60F9218BE09B60F9219BE0BB648
:101640000F921BBE2F933F934F935F936F937F93A4
:101650008F939F93AF93BF93EF93FF93E091B42049
:10166000F091B520309709F01995FF91EF91BF9156
:10167000AF919F918F917F916F915F914F913F912A
:101680002F910F900BBE0F9009BE0F9008BE0F90C8
:101690000FBE0F901F9018951F920F920FB60F92CA
:1016A000112408B60F9218BE09B60F9219BE0BB6D8
:1016B0000F921BBE2F933F934F935F936F937F9334
:1016C0008F939F93AF93BF93EF93FF93E091B220DB
:1016D000F091B320309709F01995FF91EF91BF91E8
:1016E000AF919F918F917F916F915F914F913F91BA
:1016F0002F910F900BBE0F9009BE0F9008BE0F9058
:101700000FBE0F901F9018951F920F920FB60F9259
:10171000112408B60F9218BE09B60F9219BE0BB667
:101720000F921BBE2F933F934F935F936F937F93C3
:101730008F939F93AF93BF93EF93FF93E091B0206C
:10174000F091B120309709F01995FF91EF91BF9179
:10175000AF919F918F917F916F915F914F913F9149
:101760002F910F900BBE0F9009BE0F9008BE0F90E7
:101770000FBE0F901F9018951F920F920FB60F92E9
:10178000112408B60F9218BE09B60F9219BE0BB6F7
:101790000F921BBE2F933F934F935F936F937F9353
:1017A0008F939F93AF93BF93EF93FF93E091AE20FE
:1017B000F091AF20309709F01995FF91EF91BF910B
:1017C000AF919F918F917F916F915F914F913F91D9
:1017D0002F910F900BBE0F9009BE0F9008BE0F9077
:1017E0000FBE0F901F901895CF93CFB7F894811527
:1017F00028E0920711F461E005C0803428E09207E8
:1018000049F462E083E090E00E94FA0364E083E040
:1018100090E01EC0811529E0920711F461E005C037
:10182000803429E0920749F462E084E090E00E946D
:10183000FA0364E084E090E00BC081159A4091F4D3
:1018400061E085E090E00E94FA0364E085E090E0CA
:101850000E94FA039FB7F8948091BD2B8F5F80930D
:10186000BD2B9FBFCFBFCF910895811528E0920770
:1018700029F46093DC207093DD200895803428E003
:10188000920729F46093D0207093D1200895811598
:1018900029E0920729F46093C8207093C920089525
:1018A000803429E0920729F46093BC207093BD2016
:1018B000089581159A4021F46093B4207093B52067
:1018C0000895811528E0920729F46093DA20709337
:1018D000DB200895803428E0920729F46093CE201D
:1018E0007093CF200895811529E0920729F4609321
:1018F000C6207093C7200895803429E0920729F408
:101900006093BA207093BB20089581159A4021F40A
:101910006093B2207093B3200895009709F49BC0A0
:10192000803C910511F460E105C0811524E0920727
:1019300021F464E080E090E08CC0803821E09207E0
:1019400011F462E0F7CF811521E0920711F461E014
:10195000F1CF803823E0920711F461E005C08115D2
:1019600022E0920721F462E081E090E072C08032D0
:1019700023E0920721F464E082E090E06AC08115E0
:1019800028E0920711F461E05BC0811529E092071D
:1019900011F461E04DC081152AE0920711F461E075
:1019A00056C0803428E0920711F462E049C08034C8
:1019B00029E0920711F462E03BC0803928E09207E9
:1019C00011F464E03DC0803929E0920711F464E02D
:1019D0002FC080392AE0920711F464E038C0803CBF
:1019E00028E0920711F468E02BC0803C29E09207C0
:1019F00011F468E01DC0803A28E0920711F460E11C
:101A00001FC0803A29E0920711F460E111C0803ACA
:101A10002AE0920711F460E11AC0803B28E09207A7
:101A200011F460E20DC0803B29E0920721F460E2EE
:101A300084E090E00EC0803824E0920721F460E456
:101A400083E090E006C0803A944029F460E485E0A9
:101A500090E00C94FA0308950F931F93CF93DF93B4
:101A6000EC01D901C80136952795179507954017C0
:101A700051076207730768F49A01AB01220F331F05
:101A8000441F551FBC01CD010E9463412150310903
:101A900002C020E030E0832F8F708F832E83DF9190
:101AA000CF911F910F910895EF92FF920F931F9383
:101AB000CF93DF93EC017B0130DF8C818F7E8C83B1
:101AC000F70124812250C03AF8E0DF0731F4809119
:101AD0004E0684FD6BC011E11FC0C03B88E0D807F3
:101AE00009F464C0C03AE9E0DE0731F480916E0683
:101AF00084FD5EC019E110C0C03BF9E0DF0709F4C6
:101B000057C0C03A8AE0D80739F480918E0684FD28
:101B100002C011E201C015E2E12FE695E695E695D7
:101B200080E2E89FF0011124FA5F177081E090E0F5
:101B300001C0880F1A95EAF78183223010F020E067
:101B400001C020E48093B000208B85838D81806C60
:101B50008D83F70184818D7F813019F48D818260BE
:101B600002C08D818D7F8D83F7018581882319F0D7
:101B70008D81846002C08D818B7F8D83F7014081D0
:101B800051816281738100E018E428EE31E0CE01DA
:101B900063DF8C8188608C838C8180618C83DF9192
:101BA000CF911F910F91FF90EF90089515E1B4CF61
:101BB0001DE1B2CF8091820080FDFCCF089590910D
:101BC0008000880F880F682F6C7392709160692B6A
:101BD00080E890E00E940504EDCF609180006C7F6A
:101BE000616080E890E00C940504609180006C7363
:101BF000636080E890E00E940504DCCF63E080E849
:101C000090E00E940504D6DF6BE281E890E00E943C
:101C10000504D0DFA895FFCF8EE090E00E94A105DB
:101C2000813039F482EA93E0809300209093012080
:101C3000089582E295E0809300209093012008951A
:101C4000CF92DF92EF92FF920F931F93CF93DF9388
:101C5000CDB7DEB76797CDBFDEBF8823A1F1FB010B
:101C60008081811130C088E0EDE1F0E2DE01509624
:101C700001900D928A95E1F78FE0E5E2F0E2DE0156
:101C8000119601900D928A95E1F77E01F0E1EF0E39
:101C9000F11C8E01095F1F4F6E018FE0C80ED11C31
:101CA000F70161917F0170E082E00E943A06F8013D
:101CB00081938F01EC15FD0599F7BE016F5F7F4F92
:101CC0008FE00E94682D6796CDBFDEBFDF91CF9178
:101CD0001F910F91FF90EF90DF90CF9008958F921A
:101CE0009F92AF92BF92CF92DF92EF92FF920F93AB
:101CF0001F93CF93DF93CDB7DEB7C055D109CDBFCA
:101D0000DEBFFB01833008F445C1908111811111C0
:101D100001C010E8911156C0863008F43BC1928191
:101D2000992309F437C1248130E090E00497281703
:101D300039070CF02FC1612F70E0615071096B0100
:101D400044E0D594C7944A95E1F76F707727AE01C8
:101D50004F5F5F4F8FE0DA011D928A95E9F7CA0164
:101D60008E01005F1F4F70E8F72EDC01FD92CD0160
:101D7000A017B107D1F7359690E0890101501109FC
:101D8000292F30E020173107B4F42E0F3F1FD9015F
:101D90002C912A502F3068F4DA01A20FB11D9D0159
:101DA00081E0890F7F01E80EF11CD7018C91D901E8
:101DB0008C939E5FE5CF8C2D0E941B230E94882F61
:101DC000A895E8C0913009F0E5C00FEF010F07FDBD
:101DD0000CC0612F70E061507109CB0134E0959522
:101DE00087953A95E1F76F7002C060E080E0AE0140
:101DF0004E5B5F4F0E94671D8AE08CA323968FADD8
:101E000023978DA38BE08EA324968FAD24978FA369
:101E10008CE088A725968FAD259789A78DE08AA7A6
:101E200026968FAD26978F5F8BA78EE08CA727967F
:101E30008FAD27978DA78FE08EA71FA680E188AB77
:101E400029968FAD29978F5F89AB81E18AAB2A965E
:101E50008FAD2A978BAB82E18CAB2B968FAD2B97F6
:101E60008DAB83E18EAB2C968FAD2C978FAB84E13D
:101E700088AF2D968FAD2D9789AF85E18AAF2E96CD
:101E80008FAD2E978BAF86E18CAF2F968FAD2F97AE
:101E90008DAF87E18EAF60968FAD60978FAF88E191
:101EA00021968FAF219761968FAD61978F5F2296B4
:101EB0008FAF229707FF02C000E001C00EE1802F24
:101EC00068E10E942341EE24E394E80E103811F0FB
:101ED000C12E01C0C12CD12CFF24F39480EFB82E69
:101EE000AA24A39499E7992E24E0822E17EF802F3D
:101EF000093108F088E10851B9821A82AB829C82CC
:101F00008D821E82CF82F886E9868A871B871C878E
:101F10001D871E871F87188B198B1A8B1B8B1C8B99
:101F20001D8B1E8B1F8B188F198F1A8F1B8F1C8F69
:101F30001D8F1E8F1F8F18A319A31AA31BA39AE02E
:101F4000482F50E0475F5F4F292F30E0421753077B
:101F50008CF0A1E0B0E0AC0FBD1FA20FB31FE4E214
:101F6000F0E0EC0FFD1FED0DF11D60816C939F5FA4
:101F7000D394EACFBE016F5F7F4F855F0E94682DCB
:101F800080912A3B90912B3BEDD2A895F394EF14CE
:101F900008F0ADCFC05BDF4FCDBFDEBFDF91CF918B
:101FA0001F910F91FF90EF90DF90CF90BF90AF9077
:101FB0009F908F900895DC0190E050E041505109CE
:101FC000292F30E024173507F4F481E0890FFB0155
:101FD000E20FF31F20812A3048F4FB01E80FF11DC6
:101FE0008081FD01E20FF11D80830BC02F3148F08D
:101FF000FB01E80FF11D8081FD01E20FF11D7597D6
:1020000080839E5FDDCF0895FF920F931F93CF9340
:10201000DF93CDB7DEB7AB97CDBFDEBFF8940E949C
:10202000BB1A8C0180E190E00E94A105F82E789403
:1020300080EF89831A8281E08B8399E79C8322E079
:102040002D838E831F829091E02B9F5F98878987D5
:10205000F80184858A872B8780818C8783E08D8730
:1020600082818E8784E08F878481888B85E0898B4D
:1020700086818A8B86E08B8B80858C8B87E08D8B2D
:1020800082858E8B88E08F8B8091DF2B888F89E013
:10209000898F8091DD2B8A8F8FE18B8F8091CA2B66
:1020A0008C8F80E28D8F8091DE2B8E8F81E28F8FDF
:1020B0008EE090E00E94A10588A382E289A380912E
:1020C000DB2B982F92959F709F5F9AA393E29BA31F
:1020D0008F708F5F8CA384E28DA38F2D8F738EA35F
:1020E00085E28FA3F294F694F69483E0F822F8A6A2
:1020F00086E289A78091DC2B8AA787EF8BA7BE0198
:102100006F5F7F4F8BE20E94682DAB96CDBFDEBF25
:10211000DF91CF911F910F91FF900895882329F0AF
:10212000FB018081811101C06FCF0895CF93DF93B0
:10213000CDB7DEB72D97CDBFDEBFF89481E090E03C
:102140000E94A1058093E02B83E090E00E94A1050E
:1021500091E0811101C090E09D8784E090E00E94B1
:10216000A10590E089839A8385E090E00E94A10513
:1021700090E08B839C8386E090E00E94A10590E034
:102180008D839E8387E090E00E94A10590E08F837D
:10219000988788E090E00E94A10590E089879A875F
:1021A00089E090E00E94A10590E08B879C878AE0FF
:1021B00090E00E94A1058093DF2B8BE090E00E94CD
:1021C000A1058093DD2B8CE090E00E94A105809317
:1021D000CA2B8DE090E00E94A1058093DE2B1CDDD0
:1021E0008FE090E00E94A1058093DB2B80E190E0DE
:1021F0000E94A105E82FEF73E83008F0E0E0F0E07E
:10220000E357FF4D9081909389218295869586951D
:1022100083708093882181E190E00E94A1058093E2
:10222000DC2BCE0101960E94901A78942D96CDBF9A
:10223000DEBFDF91CF910895FF920F931F93CF934D
:10224000DF93CDB7DEB76297CDBFDEBFF82E8B012F
:10225000C4DCCE01019622E1FC0111922A95E9F736
:102260004F2DB801A8DE6981615081E090E00E94A5
:10227000F6056A8183E090E00E94F6056B8184E0B8
:1022800090E00E94F6056C8185E090E00E94F605E2
:102290006D8186E090E00E94F6056E8187E090E017
:1022A0000E94F6056F8188E090E00E94F60568853F
:1022B00089E090E00E94F60569858AE090E00E943E
:1022C000F6056A858BE090E00E94F6056B858CE050
:1022D00090E00E94F6056C858DE090E00E94F60586
:1022E0006D858EE090E00E94F6058E85882319F0BA
:1022F0009FEF980F01C095E06F85662311F0615044
:1023000001C062E0F0E19F9FC00111246F70682B53
:102310008FE090E00E94F60568896F73998920E448
:10232000929FC0011124682B80E190E00E94F60585
:102330006A8981E190E00E94F6050E94CF3760E053
:102340007FEF80E090E00E943F35F0DE0E94C01DEC
:102350005BDE0E9430296296CDBFDEBFDF91CF9158
:102360001F910F91FF900895F89468E080E090E04D
:102370000E94F60563E081E090E00E94F60561E0CE
:1023800083E090E00E94F60560E084E090E00E9427
:10239000F60569E085E090E00E94F60560E086E0E1
:1023A00090E00E94F60560E087E090E00E94F6056C
:1023B00068E088E090E00E94F60560E089E090E047
:1023C0000E94F6056FE38AE090E00E94F6056FE751
:1023D0008BE090E00E94F6056FE78CE090E00E94B1
:1023E000F6056FE78DE090E00E94F60560E08EE074
:1023F00090E00E94F60562E58FE090E00E94F6050D
:1024000067E480E190E00E94F60561E081E190E000
:102410000E94F60578940C94431E882369F1FB0111
:102420008081813019F0823069F00895D6DBCCD5F7
:102430002FEF8FE493EC215080409040E1F700C0F3
:10244000000037C0CADB90DF87E08093A2006FEF07
:102450007FEF80E090E00E943F35B6D52FEF8FE40C
:1024600093EC215080409040E1F700C0000081E0F3
:1024700090E0A5DBBADBFFCF08956CE171E181E06C
:10248000E5D66EE870E182E0E1D66DE072E183E0CE
:10249000DDD66FE67EE084E0D9D660E27EE085E0BE
:1024A000D5D680E090E00E94A105883009F05CCF8D
:1024B00008958AD5F89480E02FEF3FE891E021500D
:1024C00030409040E1F700C000008F5F8038A1F7F6
:1024D0008AEC9CEAA2E4BCED80939B3B90939C3BEE
:1024E000A0939D3BB0939E3B89CBCF93DF93EC01B0
:1024F0001B8682E08C83898761E0CE0101969CD4A3
:10250000882331F061E0CE010696DF91CF9194C42B
:1025100080E0DF91CF910895CF93DF932091102C2D
:102520002430D1F4EB01FC01818195D340E050E0EF
:1025300064E070E0CE01B7D1811111C08091192CF7
:1025400090911A2CFC01EF5BFF4F20813197808125
:10255000281720F038D302C082E001C080E0DF916C
:10256000CF9108952091102C2430E9F4FC01818151
:1025700072D380911D2C2091192C30911A2CF901C5
:1025800087FF05C0EF5BFF4F808190E008C0E05CF3
:10259000FF4F80813196208190E0821B9109892B29
:1025A00021F011D3D2C482E0089580E00895CF9342
:1025B000DF932091102C243051F4EC0189814BD30E
:1025C0007FD3882321F0CE01DF91CF91CBCFDF9154
:1025D000CF9108950F931F93CF932091102C243007
:1025E00011F0C0E027C08B01FC01868134D374D385
:1025F000C82F8823B1F38091192C90911A2CFC01DB
:10260000EF5BFF4F208131978081281750F740E022
:1026100050E064E070E0C80193D18091192C909152
:102620001A2CFC01EF5BFF4F208131978081281726
:1026300008F0E2D28C2FCF911F910F9108950F9344
:102640001F93CF93DF93CDB7DEB7EA97CDBFDEBF41
:1026500001E11CE2E0D2F80181938F01FCE2093133
:102660001F07C1F70E94043D51D3882309F4FCC021
:102670009091112C2091122C422F50E04A3051059C
:1026800008F0F2C0FA018827E250FF4F8F4F0C94F8
:10269000A141903891F0923809F0E6C08091152C54
:1026A0008F70D9D2E0911B2CF0911C2C118112FB60
:1026B000112710F980E0CFD206C010910D2C809127
:1026C0000E2C811112603CD3812FB5D280E0AAC0BC
:1026D000892F8D7F09F0C8C0992319F0923061F0DD
:1026E000C3C08091132C813009F0BEC0233009F0A3
:1026F00080E080930E2C27C08091132C811123C081
:10270000E091152C1E2F1F7009F4AEC0812FA3D2AB
:102710008091122C833011F43FD315C0E0911B2C13
:10272000F0911C2C81818B7F818324E8129FF00122
:102730001124E15AF34D1082E0911B2CF0911C2CD6
:1027400080818E7F808380E086D2FAD26DC0911125
:102750008BC01091132C1F77F3D2E1D3B1D2882311
:10276000E9F31093C304111102C082E001C083E0B9
:102770008093102C79C09058923008F075C08091E9
:10278000132C9091142C8C3D43E0940759F583E071
:102790008A838AE389834FB7F894DE01139620E099
:1027A00038E052E05093CA01E32FF0E0E491109238
:1027B000CA0120FF03C0E295EF703F5FEF708E2FDC
:1027C00090E0EA3010F0C79601C0C0968D939D93BB
:1027D0002F5F2C3139F74FBFB3D26AE370E0CE01DF
:1027E000019616C0AE014F5F5F4F6091152C0E949D
:1027F000572E8C01892B09F437C0A2D22091132CBB
:102800003091142C89819A81B8012330334011F41E
:10281000E4D001C05CD1F0D127C0903829F590D226
:1028200080910C2C08D2CFD17AD31EC091111CC03C
:102830008091132C9091142C99270297ACF480D29C
:102840008091132C80930C2C6AD380910C2C8111D5
:1028500006C08091C304811102C081E001C084E000
:102860008093102C0E94EA3C51D2882311F068D248
:1028700093D2EA96CDBFDEBFDF91CF911F910F912A
:1028800008950895CF938091102C882351F0C09122
:102890001D2C80E0E0D13AD28111D1DE8C2FCF9176
:1028A000DAC1CF910895CF92DF92EF92FF920F930A
:1028B0001F93CF93DF93EC018B017A0146D38111F3
:1028C00036C0E114F10439F0F70180819181081BD1
:1028D000190BC80FD91FC12CD12C0115110531F1CD
:1028E0008091192C90911A2CFC01EF5BFF4F2081F5
:1028F00031978081281790F066D1C4DFE114F1048C
:1029000049F0F70180819181C80ED91EC082D18221
:1029100085E00DC01AD3882301F309C089918BD1BA
:1029200001501109FFEFCF1ADF0AD7CF80E0DF9106
:10293000CF911F910F91FF90EF90DF90CF9008956E
:10294000CF92DF92EF92FF920F931F93CF93DF937B
:10295000EC018B017A01F9D2811136C0E114F10446
:1029600039F0F70180819181081B190BC80FD91F1D
:10297000C12CD12C0115110531F18091192C9091A8
:102980001A2CFC01EF5BFF4F2081319780812817C3
:1029900090F032D177DFE114F10449F0F701808142
:1029A0009181C80ED91EC082D18285E00DC0CDD2E2
:1029B000882301F309C02FD1899301501109FFEF3A
:1029C000CF1ADF0AD7CF80E0DF91CF911F910F910F
:1029D000FF90EF90DF90CF900895DF92EF92FF92FB
:1029E0000F931F93CF93DF93D82FC92F8B01809123
:1029F0001D2C806830D18091172C9091182C801755
:102A0000910728F00115110519F4DDD001C08C01E2
:102A1000ED2EFC2ED12C0115110509F43FC080913B
:102A2000102C811102C082E04AC0853011F483E08D
:102A300046C06CD1811142C04FD181113AC040D102
:102A4000882349F320911D2C8091192C90911A2CE8
:102A5000FC0127FF05C0EF5BFF4FC081D0E013C032
:102A6000E05CFF4FC08131968081D0E0C81BD10966
:102A70000AC0C034D10550F4F70181917F01DBD049
:102A80000150110921960115110599F7DD24D39400
:102A9000C034D10509F0D12C96D0BDCFD110BFCF15
:102AA00008C08091102C882309F4BDCF853009F42B
:102AB000BECF12D18823A9F380E001C081E0DF916D
:102AC000CF911F910F91FF90EF90DF900895DF92CB
:102AD000EF92FF920F931F93CF93DF93D82FC92FBD
:102AE0008B0180911D2C8068B6D08091172C90911D
:102AF000182C8017910728F00115110519F463D0DF
:102B000001C08C01ED2EFC2ED12C0115110509F40C
:102B100041C08091102C811102C082E04CC08530F0
:102B200011F483E048C0F2D0811144C0D5D08111A6
:102B30003CC0C6D0882349F320911D2C8091192CCC
:102B400090911A2CFC0127FF05C0EF5BFF4FC0815D
:102B5000D0E015C0E05CFF4FC08131968081D0E0AD
:102B6000C81BD1090CC0C034D10560F4F7018491B1
:102B700062D0FFEFEF1AFF0A0150110921960115EB
:102B8000110589F7DD24D394C034D10509F0D12C87
:102B90001AD0BBCFD110BDCF08C08091102C882394
:102BA00009F4BBCF853009F4BCCF96D08823A9F3B4
:102BB00080E001C081E0DF91CF911F910F91FF90E4
:102BC000EF90DF900895E0911B2CF0911C2CA091C8
:102BD000192CB0911A2CAF5BBF4F8C9190E082837F
:102BE000938380818D798083E091192CF0911A2C48
:102BF000EF5BFF4F10820895E0911B2CF0911C2C8D
:102C000080818D798083E091192CF0911A2CEF5BF3
:102C1000FF4F108208958091192C90911A2CFC017D
:102C2000EF5BFF4F208131E0320F3083FC01E20F78
:102C3000F11D808108952091192C30911A2CF901F1
:102C4000EF5BFF4F908141E0490F4083F901E90FAD
:102C5000F11D8083089580931D2C482F4F7050E004
:102C60006091C6047091C7049A0194E0220F331F4B
:102C70009A95E1F7E4E887FF11C0E49FC001E59F62
:102C8000900D1124805A934D8093192C90931A2CF7
:102C9000C90108969B01280F391F0DC0E49FC00190
:102CA000E59F900D1124825E934D8093192C909393
:102CB0001A2C260F371F20931B2C30931C2C0895A1
:102CC00080911D2C8068C7DFE0911B2CF0911C2C9B
:102CD000808186958170089580911D2C8F77BBDF50
:102CE000A0911B2CB0911C2C8C9185FF0DC0E09104
:102CF000192CF0911A2C12968D919C911397E05CEF
:102D0000FF4F808381E0089580E0089580911D2C1D
:102D10008F77A1DFA0911B2CB0911C2C8C9184FF8C
:102D20000DC0E091192CF0911A2C12968D919C9166
:102D30001397E05CFF4F808381E0089580E0089561
:102D400080911D2C8F7787DFE0911B2CF0911C2C3C
:102D500080818D788083E0911B2CF0911C2C8081E8
:102D600081608083E091192CF0911A2CEF5BFF4F6A
:102D7000108280911D2C80686EDFE0911B2CF091F9
:102D80001C2C808181608083E091192CF0911A2C99
:102D9000EF5BFF4F10820895E0911B2CF0911C2CEB
:102DA000818184608183E0911B2CF0911C2C8181B6
:102DB000807C803459F480911D2C80584CDFE09148
:102DC0001B2CF0911C2C81818460818308951F93BA
:102DD000CF93DF93C82F162FD42F3DDFE0911B2C0C
:102DE000F0911C2C1182E0911B2CF0911C2C8C2F4B
:102DF000881F8827881F880F8083E0911B2CF09103
:102E00001C2C1183E0911B2CF0911C2C128213823C
:102E10002091192C30911A2C24833583CC0FCC0BA4
:102E2000CD23F901E05CFF4FC0833196108281E031
:102E3000DF91CF911F910895CF92DF92EF92FF9291
:102E40000F931F93CF93DF93C62E8C01D12CDC14EC
:102E500009F43FC0F801D081D11104C0D3940B5FB5
:102E60001F4FF5CFF801E180F28093818481823099
:102E700010F488E001C088E128E030E0C0E02E15C1
:102E80003F0520F4CF5F220F331FF9CFC82B8D2FC2
:102E90008F70833010F080E01DC0CF7EF1E4EF161C
:102EA000F104C8F7992321F0913021F4C06C0AC0D5
:102EB000C06403C0C068911105C04E2D6C2F80E81E
:102EC0008D0F85DF4E2D6C2F8D2F81DF8111C6CFA9
:102ED000E2CF81E0DF91CF911F910F91FF90EF90B2
:102EE000DF90CF90089580E090E0E091C604F091EB
:102EF000C7049C0144E0220F331F4A95E1F7E20F1B
:102F0000F31F11864091C6045091C704FA01E20FE5
:102F1000F31F118201968330910539F7089580914E
:102F2000112C87FF0DC0D8DE811105C08091102CB7
:102F30008111F9CF09C060CE8091102C882321F037
:102F4000BFDE8823C9F33FCE08950F931F93CF931D
:102F5000E091C604F091C70400A911A9C4E68091CC
:102F60001D2C87FF0AC0ACDE811105C08091102C9A
:102F7000811105C020C080E023C0AEDEF5CF8530D2
:102F8000E1F0E0911B2CF0911C2C818182FD17C097
:102F9000E091C604F091C70480A991A90817190708
:102FA00011F48C01DCCF2FEF2C0FCC2311F0C22FAA
:102FB000F8CF84E005C082E003C083E001C081E077
:102FC000CF911F910F91089563D069D0E0ECF4E0A8
:102FD00081818E7F818380818F77808310920F2CF7
:102FE0000895CF93DF93E0E4F0E01482848183605E
:102FF00084834ED054D0C0ECD4E088818F7788830E
:103000008881806888831092102C10920C2C10926A
:103010000E2C10920D2C88818064888340E46BE430
:1030200080E8D5DE40E46BE480E0D1DE8885806412
:103030008887898181608983DF91CF910895CF93BB
:10304000DF932FB7F894C0ECD1E082E08A87EAE101
:10305000F0E0E491A0ECB4E0DA96EC93DA97EBE1DF
:10306000F0E0E491DB96EC93DB971A868BEA9DE225
:103070008E7F16968D939C93179782E18C9381E0B7
:1030800018968C932FBF80930F2CDF91CF91A9CFEF
:10309000E0ECF4E080858370808711860895E0EC91
:1030A000F4E08FEF8287848708951F920F920FB606
:1030B0000F92112408B60F9218BE09B60F9219BECE
:1030C0000BB60F921BBE2F933F934F935F936F935B
:1030D0007F938F939F93AF93BF93EF93FF938091D1
:1030E000CA0486FF07C080E48093CA0485E0809309
:1030F000102CC7DB8091CA0485FF13C080E2809347
:10310000CA0480910C2C882311F084E007C08091C0
:10311000C304811102C081E001C083E08093102CC0
:10312000B0DB8091CA0484FF14C080E18093CA049C
:1031300082E08093102C10920C2C1092C304D3DEEA
:1031400040E46BE480E843DE40E46BE480E03FDE93
:1031500098DBFF91EF91BF91AF919F918F917F91FC
:103160006F915F914F913F912F910F900BBE0F90F8
:1031700009BE0F9008BE0F900FBE0F901F901895BC
:1031800081E00895CF93DF93CDB7DEB76397CDBFCE
:10319000DEBF8B8B8091E2209091E320049769F54C
:1031A0008B89882351F18091DD2D89838981882342
:1031B00009F444C08981893008F040C08981882F92
:1031C00090E00197880F991F8C519F4DFC018081E1
:1031D0009181892B99F18981882F90E00197880F3F
:1031E000991F8C519F4DFC01208131818B89815029
:1031F0006EED7DE2F901199521C08091E220909158
:10320000E3200397E1F48B898230C8F08091DD2DB3
:103210008630A9F48091DE2D813089F481E1E4E3E8
:10322000F0E2DE01129601900D928A95E1F7CE014F
:103230000296BC0181E10E94682D01C000000000DF
:103240006396CDBFDEBFDF91CF9108959FEF980FBA
:10325000983040F4E82FF0E0EE0FFF1FEE51FF4DE5
:10326000608371830895FC018091F420811129C04D
:1032700081E08093F4208DED9DE28093F520909382
:10328000F6208181803F39F582818E3771F4838108
:1032900090911220891711F08F37E9F483E090E0C4
:1032A0008093E2209093E3200895811114C08381DC
:1032B000813089F481E090E08093E2209093E320D4
:1032C00008958091E2209091E32081309105F1F4FE
:1032D0008181893739F082E090E08093E2209093F9
:1032E000E3200895A091F520B091F620CD0102963B
:1032F00020910420309105208217930760F784E025
:1033000090E08093E2209093E3201AC0029761F14D
:10331000A091F520B091F620CD01039620910420D4
:103320003091052082179307B0F602978093F5201D
:103330009093F62081818C93A091F520B091F62096
:10334000CD0101968093F5209093F62082818C9395
:10335000A091F520B091F620CD0101968093F52043
:103360009093F62083818C930895FC011092F420B1
:103370008091E2209091E32081309105C1F4818118
:10338000893709F049C0A091F520B091F620CD0110
:103390000296209104203091052082179307E0F5D2
:1033A00084E090E08093E2209093E3201AC002979B
:1033B00099F1A091F520B091F620CD0103962091CE
:1033C0000420309105208217930730F502978093EF
:1033D000F5209093F62081818C93A091F520B091F7
:1033E000F620CD0101968093F5209093F6208281FE
:1033F0008C93A091F520B091F620CD010196809399
:10340000F5209093F62083818C938091F520909104
:10341000F6208D5D9D42B6DE1092E2201092E320F0
:1034200008952091F4202223B9F11092F4202091E4
:10343000E2203091E3202230310551F1A091F520B6
:10344000B091F6209D012E5F3F4F40910420509196
:10345000052024173507E0F4FC01CD010196809387
:10346000F5209093F62081818C93A091F520B09166
:10347000F620CD0101968093F5209093F62082816D
:103480008C938091F5209091F6208D5D9D427ADE9F
:103490001092E2201092E32008952091F42022233C
:1034A00049F11092F4202091E2203091E320223063
:1034B0003105E1F0A091F520B091F6209D012F5F3C
:1034C0003F4F40910420509105202417350770F498
:1034D000FC012093F5203093F62081818C9380911C
:1034E000F5209091F6208D5D9D424CDE1092E220F9
:1034F0001092E3200895EAEFF0E2119281E2E230C7
:10350000F807D9F708958091F7209091F820089551
:103510008093F7209093F82008958091F9200895E2
:10352000DC011C968C911C97E2E0F1E284878D917E
:103530009C9111978083918312968D919C91139702
:103540008283938314968D919C91159784839583A0
:1035500016968D919C9117978683978318968D91D7
:103560009C911997808791871A968D919C911B97B2
:1035700082879387089582E091E20895CF93C0E017
:1035800021E040E050E0BA018C2F0E94263260E03A
:1035900070E08C2F0E94BE32CF5FC03189F7C0E04F
:1035A000E9D720E08C1308C040E05FEF6FEF70E0D8
:1035B0008C2F0E94263207C04FEF50E060E070E091
:1035C0008C2F0E942632CF5FC83051F7CF910895DB
:1035D0001F93CF93DF93182FEB016230710510F426
:1035E0000E94CF3780910E21882319F0C3D7982FDE
:1035F00001C090E0E12FF0E0EE0FFF1FEE5FFE4D07
:103600000190F081E02DE431F10508F009C288272E
:10361000E85FFE4F8F4F0C94A141C130D10549F4B2
:1036200068E0610F292F220F920F990F690F4FE762
:10363000F0C1CD2B09F0F4C1892F880F980F990F95
:1036400068E0610F690F40E0E4C1C130D10509F0C5
:10365000E7C1012E01C0CC0F0A94EAF7E92FF0E090
:10366000E650FF4D80818C278083C82311F440E011
:1036700001C04FE7892F880F980F990F68E0610FFD
:10368000690FC7C1C130D10551F468E0610F292F1E
:10369000220F920F990F690F2FE741E00CC0CD2B3D
:1036A00009F0BEC1892F880F980F990F68E0610F4C
:1036B000690F20E040E08091E02BDF91CF911F91D6
:1036C0000C941F2DC130D10509F0AAC1012E01C0F3
:1036D000CC0F0A94EAF7E92FF0E0E650FF4D808125
:1036E0008C278083C82311F420E001C02FE741E03C
:1036F000C11101C040E0692F660F960F990F68E075
:10370000610F690FD8CFC130D10551F482E090E04C
:103710008093F7209093F82083C1C130D105A9F0A0
:10372000CD2B09F07DC10E94302981E090E080938B
:10373000F7209093F82074C1219709F071C180910E
:10374000F7209091F820039771F383E090E0809345
:10375000F7209093F82064C1219709F061C180910E
:10376000F7209091F820029789F6DDCF219709F094
:1037700057C100D7873008F053C1FCD690E00797B7
:103780000CF42FC1C7E032C1219709F049C1F2D62C
:10379000882309F445C1EED690E009970CF025C1C5
:1037A000E9D6CFEFC80F22C1C130D10551F481E075
:1037B0008093F920DFD60E94E138DF91CF911F91ED
:1037C000DDCEC230D105B9F4D5D6C82F85E00E9430
:1037D0001133D82F282F40E05FEF6FEF70E08C2F70
:1037E0000E9426324D2F6FEF7FEF8C2FDF91CF910C
:1037F0001F910C94A332CD2B09F012C11092F92025
:10380000DF91CF911F910C943029219709F008C1C5
:10381000B1D640E0682F8091E02B0E94472D4FE702
:1038200060E08091E02B0E94472D8091DC2B882363
:1038300019F080E00E945A3680E0DF91CF911F910D
:103840000C94D424219709F0EBC094D640E0682F63
:103850008091E02B0E94472D4FE761E08091E02BA3
:103860000E94472D8091DC2B882319F081E00E9473
:103870005A3681E0DF91CF911F910C94D424219787
:1038800009F0CEC077D640E0682F8091E02B0E94EF
:10389000472D4FE762E08091E02B0E94472D8091F9
:1038A000DC2B882319F082E00E945A3682E0DF91F7
:1038B000CF911F910C94D424219709F0B1C05AD60E
:1038C00040E0682F8091E02B0E94472D4FE763E096
:1038D0008091E02B0E94472D8091DC2B882319F0EA
:1038E00083E00E945A3683E0DF91CF911F910C94C0
:1038F000D424219709F094C03DD640E0682F8091F0
:10390000E02B0E94472D4FE764E08091E02B0E945E
:10391000472D8091DC2B882319F084E00E945A36D1
:1039200084E0DF91CF911F910C94D424219709F06A
:1039300077C020D640E0682F8091E02B0E94472D71
:103940004FE765E08091E02B0E94472D8091DC2BB2
:10395000882319F085E00E945A3685E0DF91CF91E7
:103960001F910C94D424219709F05AC003D640E04B
:10397000682F8091E02B0E94472D4FE766E08091F1
:10398000E02B0E94472D8091DC2B882319F086E0E4
:103990000E945A3686E0DF91CF911F910C94D42477
:1039A000219709F03DC0E6D540E0682F8091E02BDB
:1039B0000E94472D4FE767E08091E02B0E94472D42
:1039C0008091DC2B882319F087E00E945A3687E02B
:1039D000DF91CF911F91E8C7219711F5CBD58730A3
:1039E00020F4C8D5C1E0C80F01C0C0E0C3D540E095
:1039F000682F8091E02B0E94472D8091DC2B88233B
:103A000019F08C2F0E945A368C2FCED7B3D54FE7A2
:103A1000682F8091E02BDF91CF911F910C94472D5F
:103A2000DF91CF911F9108950F931F93CF93DF9351
:103A30000E94163BC0E0D1E00E945D3B0D2F10E0DC
:103A400080239123892B29F061E070E08C2FC0DD69
:103A500015C00E94613B80239123892B29F060E0EF
:103A600070E08C2FB5DD0AC00E94593B8023912362
:103A7000892B21F062E070E08C2FAADDDD0FCF5F93
:103A8000C630D1F6DF91CF911F910F910C94593B25
:103A90009FE0989FD0011124A452BE4C969FF00144
:103AA0001124E452FE4C17969C9117978781981326
:103AB0000CC018969C918085981307C0923029F00D
:103AC000943019F081E0953009F480E008950F9367
:103AD0001F93CF93DF93CDB7DEB72897CDBFDEBF5F
:103AE000262F8A01F89430E8839FC0011124809624
:103AF00048E050E0BE016F5F7F4FE8E02E9F800DF1
:103B0000911D11240E94B20578948981982F9F708D
:103B1000F8019283158282958F7083838A818F77D3
:103B200084838B8181878C8182878D81982F9F7779
:103B30009387881F8827881F80838E81982F937092
:103B40009487982F969596959370918382958F7010
:103B500086878F81982F9770908782958F70868344
:103B60008885982F9F779783881F8827881F858748
:103B70002896CDBFDEBFDF91CF911F910F910895A1
:103B8000AF92BF92CF92DF92EF92FF920F931F936B
:103B9000CF93DF93CCEDD1E37E0110E0612F6F7006
:103BA000A701812F82958F7092DF1F5F8FE0E80E53
:103BB000F11C103899F790E6A92E99E3B92E23E26B
:103BC000E22EF12C670100E010E0C6010E94A10581
:103BD000F501E00FF11F808388E0C80ED11C0F5F54
:103BE0001F4F0031110589F780E8E80EF11C80E1D4
:103BF000A80EB11C83E2E81684E0F80619F7E4E0A9
:103C0000FBE384E19BE3119211928E179F07D9F792
:103C1000E0917321F0E0A0EEB9E31D9289E3A03FAB
:103C2000B807D9F7EE0FFF1FEC5FF44C108211823A
:103C3000ECE5FFE22CE530E38CE998E12E173F0735
:103C400089F04881DF01B395442329F08083918373
:103C50008D939C9304C0108211821D921C92329607
:103C60002F96ECCF88E08093722182E080937121BF
:103C7000DF91CF911F910F91FF90EF90DF90CF9048
:103C8000BF90AF900895DF92EF92FF920F931F9332
:103C9000CF93DF93CDB7DEB7E097CDBFDEBF88E02F
:103CA000E5E4F0E2DE01999601900D928A95E1F744
:103CB00088E0EDE4F0E2DE01919601900D928A95A4
:103CC000E1F78E010F5F1F4F80E2F80111928A9594
:103CD000E9F7F80180E050E19FE74FE332E421E0AB
:103CE00050838183928393834483358326838783A0
:103CF0008F5F38968430A1F780E07E01F1E2EF0E0D
:103D0000F11CDD24D394D80E8695869590E0E9E2E7
:103D1000F0E0EC0FFD1FE80FF91F2081F701E80F1D
:103D2000F91F80812B838C832B878C872B8B8C8B2B
:103D30002B8F8C8FF894C8010E9418068D2D0E943D
:103D40002A067894F80181818C5F818387818C5F5A
:103D500087833896EE15FF05B1F78D2D803289F6F1
:103D6000E096CDBFDEBFDF91CF911F910F91FF9005
:103D7000EF90DF9008958F929F92AF92BF92CF9273
:103D8000DF92EF92FF927B01682F70E080E090E07D
:103D90000E94073E2091A9203091AA204091AB209B
:103DA0005091AC200E94193F4B015C01B70180E0AB
:103DB00090E00E94073E9B01AC01C501B4010E9446
:103DC0006E3D2091A5203091A6204091A7205091D2
:103DD000A8200E94063D6B017C0120E030E040E815
:103DE00053E40E94153F18168CF020E030E040E8C4
:103DF0005FE3C701B6010E946A3D87FF0DC0C12C79
:103E0000D12C90E8E92E9FE3F92E06C0C12CD12CCD
:103E100080E8E82E83E4F82EC701B6010E94DB3D5E
:103E2000CB01FF90EF90DF90CF90BF90AF909F902D
:103E30008F9008953FE0439FF0011124E452FE4C1F
:103E40009081992369F0E62FF0E0EE0FFF1FE45A0E
:103E5000F04D4081518141565841413D510510F08E
:103E600080E0089590E0DC01A052B64C3C91230F15
:103E70002C9340917221421734F482E399E18083BC
:103E8000918381E00895022E000C330B5527419554
:103E90000CF450952417350734F480E698E18083BC
:103EA000918381E008952091732130E1239F800D5B
:103EB000911D1124FC01E452F14D8FE3808381E0D8
:103EC00008959FE0499FF0011124E452FE4C908533
:103ED000923081F09450923068F070E0660F771F56
:103EE000FB01E45AF04D40815181FA013197EB39E1
:103EF000F14310F480E00895E82FF0E044365105D6
:103F00001CF412161CF008C027FF06C0DF01A052E7
:103F1000B64C8C91280F2C93E052F64C2081809166
:103F2000712182176CF44436510554F4DB01A45A14
:103F3000B04D84E690E08D939C93108281E00895CB
:103F4000022E000C330B992781950CF490952817BD
:103F500039076CF44933514354F0DB01A45AB04D96
:103F600088E391E38D939C93108281E0089581E032
:103F70000895BF92CF92DF92EF92FF920F931F931B
:103F8000CF93DF93C82F0E94DD3A8C2F8295807FDC
:103F9000DCE2D80F3CE3B32EB80EEE24E394F12C10
:103FA0000C2F10E0000F111FC801845A964C6C01B1
:103FB0000051154C0E940C3B8E219F21892BB1F0A2
:103FC0002FE741E06D2F8091E02B0E941F2DF6011D
:103FD000808191818E219F21892B31F5F80180818B
:103FE00091818E299F29808391831EC00E94113B5D
:103FF0008E219F21892BC1F020E040E06D2F809120
:10400000E02B0E941F2DF601808191818E219F213E
:10401000892B51F4F80120813181C7018095909559
:104020008223932380839183EE0CFF1CDF5FBD12FC
:10403000C1CF80911021EC2FF0E0EE0FFF1FE05177
:10404000F54C21E030E0082E02C0220F331F0A9405
:10405000E2F7408151812423352360E0232B61F076
:104060000E94D93200E021E030E040E06FE780912B
:1040700010210E941A320BC00E94D93200E021E0C8
:1040800030E040E060E0809110210E941A3280917F
:1040900010218F5F803118F48093102102C010929C
:1040A0001021DF91CF911F910F91FF90EF90DF9042
:1040B000CF90BF900895AF92BF92CF92DF92EF92D0
:1040C000FF920F931F93CF93DF93C82FD0E08FE021
:1040D0008C9FF0018D9FF00D1124E452FE4C2223A1
:1040E00011F0068501C006812FE02C9FC0012D9F95
:1040F000900D11249C0124523E4C7901F9018085D8
:10410000982F9D7F913009F066C0162F462F67814A
:10411000802F0E94472DF7018585882309F46EC002
:104120006091DD2BA090DF2B1A1578F1B12C70E097
:104130006A197B09072E000C880B990B0E94093E17
:1041400020E030E04EEF52E40E946E3D9B01AC0156
:1041500060E070E080E89FE30E946E3D6B017C01AF
:10416000612F70E06A197B09072E000C880B990BF0
:104170000E94093E9B01AC01C701B6010E94193F94
:104180000E94DB3DF62E172F02C0F12C10E080912B
:104190002A3B90912B3B0E94B2124F2D512F403859
:1041A000510510F04FE750E08FE08C9FF0018D9F9C
:1041B000F00D1124E452FE4C6781605C802FDF918A
:1041C000CF911F910F91FF90EF90DF90CF90BF9014
:1041D000AF900C94472D811111C0262F41E0F701BB
:1041E0006781802FDF91CF911F910F91FF90EF900A
:1041F000DF90CF90BF90AF900C941F2DDF91CF91A7
:104200001F910F91FF90EF90DF90CF90BF90AF90F4
:1042100008954423B9F0282F30E09FE0899FF001F2
:104220001124E452FE4C8085833061F4F901EE0FD5
:10423000FF1FE45AF04D80819181C29664E670E0E0
:104240000E945041862F0895282F22952F70782F95
:104250007F7030E0E72FF0E0611128C0D901AA0F8C
:10426000BB1FAC5EB44C41E050E002C0440F551F90
:104270007A95E2F7409550956D917C911197462380
:1042800057234D935C9364E0220F331F6A95E1F747
:10429000205A364CE20FF31F9FE0899FD001112472
:1042A000A452BE4C1A968C91808308959FEF960F6E
:1042B000D901AA0FBB1FAC5EB44C9D37D0F481E08E
:1042C00090E002C0880F991F7A95E2F74D915C91BA
:1042D0001197842B952B8D939C93C90124E0880F13
:1042E000991F2A95E1F7805A964CE80FF91F6083D1
:1042F000089541E050E002C0440F551F7A95E2F75F
:104300006D917C911197462B572B4D935C9394E0C4
:10431000220F331F9A95E1F7205A364CD901AE0F80
:10432000BF1F9FE0899FF0011124E452FE4C81855C
:104330008C930895E82FE295EF70F0E08F7090E095
:10434000611103C020E030E002C02FE730E044E01C
:10435000EE0FFF1F4A95E1F7E80FF91FEE0FFF1F61
:10436000E051F64C208331830895982F882329F05B
:1043700081E0913320F09F3711F080E00895089597
:10438000982F813318F081E0913608F080E008958D
:10439000CF92DF92EF92FF920F931F93CF93DF9311
:1043A0009091732180910F21282F30E0F90140E195
:1043B000949FE00DF11D1124E452F14DD081C82FDE
:1043C00040E1949FC00D1124F901EF59FE4D9081F9
:1043D000D917B9F09FE0C99FF0011124E452FE4CB7
:1043E000248530E041E09081911101C040E00385D7
:1043F0006D2F0E941A32E0910F21F0E0EF59FE4D2F
:10440000D08380910F21282F30E090917321F90102
:1044100040E1949FE00DF11D1124E05AF64CD0814B
:10442000F901EF5AFE4D9081D91749F06D2F0E9486
:10443000D932E0910F21F0E0EF5AFE4DD083C090C9
:104440007321D0900F21ED2CF12C80E1C89E8001CA
:104450001124F801E45AFE4CEE0DFF1DD081DD233E
:10446000B1F08D2F8DDF882391F0D801A05AB64C82
:10447000AE0DBF1D2C914D2F6C2D8D2D0E943B3309
:10448000E0910F21F0E0EF5BFE4DD08323C0F701F8
:10449000EF5BFE4D80818823E9F09FE0C99FF0012A
:1044A0001124E452FE4C248530E041E080818111EA
:1044B00001C040E0D801A452B14DAE0DBF1D03852F
:1044C0006C918D2D0E941A32E0910F21F0E0EF5B8C
:1044D000FE4D1082D090732100910F21E02EF12C1F
:1044E00040E1D49EE0011124FE01E45AF14DEE0DAD
:1044F000FF1D10811123B9F0812F37DF882399F038
:10450000CE01805A964CEC01CE0DDF1D2881412F43
:104510006D2D802F0E943B33E0910F21F0E0EF5C86
:10452000FE4D108314C0F701EF5CFE4D808188239F
:1045300071F0C05AD64CCE0DDF1D6881802F0E94CD
:10454000D932E0910F21F0E0EF5CFE4D10828091B6
:104550000F218F5F803118F480930F2102C01092D9
:104560000F21DF91CF911F910F91FF90EF90DF907E
:10457000CF90089580917321089597FD05C08D39DE
:1045800021E3920724F4089580E090E008958CE9F7
:1045900091E30895EF92FF921F93CF93DF93182F2B
:1045A000C1E0D0E0062E02C0CC0FDD1F0A94E2F776
:1045B00080E1189F600D1124E62EF12C8FE0689F9A
:1045C000F0011124E452FE4C8281873061F08FE0CB
:1045D0008E9DF0018F9DF00D1124E452FE4C8281DE
:1045E0008830B1F408C00E94073B8C239D23892B9F
:1045F00071F381E00EC0E12FF0E0EE0FFF1FEC5FE2
:10460000F44C80819181C823D92381E0CD2B09F41A
:1046100080E0DF91CF911F91FF90EF900895CF93AD
:10462000C62F90E1899FC00D1124B4DF8111C058BD
:104630008C2FCF910895DF92EF92FF920F931F93EB
:10464000CF93DF93CDB7DEB7A097CDBFDEBFF82EF7
:10465000D62E8A01E4DF9FE0989FD0011124A45256
:10466000BE4CF80101900D929A95E1F7ED2CE6947D
:10467000E69420E8F29EC0011124809640E250E0CA
:10468000BE016F5F7F4F30E2E39E800D911D1124CC
:104690000E94B2058D2D8370E1E0F0E0EC0FFD1F6C
:1046A00098E0899FE00DF11D1124D80112968C919C
:1046B00087FD05C09081907F8F70892B8083D80102
:1046C00013969C9197FD0DC08081282F2F70892F04
:1046D00090E0019754E0880F991F5A95E1F7822BDB
:1046E0008083D80114968C9187FF8183D801199615
:1046F0008C9187FF8283D8011A968C9187FF8383E0
:10470000D8019C9197FD04C0848190FB87F9848334
:10471000D8011B968C9187FD04C094819078892BD9
:104720008483D8011C968C9187FD05C095819C7F60
:104730008370892B8583D80111969C9197FD0AC0BF
:104740008581282F237FB4E09B9FC00111248C70AA
:10475000822B8583D8011E968C9187FD0EC0258102
:10476000922F9F70282F30E02150310944E0220F12
:10477000331F4A95E1F7292B2583D80118968C9190
:1047800087FD05C09681987F8770892B8683D80125
:1047900016969C9197FD0EC02681822F8F70292F2F
:1047A00030E02150310994E0220F331F9A95E1F750
:1047B000282B2683D80117968C9187FD04C09781FA
:1047C0009078892B8783D8011D969C9197FD04C012
:1047D000878190FB87F98783E394FF0CFF0CFE0C25
:1047E000F894CE0101960E9418068F2D0E942A0689
:1047F0007894A096CDBFDEBFDF91CF911F910F912E
:10480000FF90EF90DF9008952F923F924F925F922A
:104810006F927F928F929F92AF92BF92CF92DF92D0
:10482000EF92FF920F931F93CF93DF93CDB7DEB735
:104830002797CDBFDEBF282E962E20E1829F900CB9
:104840001124ECEDCE2EEEE2DE2E1982412CA92CA5
:10485000B12CFFE08F2E8A9C80018B9C100D1124BF
:1048600004521E4CC80106968C839D83350190E846
:10487000690E711CE0E12E9ED0011124A452B14DAD
:10488000A60FB11DAE83BF83A895241020C043940A
:10489000F0E1CF0ED11C2981205F298338E043123B
:1048A000F3CF2796CDBFDEBFDF91CF911F910F9140
:1048B000FF90EF90DF90CF90BF90AF909F908F9040
:1048C0007F906F905F904F903F902F90089576016A
:1048D000312CC301880F991FDC01A45AB04DAA8363
:1048E000BB835980530C652D892DD2D8882309F4B8
:1048F00046C0632D842D4EDE252D30E0829EF001D2
:10490000839EF00D1124E452FE4CAC81BD814C918C
:104910009681491315C0F501EE0FFF1FE45AF04DC3
:1049200040815181F901EE0FFF1FE45AF04D4083A1
:104930005183811105C0EE81FF819081D7019C9345
:10494000829EF001839EF00D1124E452FE4CD801AA
:104950001E964C919685491312C0EA81FB814081D5
:104960005181220F331FF901E45AFF4C40835183D8
:10497000882329F0AE81BF818C91F7018083339425
:10498000FFEFEF1AFF0A20E13212ABCF80CFCF93B7
:10499000DF93D82FC0E06C2F8D2F36DFCF5FC03173
:1049A000D1F7DF91CF9108957F928F929F92AF922E
:1049B000BF92CF92DF92EF92FF920F931F93CF930C
:1049C000DF93982E80917321E2DF21E6A22E21E26F
:1049D000B22E31E5E32E31E2F32E80E1989E6001A4
:1049E0001124C0E0D0E004E610E088248A946C2F03
:1049F0008091732114DE782E6C2F892D10DEE82F24
:104A0000809173219E0190E1899F200D311D112419
:104A10002452314DA72DB0E0AA0FBB1FA45AB04DB0
:104A20008D919C91B8010E945041D9016C93D501A0
:104A30008D925D01D7018D927D019E012C0D3D1D52
:104A40002452314DF0E0EE0FFF1FE45AF04D80810B
:104A50009181B8010E945041F90160832196C031D3
:104A6000D10529F690927321DF91CF911F910F917B
:104A7000FF90EF90DF90CF90BF90AF909F908F907E
:104A80007F9008958F929F92AF92BF92EF92FF9284
:104A90001F93CF93DF9367FD15C1D22F142FC62F1D
:104AA000009721F0019709F487C00CC1E62EF12C84
:104AB0002FE0629FE0011124C452DE4C8885982FBC
:104AC0009D7F913009F056C06F818E81E0D78D8532
:104AD000882309F4F7C06091DD2BC091DF2B1C17F0
:104AE00078F1D0E070E06C1B7D0B072E000C880B7A
:104AF000990B0E94093E20E030E04EEF52E40E9404
:104B00006E3D9B01AC0160E070E080E89FE30E9495
:104B10006E3D4B015C01612F70E06C1B7D0B072E1D
:104B2000000C880B990B0E94093E9B01AC01C5014A
:104B3000B4010E94193F0E94DB3DD62FC72F02C04F
:104B4000D0E0C0E080912A3B90912B3B0E94B212B2
:104B50004D2F5C2F4038510510F04FE750E08FE0AB
:104B60008E9DF0018F9DF00D1124E452FE4C678163
:104B7000605C17C0811105C0242F41E06F818E81D8
:104B800097C0823021F08450823008F09BC08FE0C3
:104B90008E9DF0018F9DF00D1124E452FE4C412FAB
:104BA00067818681DF91CF911F91FF90EF90BF9039
:104BB000AF909F908F906BC7A62EB12C3FE0639F64
:104BC000C0011124AC0144525E4C7A01DA01129604
:104BD0008C91982F9B7F923028F099EF980F92300C
:104BE00008F05AC04D2F612F8C2F13DB9FE09A9D48
:104BF00090019B9D300D1124F901E452FE4C7F0180
:104C0000B380D481482F6D2F8B2D41D7112309F408
:104C100059C08091E02BB81255C0D83008F052C06E
:104C20008091732190E0CF702C2F30E0AC0164E0D4
:104C3000440F551F6A95E1F7FA01E20FF31FEE0FDB
:104C4000FF1FE051F64C10821182A1E0B0E002C0DB
:104C5000AA0FBB1FCA95E2F7880F991FFC01EC5EF3
:104C6000F44C60817181CD0186239723892B49F40F
:104C7000405A564CFA01E20FF31FD7011A968C9155
:104C800080838D2FDF91CF911F91FF90EF90BF9088
:104C9000AF909F908F9088CE8250823098F4422FB0
:104CA000612F8C2FB6DA282F4D2FF7016481838175
:104CB000DF91CF911F91FF90EF90BF90AF909F90A9
:104CC0008F90BDC6DF91CF911F91FF90EF90BF9065
:104CD000AF909F908F900895DF92EF92FF920F9385
:104CE0001F93CF93DF93E82ED62EF42EE9010E9476
:104CF0008D1A882311F10E940C3B8C239D23892B54
:104D000009F4A6C2CE2DC77040E060917321809156
:104D1000E02BBDD68C2F0E945A368C2F45DE4FE7F4
:104D20006C2F8091E02BB3D6DF91CF911F910F9123
:104D3000FF90EF90DF900C94BE1A0E940C3B8C23E6
:104D40009D23892BB9F00E94CF370F2D10E08FE003
:104D5000F89EF0011124E452FE4C828190E08930EB
:104D6000910508F075C2FC018827E45EFE4F8F4F65
:104D70000C94A1410E94113B8C239D23892B19F790
:104D800067C20E940C3B8C239D23892B09F460C2CF
:104D90008091732190E02E2D30E0BC01D4E0660FAD
:104DA000771FDA95E1F7FB01E20FF31FEE0FFF1F0C
:104DB000E051F64C40815181452B19F44FE750E00A
:104DC00002C040E050E0FB01E20FF31FEE0FFF1FB7
:104DD000E051F64C40835183A1E0B0E002C0AA0F3D
:104DE000BB1FEA94E2F7880F991FFC01EC5EF44CBC
:104DF0000190F081E02DCD018E239F23892B09F0B6
:104E00007FC08FE0809FF001819FF00D1124E4525C
:104E1000FE4C4115510511F0818501C08285605A13
:104E2000764CFB01E20FF31F80836AC00E940C3BAB
:104E30008C239D23E09173212E2D30E0D901892B05
:104E400071F090E1E99FA00DB11D1124AA0FBB1FC5
:104E5000A051B64C8FE790E08D939C930BC0C0E1BE
:104E6000EC9FA00DB11D1124AA0FBB1FA051B64C81
:104E70001D921C92F0E081E090E002C0880F991F23
:104E8000EA94E2F7DF01AA0FBB1FAC5EB44C4D9170
:104E90005C918423952354E0EE0FFF1F5A95E1F7B0
:104EA000892B31F5DF01A20FB31FAA0FBB1FA05141
:104EB000B64C8D919C91892B59F08FE0809FD00149
:104EC000819FB00D1124A452BE4C19968C910AC03A
:104ED0008FE0809FD001819FB00D1124A452BE4C61
:104EE0001A968C91DF01A05AB64CA20FB31F8C9377
:104EF000E20FF31FEE0FFF1FE051F64C408151818E
:104F000021E041155105A9F520E033C08FE0809FD5
:104F1000F001819FF00D1124E452FE4C8081ED2DB3
:104F2000F0E0EE0FFF1FE45AF04D811148C01082EF
:104F30001182D12C0E2D10E0F801E052F64C1082B7
:104F400021E04D2D6F2D80E090E09CDD809173215C
:104F500090E1899F000D111D1124F801E452F14DDB
:104F6000D0820E940C3B8C239D23892B69F021E089
:104F70004FE76F2D81E090E0DF91CF911F910F916E
:104F8000FF90EF90DF907ECD0E94113B8C239D23FC
:104F9000892B09F45DC120E040E0EBCF8FE0809FDA
:104FA000F001819FF00D1124E452FE4C8081ED2D23
:104FB000F0E0EE0FFF1FE45AF04D882339F08CE942
:104FC00098E180839183FFE3DF2EB4CF8CE991E3F6
:104FD00080839183EFE7DE2EADCF0E940C3B8C23C4
:104FE0009D23892B09F449C02E2D30E09091732127
:104FF000892F90E041E050E002C0440F551FEA9431
:10500000E2F7FC01EE0FFF1FEC5EF44C6081718152
:105010004623572374E0880F991F7A95E1F7452BB3
:1050200081F4FC01E05AF64CE20FF31F4FE0409F81
:10503000D001419FB00D1124A452BE4C19964C9141
:1050400040838452914DEC01C20FD31FED2DF0E04F
:10505000EE0FFF1FE45AF04D8081918164E670E00D
:105060000E94504168838FE0809FF001819FF00D86
:105070001124E452FE4C4FE7E1C00E94113B8C2307
:105080009D23892B09F4E4C02E2D30E090917321EB
:10509000892F90E041E050E002C0440F551FEA9490
:1050A000E2F7FC01EE0FFF1FEC5EF44C60817181B2
:1050B00046235723B4E0880F991FBA95E1F7452B93
:1050C00081F4FC01E05AF64CE20FF31F4FE0409FE1
:1050D000D001419FB00D1124A452BE4C1A964C91A0
:1050E00040838452914DEC01C20FD31FED2DF0E0AF
:1050F000EE0FFF1FE45AF04D8081918164E670E06D
:105100000E945041688391C00E940C3B8C239D23D8
:10511000892B09F49DC080917321E82FF0E0EE0FF8
:10512000FF1FEC5FF44C208131812C273D27208329
:1051300031836E2D74DA4091732150E0BA01660F0D
:10514000771FFB01EC5FF44C208131812C233D2340
:10515000EE2DF0E0EB01CC5ED44C64E0440F551F23
:105160006A95E1F7A82FB0E081E090E002C0880FD7
:10517000991FEA94E2F7232B89F128813981822350
:105180009323892B91F4EA01C05AD64CBE016E0FCD
:105190007F1F2FE0209FC001219F900D112484527A
:1051A0009E4CEC018985EB0188834452514DE40FFC
:1051B000F51FAA0FBB1FA45AB04D8D919C9164E6B8
:1051C00070E00E94504160838FE0809FF001819FDA
:1051D000F00D1124E452FE4C4FE730C02881398194
:1051E00082239323892B91F4EA01C05AD64CBE0145
:1051F0006E0F7F1F2FE0209FC001219F900D112473
:1052000084529E4CEC018A85EB0188834452514DB7
:10521000E40FF51FAA0FBB1FA45AB04D8D919C91AE
:1052200064E670E00E94504160838FE0809FF0014F
:10523000819FF00D1124E452FE4C40E06481838193
:10524000DF91CF911F910F91FF90EF90DF901FC4DE
:10525000DF91CF911F910F91FF90EF90DF90089514
:1052600080917321A1CBCF92DF92EF92FF920F93A7
:105270001F93CF93DF93C42ED12C9FE0499FF00161
:105280001124E452FE4C9085923021F094509230DB
:1052900008F08FC0C22FD82F8FE08C9DF0018D9D1C
:1052A000F00D1124E452FE4C8281863089F50E9473
:1052B000073B80239123892B59F1ED2FF0E0EE0F6E
:1052C000FF1FDF01AF5EBE4D8D919C9111978C0F3A
:1052D000911DC7FD9A958D939C931197C0E48D9174
:1052E0009C9111978430910534F004978D939C9391
:1052F0001197CF5FF4CFEF5EFE4D808191818D3F9E
:105300002FEF920774F5049680839183C150F5CFF7
:105310008FE08C9DF0018D9DF00D1124E452FE4C28
:105320008181813019F4CC0FC05C1BC08230C1F484
:105330008C2F0C2E000C990B97FF03C09195819533
:105340009109B7010E94BB1E24E0969587952A9586
:10535000E1F78F719927C89FC00D1124C05C01C06F
:10536000C05C6D2F8091732115D981110AC08FE027
:105370008C9DF0018D9DF00D1124E452FE4C868130
:1053800009C08FE08C9DF0018D9DF00D1124E45239
:10539000FE4C8685C03479F09FE09C9DF0019D9D78
:1053A000F00D1124E452FE4C4C2F678170D381E044
:1053B00003C080E001C081E0DF91CF911F910F9188
:1053C000FF90EF90DF90CF9008959F92AF92BF92A1
:1053D000CF92DF92EF92FF920F931F93CF93DF93C1
:1053E000C82EC62FD42E922EA42EB12C8FE0489F0B
:1053F000F0011124E452FE4C8281863039F40E947F
:10540000073B80239123D1E0892B09F4D0E0D170B0
:105410008FE08A9DF0018B9DF00D1124E452FE4C2B
:105420008181092D990C110B8230B9F4C80117FF45
:1054300004C088279927801B910BB7010E94BB1ECF
:10544000D11112C08931910578F0AC018F3F9105DF
:1054500081F078F04FEF50E00CC0D11105C08823E7
:1054600031F042EB50E005C049E150E002C044E6B3
:1054700050E0D0E0049F9001059F300D149F300D47
:105480001124CC0FDD1FC45AD04D88819981820F21
:10549000931F73D888839983C29664E670E00E9454
:1054A0005041C62F6C2D8091732174D8282F41E074
:1054B0006C2F8D2D0E945B20E091732180E1E89F8D
:1054C000F0011124E452F14DEC0DF11DC08381E097
:1054D000DF91CF911F910F91FF90EF90DF90CF90D0
:1054E000BF90AF909F9008958F929F92AF92BF927E
:1054F000CF92DF92EF92FF920F931F93CF93DF93A0
:10550000C82FD62EC42E4901F8940E94CB3AD82F2A
:105510008C2F0E94D23A5C017894DD2309F10E941D
:10552000CF3785012D2F4C2D6D2D8C2F0E941A1FEA
:10553000811116C02D2F4C2D6D2D8C2F0E94611FB7
:1055400081110EC0750184012D2F4C2D6D2D8C2FD6
:105550008ADE811105C02D2F4C2D6D2D8C2F35DF4E
:10556000DF91CF911F910F91FF90EF90DF90CF903F
:10557000BF90AF909F908F900895FF920F931F93CD
:10558000CF93DF930E94DD3AC0E001E010E06C2F82
:105590008091732144D8D82F8F77F82E9801482F07
:1055A0006D2F8C2FA1DF98014F2D6D2F8C2F94DB49
:1055B000000F111FCF5FC03151F7DF91CF911F91C5
:1055C0000F91FF9008959091732120E1929F800D9B
:1055D00011249FE0899FF0011124E452FE4C908534
:1055E00081E0923031F0943029F0953019F080E06C
:1055F000089508950895EF92FF920F931F93CF930C
:10560000DF932FE0829FF0011124E452FE4C908141
:10561000992311F06623B9F1F42E162FC82FD82F35
:10562000D295DF70082F0F70602F8D2F0E94CA2235
:10563000E82EF11002C0E0E001C0E0E8CE0F80915A
:105640007321D81309C0802F0E94653B882321F065
:10565000802FB9DF8823B9F0EC2FF0E0EE0FFF1FA9
:10566000E45AF04D24E6129FC001112480839183F7
:10567000EF1009C080E1D89FF0011124E452F14DF0
:10568000E00FF11D1083DF91CF911F910F91FF90DB
:10569000EF900895BF92CF92DF92EF92FF920F9317
:1056A0001F93CF93DF939091E02B981761F0D22F47
:1056B000142F062FB82E4CEDE42E41E3F42EC0E05B
:1056C000C82ED12C49C0662319F0633009F0BBC045
:1056D0004C52413208F0B7C0E42FE295EF70F0E091
:1056E0004F7081E090E002C0880F991F4A95E2F761
:1056F000EE0FFF1FDF01A45AB64C4D915C9111973C
:10570000482B592B4D935C93E051F54C222339F0F3
:1057100020813181822B932B8083918394C080954B
:1057200090952081318182239323808391838BC044
:1057300080859681B9121CC0013099F48150853062
:1057400090F0F7018481181721F1CF5FEFE0EE0EA2
:10575000F11CC03809F477C0F70187811813F1CF25
:10576000E7CF8111EECF40E06D2F8C2F44DFE9CFE2
:10577000F7019685B912E5CF013021F481508430CC
:1057800000F702C08111DDCF41E06D2F8C2F33DF98
:10579000D8CF8381B8122AC0828182508230D0F45F
:1057A0000023D9F0033089F660E08C2F0E94242179
:1057B000EC2FE295EF7080E1E89FF00111248C2F2F
:1057C0008F70E80FF11DEE0FFF1FE051F64C1082B5
:1057D0001182BBCF013009F0B8CF6D2F8C2F0E9402
:1057E00024216D2F8C2F0E949A21AFCF8091DB2B2B
:1057F000282F22952F7030E0C216D30679F4EC2FB3
:10580000E295EF7080E1E89FF0011124E45AFE4C2C
:105810008C2F8F70E80FF11DD08397CF8F7090E0A1
:10582000C816D90609F091CFEC2FE295EF7080E110
:10583000E89FF0011124E45AF14D8C2F8F70E80F8E
:10584000F11DD08382CFDF91CF911F910F91FF90F7
:10585000EF90DF90CF90BF90089586E090E2809324
:105860002A3B90932B3BE0E8F6E091E0918382E0C5
:10587000818328E0218324E02283968310927F2174
:10588000109280218683089581E020917F213091BC
:105890008021232B09F080E00895CF92DF92EF92D0
:1058A000FF920F931F93C0906008D0906108E12C85
:1058B000F12C80917A2190917B21A0917C21B09153
:1058C0007D218C159D05AE05BF051CF580917A21C3
:1058D00090917B21A0917C21B0917D210091762136
:1058E000109177212091782130917921B701A6017B
:1058F000481B590B6A0B7B0BCB01BA01601B710B68
:10590000820B930B28E030E040E050E00E9485419C
:1059100025C080917A2190917B21A0917C21B0912A
:105920007D2100917621109177212091782130916D
:105930007921B701A601481B590B6A0B7B0BDB01D0
:10594000CA01801B910BA20BB30BBC01CD010196C8
:1059500028E030E040E050E00E94854180917621CF
:1059600090917721A0917821B0917921A901032EFE
:10597000000C660B770B840F951FA61FB71F809333
:10598000762190937721A0937821B09379212C5F91
:105990003F4F2930310530F480917421813011F46A
:1059A00080937521C0927A21D0927B21E0927C2154
:1059B000F0927D21609176217091772180917821FC
:1059C000909179211F910F91FF90EF90DF90CF90F0
:1059D000089563DF80917E21811105C01092503BB4
:1059E00081E080937E21809174218F5F88311CF447
:1059F0008093742102C0109274218091742163E01D
:105A00000E942F41923029F48091503B8F5F809308
:105A1000503B0895109274211092762110927721B4
:105A2000109278211092792110927A2110927B2184
:105A300010927C2110927D21109275210895CF93B0
:105A4000DF9300D01F92CDB7DEB7411102C090E8BE
:105A500001C090E9392F32953F7039838F70982BB0
:105A60009A836F776B832F772C830EDF882349F01F
:105A7000BE016F5F7F4F80912A3B90912B3B0E942C
:105A80008C122496CDBFDEBFDF91CF910895CF93C6
:105A9000DF9300D01F92CDB7DEB79BE099838F7064
:105AA000806B8A836F776B834F774C83EDDE88231F
:105AB00049F0BE016F5F7F4F80912A3B90912B3B55
:105AC0000E948C122496CDBFDEBFDF91CF91089546
:105AD000EF92FF920F931F93CF93DF9300D01F920B
