:100000004DC3000091C300008FC300008DC30000EA
:100010008BC3000089C3000016C4000047C4000061
:1000200078C40000A9C400007FC300007DC30000A5
:100030007BC3000079C30000B8C50000EEC5000016
:1000400024C600005AC6000090C60000C6C60000C4
:10005000FCC6000032C7000068C700009EC7000051
:1000600063C3000061C300005FC300005DC3000004
:100070005BC3000059C3000057C3000055C3000014
:1000800053C3000051C300004FC300004DC3000024
:100090004BC3000049C3000047C3000045C3000034
:1000A00043C3000041C300003FC300003DC3000044
:1000B0003BC3000039C3000037C300000C94350A6D
:1000C0000C946D0A0C94A50A0C94DD0A0C94150B83
:1000D0000C944D0B29C3000027C3000025C300006A
:1000E00023C3000021C300001FC300001DC3000084
:1000F0001BC3000019C3000017C3000015C3000094
:1001000013C3000011C300000FC300000DC30000A3
:100110000BC3000009C3000007C3000005C30000B3
:1001200003C3000001C30000FFC20000FDC20000C5
:10013000FBC200006AC70000A0C70000D6C70000CD
:100140000C94AD080C94E5080C941D090C94550909
:100150000C948D090C94C5090C94FD09E5C20000AE
:10016000E3C20000E1C20000DFC20000DDC2000007
:10017000DBC20000D9C20000D7C20000D5C2000017
:10018000D3C20000D1C20000CFC20000CDC2000027
:10019000CBC20000C9C20000C7C20000C5C2000037
:1001A000C3C20000C1C20000BFC20000BDC2000047
:1001B000BBC20000B9C20000B7C20000B5C2000057
:1001C000B3C20000B1C20000AFC20000ADC2000067
:1001D000ABC20000A9C20000A7C20000A5C2000077
:1001E000A3C20000A1C200009FC200009DC2000087
:1001F0009BC200000C94E41697C20000E1110012AB
:10020000C3120012C3123F125312C3129C12A51242
:10021000282540255D257D259E25B425BE25CF2595
:10022000E825FE2514262A263F26C4307030C43027
:1002300070303431BF3284311B32103815381A38DF
:100240001F38EA37D2372338F23723382338233898
:10025000B23707634236B79BD8A71A39685618AE2B
:10026000BAAB558C1D3CB7CC5763BD6DEDFD753EEB
:10027000F6177231BF000000803F05A84CCDB2D404
:100280004EB93836A9020C50B9918688083CA6AA06
:10029000AA2ABE000000803F08000000BE92244948
:1002A000123EABAAAA2ABECDCCCC4C3E00000080A8
:1002B000BEABAAAAAA3E00000000BF000000803F1B
:1002C0000000000000084178D3BB4387D1133D19DB
:1002D0000E3CC3BD4282AD2B3E68EC8276BED98F08
:1002E000E1A93E4C80EFFFBE01C4FF7F3F0000004C
:1002F00000000101020202020303040505060708CB
:100300000A0B0D0F1215181C21262C333C46515E8A
:100310006E7F0101010101010101010101020202DF
:1003200002020202020202020202020303030303A8
:100330000303030404040404040405050505050679
:1003400006060606070707080808080909090A0A31
:100350000B0B0B0C0C0D0D0E0E0F101011111213B8
:1003600014141516171819191A1C1D1E1F202123E5
:10037000242527282A2B2D2F31333537393B3D4073
:100380004245474A4D5053565A5D6164686C7175D9
:100390007A7F000000FF0000FF1500FF2200FF2E03
:1003A00000FF3B00FF4400FF5000FF5D00FF6A00BC
:1003B000FF7700FF7F00FF8C00FF9900FFA500FF83
:1003C000B200FFBF00FFC700FFD400FFE100FFEE57
:1003D00000FFFA00FAFF00EDFF00E1FF00D4FF008C
:1003E000C7FF00BFFF00B2FF00A5FF0099FF008C10
:1003F000FF007FFF0077FF006AFF005DFF0050FFF6
:100400000043FF003BFF002EFF0021FF0015FF000F
:1004100008FF0000FF0000FF0C00FF1900FF26008E
:10042000FF3300FF3F00FF4800FF5400FF6100FF63
:100430006E00FF7B00FF8300FF9000FF9D00FFAA7E
:1004400000FFB600FFBF00FFCB00FFD800FFE500B4
:10045000FFF200FFFF00F6FF00E9FF00DCFF00D025
:10046000FF00C3FF00BBFF00AEFF00A1FF0094FF31
:100470000087FF007FFF0072FF0066FF0059FF004A
:100480004CFF003FFF0037FF002AFF001DFF001058
:10049000FF0004FF0400FF1000FF1D00FF2A00FF03
:1004A0003700FF3F00FF4C00FF5900FF6600FF725E
:1004B00000FF7F00FF8700FF9400FFA100FFAE0058
:1004C000FFBA00FFC300FFD000FFDD00FFE900FF1F
:1004D000F600FFFF00FFFF00F2FF00E5FF00D8FF7E
:1004E00000CCFF00BFFF00B6FF00A9FF009DFF008A
:1004F00090FF0083FF007BFF006EFF0061FF00554F
:10050000FF0048FF003FFF0032FF0026FF0019E117
:10051000F0F00000000000000000000000000000FB
:1005200000007F0000007F0000007F0000007F00CF
:100530000000000000007F000000000000007F00BD
:10054000000000000000000000000055007F0000D7
:100550007F007F00005500006400006E00007F00F7
:1005600000001455007F00007F0000007F00002382
:100570005555557F7F0000006E7F640000000055D8
:10058000555555146E007F0A6414002D7F006E2DA2
:100590004B237F007F007F006E7F007F007F7F0006
:1005A0007F007F007F7F7F007F7F7F007F7F7F7F57
:1005B0007F7F557F647F557F557F557F557F6E7F49
:1005C000647F1203360036003600360036003600EF
:1005D0003600410000002A034D00690064006900F4
:1005E0002000460069006700680074006500720022
:1005F00020005400770069007300740065007200E9
:1006000000001C0344004A00200054006500630001
:100610006800200054006F006F006C007300000041
:10062000040309040902650002010080F0090400C6
:100630000000010100000924010001090001010975
:10064000040100020103000007240100014100062B
:10065000240201010006240202020009240301030E
:10066000010201000924030204010101000905013E
:100670000240000000000525010101090582024039
:100680000000000005250101031201100100000017
:1006900040802507000100010200010011241FBE57
:1006A000CFEFCDBFDFE3DEBF00E00CBF18BE19BE49
:1006B0001ABE1BBE8091780083FF1CC08091A938B0
:1006C0009091AA38A091AB38B091AC388A3C9C4A42
:1006D000A244BC4D79F41092A9381092AA38109215
:1006E000AB381092AC3881E08CBFE0910020F091E3
:1006F0000120199510E2A0E0B0E2EAE3F1E900E0A0
:100700000BBF02C007900D92A636B107D9F71BBEEA
:1007100028E3A6E6B0E201C01D92A93AB207E1F7CC
:100720000E948F430C949B486BCC2FB7F894FC012C
:10073000E059FF4F60958081682360832FBF089543
:100740001BBEFC0128ED24BF608308950F931F9307
:10075000CF93DF93E82FF0E0DF01519634E0AA0F4A
:10076000BB1F3A95E1F72091040160910301EF016D
:10077000249641E050E08A01082E01C0000F0A943F
:10078000EAF70C2E01C0440F0A94EAF7402B6423C9
:1007900070E08B010C2E02C0159507950A94E2F7C4
:1007A00000FD1DC0082E02C0759567950A94E2F7FA
:1007B00060FD18C04223242F30E0A90102C05595E6
:1007C0004795CA95E2F740FD10C0A90102C05595B2
:1007D00047958A95E2F7CA018170992708C084E09D
:1007E00090E005C083E090E002C082E090E01196C6
:1007F0002C911197206311962C93EE0FFF1FE9584F
:10080000F44D0190F081E02D309729F0DF91CF91E8
:100810001F910F911994DF91CF911F910F9108951E
:1008200061E080E090E081DF9FB7F894E1E7FBE2D0
:1008300081818F5F81839FBFE0E0F1E080E480836E
:1008400080E8808308951F920F920FB60F921124B3
:1008500008B60F9218BE09B60F9219BE0BB60F92CA
:100860001BBE2F933F934F935F936F937F938F9311
:100870009F93AF93BF93EF93FF9380E067DFFF9168
:10088000EF91BF91AF919F918F917F916F915F9108
:100890004F913F912F910F900BBE0F9009BE0F907B
:1008A00008BE0F900FBE0F901F9018951F920F92C9
:1008B0000FB60F92112408B60F9218BE09B60F9208
:1008C00019BE0BB60F921BBE2F933F934F935F93AE
:1008D0006F937F938F939F93AF93BF93EF93FF9308
:1008E00081E034DFFF91EF91BF91AF919F918F91A4
:1008F0007F916F915F914F913F912F910F900BBE20
:100900000F9009BE0F9008BE0F900FBE0F901F9062
:1009100018951F920F920FB60F92112408B60F92DE
:1009200018BE09B60F9219BE0BB60F921BBE2F93BD
:100930003F934F935F936F937F938F939F93AF9367
:10094000BF93EF93FF9382E001DFFF91EF91BF919F
:10095000AF919F918F917F916F915F914F913F9157
:100960002F910F900BBE0F9009BE0F9008BE0F90F5
:100970000FBE0F901F9018951F920F920FB60F92F7
:10098000112408B60F9218BE09B60F9219BE0BB605
:100990000F921BBE2F933F934F935F936F937F9361
:1009A0008F939F93AF93BF93EF93FF9383E0CEDE3C
:1009B000FF91EF91BF91AF919F918F917F916F9137
:1009C0005F914F913F912F910F900BBE0F9009BEF9
:1009D0000F9008BE0F900FBE0F901F901895DB016F
:1009E000E82FF0E0719684E0EE0FFF1F8A95E1F7A3
:1009F0009FB7F89419968C91199784871A968C91C1
:100A00001A978587168617968C9117978087189660
:100A10008C9118978187128612968C9112978283F7
:100A200013968C911397838314962D913C9115976F
:100A30002483358316968C911697868311968C9114
:100A4000119781838C918F7780839FBF08958091C8
:100A5000CF0187FDFCCF08951F93CF93DF93C0ECA8
:100A6000D1E01A858A8761E08BEC91E069DE1A8714
:100A7000DF91CF911F910895CF93DF93EC01E7DFD2
:100A8000ECECF1E0808188608083D05F8881908188
:100A9000977F9083DF91CF910895CF92DF92EF926D
:100AA000FF920F931F93CF93DF938C017B016A0119
:100AB000CEDFCCECD1E0888188608883B801705F9C
:100AC000A601C7010E948B488881877F8883DF91B8
:100AD000CF911F910F91FF90EF90DF90CF900895ED
:100AE000B6DF8091CF0181FF07C086E38093CA0102
:100AF00061E08BEC91E024CE0895CF93DF93C82F73
:100B0000D62FA5DFACECB1E08C9188608C93EC2FF4
:100B1000F0E0F05FD0838C91877F8C93DF91CF9151
:100B20000895EF92FF920F931F93CF93DF93182FA7
:100B3000F92EE62EC0ECD1E00A85D2DF88DF6E2DDB
:100B4000812FDBDF1A82F982188385E38A8761E0CF
:100B50008BEC91E0F5DD0A87DF91CF911F910F912A
:100B6000FF90EF9008950F931F93CF938C016FDF49
:100B7000C0E0F80161918F018C2FBFDFCF5FC032E1
:100B8000C1F7CF911F910F910895CF93C82F5FDFC9
:100B900020E2C29FC0011124E0ECF1E012829183B7
:100BA000808385E390E0CF9157CF1F920F920FB6CD
:100BB0000F92112408B60F9218BE09B60F9219BEF3
:100BC0000BB60F921BBE2F933F934F935F936F9380
:100BD0007F938F939F93AF93BF93EF93FF93E09196
:100BE0009820F0919920309709F01995FF91EF9195
:100BF000BF91AF919F918F917F916F915F914F9135
:100C00003F912F910F900BBE0F9009BE0F9008BE21
:100C10000F900FBE0F901F9018951F920F920FB656
:100C20000F92112408B60F9218BE09B60F9219BE82
:100C30000BB60F921BBE2F933F934F935F936F930F
:100C40007F938F939F93AF93BF93EF93FF93E09125
:100C50009620F0919720309709F01995FF91EF9128
:100C6000BF91AF919F918F917F916F915F914F91C4
:100C70003F912F910F900BBE0F9009BE0F9008BEB1
:100C80000F900FBE0F901F9018951F920F920FB6E6
:100C90000F92112408B60F9218BE09B60F9219BE12
:100CA0000BB60F921BBE2F933F934F935F936F939F
:100CB0007F938F939F93AF93BF93EF93FF93E091B5
:100CC0009420F0919520309709F01995FF91EF91BC
:100CD000BF91AF919F918F917F916F915F914F9154
:100CE0003F912F910F900BBE0F9009BE0F9008BE41
:100CF0000F900FBE0F901F9018951F920F920FB676
:100D00000F92112408B60F9218BE09B60F9219BEA1
:100D10000BB60F921BBE2F933F934F935F936F932E
:100D20007F938F939F93AF93BF93EF93FF93E09144
:100D30009220F0919320309709F01995FF91EF914F
:100D4000BF91AF919F918F917F916F915F914F91E3
:100D50003F912F910F900BBE0F9009BE0F9008BED0
:100D60000F900FBE0F901F9018951F920F920FB605
:100D70000F92112408B60F9218BE09B60F9219BE31
:100D80000BB60F921BBE2F933F934F935F936F93BE
:100D90007F938F939F93AF93BF93EF93FF93E091D4
:100DA0009020F0919120309709F01995FF91EF91E3
:100DB000BF91AF919F918F917F916F915F914F9173
:100DC0003F912F910F900BBE0F9009BE0F9008BE60
:100DD0000F900FBE0F901F9018951F920F920FB695
:100DE0000F92112408B60F9218BE09B60F9219BEC1
:100DF0000BB60F921BBE2F933F934F935F936F934E
:100E00007F938F939F93AF93BF93EF93FF93E09163
:100E10008E20F0918F20309709F01995FF91EF9176
:100E2000BF91AF919F918F917F916F915F914F9102
:100E30003F912F910F900BBE0F9009BE0F9008BEEF
:100E40000F900FBE0F901F9018951F920F920FB624
:100E50000F92112408B60F9218BE09B60F9219BE50
:100E60000BB60F921BBE2F933F934F935F936F93DD
:100E70007F938F939F93AF93BF93EF93FF93E091F3
:100E80008C20F0918D20309709F01995FF91EF910A
:100E9000BF91AF919F918F917F916F915F914F9192
:100EA0003F912F910F900BBE0F9009BE0F9008BE7F
:100EB0000F900FBE0F901F9018951F920F920FB6B4
:100EC0000F92112408B60F9218BE09B60F9219BEE0
:100ED0000BB60F921BBE2F933F934F935F936F936D
:100EE0007F938F939F93AF93BF93EF93FF93E09183
:100EF0008A20F0918B20309709F01995FF91EF919E
:100F0000BF91AF919F918F917F916F915F914F9121
:100F10003F912F910F900BBE0F9009BE0F9008BE0E
:100F20000F900FBE0F901F9018951F920F920FB643
:100F30000F92112408B60F9218BE09B60F9219BE6F
:100F40000BB60F921BBE2F933F934F935F936F93FC
:100F50007F938F939F93AF93BF93EF93FF93E09112
:100F60008820F0918920309709F01995FF91EF9131
:100F7000BF91AF919F918F917F916F915F914F91B1
:100F80003F912F910F900BBE0F9009BE0F9008BE9E
:100F90000F900FBE0F901F9018951F920F920FB6D3
:100FA0000F92112408B60F9218BE09B60F9219BEFF
:100FB0000BB60F921BBE2F933F934F935F936F938C
:100FC0007F938F939F93AF93BF93EF93FF93E091A2
:100FD0008620F0918720309709F01995FF91EF91C5
:100FE000BF91AF919F918F917F916F915F914F9141
:100FF0003F912F910F900BBE0F9009BE0F9008BE2E
:101000000F900FBE0F901F9018951F920F920FB662
:101010000F92112408B60F9218BE09B60F9219BE8E
:101020000BB60F921BBE2F933F934F935F936F931B
:101030007F938F939F93AF93BF93EF93FF93E09131
:101040008420F0918520309709F01995FF91EF9158
:10105000BF91AF919F918F917F916F915F914F91D0
:101060003F912F910F900BBE0F9009BE0F9008BEBD
:101070000F900FBE0F901F9018951F920F920FB6F2
:101080000F92112408B60F9218BE09B60F9219BE1E
:101090000BB60F921BBE2F933F934F935F936F93AB
:1010A0007F938F939F93AF93BF93EF93FF93E091C1
:1010B0008220F0918320309709F01995FF91EF91EC
:1010C000BF91AF919F918F917F916F915F914F9160
:1010D0003F912F910F900BBE0F9009BE0F9008BE4D
:1010E0000F900FBE0F901F9018951F920F920FB682
:1010F0000F92112408B60F9218BE09B60F9219BEAE
:101100000BB60F921BBE2F933F934F935F936F933A
:101110007F938F939F93AF93BF93EF93FF93E09150
:101120008020F0918120309709F01995FF91EF917F
:10113000BF91AF919F918F917F916F915F914F91EF
:101140003F912F910F900BBE0F9009BE0F9008BEDC
:101150000F900FBE0F901F9018951F920F920FB611
:101160000F92112408B60F9218BE09B60F9219BE3D
:101170000BB60F921BBE2F933F934F935F936F93CA
:101180007F938F939F93AF93BF93EF93FF93E091E0
:101190007E20F0917F20309709F01995FF91EF9113
:1011A000BF91AF919F918F917F916F915F914F917F
:1011B0003F912F910F900BBE0F9009BE0F9008BE6C
:1011C0000F900FBE0F901F9018951F920F920FB6A1
:1011D0000F92112408B60F9218BE09B60F9219BECD
:1011E0000BB60F921BBE2F933F934F935F936F935A
:1011F0007F938F939F93AF93BF93EF93FF93E09170
:101200007C20F0917D20309709F01995FF91EF91A6
:10121000BF91AF919F918F917F916F915F914F910E
:101220003F912F910F900BBE0F9009BE0F9008BEFB
:101230000F900FBE0F901F9018951F920F920FB630
:101240000F92112408B60F9218BE09B60F9219BE5C
:101250000BB60F921BBE2F933F934F935F936F93E9
:101260007F938F939F93AF93BF93EF93FF93E091FF
:101270007A20F0917B20309709F01995FF91EF913A
:10128000BF91AF919F918F917F916F915F914F919E
:101290003F912F910F900BBE0F9009BE0F9008BE8B
:1012A0000F900FBE0F901F9018951F920F920FB6C0
:1012B0000F92112408B60F9218BE09B60F9219BEEC
:1012C0000BB60F921BBE2F933F934F935F936F9379
:1012D0007F938F939F93AF93BF93EF93FF93E0918F
:1012E0007820F0917920309709F01995FF91EF91CE
:1012F000BF91AF919F918F917F916F915F914F912E
:101300003F912F910F900BBE0F9009BE0F9008BE1A
:101310000F900FBE0F901F9018951F920F920FB64F
:101320000F92112408B60F9218BE09B60F9219BE7B
:101330000BB60F921BBE2F933F934F935F936F9308
:101340007F938F939F93AF93BF93EF93FF93E0911E
:101350007620F0917720309709F01995FF91EF9161
:10136000BF91AF919F918F917F916F915F914F91BD
:101370003F912F910F900BBE0F9009BE0F9008BEAA
:101380000F900FBE0F901F9018951F920F920FB6DF
:101390000F92112408B60F9218BE09B60F9219BE0B
:1013A0000BB60F921BBE2F933F934F935F936F9398
:1013B0007F938F939F93AF93BF93EF93FF93E091AE
:1013C0007420F0917520309709F01995FF91EF91F5
:1013D000BF91AF919F918F917F916F915F914F914D
:1013E0003F912F910F900BBE0F9009BE0F9008BE3A
:1013F0000F900FBE0F901F9018951F920F920FB66F
:101400000F92112408B60F9218BE09B60F9219BE9A
:101410000BB60F921BBE2F933F934F935F936F9327
:101420007F938F939F93AF93BF93EF93FF93E0913D
:101430007220F0917320309709F01995FF91EF9188
:10144000BF91AF919F918F917F916F915F914F91DC
:101450003F912F910F900BBE0F9009BE0F9008BEC9
:101460000F900FBE0F901F9018951F920F920FB6FE
:101470000F92112408B60F9218BE09B60F9219BE2A
:101480000BB60F921BBE2F933F934F935F936F93B7
:101490007F938F939F93AF93BF93EF93FF93E091CD
:1014A0007020F0917120309709F01995FF91EF911C
:1014B000BF91AF919F918F917F916F915F914F916C
:1014C0003F912F910F900BBE0F9009BE0F9008BE59
:1014D0000F900FBE0F901F9018951F920F920FB68E
:1014E0000F92112408B60F9218BE09B60F9219BEBA
:1014F0000BB60F921BBE2F933F934F935F936F9347
:101500007F938F939F93AF93BF93EF93FF93E0915C
:101510006E20F0916F20309709F01995FF91EF91AF
:10152000BF91AF919F918F917F916F915F914F91FB
:101530003F912F910F900BBE0F9009BE0F9008BEE8
:101540000F900FBE0F901F9018951F920F920FB61D
:101550000F92112408B60F9218BE09B60F9219BE49
:101560000BB60F921BBE2F933F934F935F936F93D6
:101570007F938F939F93AF93BF93EF93FF93E091EC
:101580006C20F0916D20309709F01995FF91EF9143
:10159000BF91AF919F918F917F916F915F914F918B
:1015A0003F912F910F900BBE0F9009BE0F9008BE78
:1015B0000F900FBE0F901F9018951F920F920FB6AD
:1015C0000F92112408B60F9218BE09B60F9219BED9
:1015D0000BB60F921BBE2F933F934F935F936F9366
:1015E0007F938F939F93AF93BF93EF93FF93E0917C
:1015F0006A20F0916B20309709F01995FF91EF91D7
:10160000BF91AF919F918F917F916F915F914F911A
:101610003F912F910F900BBE0F9009BE0F9008BE07
:101620000F900FBE0F901F9018951F920F920FB63C
:101630000F92112408B60F9218BE09B60F9219BE68
:101640000BB60F921BBE2F933F934F935F936F93F5
:101650007F938F939F93AF93BF93EF93FF93E0910B
:101660006820F0916920309709F01995FF91EF916A
:10167000BF91AF919F918F917F916F915F914F91AA
:101680003F912F910F900BBE0F9009BE0F9008BE97
:101690000F900FBE0F901F9018951F920F920FB6CC
:1016A0000F92112408B60F9218BE09B60F9219BEF8
:1016B0000BB60F921BBE2F933F934F935F936F9385
:1016C0007F938F939F93AF93BF93EF93FF93E0919B
:1016D0006620F0916720309709F01995FF91EF91FE
:1016E000BF91AF919F918F917F916F915F914F913A
:1016F0003F912F910F900BBE0F9009BE0F9008BE27
:101700000F900FBE0F901F901895CF93CFB7F894FE
:10171000811528E0920711F461E005C0803428E0CB
:10172000920749F462E083E090E00E94950364E050
:1017300083E090E01EC0811529E0920711F461E07A
:1017400005C0803429E0920749F462E084E090E02B
:101750000E94950364E084E090E00BC081159A40FC
:1017600091F461E085E090E00E94950364E085E0FB
:1017700090E00E9495039FB7F8948091722B8F5F41
:101780008093722B9FBFCFBFCF910895811528E022
:10179000920729F4609394207093952008958034E3
:1017A00028E0920729F46093882070938920089597
:1017B000811529E0920729F460938020709381209D
:1017C0000895803429E0920729F46093742070937F
:1017D0007520089581159A4021F460936C207093D0
:1017E0006D200895811528E0920729F460939220D6
:1017F000709393200895803428E0920729F4609331
:101800008620709387200895811529E0920729F496
:1018100060937E2070937F200895803429E09207A2
:1018200029F46093722070937320089581159A4073
:1018300021F460936A2070936B200895009709F457
:101840009BC0803C910511F460E105C0811524E046
:10185000920721F464E080E090E08CC0803821E0C1
:10186000920711F462E0F7CF811521E0920711F49D
:1018700061E0F1CF803823E0920711F461E005C008
:10188000811522E0920721F462E081E090E072C0CD
:10189000803223E0920721F464E082E090E06AC0A5
:1018A000811528E0920711F461E05BC0811529E001
:1018B000920711F461E04DC081152AE0920711F4FE
:1018C00061E056C0803428E0920711F462E049C01C
:1018D000803429E0920711F462E03BC0803928E0AF
:1018E000920711F464E03DC0803929E0920711F4B9
:1018F00064E02FC080392AE0920711F464E038C018
:10190000803C28E0920711F468E02BC0803C29E07D
:10191000920711F468E01DC0803A28E0920711F4A4
:1019200060E11FC0803A29E0920711F460E111C024
:10193000803A2AE0920711F460E11AC0803B28E067
:10194000920711F460E20DC0803B29E0920721F478
:1019500060E284E090E00EC0803824E0920721F439
:1019600060E483E090E006C0803A944029F460E4AB
:1019700085E090E00C94950308950F931F93CF9307
:10198000DF93EC01D901C801369527951795079586
:10199000401751076207730768F49A01AB01220FE1
:1019A000331F441F551FBC01CD010E9444482150E4
:1019B000310902C020E030E0832F8F708F832E83A7
:1019C000DF91CF911F910F910895EF92FF920F93A6
:1019D0001F93CF93DF93EC017B0130DF8C818F7EEF
:1019E0008C83F70124812250C03AF8E0DF0731F4FC
:1019F00080914E0684FD6BC011E11FC0C03B88E0A2
:101A0000D80709F464C0C03AE9E0DE0731F48091F8
:101A10006E0684FD5EC019E110C0C03BF9E0DF072F
:101A200009F457C0C03A8AE0D80739F480918E068D
:101A300084FD02C011E201C015E2E12FE695E695B2
:101A4000E69580E2E89FF0011124FA5F177081E0CB
:101A500090E001C0880F1A95EAF78183223010F0D8
:101A600020E001C020E48093B000208B85838D812D
:101A7000806C8D83F70184818D7F813019F48D8195
:101A8000826002C08D818D7F8D83F70185818823DF
:101A900019F08D81846002C08D818B7F8D83F70169
:101AA000408151816281738100E018E428EE31E0C9
:101AB000CE0163DF8C8188608C838C8180618C8314
:101AC000DF91CF911F910F91FF90EF90089515E155
:101AD000B4CF1DE1B2CF8091820080FDFCCF08958C
:101AE00090918000880F880F682F6C7392709160BE
:101AF000692B80E890E00E94A003EDCF6091800008
:101B00006C7F616080E890E00C94A003609180009D
:101B10006C73636080E890E00E94A003DCCF63E018
:101B200080E890E00E94A003D6DF6BE281E890E0BD
:101B30000E94A003D0DFA895FFCF8F929F92AF9213
:101B4000BF92CF92DF92EF92FF920F931F93CF93AA
:101B5000DF93CDB7DEB7C055D109CDBFDEBF83302F
:101B600008F448C1FB0190810181911159C0863070
:101B700008F440C1002309F43DC19281992309F47E
:101B800039C1248130E090E00497281739070CF020
:101B900031C1602F70E0615071096B0154E0D59440
:101BA000C7945A95E1F76F707727AE014F5F5F4F8B
:101BB0008FE0DA011D928A95E9F7CA018E01005F74
:101BC0001F4F70E8F72EDC01FD92CD01A017B10781
:101BD000D1F7359690E0890101501109292F30E0A5
:101BE00020173107B4F42E0F3F1FD9012C912A5032
:101BF0002F3068F4DA01A20FB11D9D0181E0890F39
:101C00007F01E80EF11CD7018C91D9018C939E5F66
:101C1000E5CF8C2D0E94F82C0E944439A895EAC08B
:101C2000913009F0E7C0E02FF0E09F012150310929
:101C3000C90160E170E00E94314837FF02C0215FB6
:101C40003F4F44E0359527954A95E1F7AE014E5B4D
:101C50005F4F682F822F0E94CF268AE08CA32396A5
:101C60008FAD23978DA38BE08EA324968FAD249701
:101C70008FA38CE088A725968FAD259789A78DE047
:101C80008AA726968FAD26978F5F8BA78EE08CA7AD
:101C900027968FAD27978DA78FE08EA71FA680E18F
:101CA00088AB29968FAD29978F5F89AB81E18AAB8D
:101CB0002A968FAD2A978BAB82E18CAB2B968FAD9A
:101CC0002B978DAB83E18EAB2C968FAD2C978FAB82
:101CD00084E188AF2D968FAD2D9789AF85E18AAFCE
:101CE0002E968FAD2E978BAF86E18CAF2F968FAD52
:101CF0002F978DAF87E18EAF60968FAD60978FAFD6
:101D000088E121968FAF219761968FAD61972296DA
:101D10008FAF22978FEF800F803410F0F12C02C02C
:101D20003EE1F32E8F2D68E10E940448DD24D39418
:101D3000D80EC12CEE24E39480EFB82EAA24A394ED
:101D400099E7992E24E0822E17EF8F2DB8E1BF1569
:101D500008F488E198EEF90EB9821A82AB829C826F
:101D60008D821E820F83E886D9868A871B871C870F
:101D70001D871E871F87188B198B1A8B1B8B1C8B3B
:101D80001D8B1E8B1F8B188F198F1A8F1B8F1C8F0B
:101D90001D8F1E8F1F8F18A319A31AA31BA39AE0D0
:101DA000482F50E0475F5F4F292F30E0421753071D
:101DB0008CF0A1E0B0E0AC0FBD1FA20FB31FE4E2B6
:101DC000F0E0EC0FFD1FEC0DF11D60816C939F5F47
:101DD000C394EACFBE016F5F7F4F855F0E943937A2
:101DE00080915A3890915B3855D2A895E394DE14CF
:101DF00008F0ABCFC05BDF4FCDBFDEBFDF91CF912F
:101E00001F910F91FF90EF90DF90CF90BF90AF9018
:101E10009F908F900895DC0190E050E0415051096F
:101E2000292F30E024173507F4F481E0890FFB01F6
:101E3000E20FF31F20812A3048F4FB01E80FF11D67
:101E40008081FD01E20FF11D80830BC02F3148F02E
:101E5000FB01E80FF11D8081FD01E20FF11D759777
:101E600080839E5FDDCF0895CF93DF93CDB7DEB73C
:101E70006F97CDBFDEBFF8940E940525FC017894D2
:101E800080EF89831A8281E08B8399E79C8322E02B
:101E90002D838E831F829091562F9F5F988789870D
:101EA00084858A872B8780818C8783E08D878281D8
:101EB0008E8784E08F878481888B85E0898B8681FB
:101EC0008A8B86E08B8B80858C8B87E08D8B8285DF
:101ED0008E8B88E08F8B8091552F888F89E0898F3A
:101EE00080914E2F8A8F8FE18B8F80917F2B8C8FEB
:101EF00080E28D8F8091542F8E8F87EF8F8FBE0160
:101F00006F5F7F4F8FE10E9439376F96CDBFDEBF85
:101F1000DF91CF910895882329F0FB018081811101
:101F200001C0A2CF0895CF93DF93CDB7DEB72D9731
:101F3000CDBFDEBFF89481E090E00E943C05809325
:101F4000562F83E090E00E943C0591E0811101C092
:101F500090E09D8784E090E00E943C0590E08983BA
:101F60009A8385E090E00E943C0590E08B839C83FF
:101F700086E090E00E943C0590E08D839E8387E0A0
:101F800090E00E943C0590E08F83988788E090E085
:101F90000E943C0590E089879A8789E090E00E9442
:101FA0003C0590E08B879C878AE090E00E943C058E
:101FB0008093552F8BE090E00E943C0580934E2F3C
:101FC0008CE090E00E943C0580937F2B8DE090E0B8
:101FD0000E943C058093542FCE0101960E94DA2482
:101FE00078942D96CDBFDEBFDF91CF910895FF92FB
:101FF0000F931F93CF93DF93CDB7DEB72C97CDBF51
:10200000DEBFF82E8B017ADDCE0101962CE0FC01BB
:1020100011922A95E9F74F2DB801FDDE69816150D3
:1020200081E090E00E9491056A8183E090E00E9447
:1020300091056B8184E090E00E9491056C8185E0C0
:1020400090E00E9491056D8186E090E00E949105EC
:102050006E8187E090E00E9491056F8188E090E0BA
:102060000E949105688589E090E00E94910569854C
:102070008AE090E00E9491056A858BE090E00E94E2
:1020800091056B858CE090E00E9491056C858DE058
:1020900090E00E94910560E07FEF80E090E00E9478
:1020A000233E41DF0E942827DFDE0E94C7322C96A4
:1020B000CDBFDEBFDF91CF911F910F91FF900895AB
:1020C000F89467E080E090E00E94910563E081E091
:1020D00090E00E94910561E083E090E00E9491050C
:1020E00060E084E090E00E94910567E085E090E088
:1020F0000E94910560E086E090E00E94910560E01A
:1021000087E090E00E94910566E088E090E00E9400
:10211000910560E089E090E00E9491056FE38AE01C
:1021200090E00E9491056FE78BE090E00E9491059E
:102130006FE78CE090E00E9491056FE78DE090E002
:102140000E94910578940C94B227882369F1FB01D1
:102150008081813019F0823069F00895CFDCC3D5D9
:102160002FEF8FE493EC215080409040E1F700C0C6
:10217000000037C0C3DCA4DF87E08093A2006FEFCC
:102180007FEF80E090E00E94233EADD52FEF8FE4FB
:1021900093EC215080409040E1F700C0000081E0C6
:1021A00090E09EDCB3DCFFCF089567EF7FE081E035
:1021B0000E9474236BE87FE082E00E94742365EA4A
:1021C00070E183E00E9474236DE97DE084E00E9469
:1021D000742380E090E00E943C05873009F070CFC6
:1021E000089581D5F89480E02FEF3FE891E02150E9
:1021F00030409040E1F700C000008F5F8038A1F7C9
:102200008AEC9CEAA2E4BCED8093A9389093AA38AA
:10221000A093AB38B093AC3882CCCF93DF93EC0172
:102220001B8682E08C83898761E0CE01019693D47E
:10223000882331F061E0CE010696DF91CF918BC407
:1022400080E0DF91CF910895CF93DF932091872F86
:102250002430D1F4EB01FC0181818CD340E050E0CB
:1022600064E070E0CE01AED1811111C08091902F59
:102270009091912FFC01EF5BFF4F2081319780817E
:10228000281720F02FD302C082E001C080E0DF9148
:10229000CF9108952091872F2430E9F4FC018181AA
:1022A00069D38091942F2091902F3091912FF90133
:1022B00087FF05C0EF5BFF4F808190E008C0E05CC6
:1022C000FF4F80813196208190E0821B9109892BFC
:1022D00021F008D3C9C482E0089580E00895CF9327
:1022E000DF932091872F243051F4EC01898142D370
:1022F00076D3882321F0CE01DF91CF91CBCFDF9130
:10230000CF9108950F931F93CF932091872F24305F
:1023100011F0C0E027C08B01FC0186812BD36BD369
:10232000C82F8823B1F38091902F9091912FFC01B9
:10233000EF5BFF4F208131978081281750F740E0F5
:1023400050E064E070E0C8018AD18091902F9091B4
:10235000912FFC01EF5BFF4F20813197808128177F
:1023600008F0D9D28C2FCF911F910F9108950F9320
:102370001F93CF93DF93CDB7DEB7EA97CDBFDEBF14
:1023800008E81FE2D7D2F80181938F01FFE20039FC
:102390001F07C1F70E94E54348D3882309F4F3C01F
:1023A0009091882F2091892F422F50E04A3051057B
:1023B00008F0E9C0FA018827E250FF4F8F4F0C94D4
:1023C0008248903891F0923809F0DDC080918C2FCE
:1023D0008F70D0D2E091922FF091932F118112FB48
:1023E000112710F980E0C6D206C01091842F809189
:1023F000852F8111126033D3812FACD280E0A1C030
:10240000892F8D7F09F0BFC0992319F0923061F0B8
:10241000BAC080918A2F813009F0B5C0233009F00D
:1024200080E08093852F27C080918A2F811123C05F
:10243000E0918C2F1E2F1F7009F4A5C0812F9AD216
:102440008091892F833011F436D315C0E091922FFB
:10245000F091932F81818B7F818324E8129FF0017B
:102460001124EA52F04D1082E091922FF091932FB7
:1024700080818E7F808380E07DD2F1D264C0911113
:1024800082C010918A2F1F77EAD2D8D3A8D288238E
:10249000E9F31093C304111102C082E001C083E08C
:1024A0008093872F70C09058923008F06CC0809154
:1024B0008A2F90918B2F8C3DE3E09E0761F583E09E
:1024C0008A838AE389834FB7F894DE01139620E06C
:1024D00038E052E05093CA01E32FF0E0E49110920B
:1024E000CA0120FF03C0E295EF703F5FEF708E2FAF
:1024F00090E0EA3010F0C79601C0C0968D939D938E
:102500002F5F2C3139F74FBFAAD26AE370E0CE01BA
:102510000196F2D00FC0AE014F5F5F4F60918C2FDC
:102520000E942D388C01892B71F199D2B8018981D3
:102530009A815CD1F0D127C0903829F590D2809152
:10254000832F08D2CFD17AD31EC091111CC08091A5
:102550008A2F90918B2F99270297ACF480D280918B
:102560008A2F8093832F6AD38091832F811106C095
:102570008091C304811102C081E001C084E0809396
:10258000872F0E94CB4351D2882311F068D293D277
:10259000EA96CDBFDEBFDF91CF911F910F910895D5
:1025A0000895CF938091872F882351F0C091942F65
:1025B00080E0E0D13AD28111DADE8C2FCF91DAC1FE
:1025C000CF910895CF92DF92EF92FF920F931F93D6
:1025D000CF93DF93EC018B017A0146D3811136C092
:1025E000E114F10439F0F70180819181081B190B86
:1025F000C80FD91FC12CD12C0115110531F18091C3
:10260000902F9091912FFC01EF5BFF4F208131972C
:102610008081281790F066D1C4DFE114F10449F0FD
:10262000F70180819181C80ED91EC082D18285E0D8
:102630000DC01AD3882301F309C089918BD10150B1
:102640001109FFEFCF1ADF0AD7CF80E0DF91CF91DA
:102650001F910F91FF90EF90DF90CF900895CF9250
:10266000DF92EF92FF920F931F93CF93DF93EC01D2
:102670008B017A01F9D2811136C0E114F10439F0ED
:10268000F70180819181081B190BC80FD91FC12C3C
:10269000D12C0115110531F18091902F9091912F3E
:1026A000FC01EF5BFF4F208131978081281790F06C
:1026B00032D177DFE114F10449F0F7018081918193
:1026C000C80ED91EC082D18285E00DC0CDD288232C
:1026D00001F309C02FD1899301501109FFEFCF1ADF
:1026E000DF0AD7CF80E0DF91CF911F910F91FF904C
:1026F000EF90DF90CF900895DF92EF92FF920F93CB
:102700001F93CF93DF93D82FC92F8B018091942FE4
:10271000806830D180918E2F90918F2F80179107F4
:1027200028F00115110519F4DDD001C08C01ED2E42
:10273000FC2ED12C0115110509F43FC08091872F83
:10274000811102C082E04AC0853011F483E046C0A6
:102750006CD1811142C04FD181113AC040D1882340
:1027600049F32091942F8091902F9091912FFC010B
:1027700027FF05C0EF5BFF4FC081D0E013C0E05CD6
:10278000FF4FC08131968081D0E0C81BD1090AC0BB
:10279000C034D10550F4F70181917F01DBD00150A5
:1027A000110921960115110599F7DD24D394C03440
:1027B000D10509F0D12C96D0BDCFD110BFCF08C024
:1027C0008091872F882309F4BDCF853009F4BECFCF
:1027D00012D18823A9F380E001C081E0DF91CF917D
:1027E0001F910F91FF90EF90DF900895DF92EF928D
:1027F000FF920F931F93CF93DF93D82FC92F8B0195
:102800008091942F8068B6D080918E2F90918F2FD9
:102810008017910728F00115110519F463D001C044
:102820008C01ED2EFC2ED12C0115110509F441C0AF
:102830008091872F811102C082E04CC0853011F455
:1028400083E048C0F2D0811144C0D5D081113CC092
:10285000C6D0882349F32091942F8091902F909196
:10286000912FFC0127FF05C0EF5BFF4FC081D0E037
:1028700015C0E05CFF4FC08131968081D0E0C81B5D
:10288000D1090CC0C034D10560F4F701849162D045
:10289000FFEFEF1AFF0A01501109219601151105EA
:1028A00089F7DD24D394C034D10509F0D12C1AD096
:1028B000BBCFD110BDCF08C08091872F882309F4EA
:1028C000BBCF853009F4BCCF96D08823A9F380E034
:1028D00001C081E0DF91CF911F910F91FF90EF90A8
:1028E000DF900895E091922FF091932FA091902F77
:1028F000B091912FAF5BBF4F8C9190E08283938317
:1029000080818D798083E091902FF091912FEF5B02
:10291000FF4F10820895E091922FF091932F8081C4
:102920008D798083E091902FF091912FEF5BFF4F95
:10293000108208958091902F9091912FFC01EF5B70
:10294000FF4F208131E0320F3083FC01E20FF11D97
:10295000808108952091902F3091912FF901EF5BA4
:10296000FF4F908141E0490F4083F901E90FF11DCC
:10297000808308958093942F482F4F7050E060918A
:10298000C6047091C7049A0194E0220F331F9A95F0
:10299000E1F7E4E887FF11C0E49FC001E59F900DD7
:1029A00011248952904D8093902F9093912FC901BB
:1029B00008969B01280F391F0DC0E49FC001E59FB9
:1029C000900D11248B56904D8093902F9093912FC2
:1029D000260F371F2093922F3093932F08958091C5
:1029E000942F8068C7DFE091922FF091932F808120
:1029F0008695817008958091942F8F77BBDFA09189
:102A0000922FB091932F8C9185FF0DC0E091902F64
:102A1000F091912F12968D919C911397E05CFF4F4E
:102A2000808381E0089580E008958091942F8F77CE
:102A3000A1DFA091922FB091932F8C9184FF0DC0B4
:102A4000E091902FF091912F12968D919C91139778
:102A5000E05CFF4F808381E0089580E008958091DD
:102A6000942F8F7787DFE091922FF091932F8081C1
:102A70008D788083E091922FF091932F80818160F7
:102A80008083E091902FF091912FEF5BFF4F1082A8
:102A90008091942F80686EDFE091922FF091932FB8
:102AA000808181608083E091902FF091912FEF5B86
:102AB000FF4F10820895E091922FF091932F818122
:102AC00084608183E091922FF091932F8181807CAB
:102AD000803459F48091942F80584CDFE091922FEC
:102AE000F091932F81818460818308951F93CF9308
:102AF000DF93C82F162FD42F3DDFE091922FF09156
:102B0000932F1182E091922FF091932F8C2F881F99
:102B10008827881F880F8083E091922FF091932F50
:102B20001183E091922FF091932F128213822091C2
:102B3000902F3091912F24833583CC0FCC0BCD2354
:102B4000F901E05CFF4FC0833196108281E0DF9194
:102B5000CF911F910895CF92DF92EF92FF920F9342
:102B60001F93CF93DF93C62E8C01D12CDC1409F474
:102B70003FC0F801D081D11104C0D3940B5F1F4F27
:102B8000F5CFF801E180F28093818481823010F4E6
:102B900088E001C088E128E030E0C0E02E153F0564
:102BA00020F4CF5F220F331FF9CFC82B8D2F8F70EA
:102BB000833010F080E01DC0CF7EF1E4EF16F10409
:102BC000C8F7992321F0913021F4C06C0AC0C06489
:102BD00003C0C068911105C04E2D6C2F80E88D0F89
:102BE00085DF4E2D6C2F8D2F81DF8111C6CFE2CF77
:102BF00081E0DF91CF911F910F91FF90EF90DF90D7
:102C0000CF90089580E090E0E091C604F091C70471
:102C10009C0144E0220F331F4A95E1F7E20FF31FB6
:102C200011864091C6045091C704FA01E20FF31FC8
:102C3000118201968330910539F708958091882F8C
:102C400087FF0DC0D8DE811105C08091872F8111CB
:102C5000F9CF09C060CE8091872F882321F0BFDE95
:102C60008823C9F33FCE08950F931F93CF93E0912C
:102C7000C604F091C70400A911A9C4E68091942F5D
:102C800087FF0AC0ACDE811105C08091872F8111BA
:102C900005C020C080E023C0AEDEF5CF8530E1F076
:102CA000E091922FF091932F818182FD17C0E091E6
:102CB000C604F091C70480A991A90817190711F457
:102CC0008C01DCCF2FEF2C0FCC2311F0C22FF8CFCB
:102CD00084E005C082E003C083E001C081E0CF91C1
:102CE0001F910F91089563D069D0E0ECF4E08181E9
:102CF0008E7F818380818F7780831092862F0895C5
:102D0000CF93DF93E0E4F0E01482848183608483D6
:102D10004ED054D0C0ECD4E088818F7788838881EE
:102D2000806888831092872F1092832F1092852FAE
:102D30001092842F88818064888340E46BE480E86B
:102D4000D5DE40E46BE480E0D1DE8885806488874E
:102D5000898181608983DF91CF910895CF93DF933B
:102D60002FB7F894C0ECD1E082E08A87EAE1F0E086
:102D7000E491A0ECB4E0DA96EC93DA97EBE1F0E0C2
:102D8000E491DB96EC93DB971A8682E291E38E7FE7
:102D900016968D939C93179782E18C9381E01896F9
:102DA0008C932FBF8093862FDF91CF91A9CFE0EC3A
:102DB000F4E080858370808711860895E0ECF4E06C
:102DC0008FEF8287848708951F920F920FB60F921C
:102DD000112408B60F9218BE09B60F9219BE0BB691
:102DE0000F921BBE2F933F934F935F936F937F93ED
:102DF0008F939F93AF93BF93EF93FF938091CA04F8
:102E000086FF07C080E48093CA0485E08093872F03
:102E1000C7DB8091CA0485FF13C080E28093CA0497
:102E20008091832F882311F084E007C08091C30430
:102E3000811102C081E001C083E08093872FB0DB65
:102E40008091CA0484FF14C080E18093CA0482E0A8
:102E50008093872F1092832F1092C304D3DE40E417
:102E60006BE480E843DE40E46BE480E03FDE98DB27
:102E7000FF91EF91BF91AF919F918F917F916F9152
:102E80005F914F913F912F910F900BBE0F9009BE14
:102E90000F9008BE0F900FBE0F901F90189581E005
:102EA000089580915631882349F00E94AA36BC01CA
:102EB000769567958EE697E10C94E5410E94AA36D7
:102EC000BC01660F771F860F971FBC01769567952B
:102ED000769567958EE697E10C94E5412F923F92A7
:102EE0004F925F926F927F928F929F92AF92BF921A
:102EF000CF92DF92EF92FF920F931F93CF93DF93C6
:102F00008091543190915531029709F0ABC0609097
:102F10009B208FEF860D8F3F09F48FE0482E512CB8
:102F200029E5A22E21E3B22E0CE11FE230E8E32EC8
:102F30003BE2F32E4FE4C42E4FE2D42E54E2252E72
:102F4000712C6FE7862E912C96012F543F42F6018B
:102F500031906F01330C330C320CF50181915F011C
:102F600099E0980F9331B0F01816A4F46AE00E942B
:102F7000104884300CF083E0E82FF0E0E25CFF4D75
:102F800080919B2060810E94044891111BC0CFE773
:102F9000D0E01AC0F70180819CE0929FF001939FDE
:102FA000F00D1124E80FF11D94E0EE0FFF1F9A952C
:102FB000E1F7E45FF34DE60DF71DC081CC2311F07E
:102FC000D0E002C0C0E0D0E0F70181917F019CE039
:102FD000929FF001939FF00D1124E80FF11D84E002
:102FE000EE0FFF1F8A95E1F7E45FF34DE40DF51D49
:102FF0008081882331F02FE740E0632D87E00E9435
:10300000F0362097B9F0F80126812C9FC0012D9F42
:10301000900D1124B4010E941D48C62F262F41E0B7
:10302000632D87E00E94F0364C2F66EE620D87E03C
:103030000E9418372394085F1F4FF8E22F1284CFA5
:1030400080915A3890915B3825D980919B208F5F71
:10305000803119F080939B2005C010929B2081E065
:1030600080939A20DF91CF911F910F91FF90EF9065
:10307000DF90CF90BF90AF909F908F907F906F9098
:103080005F904F903F902F900895BF92CF92DF9224
:10309000EF92FF920F931F93CF93DF936FE47FE242
:1030A000C0E8DBE2ACE1BFE240E050E08FE3C82ED5
:1030B0009FE7D92EFB011192BF0180E090E020E054
:1030C00030E08C01040F151FFC01E20FF31FEE5ED0
:1030D000FA4FB4907801E20EF31EF701E45FF34D6E
:1030E000B0822F5F3F4F2031310571F74096803C11
:1030F000910529F7199215961C9215971796CC925F
:10310000179714961C9214971696DC9216971196A0
:103110001C921197189640545F4F4115F3E05F07DA
:1031200049F61092622F80E2ECEDFBE2DF011D9286
:103130008A95E9F780E1EEE3FFE2DF011D928A95CF
:10314000E9F784E0ECEFFBE2DF011D928A95E9F7F5
:10315000B2D4ACEDBBE2EEE3FFE284E06CE978E1EF
:103160003FE34CE951E32FE71D921C921197108227
:1031700058966D937C935997348750964D935C93F2
:1031800051979FE720878150129631968111ECCF9D
:10319000909357311092A2209093A320109258310F
:1031A00010923C2F10923D2F8AE58093532F10925E
:1031B00056311092543110925531DF91CF911F91B9
:1031C0000F91FF90EF90DF90CF90BF900895809186
:1031D000543190915531892B59F481E090E08093DE
:1031E0005431909355314FE76EE087E00C941837D7
:1031F000109254311092553110929B2040E06EE0B5
:1032000087E00C94183710929B200895CF9320915B
:103210005431309155312130310551F4811129C09B
:1032200082E090E08093543190935531CF9156CE07
:1032300022303105F1F4C82F0E94B336882389F07B
:103240008C2FCC0F990B029666E070E00E943148FB
:10325000892B79F461E070E081E597E1CF910C94DE
:10326000E5418C2F66E00E941048911102C0CF9179
:1032700035CECF91089590E0FC01E058F44D2081C7
:103280003CE0389FF001399FF00D1124E20FF11D51
:1032900084E0EE0FFF1F8A95E1F7E45FF34DE60F40
:1032A000F11D8081089590E0FC01E058F44D2081EB
:1032B0003CE0389FF001399FF00D1124E20FF11D21
:1032C00084E0EE0FFF1F8A95E1F7E45FF34DE60F10
:1032D000F11D40830895E82FF0E0E15BF04D60833D
:1032E0000895E82FF0E0E15BF04D808108954FE70D
:1032F0006FE087E00E94183740E06FE087E00C94B1
:1033000018379CEE980F9430B8F498E0899FF0013C
:103310001124E458F14D81E0611180E084838091B3
:103320003C2F90913D2F019709F083C00E94D0243B
:10333000049709F07EC097C098EE980F943098F4E7
:1033400098E0899FF0011124E45AF14D81E0611168
:1033500001C080E0858380913C2F90913D2F0197A3
:1033600009F067C0E3CF9AE9980F9031C0F590E07B
:10337000865691099C0123703327959587959595DD
:10338000879553E0220F331F5A95E1F7F901E45E68
:10339000F04D82309105B9F083309105D1F001975D
:1033A00031F081E0611101C080E08083089581E007
:1033B000611101C080E0818380913C2F90913D2F6D
:1033C0000197B9F5B3CF81E0611101C080E082833C
:1033D000089581E0611101C080E0838308958F30FA
:1033E00079F480910220882321F181E08093563185
:1033F00084E090E00E94D524A7D11092022077CFDC
:103400008E30B9F4662369F0809154319091553132
:10341000892B79F481E090E0809354319093553179
:103420000895109254311092553110929B201092B1
:103430009A2008958430A0F09CEF980F943050F0BB
:1034400098EF980F943048F08C50843048F483E023
:1034500090E0089581E090E0089582E090E0089582
:1034600080E090E008952F923F924F925F926F928A
:103470007F928F929F92BF92CF92DF92EF92FF92B4
:103480000F931F93CF93DF9300D01F92CDB7DEB77A
:10349000E0917F2BF0E0EE5EFC4FE491E091542F41
:1034A000F0E0EE5EFC4FE4918CE19FE28B839C8325
:1034B0009CEDC92E9BE2D92E20E8422E2BE2522E03
:1034C00049825A8238E0B32E4CE0242E312C812CD4
:1034D00050E8952E66EF662E64E0762EEB81FC8137
:1034E000848181110DC0E0917F2BF0E0EE5EFC4FF6
:1034F000F490E091542FF0E0EE5EFC4F149103C085
:103500008AE0F82E1AE0EB81FC818181882331F07A
:103510004F2D68E7832D0E94023C04C060E0832D9C
:103520000E94153C832DDDDEB40102C076956795BF
:103530008A95E2F7412F832D0E94E03B832DD1DE57
:10354000F82FF69DC001F79D900D1124F6018083A0
:103550009183F201B401019002C0769567950A94B7
:10356000E2F72F01412F84E0830D0E94E03BE981C7
:10357000FA812191E983FA83269DC001279D900D50
:103580001124F60180879187EB81FC818481811170
:1035900006C04F2D61E08B2D0E94023C04C060E00C
:1035A0008B2D0E94153CE12E00E021E030E040E050
:1035B000EB81FC8166818B2D0E94C23AEB81FC81FC
:1035C0008681F4E68F9FC0011124F601808B918BD8
:1035D000EB81FC818581882331F04F2D6FE0822DB6
:1035E0000E94023C04C060E0822D0E94153CE12E46
:1035F0000EE721E030E041E0EB81FC816781822D24
:103600000E94C23AEB81FC818781F4E68F9FC00162
:103610001124F601808F918F33948B819C810896C1
:103620008B839C83239492E0C90ED11CB394E4E075
:103630003E1254CF2496CDBFDEBFDF91CF911F91B4
:103640000F91FF90EF90DF90CF90BF909F908F9061
:103650007F906F905F904F903F902F9008958F9242
:103660009F92AF92BF92CF92DF92EF92FF920F9311
:10367000CF9349D24C019CEDC92E9BE2D92EC0E0DC
:10368000EE24E394F12C3CE9A32E31E3B32EC401E4
:103690008E219F21892B29F06EE38C2F0E94153CEF
:1036A00004C060E08C2F0E94153C00E021E030E077
:1036B00040E060E08C2F0E94423BF601A192B19263
:1036C0006F01EE0CFF1CCF5FC03109F7CF910F9156
:1036D000FF90EF90DF90CF90BF90AF909F908F9032
:1036E0000895EF92FF920F93CF93DF938CEDE82E26
:1036F0008BE2F82EC0E06C2F8091622FBCDDD82FBA
:10370000882329F06AE08C2F0E94153C04C060E0F9
:103710008C2F0E94153C00E021E030E040E06D2F4E
:103720008C2F0E94423B24E6D29FC0011124F70156
:10373000819391937F01CF5FC031E9F6DF91CF9103
:103740000F91FF90EF90089580913C2F90913D2F25
:103750008230910531F08330910521F0019719F401
:1037600082CE7DCFBECF0895DF92EF92FF920F936E
:103770001F93CF93DF93182FC82FD0E0FE01E25C98
:10378000F04DD080E0917F2BF0E0EE5EFC4FF490A6
:10379000E091542FF0E0EE5EFC4F04914BDE81305F
:1037A000910539F140F08230910509F48CC00397FE
:1037B00009F4A0C0B5C053E0CC0FDD1F5A95E1F766
:1037C000C45ED04D8C8181110AE0812F8ADD60E0DA
:1037D00070E802C0769567958A95E2F7402F812FB1
:1037E000DF91CF911F910F91FF90EF90DF900C949C
:1037F000E03B9E0124503109E90143E0CC0FDD1F7D
:103800004A95E1F7FE01E45EF04D848181110AE002
:10381000F901E75AFE4C8081882381F06AE00E941A
:103820001048A82FB0E0AA0FBB1FAE5BBF4D6D9133
:103830007C91402F812F0E94E03B0FC0F901E0589E
:10384000F44D60E070E8008002C0769567950A94B8
:10385000E2F7402F812F0E94E03B00919B20002344
:1038600011F0015001C00FE0602F8CEF810F03DDDC
:103870008823F1F0C45ED04D8C81882311F02AE0BA
:10388000F22E0E94B3364F2D882381F0011102C021
:103890006DE302C06091532F812FDF91CF911F9173
:1038A0000F91FF90EF90DF900C94023C60E5F4CF15
:1038B00060E0812FDF91CF911F910F91FF90EF90EA
:1038C000DF900C94153C93E0CC0FDD1F9A95E1F747
:1038D000C452D14D8C81882311F08AE001C08FE75A
:1038E000E82E00E022E030E040E06D2D812F0E94C4
:1038F000C23A16C083E0CC0FDD1F8A95E1F7C454AD
:10390000D14D8C81882311F08AE001C08FE7E82E29
:103910000EE722E030E041E06D2D812F0E94C23A97
:10392000DF91CF911F910F91FF90EF90DF9008955D
:10393000CF93DF93D82FC0919B20CC2311F0C1509F
:1039400001C0CFE08091543190915531029761F5DB
:10395000CD1318C06091532F8C2F0E94153CCC239F
:1039600011F0C15001C0CFE06C2F8091622F83DC39
:10397000811102C060E001C06AE08C2FDF91CF911D
:103980000C94153C6D2F8091622F75DC882331F0EB
:103990006AE08D2FDF91CF910C94153C60E08D2F64
:1039A000DF91CF910C94153CD111ECCF6091532F46
:1039B00080E00E94153CCFE0D7CF40919B209091B2
:1039C0009C204917B1F130910320303190F5381324
:1039D00030C0809157316AE10E940448E4E0F0E091
:1039E000E81BF109E75CFF4D2081842F622F0E94C4
:1039F0000448492F9C30C8F4215080E090E8BC0175
:103A000002C0769567952A95E2F780E090E8AFEFDF
:103A1000BFEF04C0B695A795979587954A95D2F7BD
:103A2000682B792B832F0E94FB3B80919B208093F6
:103A30009C2008950F9380919E2090E020913C2F30
:103A400030913D2F8217930709F07EDE80913C2F45
:103A500090913D2F80939E2081309105C9F048F0D0
:103A600082309105C9F00397D1F480919D2060DFE9
:103A700016C000E020E030E040E060E080919D2052
:103A80000E94423B60E580919D200E94153C07C04A
:103A900080919D2069DE03C080919D208EDF809102
:103AA0009D208F5F803118F480939D2002C010927A
:103AB0009D200F9108950F931F93CF93DF93109242
:103AC000A0201092A12001E010E0CDE0D4E0CE01D2
:103AD0000E943C05853A51F48091A0209091A1204C
:103AE000802B912B8093A0209093A120000F111F79
:103AF000C05CDF4FCD3088E0D80749F7DF91CF9128
:103B00001F910F9108958091A0209091A120089578
:103B1000F89421E030E0082E02C0220F331F0A94EF
:103B2000E2F7209530954091A0205091A1202423C8
:103B300035232093A0203093A12020E4829FC00150
:103B400011246FEF835F9B4F0E9491057894089535
:103B50006F927F928F929F92AF92BF92CF92DF929D
:103B6000EF92FF920F931F93CF93DF93CDB7DEB702
:103B7000A097CDBFDEBFC82E0E947E0D8E010F5FC5
:103B80001F4F80E2D8011D928A95E9F7DC2CDD0CED
:103B90002FE1622E6D0CE12C48015401F12C6F2DA8
:103BA0008E2D69DB782E61E06F0D8E2D64DB7694AF
:103BB00076947694729490EF792286958695869580
:103BC0008F708729F50181935F01F394F394F0E1FD
:103BD000FF12E5CF88E0880E911CE394A4E0EA127E
:103BE000DCCFC8010E94B305862D0E94C50578016F
:103BF0004801B12C8B2D75DBF40181934F01B394F7
:103C0000F4E0BF12F7CF6CE17FE29E01275F3F4FE8
:103C1000FB0185818795882787959781892BD70117
:103C200014968C931497848187958827879596811D
:103C3000892B15968C933896B2E0EB0EF11CE216A8
:103C4000F30639F74CE35FE291E080E0FB0121816C
:103C5000222311F0292F01C020E0822B990F685FE9
:103C60007F4F4617570791F78F708D8785EA8E87AC
:103C700081E090E002C0880F991FCA94E2F720917A
:103C8000A0203091A120822B932B8093A020909391
:103C9000A120C8010E94B30580E28D0D0E94C505D8
:103CA0000E94860DA096CDBFDEBFDF91CF911F9100
:103CB0000F91FF90EF90DF90CF90BF90AF909F90CB
:103CC0008F907F906F9008959F92AF92BF92CF9206
:103CD000DF92EF92FF920F931F93CF93DF9320E435
:103CE000829FC0011124EC01C052DC4F90E8A92E44
:103CF0009BE2B92E6E0100E0F50111925F01C60151
:103D0000912C7C01FFEFEF1AFF0A0E943C05182F4F
:103D1000482F42954F70440F440F440F692D802F58
:103D2000C2DA412F4F70440F440F440F61E0690D18
:103D3000802FB9DA93949394C70120E19212E1CFD6
:103D400088E0C80ED11C0F5F0430B1F6CE0180961A
:103D500010E07C01EFEFEE1AFE0A0E943C05682F8E
:103D6000812FB9DA1F5FC701143099F76E01F4E2B1
:103D7000CF0ED11C0CE11FE284E1F82EC6010E9497
:103D80003C058F77F80187835601FFEFAF1ABF0A12
:103D9000C6010E943C05881F8827881FF80195816D
:103DA000891731F04FE764E06F0D87E00E94183704
:103DB000C5010E943C058F77F8018683F2E0CF0EA3
:103DC000D11CC5010E943C05881F8827881FF80167
:103DD0009481891729F04FE76F2D87E00E941837EB
:103DE000085F1F4FF394F8E1FF12C8CFCE018C9605
:103DF0000E943C05082FCAE6D1E01FE741E0802F72
:103E00008D2309F440E0419F402D11246C2F87E061
:103E10000E941837DD0FCF5FCE3681F7DF91CF914B
:103E20001F910F91FF90EF90DF90CF90BF90AF90D8
:103E30009F900895EF92FF920F931F93CF93C82FF7
:103E4000162F80913C2F90913D2F8230910509F4DF
:103E500074C08330910509F4B9C0019709F0E8C036
:103E60008C2FE8DA8130910529F140F082309105FC
:103E700009F43CC0039709F449C0DAC0112309F4DE
:103E8000D7C028E0C29FF0011124E45EF04D4181CB
:103E900081E0482741838FE7489F402D11246AE63F
:103EA0006C0F87E00E941837CF911F910F91FF9000
:103EB000EF90D9CA1111BCC0EC2FF0E0EE0FFF1F3C
:103EC000EB5AFE4C80819181803D974050F4C45064
:103ED000C093622F83E090E080933C2F90933D2F1E
:103EE000A7C0C1DA8FE780935731A2C0112309F42C
:103EF0009FC088E0C89FF0011124E452F14D8481F5
:103F0000882381F06CE06C0F4FE70FC0112309F498
:103F10008FC028E0C29FF0011124E454F14D858147
:103F2000882381F36CE06C0F4FE387E0CF911F9102
:103F30000F91FF90EF900C941837662309F478C026
:103F40008091A420882351F08C2FE2DD8091032002
:103F5000C81336C081E18093032032C00C2F10E0DB
:103F600081E090E00C2E02C0880F991F0A94E2F7BE
:103F70002091A0203091A12082239323000F111FB4
:103F8000892B81F08C2FA0DEC0930320F801E4522E
:103F9000F44D8081918164E670E00E941D48609339
:103FA00057310EC08C2FD4DDC0930320F801E452AA
:103FB000F44D8CE991E3808391838FE780935731AF
:103FC000CF911F910F91FF90EF9049CB662381F124
:103FD0006C2F8091622F4FD9EC2EF12C00E021E064
:103FE00030E040E081110FC06FE78C2F0E94423B10
:103FF000F701EE0FFF1FE452F44D8CE991E380834B
:1040000091834FE70CC060E08C2F0E94423BF70188
:10401000EE0FFF1FE452F44D1082118240E06C2F2E
:104020008091622FCF911F910F91FF90EF903BC92C
:10403000CF911F910F91FF90EF9008952F923F9293
:104040004F925F926F927F928F929F92AF92BF92A8
:10405000CF92DF92EF92FF920F931F93CF93DF9354
:10406000CDB7DEB72997CDBFDEBF0E94254295E5CB
:10407000C92E91E3D92E25E5A22E21E3B22E3EE3EF
:10408000832E3FE2932E43EC442E4EE2542E8CE7D7
:104090009BE28A839B83ECEDFBE2E887F98750EF94
:1040A000E52E5BE2F52E712C22242394312C809195
:1040B0004C2090914D208C839D83E0914A20F0917B
:1040C0004B20EE83FF83872D0E9413428983082FA4
:1040D000880F110B0115110509F447C184EF870DF5
:1040E000843038F580913C2F90913D2F019709F550
:1040F000E885F985808191810E94972C8823C9F0F9
:10410000F7018081F9818F0FF70180838B303CF0BC
:104110008E819F81E885F9858083918388C0863F61
:104120000CF085C08C819D81E885F9858083918321
:104130007EC0E885F985808191810E94A02CE88568
:10414000F985208131818823A1F12436310520F4BD
:10415000101611063CF00CC02933F1E33F0740F084
:1041600017FF06C0F7018485F9818F0FF701848757
:10417000F701848584306CF02436310508F057C08F
:1041800084E690E0E885F98580839183F7011486C1
:104190004EC08D3F0CF04BC02933314308F447C06B
:1041A00088E391E3E885F98580839183F70114869C
:1041B0003EC0F3E0F71588F080913C2F90913D2FA1
:1041C000019771F4498180E54802200D311D1124C9
:1041D000E885F9852083318320C0F7E0F71588F062
:1041E00080913C2F90913D2F019759F4498184E6AD
:1041F0004802200D311D1124E885F9852083318383
:104200000CC0F2EBF09FC001F19F900D1124280F1C
:10421000391FE885F98520833183E885F985808118
:1042200091810E948A2CE885F98580839183E885B5
:10423000F985808191810E94832C682E80913C2F8A
:1042400090913D2F8130910509F075C0872DF2D8EE
:104250008130910531F190F08230910509F466C00A
:10426000039709F082C0F2016082F4016082462D5A
:1042700060E1670D87E00E94183777C0662D70E017
:1042800080E090E00E94EA442DEC3CEC48E351E4ED
:104290000E944F440E94BC44872D1DD8F4016082C7
:1042A00064C0F60180819181009761F1FEE4F09F86
:1042B0009001F19F300D301B1124E885F985408174
:1042C0005181240F351F2083318317FF03C01195BF
:1042D00001951109F4E6F09F9001F19F300D112432
:1042E000820F931FF60180839183F5018081F9810C
:1042F0008F0F88321CF4F501808337C047E2F50147
:10430000408333C0662D70E080E090E00E94EA4474
:104310002DEC3CEC48E351E40E944F440E94BC4425
:10432000EA81FB816083F40160821FC0F201678E25
:10433000F40160821AC08330910579F4462D672D0F
:104340008091622F0E94531900E021E030E040E0AC
:10435000662D872D0E94423B08C0029731F4809160
:104360000320871102C0609257310E94544282217B
:104370009321892B21F061E0872D5CDD09C00E942B
:10438000594282219321892B19F060E0872D52DD5B
:104390008CEF870D843088F40E944F428221932154
:1043A000F601892B31F08081918101968083918380
:1043B00004C010821182F5011082220C331C739408
:1043C000F2E0CF0ED11C4FEFA41AB40A8FEF881A77
:1043D000980A98E0490E511CEA81FB813196EA83E4
:1043E000FB83888599850296888799879FEFE91ACC
:1043F000F90AE0E17E1267CE2996CDBFDEBFDF91DC
:10440000CF911F910F91FF90EF90DF90CF90BF90D1
:10441000AF909F908F907F906F905F904F903F9064
:104420002F900895CF92DF92EF92FF920F931F93F8
:10443000CF93882309F442C08091A420882361F09F
:1044400081E090E0B2D2CF911F910F91FF90EF9059
:10445000DF90CF900C94C73281E08093A42004E8D1
:104460001BE290E8C92E9BE2D92EC0E08C2F0E945F
:104470007119F8018083F60181916F01F801818340
:10448000E12CF12C6E2D8C2F0E943B19F801EE0DC2
:10449000FF1D8283FFEFEF1AFF0A80E1E816F104A7
:1044A00089F7CF5F0E5E1F4FC43001F7CF911F9188
:1044B0000F91FF90EF90DF90CF9008951092A4207D
:1044C00004E81BE280E8C82E8BE2D82EC0E0F80199
:1044D00060818C2F0E946B19F8018181F601819314
:1044E0006F01E12CF12CF801EE0DFF1D42816E2DC4
:1044F0008C2F0E945319FFEFEF1AFF0A80E1E81694
:10450000F10489F7CF5F0E5E1F4FC43001F7CF91E2
:104510001F910F91FF90EF90DF90CF900C94331A82
:10452000DF92EF92FF920F931F93CF93DF938091CF
:104530005631882339F080913C2F90913D2F892B63
:1045400009F466C00E945E42D82EC0E0D1E002E0CD
:1045500010E0EE24E394F12C80919F209D2D98276C
:104560009D2361F08D2389F4C33009F44AC0C0F45F
:10457000C130C1F0C23059F00E940319DD0FCF5F86
:10458000C63051F7D0929F2043C0C23019F40E9428
:104590007719F4CFC330B8F4C13081F780E003C09D
:1045A000C430B9F481E020913C2F30913D2F21306F
:1045B000310539F08111E2CFE0923C2FF0923D2F8E
:1045C000DDCF30DFDBCFC43049F3C530B9F680E052
:1045D00003C0C53089F681E020913C2F30913D2FFA
:1045E0002230310549F4882321F081E08093A42012
:1045F000C5CF1092A420C2CF00933C2F10933D2F23
:10460000BDCF8091A4208111B9CF0E94E718B6CF09
:10461000DF91CF911F910F91FF90EF90DF90089560
:10462000CF93DF93CDB7DEB76397CDBFDEBF8B8B64
:104630008091A5209091A620049769F58B89882305
:1046400051F18091653189838981882309F444C0BF
:104650008981893008F040C08981882F90E00197D6
:10466000880F991F89559F4DFC0180819181892B6D
:1046700099F18981882F90E00197880F991F8955BA
:104680009F4DFC01208131818B89815066E671E369
:10469000F901199521C08091A5209091A62003973A
:1046A000E1F48B898230C8F0809165318630A9F4BD
:1046B00080916631813089F481E1E0E2F0E2DE014F
:1046C000129601900D928A95E1F7CE010296BC01F7
:1046D00081E10E94393701C0000000006396CDBF20
:1046E000DEBFDF91CF9108959FEF980F983040F48F
:1046F000E82FF0E0EE0FFF1FEB55FF4D6083718355
:104700000895FC018091B720811129C081E0809338
:10471000B72085E691E38093B8209093B9208181FA
:10472000803F39F582818E3771F483819091122018
:10473000891711F08F37E9F483E090E08093A5208A
:104740009093A6200895811114C08381813089F44B
:1047500081E090E08093A5209093A6200895809119
:10476000A5209091A62081309105F1F481818937AF
:1047700039F082E090E08093A5209093A6200895E0
:10478000A091B820B091B920CD01029620910420CB
:10479000309105208217930760F784E090E08093C2
:1047A000A5209093A6201AC0029761F1A091B8208D
:1047B000B091B920CD0103962091042030910520BD
:1047C00082179307B0F602978093B8209093B92090
:1047D00081818C93A091B820B091B920CD01019630
:1047E0008093B8209093B92082818C93A091B820B7
:1047F000B091B920CD0101968093B8209093B92053
:1048000083818C930895FC011092B7208091A5209C
:104810009091A62081309105C1F48181893709F0FA
:1048200049C0A091B820B091B920CD010296209145
:1048300004203091052082179307E0F584E090E092
:104840008093A5209093A6201AC0029799F1A09179
:10485000B820B091B920CD01039620910420309169
:1048600005208217930730F502978093B820909324
:10487000B92081818C93A091B820B091B920CD014D
:1048800001968093B8209093B92082818C93A09157
:10489000B820B091B920CD0101968093B8209093B3
:1048A000B92083818C938091B8209091B92085564E
:1048B0009143B6DE1092A5201092A6200895209173
:1048C000B7202223B9F11092B7202091A520309172
:1048D000A6202230310551F1A091B820B091B92025
:1048E0009D012E5F3F4F40910420509105202417D9
:1048F0003507E0F4FC01CD0101968093B820909338
:10490000B92081818C93A091B820B091B920CD01BC
:1049100001968093B8209093B92082818C938091E6
:10492000B8209091B920855691437ADE1092A52047
:104930001092A62008952091B720222349F11092C9
:10494000B7202091A5203091A62022303105E1F03A
:10495000A091B820B091B9209D012F5F3F4F4091A9
:104960000420509105202417350770F4FC01209392
:10497000B8203093B92081818C938091B820909198
:10498000B920855691434CDE1092A5201092A620A6
:104990000895EDEBF0E210821182128213820895E5
:1049A0008091BB209091BC2008958093BB20909370
:1049B000BC200895DC011C968C911C97E1ECF0E280
:1049C00084878D919C9111978083918312968D910C
:1049D0009C9113978283938314968D919C91159744
:1049E0008483958316968D919C91179786839783E0
:1049F00018968D919C911997808791871A968D9121
:104A00009C911B9782879387089581EC90E208958B
:104A10001F93CF93DF93182FEB018091CD20882334
:104A200019F06ED7982F01C090E0E12FF0E0EE0F63
:104A3000FF1FEF53FF4D0190F081E02DED30F105A8
:104A400008F03BC18827E85FFE4F8F4F0C948248E7
:104A5000C130D10549F468E0610F292F220F920F70
:104A6000990F690F4FE722C1CD2B09F026C1892F7D
:104A7000880F980F990F68E0610F690F40E016C129
:104A8000C130D10509F019C1012E01C0CC0F0A9423
:104A9000EAF7E92FF0E0E354FF4D80818C27808313
:104AA000C82311F440E001C04FE7892F880F980F09
:104AB000990F68E0610F690FF9C0C130D10551F459
:104AC00068E0610F292F220F920F990F690F2FE7CE
:104AD00041E00CC0CD2B09F0F0C0892F880F980F52
:104AE000990F68E0610F690F20E040E08091562F38
:104AF000DF91CF911F910C94F036C130D10509F0B0
:104B0000DCC0012E01C0CC0F0A94EAF7E92FF0E0D7
:104B1000E354FF4D80818C278083C82311F420E06B
:104B200001C02FE741E0C11101C040E0692F660FCD
:104B3000960F990F68E0610F690FD8CFC130D1058A
:104B400039F482E090E08093BB209093BC20B5C004
:104B5000CD2B09F0B2C00E94C73281E090E0809373
:104B6000BB209093BC20A9C0C130D10589F783E058
:104B700090E08093BB209093BC209FC0219709F0C8
:104B80009CC0BED6833008F098C0BAD690E0039798
:104B900024F4B6D6C1E0C80F12C0C3E010C02197FC
:104BA00009F08BC0ADD6882309F487C0A9D690E060
:104BB000059724F4A5D6CFEFC80F01C0C0E0A0D65A
:104BC00040E0682F8091562F0E9418378C2F69C0C3
:104BD000219709F072C094D640E0682F8091562F3B
:104BE0000E9418374FE760E08091562F0E941837D7
:104BF00080E0DF91CF911F910C94AD2E219709F0A9
:104C00005CC07ED640E0682F8091562F0E941837F6
:104C10004FE761E08091562F0E94183781E0DF91C5
:104C2000CF911F910C94AD2E219709F046C068D604
:104C300040E0682F8091562F0E9418374FE762E0BE
:104C40008091562F0E94183782E0DF91CF911F91FB
:104C50000C94AD2E219789F553D640E0682F8091B2
:104C6000562F0E9418374FE763E08091562F0E941D
:104C7000183783E0DF91CF911F910C94AD2E2197CF
:104C8000E1F43ED640E0682F8091562F0E941837FD
:104C900037D6833020F080E00E94AD2E04C030D69D
:104CA0008F5F0E94AD2E2CD64FE7682F8091562F34
:104CB000DF91CF911F910C941837DF91CF911F9105
:104CC00008950F931F93CF93DF930E945E420E943B
:104CD000A14282719927429791F48091BA20827102
:104CE000823011F08031B9F584E090E08093BB20F0
:104CF0009093BC200E94A41B1092BA202CC0C0E04C
:104D0000D1E00E94A5420D2F10E080239123892B32
:104D100029F061E070E08C2F7BDE15C00E94A94273
:104D200080239123892B29F060E070E08C2F70DEC6
:104D30000AC00E94A14280239123892B21F062E0C6
:104D400070E08C2F65DEDD0FCF5FC630D1F60E949C
:104D5000A1428093BA20DF91CF911F910F910895C6
:104D60009FE0989FD0011124AC55BC4C969FF00158
:104D70001124EC55FC4C17969C911797878198133A
:104D80000CC018969C918085981307C0923029F02A
:104D9000943019F081E0953009F480E008950F9384
:104DA0001F93CF93DF93CDB7DEB72897CDBFDEBF7C
:104DB000262F8A01F89430E8839FC0011124809641
:104DC00048E050E0BE016F5F7F4FE8E02E9F800D0E
:104DD000911D11240E944D0578948981982F9F7010
:104DE000F8019283158282958F7083838A818F77F1
:104DF00084838B8181878C8182878D81982F9F7797
:104E00009387881F8827881F80838E81982F9370AF
:104E10009487982F969596959370918382958F702D
:104E200086878F81982F9770908782958F70868361
:104E30008885982F9F779783881F8827881F858765
:104E40002896CDBFDEBFDF91CF911F910F910895BE
:104E5000AF92BF92CF92DF92EF92FF920F931F9388
:104E6000CF93DF93C4EAD3E37E0110E0612F6F702C
:104E7000A701812F82958F7092DF1F5F8FE0E80E70
:104E8000F11C103499F798E6A92E97E3B92E23E286
:104E9000E22EF12C670100E010E0C6010E943C0503
:104EA000F501E00FF11F808388E0C80ED11C0F5F71
:104EB0001F4F0031110589F780E8E80EF11C80E1F1
:104EC000A80EB11C83E2E81682E0F80619F71092EA
:104ED0004438109245381092463810924738109254
:104EE00048381092493810924A3810924B38E09165
:104EF0003221F0E0A8EAB7E31D9287E3A83BB807A8
:104F0000D9F7EE0FFF1FEC5BF74C10821182E4E63D
:104F1000F2E324EE32E38CE998E14881DF01A05806
:104F2000BF4F442329F0808391838D939C9304C0C9
:104F3000108211821D921C922F9632962E173F07D7
:104F400061F788E08093312182E080933021DF9106
:104F5000CF911F910F91FF90EF90DF90CF90BF9076
:104F6000AF900895DF92EF92FF920F931F93CF932C
:104F7000DF93CDB7DEB7A897CDBFDEBF80913120DC
:104F800090913220A0913320B09134208DA39EA324
:104F9000AFA3B8A78091352090913620A0913720FB
:104FA000B091382089A39AA3ABA3BCA38E010F5F55
:104FB0001F4F80E2F80111928A95E9F7F80180E02D
:104FC00050E19FE74FE332E421E0508381839283F5
:104FD000938344833583268387838F5F3896843019
:104FE000A1F780E07E01F1E2EF0EF11CDD24D39405
:104FF000D80E8695869590E0E5E2F0E0EC0FFD1F77
:10500000E80FF91F2081F701E80FF91F80812B833A
:105010008C832B878C872B8B8C8B2B8F8C8FF8948E
:10502000C8010E94B3058D2D0E94C5057894F80132
:1050300081818C5F818387818C5F87833896EE15B1
:10504000FF05B1F78D2D803189F6A896CDBFDEBF63
:10505000DF91CF911F910F91FF90EF90DF90089516
:105060008F929F92AF92BF92CF92DF92EF92FF9278
:105070007B01682F70E080E090E00E94E84420917E
:1050800062203091632040916420509165200E94FD
:10509000FA454B015C01B70180E090E00E94E844D2
:1050A0009B01AC01C501B4010E944F4420915E20D8
:1050B00030915F2040916020509161200E94E74331
:1050C0006B017C0120E030E040E853E40E94F645AB
:1050D00018168CF020E030E040E85FE3C701B6012D
:1050E0000E944B4487FF0DC0C12CD12C90E8E92EC3
:1050F0009FE3F92E06C0C12CD12C80E8E82E83E472
:10510000F82EC701B6010E94BC44CB01FF90EF907E
:10511000DF90CF90BF90AF909F908F9008953FE029
:10512000439FF0011124EC55FC4C9081992369F0C8
:10513000E62FF0E0EE0FFF1FEC59FD4C408151814E
:1051400041565841413D510510F080E0089590E0EE
:10515000DC01A855B84C3C91230F2C934091312190
:10516000421734F482E399E18083918381E00895CA
:10517000022E000C330B552741950CF45095241743
:10518000350734F480E698E18083918381E00895C7
:105190002091322130E1239F800D911D1124FC01CB
:1051A000EC5DFD4C8FE3808381E008959FE0499F93
:1051B000F0011124EC55FC4C9085923081F0945014
:1051C000923068F070E0660F771FFB01EC59FD4CE0
:1051D00040815181FA013197EB39F14310F480E0BD
:1051E0000895E82FF0E0443651051CF412161CF027
:1051F00008C027FF06C0DF01A855B84C8C91280FC6
:105200002C93E855F84C20818091302182176CF462
:105210004436510554F4DB01AC59BD4C84E690E0B2
:105220008D939C93108281E00895022E000C330B25
:10523000992781950CF49095281739076CF4493318
:10524000514354F0DB01AC59BD4C88E391E38D939D
:105250009C93108281E0089581E00895BF92CF92DF
:10526000DF92EF92FF920F931F93CF93DF93C82F9C
:105270000E9425428C2F8295807FDCE2D80F3CE390
:10528000B32EB80EEE24E394F12C0C2F10E0000F97
:10529000111FC8018C59984C6C01085C174C0E9476
:1052A00054428E219F21892BB1F02FE741E06D2FD1
:1052B0008091562F0E94F036F601808191818E21D7
:1052C0009F21892B31F5F801808191818E299F29B9
:1052D000808391831EC00E9459428E219F21892B79
:1052E000C1F020E040E06D2F8091562F0E94F036F3
:1052F000F601808191818E219F21892B51F4F80143
:1053000020813181C70180959095822393238083EA
:105310009183EE0CFF1CDF5FBD12C1CF8091CF20C7
:10532000EC2FF0E0EE0FFF1FE85CF74C21E030E0DF
:10533000082E02C0220F331F0A94E2F740815181E8
:105340002423352360E0232B61F00E94153C00E00C
:1053500021E030E040E06FE78091CF200E94423BA7
:105360000BC00E94153C00E021E030E040E060E02E
:105370008091CF200E94423B8091CF208F5F80316F
:1053800018F48093CF2002C01092CF20DF91CF91EC
:105390001F910F91FF90EF90DF90CF90BF900895F5
:1053A000AF92BF92CF92DF92EF92FF920F931F9333
:1053B000CF93DF93C82FD0E08FE08C9FF0018D9FBB
:1053C000F00D1124EC55FC4C222311F0068501C090
:1053D00006812FE02C9FC0012D9F900D11249C0170
:1053E0002C553C4C7901F9018085982F9D7F913097
:1053F00009F063C0162F462F6781802F0E9418374F
:10540000F7018585882309F46BC0A090552F1A15E4
:1054100008F466C0B12C60914E2F70E06A197B09C8
:10542000072E000C880B990B0E94EA4420E030E024
:105430004EEF52E40E944F449B01AC0160E070E0EB
:1054400080E89FE30E944F446B017C01612F70E074
:105450006A197B09072E000C880B990B0E94EA44FD
:105460009B01AC01C701B6010E94FA450E94BC44F1
:105470006B017C0180915A3890915B380E944A11EF
:10548000A6014038510510F04FE750E08FE08C9FA7
:10549000F0018D9FF00D1124EC55FC4C6781605C90
:1054A000802FDF91CF911F910F91FF90EF90DF90B0
:1054B000CF90BF90AF900C941837811111C0262F58
:1054C00041E0F7016781802FDF91CF911F910F910C
:1054D000FF90EF90DF90CF90BF90AF900C94F0369C
:1054E000DF91CF911F910F91FF90EF90DF90CF90C0
:1054F000BF90AF9008954423B9F0282F30E09FE08B
:10550000899FF0011124EC55FC4C8085833061F4B7
:10551000F901EE0FFF1FEC59FD4C80819181C2967D
:1055200064E670E00E943148862F0895282F229566
:105530002F70782F7F7030E0E72FF0E0611128C0E6
:10554000D901AA0FBB1FA45BB74C41E050E002C0D9
:10555000440F551F7A95E2F7409550956D917C91D7
:105560001197462357234D935C9364E0220F331F1A
:105570006A95E1F72859384CE20FF31F9FE0899FA5
:10558000D0011124AC55BC4C1A968C91808308959F
:105590009FEF960FD901AA0FBB1FA45BB74C9D3795
:1055A000D0F481E090E002C0880F991F7A95E2F76D
:1055B0004D915C911197842B952B8D939C93C901F0
:1055C00024E0880F991F2A95E1F78859984CE80F35
:1055D000F91F6083089541E050E002C0440F551F59
:1055E0007A95E2F76D917C911197462B572B4D934D
:1055F0005C9394E0220F331F9A95E1F72859384CB9
:10560000D901AE0FBF1F9FE0899FF0011124EC5517
:10561000FC4C81858C930895E82FE295EF70F0E0C3
:105620008F7090E0611103C020E030E002C02FE7EE
:1056300030E044E0EE0FFF1F4A95E1F7E80FF91F55
:10564000EE0FFF1FE854F84C208331830895982F04
:10565000882329F081E0913320F09F3711F080E01A
:1056600008950895982F813328F081E0913620F035
:105670009F3711F080E00895089570E020E1829F47
:10568000C0011124FC01EC51FE4CE60FF71F2081F4
:105690008C599C4CFC01E60FF71F90811216A4F464
:1056A000191694F4213310F02F3731F481E091333F
:1056B00050F09F3749F409C0213630F4915381E00E
:1056C000903318F001C0089580E00895CF92DF92E2
:1056D000EF92FF920F931F93CF93DF93909132211C
:1056E0008091CE20282F30E0F90140E1949FE00D19
:1056F000F11D1124EC5DFD4CC081182F40E1949FF9
:10570000100D1124F901E05EFE4D9081C917B9F02A
:105710009FE0199FF0011124EC55FC4C248530E0EA
:1057200041E09081911101C040E003856C2F0E94FF
:10573000423BE091CE20F0E0E05EFE4DC0838091E0
:10574000CE20282F30E090913221F90140E1949F42
:10575000E00DF11D1124E859F84CC081F901E05F1A
:10576000FE4D9081C91749F06C2F0E94153CE091C5
:10577000CE20F0E0E05FFE4DC08360913221D090FA
:10578000CE20ED2CF12C80E1689FE0011124FE0178
:10579000EC59FC4CEE0DFF1D0081002381F0C8592F
:1057A000D84CCE0DDF1D2881402F8D2D0E94623CEC
:1057B000E091CE20F0E0E050FF4D008333C0F701D0
:1057C000E050FF4D0081002369F1802F40DF8823E6
:1057D00049F0C859D84CCE0DDF1D68818D2D0E942F
:1057E000153C1AC0802F3EDF8823B1F09FE0199F3F
:1057F000F0011124EC55FC4C248530E041E080811F
:10580000811101C040E0CC5DDD4CCE0DDF1D038574
:1058100068818D2D0E94423BE091CE20F0E0E05067
:10582000FF4D1082D090CE20C09032216D2D8C2D56
:1058300024DF811152C0ED2CF12C40E1C49EE00127
:105840001124FE01EC51FE4CEE0DFF1D00810023E2
:1058500089F0C859D84CCE0DDF1D2881402F6C2D02
:105860008D2D0E94623CE091CE20F0E0E051FF4D92
:10587000008333C0F701E051FF4D0081002369F13F
:10588000802FE5DE882349F0C859D84CCE0DDF1DA6
:1058900068818D2D0E94153C1AC0802FE3DE88237D
:1058A000B1F08FE0189FF0011124EC55FC4C2485D9
:1058B00030E041E08081811101C040E0CC5DDD4CF1
:1058C000CE0DDF1D038568818D2D0E94423BE09146
:1058D000CE20F0E0E051FF4D10828091CE208F5F0E
:1058E000803118F48093CE2002C01092CE20DF9138
:1058F000CF911F910F91FF90EF90DF90CF9008957F
:10590000809132210895C29664E670E00E94314889
:10591000862F089597FD05C08D3921E3920724F461
:10592000089580E090E008958CE991E308959C014A
:105930002156384181E0213D310508F080E008958D
:105940009C012150310981E02B39314308F480E07A
:105950000895EF92FF921F93CF93DF93182FC1E02A
:10596000D0E0062E02C0CC0FDD1F0A94E2F780E1E2
:10597000189F600D1124E62EF12C8FE0689FF00136
:105980001124EC55FC4C8281863061F08FE08E9DB5
:10599000F0018F9DF00D1124EC55FC4C8281873075
:1059A000B1F408C00E944F428C239D23892B71F3D0
:1059B00081E00EC0E12FF0E0EE0FFF1FEC5BF74C33
:1059C00080819181C823D92381E0CD2B09F480E027
:1059D000DF91CF911F91FF90EF900895CF93C82F43
:1059E000C295C07FB6DF8111C05C8C2FCF91089526
:1059F000DF92EF92FF920F931F93CF93DF93CDB778
:105A0000DEB7A097CDBFDEBFF82ED62E8A01E6DF27
:105A10009FE0989FD0011124AC55BC4CF801019037
:105A20000D929A95E1F7ED2CE694E69420E8F29E2B
:105A3000C0011124809640E250E0BE016F5F7F4FAD
:105A400030E2E39E800D911D11240E944D058D2DA5
:105A50008370E1E0F0E0EC0FFD1F98E0899FE00D1E
:105A6000F11D1124D80112968C9187FD05C09081FB
:105A7000907F8F70892B8083D80113968C9187FD3E
:105A80000EC02081922F9F70282F30E021503109C5
:105A900044E0220F331F4A95E1F7292B2083D801D8
:105AA00014968C9187FF8183D80119968C9187FF7A
:105AB0008283D8011A968C9187FF8383D8019C91A9
:105AC00097FD04C0848190FB87F98483D8011B96DD
:105AD0008C9187FD04C094819078892B8483D801B0
